:10800000687B0020A5A40000C9450100E5450100EA
:108010000000000000000000000000000000000060
:108020000000000000000000000000000146010008
:1080300000000000000000001D460100F1440100A6
:10804000B5820000A1CB0100A5330100A1A400006E
:10805000A1A40000A1A40000A1A4000001AB0000A5
:10806000A1A40000F93D01005D4A0100953801001E
:10807000A53A0100453B0100A1A40000A1A4000015
:10808000A1A40000A1A40000A1A40000A1A40000DC
:10809000454701001D480100A1A40000A1A4000063
:1080A000A1A40000152D0100C52C0100A1A4000011
:1080B000992F0100A1A40000A1A4000010B5064C56
:1080C0002378002B07D1054B002B02D0044800E099
:1080D00000BF0123237010BD900B002000000000A2
:1080E00004BB0200084B10B5002B03D00749084819
:1080F00000E000BF07480368002B00D110BD064B0D
:10810000002BFBD09847F9E700000000940B0020FB
:1081100004BB020004BB020000000000024A137A04
:10812000013313727047C046AC0B0020F0B52F4DE1
:1081300097B0A8472E4C6368C01A0A2853D9A8479D
:10814000237A60600F2B4EDC2A4F3B68002B4AD10C
:108150000EAC2000284B9847002844D0274B984766
:10816000274B9847274D0100274B28009847274960
:10817000274E2800B047274B20789847224B010014
:1081800006A8984706A92800B04763782249002B23
:1081900000D122492800B047214B9847FA21227A82
:1081A000E37865790492E2791B020392A27989004F
:1081B0000292A078C0181B4B9847019023791A4A65
:1081C000009340212B00194C06A8A0470D4C06A98E
:1081D0000F4B20009847164B20009847012138602C
:1081E000144B2000984717B0F0BDC0464946010027
:1081F000AC0B002078220020F1D800001D81000087
:108200000D9100007C220020D5E20100EC5F02000D
:1082100025E10100F5980000F75F0200FE5F020013
:10822000D5D8000079CC0100066002005DE00100B5
:10823000E5E20100FD9F0000022210B5194B1A482B
:108240001969182491431961196901401961402184
:108250001869084318615868104358601869A043AA
:108260000400102020431861186902431A610F4B63
:108270005A691143012259610D4B191DCA67BFF399
:108280004F8FBFF36F8FC021C024FF2049005A5089
:10829000A4001959814308008021014319511A6033
:1082A00010BDC04600180040FFFEFFFF0008004060
:1082B00000E100E073B5194B9A6892072CD50222B1
:1082C000FA269968164D0A439A60B600154BAC69B8
:1082D0009847154B310098476B466A46A406A40E92
:1082E0007443611889B2197009125970AB696846F4
:1082F0001B059B0E9370AB69DB03DB0ED370AB6980
:108300009B02DB0E1371AB699B011B0F5371AB69B1
:108310009B0E9371054B984773BDC04600180040F3
:10832000002400403946010085CD010041B800001D
:1083300073B5C04C230028331B78022B04DC2300C8
:1083400029331B78022B43DDBB4B9847830700D1B1
:1083500003E23822631CDB7F1340082B38D1B74B74
:108360009847002801D1B64B1884238C5805000F7C
:10837000062800D9ECE114F069FC07004C003F012D
:108380008F01CB01D4012C00AE4B9847AE4B1B683C
:10839000C01A03281CD9AD4B5B88192B08DD0022BD
:1083A000AA4B5A80238CAA4A1A40A0239B00EAE0D9
:1083B000A84B002098470F23A54A0340208CDB01DF
:1083C0001040184378232084000A02349843E07751
:1083D00073BDA04B002098470F239D490340208C7C
:1083E000DB0108401843F023DB0020840022184002
:1083F000954B802801D11A7901321A711B79022B11
:10840000E6DD230003220833DA77238C0B40238434
:10841000DEE7A21CD37F5806000F062800D9E7E04C
:1084200014F000FC04257EBFD3D9AC0000208A4B99
:10843000984778220234E37F844D93431A00102337
:108440001343E377854C864A6B8880212000854E54
:10845000B04700212000844B98476B8801200133EE
:108460006B80824B98478248824B9847B0E7824B9B
:10847000002098470F237821A21C0340D07FDB0007
:1084800088431843D0777D4B00209847022803DDAE
:1084900000226E4B1A805A80A31CD87F4006000F22
:1084A0000B2800D994E714F0C7FB0C00110093FFD0
:1084B0000C000C000C000C0093FF93FF1500210032
:1084C000370000216E4B0800984781E700225C4B83
:1084D0001A877DE700225D4B0234DA80E37F783231
:1084E00093431A0008231343E37771E7574A5B4D20
:1084F000D388802101339BB2D3802800614A594E32
:10850000B04700212800584B984778220234E37F77
:1085100093431A001823E6E7544B02209847F4E7E8
:10852000524B002098470F237825A21C1840D37F78
:10853000C100AB430B43D377082800D948E714F0B8
:108540007BFB0900120047FF3F00180047FF47FF71
:1085500047FF240038220134E37F09209343E37767
:10856000494B984734E7002201211000474B9847B8
:108570002EE77821A21CD37F8B43D377238C344AF8
:108580001A40C0235B00134341E7238C304A1A4052
:10859000A0239B001343238480230334E27F5B42A8
:1085A000A1E73B4B98470F23782202340340E07F3A
:1085B000DB0090431843E0771040282800D007E7FD
:1085C000204B9847204B986002E77821A21CD37F6C
:1085D0008B43D377E6E61B4B98471B4B9B68C01A2F
:1085E000042800D8F4E678220234E37F93437BE743
:1085F00078218B43D377EBE6264B002098470F2357
:10860000134A0340208CDB0110401843F023DB00A9
:10861000208418408028E6D080235B00984200D157
:10862000D6E60A4A538801335380064B9847064BD7
:108630001860CDE63C4D00204992000045630100E2
:10864000C84D002049460100B80B002040230020FF
:108650007FF8FFFF6D67010001C30100A41C00202B
:10866000186002005DE00100FD9F0000BDC6010032
:10867000FFFF0000C995000021C30100CDC8010023
:1086800055EA00002A6002003D9200001DDD000056
:10869000B1C80100956B0100354B002098470F23AE
:1086A000344E1840238CC2013340134323840328E3
:1086B00000D88DE6304A938801339BB29380032B18
:1086C00008D900239380238C3340A026B6001E4394
:1086D00026847DE63822651CEB7F09209343EB77E7
:1086E000264B98477822A51CEB7F80219343EB779C
:1086F000238C234D1E4026840024224A230000940C
:108700002800214EB04721002800204B98478CE7D5
:10871000194B5B88012B00DD41E6238C154A134081
:1087200075E6230003220833DA77238C114A1340BD
:1087300047222384134000220134E377144B1A8428
:10874000144B98470D4B09209847134B98473FE629
:10875000220003210832D177E8E70E4B9847074BF8
:10876000092098477821A21CD37F8B43D377D4E785
:10877000896D01007FF8FFFF402300203D9200003B
:10878000A41C0020456002005DE00100FD9F000088
:10879000C84D0020354A010059920100F8B51C006F
:1087A0000F4B1500994213DCFF220E4F00261300D9
:1087B000BC46B7B2B94208DD875D01365F4063460B
:1087C000DB5D5340084AD25DF3E72B702270F8BDA1
:1087D000064B01210648984700232B702370F6E7CB
:1087E000FF0700005F6002005F6102005DA0000003
:1087F0005F620200024B22308000C1507047C046C9
:10880000C40B0020024B22308000C0587047C04685
:10881000C40B0020002310B5034CC15CE2180133E7
:108820009177142BF9D110BDC40B002010B50100B5
:108830000248034B4630984710BDC046C40B002089
:10884000D5E20100014846307047C046C40B002005
:10885000014832307047C046C40B002010B50100FB
:108860000248034B3230984710BDC046C40B00206D
:10887000D5E20100F7B5184B002118489847184C6D
:10888000BB212700260025006437683565363B008C
:10889000280001963200C900124EB047019B124ECB
:1088A0001A783B7812029B18C8221B04D200A350EE
:1088B000290032000D4C0020A04780203200290002
:1088C0000001A047002201212720094B98470021E1
:1088D0002720084B9847F7BD5DA000007662020094
:1088E000440C00209D870000DC050000299D00004D
:1088F0001DDD000055EA0000F8B501219448954BB4
:108900009847954C01212500FF35687C22000843DB
:108910006874DB204000255C683229432154E12142
:1089200020008900518013308C49FF3001802000E5
:1089300000231530FF300180180013809180D18012
:108940000133312B11D1002225001100683501328D
:10895000192A11D0AB181800363377300170017620
:10896000FF33A63001701970F1E7D1180D00ED3119
:10897000473528700870E3E72000794D7949B03019
:10898000A847200057307849FF30A8472000774992
:10899000E030A847200087307549FF30A847200005
:1089A0007449F830A84720009F307349FF30A8472A
:1089B0002000724F70303900A847200039009030F5
:1089C000A847200017303900FF30A8472000373073
:1089D0003900FF30A8472600F423322268365B00B6
:1089E000F25200220233F252F722654B5200B35288
:1089F0000232B3520232B3520232B352DC230121AB
:108A0000DC205B00E25CB73B0A43FF3B1A433A338E
:108A10009A43383B1A4340002254DD225200A25CA4
:108A2000B638FF3882430A431A4315308243A330D5
:108A3000FF3022549627DE22BF0152005738A7503C
:108A4000FF380432A05004329446A25C62380A43D4
:108A500082433A30824360461A432254E322520052
:108A60009446C238A25CFF388243013802431A435D
:108A70001630824360462254E42263385200A750E5
:108A8000FF380432A0500432A25C62380A438243A9
:108A90003A30824395301A43FF302254E922520083
:108AA0009446CE38A25CFF388243114319431433F5
:108AB00099436346E154210064220233E750D131E7
:108AC0000433E250FF314B78453A1A406023134398
:108AD0004B7082239B00E0182A49A84720002A4FA8
:108AE000DD303900FF30A8472000EB303900FF307F
:108AF000A8472000F9303900FF30A847CF230722CC
:108B00005B00F252F8321633F252204A0233F2522C
:108B1000DC221F4B5200B35296211E230232B35265
:108B200089000432B1523C21023AB1520432B352AC
:108B3000B333BF3AFF33FF3AF2520A2100239A1CA3
:108B4000122A27D0D333FF33F1521300F7E7C04680
:108B5000826202005DA00000440C0020FF0F0000B4
:108B6000D5E201009062020099620200A262020056
:108B7000AC620200B6620200C0620200CA62020079
:108B8000B80B0000D7620200DC6202000F0F000089
:108B900003100000F1210223684A49006832535251
:108BA000C9185352002316395352FB20183153521F
:108BB000FA21624A400068321352C9000230115251
:108BC00004301152FD21993849005352FF380431C5
:108BD00050520231594E5352594B5A49F018140011
:108BE000A847594B5949F018A847594B5949F0180B
:108BF000A847594B5949F018A847594B5949F018FB
:108C0000A84796229621584B5200E252890002331F
:108C1000E15278235549B52063525549C00063524B
:108C20005449554F6352B6235449DB00E152642343
:108C300023525348215253482352534821525348F8
:108C4000235253482152534902306352FA214900BA
:108C500021525148215251482152F439FF391C38D0
:108C600021524F48E0534F4FE1534F4FE0534F4F86
:108C70004F4827524F48963727524F48F53FFF3FFE
:108C800027524E482152BA21C9006352B923DB0052
:108C9000E2524B4BE2524B4BE252C8224A4BD200BB
:108CA000E2524A4A0233E252494B613AFF3AE252F7
:108CB000B422484BE252484B4849F018A847484B69
:108CC0004849F018A847484B4849F018A847484B6E
:108CD0004849F018A847484B4849F018A847484B5E
:108CE0004849F018A847484B4849F018A847484B4E
:108CF0004849F018A847484B4849F018A847484B3E
:108D00004849F018A8471F4B4749F018A847224B7D
:108D10004649F018A847274B4549F018A847454B46
:108D20004549F018A847454B4549F018A847454B19
:108D30004549F018A847454B9847F8BD440C00201A
:108D4000AE040000E7620200BE040000F062020010
:108D5000CE040000F9620200DE0400000463020099
:108D6000EE04000011630200960400009A04000063
:108D70009C0400009E040000A2050000DF02000029
:108D8000B2050000AA050000B4050000AC05000013
:108D9000B6050000AE050000BA050000BC050000E5
:108DA000FD070000A4050000A6050000EE0200007B
:108DB000C4050000CA050000CC050000C60500007F
:108DC000CE050000D4050000BE05000048090000E3
:108DD000D2050000C20500000A0500001A63020067
:108DE0001A050000296302002A050000386302000A
:108DF0003A050000476302004A050000566302007E
:108E00005A050000656302006A05000074630200F1
:108E10007A050000846302008A0500009463020062
:108E20009A050000A8630200B8630200C86302004C
:108E3000A4630200DA050000B4630200EA05000042
:108E4000C4630200FA050000D463020075880000C4
:108E5000054B002805D0DB225200985CC007C00FEC
:108E60007047FF33587CF9E7440C002000230128A9
:108E70000ADC084B0133DA7F074B6833D20705D58C
:108E8000543040001B185B881800704740001B18C6
:108E90009B88F9E73C4D0020440C0020002301286A
:108EA0000FDC0C4B40010133DA7F01231A400A4BDF
:108EB00009D01A00002156321B18FF3217331170E7
:108EC000FF331800704719001B187031CA777033D0
:108ED000F7E7C0463C4D0020440C0020DD22024B49
:108EE00052006833985A7047440C0020DE22024B2F
:108EF00052006833985A7047440C0020DF22024B1E
:108F000052006833985A7047440C0020E022024B0C
:108F100052006833985A7047440C0020014B683364
:108F200018807047440C0020014B68331888704744
:108F3000440C0020014B863318887047C40B002076
:108F4000DC22034B52006833985A0005000D70472D
:108F5000440C0020014B683358887047440C0020B3
:108F6000014868307047C046440C002000487047F4
:108F7000DC05000000487047460400000C23434312
:108F80000348C018B930FF300078C007C00F7047E1
:108F9000440C00200C2343430348C018B930FF3071
:108FA00000788006000F7047440C00200C234343D8
:108FB0000348C018B930FF3000788007C00F7047F1
:108FC000440C00200C2343430348C018B930FF3041
:108FD00080784007C00F7047440C00200C234343A7
:108FE0000348C018B930FF308078C006800F704742
:108FF000440C00200C2343430248C018BD30FF300E
:1090000000687047440C002002000020012A08DCA0
:10901000E821044B49006833585A01239340184013
:1090200010417047440C00200023022805DC0E3359
:109030005843034B1B18DD33FF3318007047C046FD
:10904000440C002002000020022A08D8CF21044B43
:1090500049006833585A0123934018401041704723
:10906000440C002002000020072A08D8DA21044B13
:1090700049006833585A0123934018401041704703
:10908000440C002070B5160003281BDC134C044070
:1090900004D50223013C5B421C430134C20F121869
:1090A00052100F4DD2B260010E4B6835002A0AD023
:1090B000AE302818984730000B4B98475434640062
:1090C0002D19688070BD0830281898473000064B6D
:1090D000984764002C19A080F4E7C0460100008086
:1090E000440C0020D5E20100ADDE0100A420704751
:1090F00000487047C40B00200C2343430248C018AB
:10910000C130FF3000687047440C002082230248C1
:109110009B00C0187047C046440C0020014B988B40
:109120007047C046C40B0020002310B50548064C0C
:109130005A1C062A05D019006431615CC154130021
:10914000F6E710BDA41C0020C40B0020002310B5BE
:109150000548064C5A1C092A05D019005A31615C91
:10916000C1541300F6E710BDA41C0020C40B00205E
:1091700037B5050000246B46285DD91D084B98477C
:109180002200084B6432002808D0295D995401342C
:109190000A2CF0D100226D331A7037BD9854F6E7CF
:1091A0000FC90100C40B002037B5050000246B4631
:1091B000285DD91D084B98472200084B5A320028D9
:1091C00008D0295D995401340A2CF0D10022633370
:1091D0001A7037BD9854F6E70FC90100C40B002080
:1091E000024B6E330020185E7047C046C40B00204F
:1091F000014B6E3318807047C40B0020014B588B15
:109200007047C046C40B0020014B188B7047C04606
:10921000C40B0020054B002805D0DB225200985CCF
:109220008007C00F7047FF33587CF9E7440C0020DB
:10923000014B703318787047C40B0020014B70331A
:1092400018807047C40B0020DB22074B5200985C4B
:10925000FF335B7CC007C00FDB074000DB0FC0188B
:10926000002800D103307047440C00200B0110B5DA
:1092700003492022C918034BC918034B984710BD56
:10928000440C0020AE040000DDE3010092239B00AB
:10929000C2180348520068308018C0887047C04622
:1092A000440C0020044A13005733FF33002801D137
:1092B0001300B03318007047440C0020044A130018
:1092C0008733FF33002801D11300E03318007047C3
:1092D000440C0020044A13009F33FF33002801D1BF
:1092E0001300F83318007047440C002002000020DF
:1092F000302A0BDC06235A43054B9B18E2229200CE
:109300009B18DB799A0601D4DB06D80F7047C0465C
:10931000440C002002000020302A0BDC06235A43B4
:10932000054B9B18E22292009B18DB79DA0601D4E8
:109330009B06D80F7047C046440C0020044B68338E
:109340001888002802D1034B863318887047C0461E
:10935000440C0020C40B00200023302806DC063318
:1093600043430348C018034BC018038818B2704722
:10937000440C00209203000010B503003F280FDCCE
:10938000114A883311009B006831C918CC880F49F5
:1093900000208C4203D0D3186833D879800910BDDF
:1093A00000206F2BFBDC0621403B4B43064A084C58
:1093B000D11809190C8805498C42F0D0D218E22343
:1093C0009B00D218D079E9E7440C0020FFFF000091
:1093D0008E03000000223F2812DC0200094B883275
:1093E000683392009A189279FF2A09D1F93A4038E5
:1093F0005043054A1B189B181A78FF2A00D10022F7
:1094000010007047440C0020260300000300403B7E
:10941000DAB200202F2A09D8063043430448C01886
:10942000E2239B00C018C0790007000F7047C046B8
:10943000440C002003003F2806DC0A4888336830CB
:109440009B00C3181889704700206F2BFBDCE422B7
:10945000403B06305843034B92001B189B1818885A
:10946000F1E7C046440C002070B5072816D1124B16
:10947000124A68339C5A124D002C0DD1063A985A64
:10948000104A03219A5A80180F4A9B5AC0180F4B52
:1094900098476864200070BD6C64FBE7032803D123
:1094A000074B5C6CA4B2F5E7B6239B00C018024BD7
:1094B00040006833C45AEDE7440C0020B6050000B4
:1094C00044120020B2050000B40500008DCD01005B
:1094D000024B034A6833985A7047C046440C002038
:1094E000BE050000B822024BD2006833985A70477C
:1094F000440C0020024B034A6833985A7047C04618
:10950000440C0020D2050000024B034A6833985AED
:109510007047C046440C0020C2050000044B68336D
:10952000002802D0034A985A7047034AFBE7C04616
:10953000440C0020CA050000C4050000BA22024BFA
:10954000D2006833985A7047440C0020024B034AFB
:109550006833985A7047C046440C0020D405000078
:10956000044B6833002802D0034A985A7047034AD4
:10957000FBE7C046440C0020CC050000C6050000F7
:10958000B922024BD2006833985A7047440C00202D
:10959000024B034A6833985A7047C046440C002077
:1095A000CE0500000C23434306483C22C0180F237D
:1095B000B930FF300B4001789B0091431943017093
:1095C0007047C046440C0020014B8633188070471A
:1095D000C40B002070B5144B144C154EE0181549FF
:1095E000B047154B1549E018B047154B1549E01821
:1095F000B047154B1549E018B047154B1549E01811
:10960000B04725009622144B68355200EA52921852
:109610000233EA527823114AAB52114AAB52114A33
:10962000AB52114B984770BDAE040000440C0020B3
:10963000D5E20100E7620200BE040000F062020011
:10964000CE040000E0630200DE04000004630200B8
:10965000EE04000011630200960400009A0400006A
:109660009C0400009E0400007588000070B5002274
:109670000A2401250B490C4813004A331B01CB185F
:1096800068331E78F60709D51B88DB051B0E292BCE
:1096900004DC6343C3185E782E435E700132102AE7
:1096A000EAD170BD440C002048230020F0B502210F
:1096B00089B02720674B98470324674B9847674F2B
:1096C000674A3E0068363100664B00209847BB2150
:1096D000654B664AC900664D3000A847634B654D2F
:1096E0001A78614B12021B7800219B18C822D20005
:1096F000BA581B040792934204D15F48A84700223E
:1097000011002AE05D48A84780203100544A554B9B
:1097100000019847BB21544B544AC9003000544EB5
:10972000B047524B00211A784F4B12021B789B18FE
:10973000C822D200BA581B04934204D15048A8470B
:10974000504B9847DBE7013C4F48E4B2A847002C58
:10975000B3D14E4B9847220001214D4B272098470B
:109760001E234C4C012263832C3323832633A38393
:1097700023000025863352421A80B622B721464B79
:10978000C9005B19D2009A185B18128818886421E6
:109790005043424B98476E009836A6190235306008
:1097A000062DEAD13E4D3F493F4B28009847002304
:1097B0001900E85CE21810711000013332300170BA
:1097C00001759177142BF4D1220094321268230092
:1097D00002922200903212688C34019222688833FF
:1097E00000921B68314A8021314C2800A04701219A
:1097F0002800304B984700240C233A00634368321A
:10980000D21811005931FF310968FB18B93304919E
:10981000FF33997855324907C90F03919978FF3280
:10982000C906890F02911268802101921B78224A91
:10983000DB07DB0F0093280023001D4EB0470134E7
:10984000002128001B4B9847032CD5D11B4B984770
:1098500009B0F0BD55EA0000699E0000440C0020EC
:10986000DC050000C59D0000A80C0020A90C00200C
:109870009D8700005DA00000EA6302000264020010
:1098800022640200758800003B640200F988000031
:109890001DDD0000C40B0020AC0C00208DCD0100AC
:1098A000A41C00205C640200D5E201006864020090
:1098B0005DE00100FD9F0000896402006D960000DC
:1098C000002310B50A491A004A3212018A18683278
:1098D0001478E40706D51288D205120E824201D10F
:1098E00018B210BD0133102BEDD101204042F8E732
:1098F000440C002003010248C018024BC0187047F6
:10990000440C00200A050000D223024AFF33D05C39
:1099100040097047440C002006224243E22010B563
:10992000074B800099180918C97901208C0605D5C4
:10993000C90603D59B18034A9B18188810BDC0465A
:10994000440C0020920300000C234343054810B54B
:10995000C0180123B930FF30027813430370024B63
:10996000984710BD440C0020758800008223802297
:10997000DB05D2005A6198331A607047054B1A0014
:10998000197EC907FCD59862137E9B07FCD5906AA7
:10999000C0B270470004004270B505000C00002CF6
:1099A00007D00020034B9847013C2870A4B2013532
:1099B000F5E770BD7D99000070B505000C00002C26
:1099C00006D02878034B013C98470135A4B2F6E74E
:1099D00070BDC0467D990000064B10B51870080C8C
:1099E0005870080A9870D9701800111D024B9847DA
:1099F00010BDC0468C120020B999000010B5064B6E
:109A00009847064CD720A0470020A04780228223F9
:109A1000D200DB059A6110BD6D9900007D990000B0
:109A200010B500240A4B9847030603D40134A4B2AE
:109A3000292C06D100222723E00FA3425041C0B2B7
:109A400010BD0022034B5A635A6B012AFCD9E9E787
:109A5000FD990000C84D0020F0B50A24FF258BB009
:109A60006B1EDBB2FD2B60D9002C5FD0314B9847C9
:109A7000013CE4B2061E4DD02F4B9847431EDBB28B
:109A800005000890FD2BEBD800213D2608002B4A4D
:109A90002E40538905919C46938909960793137A22
:109AA0000693274B274EB3420FD01E783700099EEE
:109AB000B74208D159888C469988079199790691BF
:109AC0000121080005910833ECE7059E1B4B002E91
:109AD00001D066465E81002802D06846808B98815E
:109AE000002902D06946097E19723F2008995389DE
:109AF000014003940291117A134E019192898021C1
:109B000000923000114A124FB84700213000114B2B
:109B10009847A5E7104B012110489847104B114A70
:109B20005E63596B9142FCD99AE7012420000BB087
:109B3000F0BDC046219A0000FD9900008C12002063
:109B4000B064020010650200A41C00201065020031
:109B50005DE00100FD9F00005DA000003165020096
:109B6000C84D0020E7030000F8B51F000E4B0500AC
:109B70000C0016009847002814D00C4B9847290079
:109B80000B4B04221B7AD22099400A4B2143984761
:109B90003000094B39009847802282230120D200EF
:109BA000DB059A61F8BDC046219A00006D9900005E
:109BB0008C120020D99900009999000070B50C4BC7
:109BC00006000C0015009847002810D0094B984754
:109BD000002231008420084B98472000074B2900C1
:109BE0009847802282230120D200DB059A6170BD54
:109BF000219A00006D990000D9990000B9990000E0
:109C000010B50B4B0400984700280FD0094B98471C
:109C10002100094B00221B7A83209940074B98476B
:109C2000802282230120D200DB059A6110BDC0464C
:109C3000219A00006D9900008C120020D999000033
:109C400010B50B4B0400984700280FD0094B9847DC
:109C50002100094B00221B7A81209940074B98472D
:109C6000802282230120D200DB059A6110BDC0460C
:109C7000219A00006D9900008C120020D9990000F3
:109C800037B5134CA047002820D0124B9847C72364
:109C900001A80370333B4370143B83701A33C370C5
:109CA00004210D4B984780228223FA25D200DB0540
:109CB0009A61AD00A047002807D101210748084B51
:109CC00098472800074B9847F4E701203EBDC0465F
:109CD000219A00006D990000B999000046650200C4
:109CE0005DA00000F1CA010010B50B4B04009847BD
:109CF00000280FD0094B98472100094B00221B7AFE
:109D000053209940074B9847802282230120D2009C
:109D1000DB059A6110BDC046219A00006D990000D4
:109D20008C120020D9990000F0B5204B85B05D89D8
:109D300002911F4B29000400170098472900019049
:109D40001C4B2000984701250E00002F02D0002D4B
:109D500003D10025280005B0F0BD144B5C89A41B7D
:109D6000BC4200D93C006B469B8803931800124B01
:109D70009847051EEDD0A2B2B0B202990F4B98479A
:109D80000540EDB2002DE4D00D4B03989847074BEA
:109D9000054059893019074B9847019B0E00013344
:109DA0000193029B3F1B1B190293CEE78C120020EC
:109DB00079CC010085CD0100E99C0000BD9B00002D
:109DC000019C0000F7B51A4B01915D89194B2900E0
:109DD00004001600984783B2009329002000164B18
:109DE000984701278DB2002E20D0002F1ED0104B97
:109DF0005C89641BB44200D93400A3B22900019AE3
:109E00000E4F0098B847A3B2ED18094B07005989C7
:109E1000A8B2094B98470098A4B2013083B20093CE
:109E2000019B8DB21B190193361BDCE73800FEBD88
:109E30008C12002079CC010085CD0100699B0000C7
:109E400082238022DB05D2009A609A6180229200F0
:109E50009A609A61013AFF3A9A609A6180221201EF
:109E60005A605A617047000010B5034B9847034B86
:109E70009847034B984710BD419E0000CD33010029
:109E8000599A0000044B10B51B78012B01D0034BED
:109E90009847012010BDC0465C220020313B0100E4
:109EA00010B50F4B2A331B78032B05DD042B15D17E
:109EB0000C4B1B78012B11D0812280210A4BD20040
:109EC000C9009A585958914208D008495858002852
:109ED00004D101305850985C054B984710BDC046DE
:109EE0003C4D00205C2200202C490020040400008E
:109EF000859E000070B50A4C0D000A00094B010058
:109F00002000984780230022DB00E550012508331C
:109F1000E250054B2078E550044B9847280070BD6F
:109F20002C49002045DF010004040000313B010002
:109F3000F7B5184B07002A3318780C0000281FD0FB
:109F4000032806DD042823D1134B00201B78012BA6
:109F500016D08025114EED00715963188819AB4257
:109F60000FDD6B1A1A00019339000D4B9847019BC6
:109F70003000E41AF9182200094B98470120745167
:109F8000FEBD2200064B3900984773591C19F5E7AE
:109F90000020F5E73C4D00205C2200202C490020E9
:109FA00045DF010010B50F490F488B698A6989693F
:109FB0008089120589068CB0920E890EDB0302900F
:109FC000019100922021094ADB0E04A8084CA04709
:109FD000084B04A89847084B010004A898470CB008
:109FE00010BDC04600240040C84D00204F6502004F
:109FF0005DE00100E5E20100319F000010B50400C2
:10A00000002901D00E4B98470E4B200098470E4B6D
:10A01000010020009847002811D00C4B0C495A58D9
:10A02000002A0CD10B4A2A321278002A07D00122CA
:10A030005A508122D2009A58985C074B984710BD1D
:10A04000A59F0000E5E20100319F00002C4900209F
:10A05000040400003C4D0020859E000010B5040063
:10A06000002901D00E4B98470E4B200098470E4B0D
:10A07000C1B220009847002811D00C4B0C495A5807
:10A08000002A0CD10B4A2A321278002A07D001226A
:10A090005A508122D2009A58985C074B984710BDBD
:10A0A000A59F0000E5E20100319F00002C4900203F
:10A0B000040400003C4D0020859E0000202307B5CD
:10A0C00001AA93700023D3700F33034019000A399B
:10A0D00005290DD837335370030919000A390529AA
:10A0E00008D83733137000211000034B984707BD81
:10A0F0003033F0E73033F5E7FD9F0000F7B5234B31
:10A1000004002A331B780D001700002B16D0052BF6
:10A1100015D11F4E1F4FF359002BFCD18122D200C5
:10A12000B35021001C4B2A00300098478023DB00ED
:10A13000F55001233078F351184B9847F7BD184E6E
:10A14000B0470190B047019BC01A6328FAD9812219
:10A1500000210F4BD2009950083A99500D4A99505E
:10A16000FB0702D50F48104B98472600331B9D4232
:10A1700004DD30780D4B98470136F7E7BB07DDD596
:10A1800000210B48084B9847D8E7C0463C4D0020BB
:10A190002C4900200404000045DF0100859E0000DA
:10A1A00039460100666502005DA00000BDA0000008
:10A1B0006E65020070B50E4B9847812200240D4B4E
:10A1C000D2009C50083A9C500B4D0C4A9C502B00DE
:10A1D00001222A331A700A4B9847E862094D0A494E
:10A1E00028000A4B984728002100094B984770BD6A
:10A1F0002D3901002C4900203C4D002004040000B2
:10A2000049460100A41C002077650200D5E2010048
:10A21000FD9F0000F0B5844C91B02500FC35EB6F3C
:10A22000002B08D0814B9847C6235B00E358C01A27
:10A23000322800D9B1E07E4B2A331878002830D07C
:10A2400001387C4BC0B29847794C050023002A3373
:10A250001B78042B03D1784B1B78012B21D0774B33
:10A260009847E36AC01AA8421BD901217448754B6C
:10A270009847002226201100734B984700232A3468
:10A2800023706A4CA0470500A047401B6328FBD9F8
:10A29000812100226D4BC9005A5008395A506C492F
:10A2A0005A5011B0F0BD6B4908A86B4DA8476946DC
:10A2B0006A4B08A898476A4908A8684B984708A9B4
:10A2C0002000B047002800D1ABE0594E05223300F2
:10A2D0002A331A70594B98470121F0620022262038
:10A2E000594B98475F4B984781220026574BD20025
:10A2F0009E50083A9E50564A9E505B4B98475B4989
:10A300002000A8475A4B20009847BE235B00E0502E
:10A31000010003222000574BFC349847E66780E099
:10A32000414C55492000554B9847002879D0404D65
:10A3300002222B002A331A70404B98470022E86211
:10A3400001212620404B98474D4D02234D4A802144
:10A3500028004D4EB0474D4B01212800984700235F
:10A36000FC34E3675DE0304C314D2300FC33DA6FA1
:10A37000002A07D02A002A321078421E032A09D860
:10A38000434B98472A352878002800D058E7FC34FA
:10A39000E06750E70022DA67F4E70027EA6FA75486
:10A3A000FDB2062FDFD0052FBAD03A4B2900684600
:10A3B00098476B461B78002B33D01B4C2F4E042F35
:10A3C00000D170E769462000B047002829D0324B01
:10A3D00001351D70194B164E98470022F06201217D
:10A3E0002620194B9847264D7B1C2C4A802128009B
:10A3F000254EB04728000025244B01219847FC3406
:10A40000254BE5671B78032B0BDD164B9847812204
:10A410000E4BD2009D50083A9D500D4A9D50124B54
:10A4200098470137BCE7C0469C47002039460100E9
:10A430003C4D00208D9200005C2200204946010026
:10A44000026602005DA000001DDD00002C49002016
:10A4500004040000B3650200D5E2010025E101001B
:10A46000C86502008D3A01002D390100BD6502006A
:10A47000E5E20100FDA000009E4D002019E701006B
:10A48000A41C0020CB6502005DE00100FD9F0000E0
:10A490005DA001006D920000664D00208365020002
:10A4A000FEE700001048114970B5884204D000232F
:10A4B0000F4CCA18A24210D300210E4B0E4A9342F1
:10A4C0000FD3FF210D4B0E4A8B4393600D4B9847E2
:10A4D0000D4B1B780D4B9847FEE7C55804331560AC
:10A4E000E7E702C3EBE7C04604BB02000000002020
:10A4F000900B0020900B0020645B00200080000087
:10A5000000ED00E0C5DE0100000C0040FD1301007D
:10A510000121F0B5704A02209369704C0B4393619E
:10A520008223DB051A00802108320903D1678021CC
:10A53000C902D1678021F4328903916080214903E7
:10A5400091608021090391608021C902916080217E
:10A5500089029160802149029160604954270978FD
:10A56000A926014321705E495D4C0978FF370143FC
:10A57000217056215624FF31595CFF34014319558F
:10A58000AA214900595C013C01431955D95D760067
:10A590000143D955995D5224014399555221FF3108
:10A5A000595CFF3401431955A8214900595C013C0D
:10A5B00001431955494909788C46042164460C43E6
:10A5C000A4466546454C2570454C24780C43A4466A
:10A5D0006546434C25705624FF341C5D0C43A4464D
:10A5E00056246546FF341D55013C1C5D0C43A446B2
:10A5F000AA24654664001D55DC5D0C43DC555224DD
:10A600009F5DFF340F439F551E5D01270E431E556E
:10A61000013C1D5D80260D431D551C00802598348E
:10A620002D0325608025ED0225608024A403D461DC
:10A6300080246403D46180242403D4618024A40290
:10A64000D561D46180246402D4614C2436019660C3
:10A65000FF341D5D05431D551D5D0D431D55D66120
:10A6600080264A24B6009660FF341D5DBD431D550B
:10A6700040251F5D3D431D551D5D05431D551D5D59
:10A680000D431D55D6618026760496600F341D5DFE
:10A6900005431D551D5D0D431D5580255A24AD04F0
:10A6A000D661FF3495601E5D30431855185D014337
:10A6B000195580210903D561996059618021C9022A
:10A6C0009960596180235B01D36093618023DB0132
:10A6D000D3609361F0BDC04600080040D300004144
:10A6E000D2000041F8B50020104FB8470A22104BA5
:10A6F00001251B780F4C53430200501E8241185D08
:10A700000D4EA84310431855002328003361B84765
:10A710000A22074B5B7853430200501E8241185DAA
:10A72000A8431043185500237361F8BD0990000039
:10A73000686A0200482300203C4D0020F7B5744DA4
:10A74000A847744CA368C01A092800D8DFE0A847BE
:10A750000826A060704C636B334208D06F4B002119
:10A760006F489847636BB34363636E4B98471026FB
:10A77000636B334218D0694B00216B489847F02235
:10A78000636BD200B3436363238C13420CD0674ADC
:10A7900078211A40C0235B00134323841B0A8B4398
:10A7A000A21CD377624B98470426636B334208D0D0
:10A7B0005A4B00215F489847636BB34363635E4B1A
:10A7C0009847636B5B0507D5544B01215B4898475D
:10A7D000626B5B4B13406363636B1B0513D50121F5
:10A7E00058484E4B9847626B574B13406363574B27
:10A7F0009847574B9847574B9847574B9847574B55
:10A800009847574B9847636B5B0407D5434B01212F
:10A8100054489847626B544B13406363636B1B044B
:10A8200009D53E4B012151489847626B504B13406C
:10A830006363504B98478026636B334208D0374B95
:10A8400001214D489847636BB34363634B4B984773
:10A85000636B9B040FD501214948304B9847626BCD
:10A86000484B13406363484B984780224749920006
:10A870000020474B9847636B9B0509D5274B012167
:10A8800044489847626B444B13406363434B98477B
:10A89000636BDB043BD5FA27012139481F4B9847EE
:10A8A000626B3F4B3F4E13406363BF00B469A847E0
:10A8B0003D4B390098476B466A46A406A40E7C437C
:10A8C0000C191C70240A5C70B36968461B059B0E4A
:10A8D0009370B369DB03DB0ED370B3699B02DB0EAD
:10A8E0001371B3699B011B0F5371B3699B0E937175
:10A8F0002E4B98472E4B98470022012122202D4BAA
:10A9000098472D4B0021222098472C4B9847F7BDA4
:10A91000394601009C1200203C4D00205DA0000043
:10A9200036660200F98800004D6602007FF8FFFFDE
:10A93000599201006166020071CA01006866020056
:10A94000FFFBFFFF79660200FFF7FFFF819C00001D
:10A95000AD96000069CF0000DDC900005DD40000A5
:10A9600009BB000085660200FFBFFFFF946602007E
:10A97000FF7FFFFFD5950000A566020085DF000080
:10A98000B3660200FFDFFFFF8DA40100E416002084
:10A99000B1A40100D4660200FFFDFFFF65AB01001A
:10A9A000FFEFFFFF0024004085CD010041B800000B
:10A9B00005BA00001DDD000055EA00008902010013
:10A9C000F0B5402591B02A0000216846244B9847F5
:10A9D0006946244B01319A6980279206920ECA7704
:10A9E00069469A6902311205920ECA7769469A69D8
:10A9F0000331D203D20ECA779A6901A99202D20E0C
:10AA0000CA7769469A6905319201120FCA776A4678
:10AA10009B6906329B0ED3773F233E226B446A44E8
:10AA200068463E21104CA047104C7F000434E08F54
:10AA3000390004300E4E0002B0470323E08F390086
:10AA400001301840E08704300002B047E08F6A46CA
:10AA5000043000022900074B984711B0F0BDC046F2
:10AA6000C9DF0100002400409D8700003C4D00200C
:10AA7000A1300100D1300100802110B51B4A1369BB
:10AA80000B43136102221A4B18889043188001204F
:10AA90001C88204318801748586317489863802003
:10AAA0001C8840002043188080201C8880002043A0
:10AAB000188080201C88C0002043188080201C88BB
:10AAC00000012043042418801888A043C124188062
:10AAD0001888A400024380201A80084A00061359EF
:10AAE0001B021B0A03431351116010BD00080040F4
:10AAF00000600041B0190020F018002000E100E0E3
:10AB00001D4B5A6A920710D50F211C4802788A43C0
:10AB1000110001220A4302700222194908780243F7
:10AB200000200A70174A184988505A6A52070ED5F1
:10AB30000F21124802788A430D390A430270104AE5
:10AB40001078014300201170104A0F4988505B6A49
:10AB50001B0710D50F2209490B7893431A000323D2
:10AB600013430B700223064A11780B430021137024
:10AB7000074B054AD1507047006000413F600041DB
:10AB80004E600041481A000048230020701C00005D
:10AB9000981E000000231B68FFDE00008423F0B530
:10ABA000C5B05B0002AA00214A484B4CA0470023D5
:10ABB00083220093520002A9C95C00980133411816
:10ABC00000919342F7D1454B1C78002C63D1FF26AE
:10ABD00002ABF618337AF77921004148414D0193D1
:10ABE000A847019B3F02DF19009B21003E48BB4262
:10ABF0002AD13E48A84702AB1F785B783F02DF1995
:10AC00003B4B98472100874247D13A48A84702ABBF
:10AC10009F78DB783F02DF19374B9847874215D181
:10AC200021003648A847C0242A48354E8027B0471F
:10AC3000E4003F0120000134B047A4B2314B9847F3
:10AC4000BC42F7D100213048A84724E002AB1B7A70
:10AC500002AA0133DBB21372022B16D8832223001F
:10AC6000520002A9C95C013364189342F9D18422CD
:10AC7000230AF37102A952002448254B34729847E5
:10AC800000212448A847244B984721002348A8477F
:10AC900010481B4B984745B0F0BD1E48A84702AB73
:10ACA0001B7A02AA0133DBB21372022BF0D8832283
:10ACB0002300520002A9C95C013364189342F9D100
:10ACC0008422230AF371520002A9114B0F483472F7
:10ACD0009847D8E7FF050000699B00005C22002030
:10ACE000F46602005DA000008F6702001767020093
:10ACF000FD910000286702001D91000038670200E6
:10AD0000419C000079CB010045670200F05D0C001A
:10AD1000299D00005A67020095AB00006967020098
:10AD2000022370B500250370483383702C3B0371F8
:10AD3000523383714570C57045710D4B04009847BF
:10AD4000415D62190135D1710F2DF9D12100220029
:10AD500000231631107801321B189142FAD11A0AD9
:10AD6000E375A27501210348034B9847182070BD75
:10AD700051880000AE6702005DA00000F7B5020038
:10AD800004000500030000270B32197801337F18F7
:10AD90009342FAD1E37A227B1B02D318009323005B
:10ADA0000D33019380212B78324A49003248334ECB
:10ADB000B047334B002130489847019B01359D42F5
:10ADC000F0D100212F48304DA847009B9F424DD124
:10ADD0006378A2781B022D4E9B1833604A2B40D11A
:10ADE000E37822791B029B18B3606379A2791B0276
:10ADF0009B187360E379227A1B029B18F360637AD5
:10AE0000A27A1B029B18012121483361A847214CDB
:10AE1000A378002B22D001211F48A847E389B268FC
:10AE20009A4219D101211D48A847238972689A4284
:10AE300012D101211A48A847238AF2689A420BD1FD
:10AE4000638901211748A380A84702236370164B2A
:10AE500098476061F068FEBD0023A3700023A380C3
:10AE6000F8E701211148A8470020F4E70121104824
:10AE7000F9E7C046C1670200A41C00205DE00100A4
:10AE8000FD9F000000A102005DA00000A8120020AC
:10AE9000C76702005C220020D6670200E467020058
:10AEA000F767020007680200494601001C680200BB
:10AEB0003868020001220B004A2170B5027000229E
:10AEC0008170144942708C684968250A0471817147
:10AED0000C0A190AC17110494471C5700372C988FE
:10AEE0000C1281720100447204000B312578013488
:10AEF0005219A142FAD1110AC1728021074C027382
:10AF0000074D084A49002000A84701212000064BB0
:10AF1000984770BDA81200205C220020A41C0020CD
:10AF20005DE0010050680200FD9F000070B51D4DFE
:10AF3000CCB0AB682A7A1C0A6B6801A9180A2B7975
:10AF4000ED684A70013D2E0A4D7103258D71023D59
:10AF5000CD718A7200258322CB700B730D23E4B26E
:10AF6000C0B20C7088700E710D724C72C8725200B3
:10AF7000CB5401339342FBD1002383201A004000BD
:10AF80008C5C01321B198242FAD16A460432180ADB
:10AF9000FF32D07113728422034B5200034898474A
:10AFA0004CB070BDA8120020299D0000F05D0C007F
:10AFB000F0B50B000E0080210500534CD3B0534A6E
:10AFC00049002000524FB847524B002120009847BB
:10AFD00000222B000392B21E591B8A4205D9197810
:10AFE0000398013341180391F6E7AB5CAA19013AC3
:10AFF00012781B02D318039A04939A4200D06EE091
:10B000000B2E09D12B78042B06D143480121434B49
:10B010009847032053B0F0BD8021E8792B7A0002D5
:10B02000EC7A1B18287B240204190593490023009D
:10B030003B4A3548364FB84701213348354B98478E
:10B04000002C0BD101213748344B98470598364BDB
:10B050000130D860354B98470220DBE780235B0046
:10B060009C423CD82900122007AE230A337104AB5E
:10B07000C0180D312E4B22007471984780235B005D
:10B080009C4205D0A01D1A1B30180021294B98475F
:10B09000254B9A685B68110A7270F3701A0A0023D4
:10B0A00031708321B2701A004900B05C01321B1864
:10B0B0008A42FAD10C2204A8FF3212188420190AFD
:10B0C0001372059B80005843C623D17184221B0351
:10B0D000C01852003100184B984701209AE701210F
:10B0E00016480E4B98478021074C049B144A009346
:10B0F0004900039B01962000054DA8472000002130
:10B10000044B9847002085E7A41C002061680200DA
:10B110005DE00100FD9F0000716802005DA000007D
:10B12000856802009F680200A81200202DAF000071
:10B1300045DF0100C9DF0100299D0000B36802005E
:10B14000CF6802004A22032310B582700F4A0370B1
:10B15000916800230C0A01715168D268C470817132
:10B160000C0A110AC171010002720200437044719D
:10B170000931147801321B199142FAD11A0A42722C
:10B18000837200210248034B984710BDA81200208B
:10B19000EE6802005DA0000010B50B4CA388002BE8
:10B1A00010D00A4B01210A4898470123A370094B8C
:10B1B0009A882281A28862811A89E2811A8ADB68D0
:10B1C000A281238210BDC0465C2200205DA0000049
:10B1D00005690200A8120020F0B5A04C85B00391CB
:10B1E00002930500607816000A9F0C2812D811F00F
:10B1F0002DFD0D003C008E00AE000101110011007C
:10B200001100110011000C011D012401012D07D0B6
:10B21000022D1BD02578002D0AD1012190481AE17A
:10B22000904B9847A369C01AFA235B00984201D853
:10B23000022508E002988C4B9847386065708B4B6C
:10B24000984760610325280005B0F0BD854B9847FD
:10B25000A369C01AFA239B009842E9D9824B02984D
:10B260009847012338606370E9E7012D21D0022D52
:10B27000DED10D2E29D103987D4B984785B2E5800C
:10B28000002D20D080212B007A4D7B4E2A69490069
:10B2900000923000794A7A4FB84730000121794B4B
:10B2A000984702236370002377482B75774B9847A4
:10B2B000C8E7C623764A5B00D7586A4B9847C71B36
:10B2C000FA2FD6D8B4E72570BDE70B2E05D1039B26
:10B2D0001B78042B01D16370AAE7664E0F23022D61
:10B2E00000D17823B361614B98476369C01AB36991
:10B2F00098429DD9002501216648674E2570B047C8
:10B3000001216648B047664B984765709BE7594AEC
:10B31000137D0133DBB21375052B0BD90025604B70
:10B32000984701215F485C4EB04701215E48257077
:10B33000B047EAE70325E288A18802985B4B98476B
:10B340004A4B657098470D2360613B607BE7022D97
:10B3500009D0C6234E4A5B00D758424B9847C71BBB
:10B36000FA2F00D864E7002E0DD1424E012D3CD0BB
:10B37000022D3CD03D4B98476369C01AB36998428F
:10B3800000D855E72FE0042332009A430B2A03D05C
:10B390001023FF339E421BD131000398444B984742
:10B3A0000225032800D94EE711F03CFC02050E10DF
:10B3B0000223637046E7022300226370A3880133EF
:10B3C000A3802C4B1A753DE70423F2E70B23F0E72B
:10B3D000294D33008021374A2800294EB0470121EA
:10B3E0002800284B984702258FE7B561C2E70F2355
:10B3F000B361BFE7304B029898470B233B60013B9A
:10B4000063701A4B9847606112E7184B984763695D
:10B41000C01A032800D80BE7002301216370A37032
:10B42000237026481C4B984701250CE7224B0298B5
:10B4300098470B233B600133E2E70C4B9847636965
:10B44000C01A032800D8F3E6064B984700250121CF
:10B45000A0611A482570104B9847F4E65C22002042
:10B46000C66902003946010021AD000049460100CD
:10B470007DAD0000A8120020A41C00201769020066
:10B480005DE00100FD9F0000FF050000419C000001
:10B490009C470020316902005DA000004269020063
:10B4A00099B10000686902008C690200B5AE000025
:10B4B000B1AF00009D69020045B100005369020070
:10B4C0000022024B1A705A707047C0465C2200205E
:10B4D000F0B53E4B85B01878002803D0012804D081
:10B4E00002281FD0012005B0F0BD394C00232200F6
:10B4F000039303AB0093FC322100364D2300D26F3F
:10B50000A84703990500002902D02000324B984734
:10B51000012D53D0281EE6D0032DE3D10023FC34A7
:10B52000E367DFE778222D4B0233DB7F1340082BE4
:10B5300038D10023264C03938133FF33E358002B8B
:10B540000AD08021264D4900264A2800264EB047C1
:10B5500001212800254B9847C2277F00E659002E7D
:10B5600020D1C02203AB009352002300A258194DF2
:10B5700021000220A847C022039B52000500E3518E
:10B58000A650002B0AD08021154C4900184A2000F3
:10B59000154EB04701212000144B9847012D0DD0C6
:10B5A000032D0ED0134B9847084C6369C01A3C28F2
:10B5B00098D9114B98470023237093E700231B6809
:10B5C000FFDE0022024BFC33DA67EBE75C2200204F
:10B5D0009C470020D9B10000F59E00003C4D0020A2
:10B5E000A41C0020D76902005DE00100FD9F00005F
:10B5F000F96902004946010099B100008222A020A9
:10B60000F8B50123D2054000115C98251943115467
:10B610004220FF30115C6D0019431154C018115CB9
:10B620000827194311543248324E017819430170EA
:10B63000314801781943017030480178194301708D
:10B640002F480178194301700F21505D884318433A
:10B6500050551020545D0C40044354553225FF359D
:10B66000545D8C431C435455264C22788A431A431C
:10B67000227022780A4002432270234A14788C43B5
:10B6800023431370137819400023084310701F4A96
:10B6900033617361B3611E4CB3501E4B1E49E218F7
:10B6A000002313601D4A1E4DA21811601D4AA218E6
:10B6B0001360A8476062A847E060A8472063A847D6
:10B6C000A061A8472060A8470C2204217A43164BAA
:10B6D00001C49B18A933FF331A7901370A431A7141
:10B6E0000F2FDAD1114B9847114BF050F8BDC046DF
:10B6F00044000041A41D00204500004146000041D7
:10B700004700004132000041330000419C0400002A
:10B710002047002090FCFFFFFFFF0000ACFCFFFF74
:10B7200049460100E4FCFFFF4823002039460100A0
:10B73000AC040000032903DC092806D8002004E03B
:10B740009023FF3383429B4118407047F7B508258B
:10B750000C26340082216C432C4AAB0089015B1813
:10B76000D0582B492B4B141998472B4B9847002343
:10B77000A134FF3401356060A3600F2DE9D1274C5F
:10B78000274EA56A2800B0472168264B9847264BCC
:10B790000135E3181E49071CA56218681D4B984720
:10B7A0001D4B9847B047391C204B9847071C280071
:10B7B000B047184B011C381C98471D4F2060BD42F4
:10B7C00000D9A7621B4B0434A342DAD1A56A280032
:10B7D000B0472168134B9847174B0135E318019088
:10B7E000A5621868B0470199104B9847019028004E
:10B7F000B047084B011C019898472060BD4200D912
:10B80000A7620E4B0434A342E0D1F7BD48230020C9
:10B810000000C842B9D2010065CF0100C046002037
:10B8200001DB010049D5010028FDFFFF95CF010094
:10B8300010270000DC46002050FDFFFFE8460020F6
:10B840008022F0B58BB00790574B5200002157482B
:10B850009847002355481D000C35554F554C302D49
:10B8600005D0554A9B18F958A0472B00F3E7534BD6
:10B87000F958A04700231D000C35302D05D0504A43
:10B880009B18F958A0472B00F5E74E4BF958A047F5
:10B8900000231D000C35302D05D04B4A9B18F9585C
:10B8A000A0472B00F5E7494BF958A04700231D009E
:10B8B0000C35302D05D0464A9B18F958A0472B006F
:10B8C000F5E7444BF958A0470600434D434B9D42D2
:10B8D00022D02B008C3B08932B1D0993089B099ABF
:10B8E000934208D019683000324B9847089B0600F5
:10B8F00030330893F2E7300069682E00A047903E8D
:10B90000AE4204D031682B4B98473036F8E72968AF
:10B91000A0470C350600D9E7314D0020A8470100AB
:10B920003000A04706000120A84701003000A047D2
:10B930000026089004362C2E0ED02A4BBD19EB1889
:10B940001868294B984701000898A047274B089092
:10B95000ED1800232B60EDE78021079A4900244B66
:10B9600012489847079A079B9279DB780492079AC6
:10B97000079952791F4C0392079A200012791E4DA5
:10B980000292079A0978527808318A408021019200
:10B99000079A490092780092184AA847012120008E
:10B9A000174B98470BB0F0BDC9DF0100921A002079
:10B9B0004823002075C90100582200007C220000A5
:10B9C000542200007822000088220000AC220000EF
:10B9D00084220000A82200008C460020BC460020E3
:10B9E0006195000074230000C1DA01009C2300006F
:10B9F00055A70100A41C00205DE001000C6A0200B4
:10BA0000FD9F0000002373B52B4A2C492C4890421F
:10BA10000ED00B604B600B634B6313605360D360BD
:10BA200013619361D361536293620C313032EEE75C
:10BA3000FA26244A2449254D53502549B60053502F
:10BA400024495350244953502449535024495350B6
:10BA500024495350244953502449535024495350A6
:10BA60002449535024495350244BAC699847310022
:10BA7000234B98476B466A46A406A40E744361188C
:10BA800089B2197009125970AB6968461B059B0E83
:10BA90009370AB69DB03DB0ED370AB699B02DB0EEB
:10BAA0001371AB699B011B0F5371AB699B0E9371B3
:10BAB000144B984773BDC046FC4500209C450020B0
:10BAC0008C460020482300207822000000240040FB
:10BAD0007C220000A8220000AC22000044230000C9
:10BAE0004823000050230000542300005C23000082
:10BAF00060230000682300006C2300003946010029
:10BB000085CD010041B800008022F0B5484C85B0D9
:10BB1000520021000120474B9847002807D1464B8F
:10BB2000012146489847464B984705B0F0BD200094
:10BB3000444CA047444E454B0027F0504448A04792
:10BB4000444BF0504448A047444BF0504448A04771
:10BB5000444BF0503D00444832352D18043728003E
:10BB6000102F06D0A04703237B43404A9B18F05078
:10BB7000F0E7A0473E4BF050281D00252F00031D85
:10BB80000C370193302F06D0A0473A4BED18705177
:10BB900001983D00F2E7A0470027374B019DF05088
:10BBA0003B000C3301932B1D0293019B2800302B8B
:10BBB00006D0A047314B029DFF18F051019FEFE7DF
:10BBC000A0472F4B2F4FF0502B1D84350193039529
:10BBD000019B039A934226D03E000C33019D8C3E7C
:10BBE0000293029B28009D4204D0A0470435306098
:10BBF0003036F6E7A0473E00019B019D1C3378607C
:10BC00001035903E0293029B28009D4204D0A0472D
:10BC1000043530603036F6E7A047019B38602033AA
:10BC200001930C37D4E701211748034B98477CE771
:10BC3000921A0020B1A401005DA00000306A020049
:10BC400005BA00005FC90100482300205822000007
:10BC5000961A0020642200009A1A00207022000028
:10BC60009E1A00207C220000701A0020482200004A
:10BC70007822000088220000AC220000842200000C
:10BC8000A82200008C4600204D6A02000023190003
:10BC900030B5084D084C09485A1910180160084879
:10BCA0000433101804600748121811601C2BF2D1DD
:10BCB00030BDC04648230020FFFF00006820000080
:10BCC00084200000BC200000F7B50C00019003297F
:10BCD00000DC85E1C74B9847002800D19CE2043C7A
:10BCE000E3B20093C44B9847019BC44C984273D96C
:10BCF000C34B9847C34A009B9B189B00E050C04B26
:10BD00009847009BC04A9B189B00E3185D68B94B9D
:10BD1000451B984785422ED80025BC4B9847019B70
:10BD2000B64C834200D8FDE0B54B9847B84A009B1B
:10BD30009B189B00E050B24B9847009BB54A9B185C
:10BD40009B00E658AB4B861B9847864200D8ADE077
:10BD50000A26009F23377E43A35DDB0700D5A5E0BD
:10BD6000AD4B0733DB7F7F2B00D88FE001213800FC
:10BD7000AA4B98479AE00A27009E0D367743E55D67
:10BD8000ED07ED0FC8D1A44B0733DB7F7F2B04D920
:10BD900001213000A14B98470FE0009B981DA04B5C
:10BDA0009847002803D00823E25D1343E35500229F
:10BDB000012130009B4B9847012501218F4BBE3359
:10BDC0001A780A40A9D1944B13200733DB7F7F2BCD
:10BDD00059D8944B9847A0E7894B98478A4A009BCB
:10BDE0009B189B00E3185860854B9847009B854A39
:10BDF0009B189B00E5587F4B451B984785428BD984
:10BE00000A25009E0D367543635DDB0784D5824F9E
:10BE1000FB1DDB7F7F2B05D9002130007F4B98472E
:10BE200000250FE0009B981D7D4B9847002803D00C
:10BE30000823625D13436355002230001100794BE3
:10BE4000984701256D4B1A00823211780122114268
:10BE500000D062E719008C310978114200D05CE70C
:10BE6000190096310978114000D056E7BE331B788F
:10BE7000134200D151E70737FB7F7F2B02D80A001E
:10BE80001320A6E71320654B984746E7009BD81C74
:10BE9000634B9847002803D00823A25D1343A355A2
:10BEA0000022012138005F4B984701255E4B9847DF
:10BEB000019B524C834263D2514B98475B4A009B93
:10BEC0009B189B00E31858604D4B9847009B584ABD
:10BED0009B189B00E3185E68464B861B984786427A
:10BEE00000D81BE10A26009F10377E43A35DDB07C5
:10BEF00000D513E1484B0733DB7F7F2B00D909E1E5
:10BF00000098474B9847002803D00823A25D1343AD
:10BF1000A355002201213800424B98470120454B90
:10BF2000984779E1364B98473A4A009B9B189B000B
:10BF3000E050334B9847009B354A9B189B00E658CE
:10BF40002C4B861B98478642B0D90A26009F233780
:10BF50007E43A35DDB07A9D52F4B0733DB7F7F2B08
:10BF600001D9002103E7009BD81C2D4B98470028DE
:10BF700003D00823A25D1343A3550022110091E7CB
:10BF80001F4B98472A4A009B9B189B00E318586058
:10BF90001B4B9847009B254A9B189B00E3185E6843
:10BFA000144B861B9847864200D8B7E00A26009FAC
:10BFB00010377E43A35DDB0700D4AFE0164B073399
:10BFC000DB7F7F2B00D90BE10098154B98470028A9
:10BFD00003D00823A25D1343A355002211009AE762
:10BFE000032900D1FEE0144FB847002826D10025D0
:10BFF00058E0C04609950000D19400004823002075
:10C0000049460100F6080000F2080000E59400002F
:10C0100002090000FC0800003C4D002055EA000029
:10C02000659000001DDD0000F5940000FE08000092
:10C03000F808000099DF000081950000874B002080
:10C040009847019B864E874D834270D9B047864BF7
:10C05000E3189B00EB185860B047844BE3189B0033
:10C06000EB185E68861BB8478642C0D927000A26AF
:10C0700015377E43AB5DDB07B9D420007C4B09301C
:10C080009847002803D00823AA5D1343AB55794B8A
:10C090000733DB7F7F2B45D8002201213800764B08
:10C0A00098470125754B9847002837D06B4B0120E6
:10C0B0009847019B6A4F6B4E834265D9B847704BD6
:10C0C000E3189B00F3185860B84791231B01E3184D
:10C0D0009B00F3185F68694BC71B984787421DD9BF
:10C0E00027000A2319377B43F35CDB0716D42000B3
:10C0F0005F4B0C309847002806D00A2315345C4368
:10C10000325D023B134333555A4B0733DB7F7F2BA2
:10C1100000D8FEE6012138005A4B9847002D00D088
:10C12000FCE679E001213800564B98475FE7B047BD
:10C130004E4BE3189B00EB185860B0474A4BE3188E
:10C140009B00EB185E68861BB847864200D84EE716
:10C1500027000A2615377E43AB5DDB0700D446E790
:10C160002000434B09309847002803D00823AA5DDC
:10C170001343AB553F4B0733DB7F7F2B02D80022A5
:10C1800011008BE70021CEE7B84791231B01E3188C
:10C190009B00F3185860B847394BE3189B00F3181D
:10C1A0005F68364BC71B98478742B7D927000A23D9
:10C1B00019377B43F35CDB07B0D520002C4B0C30E8
:10C1C0009847002806D00A2315345C43325D023BB1
:10C1D00013433355274B0733DB7F7F2B00D8FCE617
:10C1E000002198E7284EB047002815D0274B9847E4
:10C1F000019B1B4D1B4C264F83420ED9A847254B54
:10C20000E050A847E559451BB047854204D90121B4
:10C21000F03422780A401BD0F7BDA847E051A84768
:10C220001C4BE558451BB0478542F5D9F0342378BF
:10C23000DB07F1D50F4B0733DB7F7F2B04D90021C0
:10C240001820104B9847E7E700221100182063E6FA
:10C25000084B0733DB7F7F2BF8D9F1E71D950000F2
:10C260004946010048230020040900000809000095
:10C27000659000003C4D00201DDD00009195000000
:10C280000C09000055EA00004D9500003D950000A6
:10C290003024000020240000F0B56F4B89B00390DB
:10C2A00098476E4B0490072098476D4B28331A78B7
:10C2B0000023012A0BD100206A4A6B491360D36125
:10C2C00093635065136704328A42F7D104231F0039
:10C2D000664BFC18664BA400E41800210800032FED
:10C2E00019D800232160E161A163636521670137EB
:10C2F0000434072FF1D1584CA047962201215D4B01
:10C30000D20098505C4A98505C4A9950A047049BD0
:10C31000C01A09B0F0BD8C23039A564D5343142222
:10C320007A43D218131806339B005B590130C918A1
:10C330001428F7D1524B142206A89847069B0021D7
:10C340009C4696235B009C4575D9039AA03B5343BA
:10C35000142208007A43474DD31802936246029B89
:10C360001B1806339B005E590130B61A5E515B59AB
:10C37000DA179B1853405B43C9181428EED1642385
:10C380001422594306A83E4EB0470A23079A06983E
:10C3900093429B415B42C0183A4B98470500632883
:10C3A0002CD80023236002932668E3699E4200D9BB
:10C3B000E661A36B9E4200D2A663636D256F059371
:10C3C0002800314B98470599304B984705906420D9
:10C3D0000135256770432C4B984705992C4B98479E
:10C3E000294B061C280098472A4B011C301C9847F3
:10C3F000F9B26065284B0298984778E7174BF8B276
:10C4000098472900FA224143920006A8B047FA2330
:10C41000079A5B0093429B4106985B42C018390023
:10C420001E4B9847622322681D4900930023029007
:10C4300088472060B8E78C23039A080053431422EE
:10C440007A432160D218531806339B000131E8501B
:10C450001429F8D14BE7C046394601006994000021
:10C460003C4D002094430020A4430020130800000A
:10C4700048230020A41D0020AC040000B4040000E8
:10C48000B12F01000D30010001DB010049D5010091
:10C4900095CF0100B9D20100C9BC000035B700003A
:10C4A0008DCA010073B59426274CF600A359274D79
:10C4B000002B24D02B78A059013301382B70C0B247
:10C4C000234B98470022A35903339B001A51A359C9
:10C4D000204A134004D50222013B52421343013348
:10C4E0001A1D9200A1589422D200002929D00133AC
:10C4F000A350194A194BD158884200D9D0502B78F3
:10C500000A2B1DDD0023144C2B70154B154AE158E6
:10C51000154B6846E358C918144BE358C918144B17
:10C520009847019A134BE250134B144AE358A25810
:10C530009B18134AA2589B18009A9B18114AA350A3
:10C5400073BDA150D5E7C046A41D0020C412002031
:10C5500099C200000100008048230020C823000089
:10C560005422000000E1F505602200006C2200006A
:10C57000B12F010078220000582200006422000040
:10C58000702200007C220000F0B5364C0B1AA54446
:10C5900007928022D2009A1804000D000592814271
:10C5A00000D9059300230493AC4255D0049B059A0F
:10C5B000934251DA2309069301331B011F1BAC423E
:10C5C00002D29D4200D22F1B049B274ADB19DBB20B
:10C5D0000493059B80210093244E3B000295019417
:10C5E0002348B04701212248224B9847842223093F
:10C5F00092005343204A08AE9B18842206931800E9
:10C60000920031001D4B9847002F15D00F23234077
:10C6100019000322114049008A40944660469B0855
:10C620000233F25C013482430798A4058840024338
:10C63000F254013FA40DE7E7172304AA9B18162222
:10C6400004A9521808A806210D4EB047082208A9CF
:10C6500006980C4B9847A7E704988D239B009D44B0
:10C66000F0BDC046CCFDFFFF206C02005DE0010084
:10C67000A41C0020FD9F000040CE0000C59D0000CE
:10C680009D870000299D000030B58422124C920045
:10C69000A5440F24050008095043104B0C40C01856
:10C6A00069460F4B984703212200A3086B449B78EF
:10C6B0000A405200134100200B40022B08D12401F4
:10C6C00021000831694410222800064B98470120B8
:10C6D00085239B009D4430BDECFDFFFF40CE000054
:10C6E000C59D000045DF0100054BDA68501C800540
:10C6F000800DD8605B68181A431E9841C0B270471D
:10C700003C4E0020F0B50026A34CA5440A217143FD
:10C71000A24A8B5C980700D484E002208343A0489F
:10C720008B54B300C358002B00D130E102AB1E7014
:10C730008B5C02A8DB07DB0F4370002302A81C18E8
:10C74000C818101880780133A070072BF6D102AA00
:10C7500008339B180E2202A9521802A80E21914CF0
:10C76000A0470F258422904C9200236806A91D4003
:10C770001B0953438D4A9B18842200939200180092
:10C780008B4B98472B018AAAD3188A4A9B1802AA76
:10C7900083CA83C31900136810200B600321AA0801
:10C7A0000D406D00A94002AB02321B189B5C8B430D
:10C7B0000221A9400B4302A909188B54172302AA8E
:10C7C0009B18162202A9521806A80621754DA847E3
:10C7D000842206A99200784B009898472368774DE9
:10C7E00001339B059B0D2360A368754A0133A36049
:10C7F000802133002800734FB847734B0021280075
:10C8000098478023A268DB009A420BD16F4B00212E
:10C810006F489847636801339B059B0D6360A3686D
:10C82000013BA36001362A2E00D06FE7002300935E
:10C830000A21009B594A5943C22350189B00C01833
:10C8400003789C0700D499E00224A3430370DB071C
:10C8500002ACDB0F6370002300982A30207002A81E
:10C860005C4D1C18C8184019105C0133A070072BD0
:10C87000F5D102AA08339B180E2202A9521802A869
:10C880000E21484CA0470F2784238422464C9B004E
:10C89000266806AD374036095E43444B2900F3183D
:10C8A000019392001800424B98473B018AAAD31883
:10C8B000404A9B1802AA43CA43C319001368BA0826
:10C8C0000B60032319001F407F00B9400232AB5CAC
:10C8D00028008B430221B9400B43AB54172302AA13
:10C8E0009B18162202A952182E4F0621B8478422FF
:10C8F000290092000198304FB84723680021013386
:10C900009B059B0D2360A368334801332F4EA36022
:10C91000B0478023A268DB009A422FD100212C4827
:10C92000B04763680F2601339B059B0D6360A368C6
:10C930000822013BA360842324689B00264024092D
:10C940005C431A4B2900E4182000194B9847032335
:10C95000B2081E407600B3400232A95C2800994319
:10C960001723A95402AA9B18162202A952180D4E89
:10C970000621B047082229002000B847009B013358
:10C9800000938023009A5B009A4200D050E78B23EB
:10C990009B009D44F0BDC046D4FDFFFF482300200E
:10C9A0006C6A02009D8700003C4E002040CE0000D3
:10C9B000C59D0000F8FDFFFF299D0000A41C00207C
:10C9C000466C02005DE00100FD9F00005DA00000DC
:10C9D0005E6C02000A030000776C0200F0B580274D
:10C9E0000025164C7F00A5446B4600245D701C702A
:10C9F0009C70DC701C715C713A00FF21104B02A826
:10CA000098476B466A4607330632062168460D4E44
:10CA1000B04784208422800068430B4B9200C018EA
:10CA200069460A4B01359847402DDDD1084B5C60C3
:10CA30001C609C6085239B009D44F0BDECFDFFFFC6
:10CA4000C9DF01009D87000040CE0000299D000045
:10CA50003C4E0020F0B500242700CDB0844B0021CF
:10CA6000844898470CAB0293842080007843824B23
:10CA70000AAEC01808223100804B98470F2306AA3F
:10CA80009B180E2206A95218300006217C4DA8479B
:10CA900006ABB2799B7B9A422FD106ABF279DB7B56
:10CAA0009A422AD17378BB4216D1122106ABC9181B
:10CAB00004220298734B9847029B01370433029378
:10CAC000402FD1D1002C1FD06F4B984700216F48C9
:10CAD000674B98474DB0F0BD0026029B6C4C1E6022
:10CAE0003B006C4A8021200049006B4DA847200084
:10CAF00031006A4B98470124DEE70026029B644C14
:10CB00001E60674A3B00EDE7664B20001C605C60DE
:10CB10009C600CAB1B782100049306932700260031
:10CB2000012302940794039405940322069D154063
:10CB3000022D13D0032D0AD0002D14D1002E34D095
:10CB4000012C10D102940399002402980BE0002FCD
:10CB5000F6D13C00039918001F002AE0012E2AD0CC
:10CB6000012F28D03E000322079D01351540039A6E
:10CB7000079501320392069A92080692002D05D17C
:10CB8000059D0CAA0135525D05950692059DFF2D68
:10CB9000CBD9002801D0434B1960029B002B0CD14C
:10CBA000394B98470299404892E7340018001E001C
:10CBB00003990293D7E71C00D5E700231F001E004E
:10CBC0001800190003930322049D1540022D34D050
:10CBD000032D01D0002D01D1002B37D10325039A5D
:10CBE000013001322A400392049A92080492039A77
:10CBF000002A03D101310CAA525C0492FF29E2D928
:10CC0000284A002F2ED05660002B01D113685360A4
:10CC1000536811688B4220D8C81A9060D36092681C
:10CC2000009180211A4C01924900204A20001A4D9F
:10CC3000A84700212000194B4BE7002B08D0012CFE
:10CC4000CCD12300060000241F00C7E71C00C5E765
:10CC50001C000600029B0127C0E78020C0000818C6
:10CC6000C01ADAE7002BD1D053681168D4E7C04668
:10CC70005DA000008B6C020040CE0000C59D00004E
:10CC80009D87000045DF0100DDC90000D06C020077
:10CC9000A41C00209B6C02005DE00100FD9F0000D1
:10CCA000B86C02003C4E0020EB6C02000EAD02009E
:10CCB000084B9A68824207D9121A9A605A688018FB
:10CCC0008005800D58607047DA685A6000229A60CB
:10CCD000F9E7C0463C4E002070B5154CA368002B08
:10CCE00001D1002011E00125237C2B420ED1114BF4
:10CCF00098476369C01A0328F3D90223227C2800CD
:10CD00002A43134304229343237470BD5B07E8D581
:10CD10006068E168884205D00322074B9847074BBB
:10CD20009847F5E7FA22237C13402374D9E7C046DD
:10CD30003C4E00204946010089C50000B1CC0000EE
:10CD4000FA21F0B5764C774BA544774C0790A5694E
:10CD50008900AD069889AD0E744B4D43984789B252
:10CD600008AB49191970090A5970A2691205920E87
:10CD70009A70A269D203D20EDA70A2699202D20E20
:10CD80001A71A2699201120F5A71A2690024920EBF
:10CD90009A71172C00D1BEE0079B002B10D0072CF6
:10CDA0000CDD634AA300D7580C226243614B9B18E9
:10CDB000A133FF335B680393002F18D10134E8E7F8
:10CDC0000E2CFBDC0C2262435A4B59489B181A006C
:10CDD000A933FF331B79A100A1324758FF325B070B
:10CDE0005268DB0F002FE9D0002BE7D003920AA88E
:10CDF0003B0A43703B0C83706B461B7B0770C37010
:10CE0000039B1B0A03710023082C05DC0C236343DE
:10CE1000484AAD33FF33D35A4371002308AD595DFF
:10CE2000C21801339171072BF9D106AA18339B1848
:10CE30001E2206A95218404D0E21A8473F4D0EA9AB
:10CE40002B6804930F23049A13400593130984223B
:10CE5000920053433A4A9B1884220693920018008A
:10CE6000384B9847059B92AA1B01D318364A9B184A
:10CE70000AAA43CA43C31900136820200B60032188
:10CE8000049E059B0E407600B1409B0806AA023323
:10CE90001218D25C8A430221B1400A4306A909183C
:10CEA000CA54272306AA9B18262206A952180EA8A0
:10CEB0000621214EB04784220EA99200234B0698EA
:10CEC000984780212B68224E0193039B214A0093AF
:10CED00049003B003000204FB847204B0021300074
:10CEE000984780222B68520101331B051B0D2B60D4
:10CEF000AB680133AB60934200D05FE7184B002171
:10CF0000184898476B6801331B051B0D6B60AB68B5
:10CF1000013BAB6052E793239B009D44F0BDC046AC
:10CF2000B4FDFFFFC84D00200024004085CD010066
:10CF3000146B0200482300209D8700000C4E002047
:10CF4000809C0100C59D0000F8FDFFFF299D0000A9
:10CF5000A41C0020F86C02005DE00100FD9F0000B1
:10CF60005DA000005E6C0200F0B584260025174C21
:10CF7000B600A5446B46002480225D701C709C7036
:10CF8000DC701C715C715200FF21114B02A89847A4
:10CF90006B466A4607330632062168460D4FB8478E
:10CFA0003000842268430C4B9200C01869460B4B3A
:10CFB0009847802301355B009D42DBD1084B5C60C4
:10CFC0001C609C6085239B009D44F0BDECFDFFFF31
:10CFD000C9DF01009D870000809C0100299D0000A1
:10CFE0000C4E0020F0B5804C804BA5440024270057
:10CFF00000217F4898470CAB02938420800078433F
:10D000007C4B0AAEC018082231007B4B98470F2397
:10D0100006AA9B180E2206A9521830000621774D49
:10D02000A84706ABB2799B7B9A4221D106ABF27935
:10D03000DB7B9A421CD17378BB4219D1122106AB1B
:10D04000C918042202986E4B9847029B013704339B
:10D05000029380235B009F42CFD1002C0DD0694BFF
:10D06000984700216848614B9847684B9D44F0BD44
:10D070000023029A01241360E7E7654B20001C603F
:10D080005C609C600CAB1B78210004930693270026
:10D090002600012302940794039405940322069D1D
:10D0A0001540022D13D0032D0AD0002D14D1002ECF
:10D0B00036D0012C10D102940399002402980BE081
:10D0C000002FF6D13C00039918001F002CE0012E20
:10D0D0002CD0012F2AD03E000322079D0135154098
:10D0E000039A079501320392069A92080692002D40
:10D0F00005D1059D0CAA0135525D05950692059D49
:10D100002A00444DAA42C9D9002801D0404B1960D9
:10D11000029B002B0CD13B4B984702993E48A2E75B
:10D12000340018001E0003990293D5E71C00D3E7D2
:10D1300000231F001E001800190003930322049D02
:10D140001540022D35D0032D01D0002D01D1002B2B
:10D1500038D10325039A013001322A400392049A00
:10D1600092080492039A002A03D101310CAA525C5E
:10D170000492284DA942E1D9254A002F2ED05660AD
:10D18000002B01D113685360536811688B4220D87B
:10D19000C81A9060D3609268009180211F4C019260
:10D1A00049001F4A20001F4DA847002120001E4BA8
:10D1B0005AE7002B08D0012CCBD123000600002415
:10D1C0001F00C6E71C00C4E71C000600029B0127E5
:10D1D000BFE7802040010818C01ADAE7002BD1D041
:10D1E00053681168D4E7C046CCFBFFFF5DA0000088
:10D1F000276D0200809C0100C59D00009D870000F6
:10D2000045DF010069CF00003A6D020034040000E0
:10D210000C4E0020FF030000586D0200A41C0020EB
:10D22000656D02005DE00100FD9F0000084B9A68FB
:10D23000824207D9121A9A605A6880180005000DB8
:10D2400058607047DA685A6000229A60F9E7C04671
:10D250000C4E0020054BDA68501C0005000DD8600C
:10D260005B68181A431E9841C0B270470C4E0020EC
:10D2700070B58422124C9200A5440F2406000809C0
:10D280005043104B0D000C40C01869460E4B984798
:10D290000322A3086B449B7815406D00EB400020EF
:10D2A0001340022B08D124012100083169440D32BA
:10D2B0003000064B9847012084239B009D4470BD9D
:10D2C000F0FDFFFF809C0100C59D000045DF0100CF
:10D2D000F0B5364C0B1AA5440792802252019A18D9
:10D2E00004000D000592814200D9059300230493A8
:10D2F000AC4255D0049B059A934251DA2309069318
:10D3000001331B011F1BAC4202D29D4200D22F1BD6
:10D31000049B274ADB19DBB20493059B8021009311
:10D32000244E3B00029501942348B0470121224836
:10D33000224B98478422230992005343204A08AE87
:10D340009B18842206931800920031001D4B9847C9
:10D35000002F15D00F23234019000322114049004C
:10D360008A40944660469B080233F25C0134824353
:10D370000798240588400243F254013F240DE7E753
:10D38000172304AA9B18162204A9521808A80621DC
:10D390000D4EB047082208A906980C4B9847A7E7FE
:10D3A00004988D239B009D44F0BDC046CCFDFFFF3B
:10D3B000206C02005DE00100A41C0020FD9F000025
:10D3C000809C0100C59D00009D870000299D0000F4
:10D3D00073B51A4CA368002B01D100200FE0012582
:10D3E000237C2B420CD1164B98476369C01A032843
:10D3F000F3D904222800237C2B439343237476BD66
:10D400005B07EAD56368E268934212D00D4D009243
:10D4100080210D4A28000D4EB047280001210C4BF9
:10D4200098470322E16860680A4B98470A4B98477F
:10D43000E8E7FA22237C13402374CEE70C4E002049
:10D4400049460100A41C00208A6D02005DE0010035
:10D45000FD9F0000D1D200002DD20000F0B5802742
:10D460000025164C7F00A5446B4600245D701C709F
:10D470009C70DC701C715C713A00FF21104B02A89B
:10D4800098476B466A4607330632062168460D4EBA
:10D49000B04784208422800068430B4B9200C01860
:10D4A00069460A4B01359847102DDDD1084B5C6069
:10D4B0001C609C6085239B009D44F0BDECFDFFFF3C
:10D4C000C9DF01009D87000040070400299D00007E
:10D4D000244E0020F0B5864C864BA544002427003E
:10D4E0000021854898470CAB029384208000784344
:10D4F000824B0AAEC01808223100814B98470F2397
:10D5000006AA9B180E2206A95218300006217D4D4E
:10D51000A84706ABB2799B7B9A4231D106ABF27930
:10D52000DB7B9A422CD17378BB4218D1122106AB17
:10D53000C91804220298744B9847029B01370433A0
:10D540000293102FD1D1002C21D0704B984700218D
:10D550006F48684B984791239B009D44F0BD00267F
:10D56000029B6C4C1E603B006B4A802120004900EE
:10D570006A4DA84720003100694B98470124DCE739
:10D580000026029B634C1E60664A3B00EDE7664B3B
:10D5900020001C605C609C600CAB1B782100049335
:10D5A0000693270026000123029407940394059410
:10D5B0000322069D1540022D13D0032D0AD0002D05
:10D5C00014D1002E34D0012C10D1029403990024E0
:10D5D00002980BE0002FF6D13C00039918001F00C1
:10D5E0002AE0012E2AD0012F28D03E000322079DD9
:10D5F00001351540039A079501320392069A920865
:10D600000692002D05D1059D0CAA0135525D0595A8
:10D610000692059D3F2DCBD9002801D0424B1960C1
:10D62000029B002B0CD1394B984702993F4890E759
:10D63000340018001E0003990293D7E71C00D5E7B9
:10D6400000231F001E001800190003930322049DED
:10D650001540022D33D0032D01D0002D01D1002B18
:10D6600036D10325039A013001322A400392049AED
:10D6700092080492039A002A03D101310CAA525C49
:10D6800004923F29E2D9284A002F2CD05660002B63
:10D6900001D113685360536811688B421FD8C81AB0
:10D6A00090609268009180211A4C01924900204AB2
:10D6B00020001A4DA84700212000194B4AE7002BF3
:10D6C00008D0012CCDD12300060000241F00C8E79C
:10D6D0001C00C6E71C000600029B0127C1E7481C8E
:10D6E000FF30C01ADCE7002BD3D053681168D6E7AF
:10D6F000BCFDFFFF5DA00000E56D020040070400D7
:10D70000C59D00009D87000045DF01005DD400003D
:10D71000FA6D0200A41C00209B6C02005DE0010079
:10D72000FD9F0000B86C0200244E0020586D0200DE
:10D73000156E02000023F0B55A4CA54400936B46C9
:10D740001878009B2A2B00D1A8E00A255D43564C8F
:10D750002B5D1A0700D49EE0082293432B55534BB0
:10D760009847431C00D196E002AB18702B5D02AACB
:10D77000DB07DB0F537000230133082B06D05A1947
:10D78000A218517802A81A185170F5E70F2302AABF
:10D790009B180E2202A9521802A80E21444CA04741
:10D7A0000F2784238422434C9B00266806AD374014
:10D7B00036095E43404B2900F3180193920018008C
:10D7C0003E4B98473B018AAAD3183D4A9B1802AAB0
:10D7D00043CA43C319001368BA080B600323190036
:10D7E0001F407F00B9400232AB5C28008B4302210E
:10D7F000B9400B43AB54172302AA9B18162202A967
:10D8000052182B4F0621B8478422FF269200290088
:10D810002C4B019898472368002101333340236043
:10D82000A36829480133294FA360B8478023A26821
:10D830005B009A422FD100212548B847636808222F
:10D8400001331E40A3686660013BA3600F2684235A
:10D8500024689B00264024095C43174B2900E418E8
:10D860002000164B98470323B2081E407600B340B1
:10D870000232A95C280099431723A95402AA9B18D5
:10D88000162202A952180A4E0621B0470822290082
:10D8900020000C4B9847009B01334FE78B239B00E4
:10D8A0009D44F0BDD4FDFFFF48230020C198000037
:10D8B0009D870000244E002040070400C59D000005
:10D8C000F8FDFFFF299D00003D6E02005DA00000F5
:10D8D0005E6C0200054A9368002B05D0013B936003
:10D8E00053680133DBB253607047C046244E0020BA
:10D8F000F0B506004248434C4368A5441A090F247A
:10D90000029203221C4022400392026893423ED8B6
:10D910008168D01A814212D0019180213A4D009243
:10D9200049003A4A28003A4FB84701212800394BAC
:10D93000984701213848394B9847394B98478422FA
:10D94000029D92005543374B04A9ED182800364B31
:10D9500098470822A10802AB9B180231585C039B30
:10D9600002005F003A4103231A40022A25D0244BCB
:10D97000032A41D0012A3FD000209B68834202D075
:10D980002A4B9847002089239B009D44F0BD511CE1
:10D990008068FF31C91A8842D1D080211A4D019088
:10D9A00000924900194A2800194FB8470121280060
:10D9B000184B984701211E48BDE7BB400343082090
:10D9C00002AA121824015354211804AB591810222A
:10D9D000184B300098470F2302AA9B180E2202A969
:10D9E000521804A80621144CA047082204A92800B4
:10D9F000124B98470120C6E798680028C3D0BFE7BC
:10DA0000244E0020DCFDFFFFA41C0020556E020008
:10DA10005DE00100FD9F0000716E02005DA000004E
:10DA2000D5D4000040070400C59D0000D5D80000F3
:10DA3000846E020045DF01009D870000299D0000E3
:10DA400068210E4A0E4B10B5D1540E4B6439D15497
:10DA50000D490E4C0868430013550D4C1B0A135515
:10DA60004B680C4C8B605B0013550B4C01301B0A50
:10DA70000860C8601355062010BDC046482300202A
:10DA80004818000049180000544E00204A180000B1
:10DA90004B1800004C1800004D180000002370B512
:10DAA000224D19002A002B616B61AB611C32995425
:10DAB0000133102BFBD10124022004211C4A1D4EEE
:10DAC0005368D3607368F360337CA34383438B4311
:10DAD0003374137CA34383438B431374164B9847CF
