:10800000E07E002071A900006DA900006DA90000AC
:108010000000000000000000000000000000000060
:108020000000000000000000000000006DA900003A
:1080300000000000000000006DA900009156010042
:10804000FD8200006DA90000D94301006DA9000068
:108050006DA900006DA900006DA90000CDB700005A
:108060006DA90000D94E0100355C010041490100B5
:10807000594B01006DA900006DA900006DA9000019
:108080006DA900006DA900006DA900006DA9000098
:1080900025590100E55901006DA900006DA90000F6
:1080A0006DA90000C93F0100693F01006DA90000F2
:1080B000914001006DA900006DA9000010B5064CAB
:1080C0002378002B07D1054B002B02D0044800E099
:1080D00000BF0123237010BDE00D00200000000050
:1080E0000CF80200084B10B5002B03D007490848D4
:1080F00000E000BF07480368002B00D110BD064B0D
:10810000002BFBD09847F9E700000000E40D0020A9
:108110000CF802000CF802000000000010B5044C3E
:10812000002323722360034B9847606010BDC04654
:10813000FC0D00200D580100024A137A013313721E
:108140007047C046FC0D002070B596B03A4B98477A
:108150003A4B5B68C01A022801D816B070BD364B86
:108160009847364B58601B7A3F2BF6DC344B1B6824
:10817000002BF2D106A8334B98470028EDD0324BA4
:1081800098470100314C2000314EB0472000314B60
:10819000984700190B223049304B984706AD287894
:1081A0002F4B984701000EA8B0470EA920002D4B79
:1081B00098476B78002B34D0244C2000254B9847EF
:1081C000001907222849254B9847284B984706ACA9
:1081D000E3781B026579227A0492E2790392A2790C
:1081E0000292A078C018FA218900214B9847FF23FA
:1081F00018400190237900932B001E4A40210EA8BD
:108200001D4CA047114C0EA92000164B984720008A
:10821000104B9847231F186001212000174B9847E7
:108220009BE70A4C20000B4B984700190822144981
:108230000A4B9847C9E7C0460D580100FC0D0020C5
:10824000281B002049DC0000898C00002C1B00202A
:10825000E9140200F9140200009202005911020010
:10826000CD920000391302000C92020029DC0000BC
:10827000B10102001C9202007112020009A4000068
:108280001492020030B5194B1A6902218A431A610F
:108290001A69174802401A611A694230FF300243D6
:1082A0001A615A680A435A601A691824A243083CA2
:1082B00022431A611A690A431A610E4A5369034339
:1082C00053610D4B703401391951BFF34F8FBFF318
:1082D0006F8FC02252009950C02080001A58FF258D
:1082E000AA4322431A50196030BDC046001800400E
:1082F000FFFEFFFF0008004000E100E010B5064B64
:108300009B689B0700D410BD034A936802210B436E
:108310009360024B9847F6E70018004061B50000F3
:10832000F0B587B08C461600019303AC064D2200D1
:108330008ACD8AC2800000596044019A3100034B03
:108340009847012007B0F0BD30920200C5A00000A0
:1083500070B582B07823C84AD35C022B03DC792342
:10836000D35C022B0BDDC54B9847830700D157E246
:108370007023C14AD25C383B1340082B01D002B0B5
:1083800070BDBF4B9847002802D10022BD4B1A8414
:108390007023B94AD35A5B051B0FDAB2062AEED80E
:1083A0009300B94AD3589F46B84B9847B84B1B68BF
:1083B000C01A0328E3D9B74B5B88192B0CDD0022C8
:1083C000B44B5A80AC487021435AB34A1A40A02398
:1083D0009B0013434352D2E70020B04B9847A64A74
:1083E00070240F230340D901135BAB4803400B43B8
:1083F000135370321B0A78218B435370BFE7002060
:10840000A64B98479C4970220F231840C0018B5AF5
:10841000A14C234003438B52F022D2001340802B07
:1084200003D000229A4B1A71A9E7994A13790133B4
:10843000DBB21371022BA2DD8F4B032177229954FB
:108440006D315A5A944802405A5298E771238A4A29
:10845000D35C5B061B0FDAB2062A00D98FE79300C4
:108460008F4AD3589F4600208E4B9847824A7032DD
:10847000537878218B4310210B435370854C6388CC
:10848000894D8A4A80212800894EB0470021280062
:10849000884B98476388013363800120864B984757
:1084A0008648874B98476AE70020864B9847724971
:1084B00070310F230340DA004B7878208343134355
:1084C0004B700020804B9847022803DD714B00223F
:1084D0001A805A807123684AD35C5B061B0FDAB29C
:1084E0000B2A00D94BE79300784AD3589F460022C5
:1084F00011001000764B984741E70022614B1A8724
:108500003DE70022634BDA805B4B70335A78782169
:108510008A43110008220A435A7030E75D4AD38823
:1085200001339BB2D380604C6A4A80212000604DA9
:10853000A847002120005F4B98474F4B70335A7873
:1085400078218A43110018220A435A7017E7022043
:10855000594B9847484B70335A7878218A43110019
:1085600018220A435A700AE70020534B98470F23FA
:108570001840414A7032C10053787824A3430B431A
:108580005370082800D9FAE68000534B1B589F46C9
:10859000394970228B5C382083438B5400204F4B29
:1085A0009847ECE6002201211000494B9847E6E687
:1085B000364B9847364B9860E1E62F4B70201918E0
:1085C0004A787824A2434A701A5A33491140C0228B
:1085D00052000A431A52D2E6274B70201A5A2E49EB
:1085E0001140A02292000A431A521B189978802247
:1085F00052420A439A70C2E6394B98471E4970317D
:108600000F230340DA004B787820834313434B70E9
:1086100078221340282B00D0B1E61C4B98471C4B06
:108620009860ACE6144B7020190070314A787824B9
:10863000A2434A701A5A18491140A02292000A43D4
:108640001A529CE6114B9847114B9B68C01A04289C
:1086500000D894E6084B70335A7878218A435A70D0
:108660008DE605487021435A0B4A1A40C0235B002F
:108670001343435283E6C046F4470020BD8E0000FA
:108680009D7A0100D04800203C9202000D58010064
:10869000080E0020701C00207FF8FFFF0D9D0100D8
:1086A00058920200D5F60100801A0020C8920200FC
:1086B0007112020009A40000F5FB0100FFFF000099
:1086C0007D8A0000F5F6010055FE0100749202005B
:1086D00071E00000DC920200A4920200B18E000062
:1086E00019FE01000020574B9847574970220F236D
:1086F0001840C0018B5A554C234003438B52F02243
:10870000D2001340802B0DD080225200934200D122
:1087100035E64F4A5388013353804E4B98474E4BB2
:1087200018602CE60B0070335A7878218A435A700F
:1087300025E60020494B98470F23184042497022F4
:10874000C4018B5A414D2B4023438B52032800DC3C
:1087500015E63F4A938801339BB29380032B0CDDCF
:1087600000223B4B9A8008007021435A2A001A408D
:10877000A0239B001343435201E6334C7025635DF5
:108780003822934363550020354B984722007032BE
:10879000537878218B435370635B2C4A13406353A7
:1087A000304C00230093304A083120002F4DA84759
:1087B000002120002E4B9847264B9847264B1860E7
:1087C000DDE5234B5B88012B0CDD0022204B5A801A
:1087D0001D487021435A1D4A1A40A0239B00134391
:1087E0004352CCE5184970228B5A184803408B52EB
:1087F000C5E5154A03217723D1546D31535A1348E7
:10880000034053524720034053540022194B1A840B
:10881000194B98470020124B9847184B9847AEE5E4
:10882000154B984700200E4B9847074B70211800B6
:10883000703042787824A24342705A5A034802406A
:108840005A529CE56DA20100F44700207FF8FFFF1B
:10885000701C00200D580100080E0020CDA401005E
:10886000B18E0000801A0020F49202007112020002
:1088700009A40000D04800200D5C010051920100C5
:10888000F0B5C64600B594469846114B99421ADC9D
:10889000002915DD0024FF27FF260E4A0E4B057820
:1088A0007540565D7E405F5D0134A4B20130A14247
:1088B000F5DC63461E7043461F7004BC9046F0BD55
:1088C000FF27FF26F5E70023137042461370F4E7F5
:1088D000FF0700000000002000010020223080007F
:1088E000014BC1507047C046140E0020223080005A
:1088F000014BC0587047C046140E002005490B00BC
:108900001E33323102781A70013001338B42F9D1B3
:108910007047C046140E002010B5010002484630D2
:10892000024B984710BDC046140E0020E914020007
:10893000014846307047C046140E002001483230CE
:108940007047C046140E002010B5010002483230B6
:10895000024B984710BDC046140E0020E9140200D7
:10896000002805D1CC23064AD05CC007C00F704751
:10897000B9235B00024AD05CC007C00FF7E7C046CE
:10898000940E002000280FD0002906D0B9235B00E8
:108990000C4AD05C0007C00F0DE0B9235B00094A08
:1089A000D05C4007C00F06E0002905D1CC23054A62
:1089B000D05C4007C00F7047CC23024AD05C000750
:1089C000C00FF8E7940E00200023012801DD1800F5
:1089D00070477033074AD35CDB0704D44000064B72
:1089E0001818038DF3E754304000034B1818C38C5C
:1089F000EDE7C046F4470020940E0020012817DC64
:108A000070230C4AD35CDB0708D40B4B1A004B32A3
:108A100000211170400118182C307047064A1300CD
:108A20001233FF330021197040011018D230F4E7DF
:108A30000020F2E7F4470020940E0020EF235B00B3
:108A4000014AD05A7047C046940E0020F0235B00C4
:108A5000014AD05A7047C046940E0020F1235B00B3
:108A6000014AD05A7047C046940E0020F2235B00A2
:108A7000014AD05A7047C046940E00209823014AFC
:108A8000D0527047140E0020014B988C7047C0469E
:108A9000940E00209823014AD05A7047140E0020EB
:108AA000EE235B00024AD05A0005000D7047C04615
:108AB000940E0020014BD88C7047C046940E0020C5
:108AC000014824307047C046940E0020004870478B
:108AD000B4050000004870474604000043001B181E
:108AE0009B000448C0187530FF300078C007C00FE5
:108AF0007047C046940E002043001B189B0004489A
:108B0000C0187530FF3000788006000F7047C046EF
:108B1000940E002043001B189B000448C0187530B9
:108B2000FF3000788007C00F7047C046940E0020C9
:108B300043001B189B000448C0187530FF30807834
:108B40004007C00F7047C046940E002043001B181A
:108B50009B000448C0187530FF308078C006800F35
:108B60007047C046940E002043001B189B0003482A
:108B7000C0187930FF3000687047C046940E00205E
:108B800002000020072A08DCFA235B000349C85AC8
:108B9000F43BFF3B9340184010417047940E002077
:108BA0000520704784239B00034AD25A0123834047
:108BB0001340034118007047940E0020F430400029
:108BC000014B1818408D7047940E0020022807DCD6
:108BD000C3001B1A5B000348C0189930FF30704770
:108BE0000020FCE7940E002002000020022A08D892
:108BF000E1235B000349C85AC23BFF3B9340184046
:108C000010417047940E002070B51500032814DC45
:108C1000C30FC21801241440E41A5010C0B2002837
:108C20000CD10D4E600130182C300C4B98472800A9
:108C30000B4B984764003419208570BD064E6001C7
:108C40003018D230054B98472800054B98475434CC
:108C500064003619F084F0E7940E0020E914020055
:108C6000C11002009C20704700487047140E00207D
:108C700043001B189B000348C0187D30FF3000687C
:108C80007047C046940E00200148C530FF30704741
:108C9000940E0020014B988B7047C046140E0020A4
:108CA000E8304000034B1818C38CFA20800058436A
:108CB0007047C046940E002002000020072A06D804
:108CC000034B0449C85A0123934018401041704790
:108CD00006020000940E002002000020072A07D898
:108CE00082239B000349C85A012393401840104136
:108CF0007047C046940E002002000020072A06D8C4
:108D0000034B0449C85A012393401840104170474F
:108D10000A020000940E00200023054805491A00AD
:108D200064328A5CC2540133052BF8D10048704785
:108D3000801A0020140E00200023054805491A005F
:108D40005A328A5CC2540133082BF8D1004870476C
:108D5000801A0020140E0020F0B5C64600B582B07F
:108D600005000024154E164B98461F0007E023000F
:108D70006433434400221A7001340A2C0AD0285D5F
:108D80006B46D91DB0470028F1D02A5D230064331B
:108D9000FA54F1E70A4B00216D2299546433094CCF
:108DA000094A40312000094DA84701212000084B05
:108DB000984702B004BC9046F0BDC0469BFE01003F
:108DC000140E0020801A002010930200711202007D
:108DD00009A40000F0B5C64600B582B00500002425
:108DE000154E164B98461F0007E023005A334344A4
:108DF00000221A7001340A2C0AD0285D6B46D91D56
:108E0000B0470028F1D02A5D23005A33FA54F1E725
:108E10000A4B0021632299545A33094C094A4031C4
:108E20002000094DA84701212000084B984702B0B7
:108E300004BC9046F0BDC0469BFE0100140E00200D
:108E4000801A0020109302007112020009A4000091
:108E50006E23014AD05A7047140E00206E23014A37
:108E6000D0527047140E0020014B588B7047C046FB
:108E7000140E0020014B188B7047C046140E0020C2
:108E8000002805D1CC23064AD05C8007C00F70476C
:108E9000B9235B00024AD05C8007C00FF7E7C046E9
:108EA000940E00207023014AD05C7047140E0020FD
:108EB0007023014AD0527047140E0020074BB9228C
:108EC0005200985CC007C00F4000A63A9B5CDB07CD
:108ED000DB0FC018002800D103307047940E00202B
:108EE00002000020072A08D8F9235B000349C85A6A
:108EF000F23BFF3B9340184010417047940E002016
:108F000003000020072B08D80833F9225200034938
:108F10008A5A01309840104018417047940E002042
:108F200010B50B010449C918044B9C46614420222A
:108F3000034B984710BDC046940E00206A04000001
:108F4000F115020092239B009C4660444000024BB6
:108F50001818408D7047C046940E0020002802D19A
:108F600003486C30704702481330FF30FAE7C046C0
:108F7000940E0020002802D103489C30704702481C
:108F80004330FF30FAE7C046940E0020002802D19B
:108F90000348B430704702485B30FF30FAE7C04600
:108FA000940E00200023032809DC43001B189B00BB
:108FB0000448C018044B9C4660440022835E18009D
:108FC0007047C046940E00201A02000000230328B8
:108FD0000ADC43001B189B000448C01887239B0031
:108FE0009C4660440022835E18007047940E002067
:108FF0000023032809DC43001B189B000448C01809
:1090000089239B009C466044038818007047C04633
:10901000940E00200023032809DC43001B189B004A
:109020000448C018044B9C4660440022835E18002C
:109030007047C046940E00201E0200000023032843
:109040000ADC43001B189B000448C01888239B00BF
:109050009C4660440022835E18007047940E0020F6
:109060000023032808DC43001B189B000348C0189A
:10907000034B9C466044038818007047940E002000
:1090800022020000034B988C002802D19823024A48
:10909000D05A7047940E0020140E00200023302870
:1090A00015DC43001B185A000A4B9B18D122920072
:1090B00094466344DA790023920608D443001B18CF
:1090C0005B000448C0186044C379DB06DB0F18005E
:1090D0007047C046940E00200023302815DC430062
:1090E0001B185A000A4B9B18D122920094466344E5
:1090F000DA790023D20608D443001B185B00044829
:10910000C0186044C3799B06DB0F18007047C04647
:10911000940E00200023302808DC43001B185B005D
:109120000348C018034B9C466044038818B270473C
:10913000940E00204E03000003003F2810DC0100C5
:1091400088318900164A5218518D164A914223D00F
:1091500088339B001248C3182433D879800970479C
:1091600000206F2BFBDC403B5A00D21851000C4A08
:1091700052180D498C46624411880A4A91420DD01A
:109180005800C0184000064B1B18D122920094468C
:109190006344D8798009E2E70020E0E70020DEE7B9
:1091A000940E0020FFFF00004A03000003003F2848
:1091B0000DDD00206F2B10DC403B5800C018400034
:1091C000064B1B18064A94466344187805E088331A
:1091D0009B0002482430C31898797047940E0020F1
:1091E0004A0300000200403A00232F2A0BD8530004
:1091F0009B185B000548C018D1239B009C46604427
:10920000C3791B071B0F18007047C046940E00203F
:1092100003003F280EDD00206F2B10DC403B580080
:10922000C0184000064B1B18D3229200944663449A
:10923000188804E088339B000148C318988D704754
:10924000940E0020420012189200064880187530D3
:10925000FF300F230B409B0001783C2291431943C0
:1092600001707047940E0020014B024AD05A70479B
:10927000C6050000940E0020014B024AD05A7047E8
:10928000CA050000940E0020014B024AD05A7047D4
:10929000C4050000940E0020B923DB00014AD05A17
:1092A0007047C046940E0020B5239B009C46604446
:1092B0004000024B1818808C7047C046940E002066
:1092C000014B98847047C046940E00200301034868
:1092D000C018034B9C4660447047C046940E002063
:1092E000C604000070B50022104804001049012592
:1092F00002E00132102A18D013004A331B01C318B0
:1093000024331B78DB07F4D513004A331B01E31821
:109310009B8CDB051B0E272BEBDC9E00F3185B0000
:10932000CB185E782E435E70E3E770BD940E00208C
:10933000781C0020F8B500211748184B9847184DA5
:109340002B0058332A005932164E34002434B621EB
:10935000C9002000144FB8475923EA5C1202013BB0
:10936000EB5C9B181B04114AB350114E32002100D4
:109370000020104DA8473200210084200001A8479A
:109380000D4B98470022012125200C4B98470021C6
:1093900025200B4B9847F8BD209302006DA40000D8
:1093A00014140020940E002081880000D4050000D1
:1093B000B4050000C5A00000E592000071E00000C7
:1093C000E9F30000F0B5DE4657464E464546E0B5A7
:1093D00091B008AC202200212000F64DA8470123BF
:1093E00023806380A380E380238163812022002186
:1093F0006846A8473F236A461380013353800233EF
:1094000093800133D380203B138112335381012198
:10941000E948EA4B9847EA4800238384CC33C25C8E
:1094200001210A43C254B9225200835C0B43835486
:109430003C23C384E34B03854385A43A8352023221
:10944000835203006C339C3000221A701900A6313D
:109450000A7001338342F8D1D94801004331FF310A
:10946000B43000221A701A760A700A76013301317C
:109470008342F7D1D24C22006C32D34B03CB03C2D0
:109480001B78137020001330FF300922CF49D04DD4
:10949000A84722009C32CF4B03CB03C21B8813800A
:1094A00020004330FF300A22CB49A8472200B432C3
:1094B000CA4B03CB03C21B88138020005B30FF30F4
:1094C0000A22C749A84723002C33C64E320083CA5C
:1094D00083C39446190013780B7023004C3331007A
:1094E00085C985C3190063461B780B702000D230F4
:1094F0000D223100A8472000F2300D223100A8478C
:10950000322283239B00E252B74B0022E252B74B38
:10951000B74AA3520232A352B64AA3520232A3520E
:10952000BA214900635C01221343DBB20220834667
:109530000343DBB23C26B3430420844681464846BD
:10954000034363540231635C032080468343134327
:10955000DBB2604683431827BB43635496208001E7
:10956000BC235B00E05004331339FF39E15004336E
:109570009A46E35C1343DBB259468B43B3434946F7
:109580000B4351466354C1235B009A46E35C41465A
:109590008B431343DBB261468B43BB435146635459
:1095A000C2235B00E05004331F39FF39E15004331C
:1095B0009A46E35C1343DBB259468B43B3434946B7
:1095C0000B4351466354C7235B009A46E15C434614
:1095D00099430A43D2B263469A43BA435346E2548C
:1095E0000233E05004336422E2502300C533FF33DA
:1095F000814A1168196012791A712C3B7F4F3A0029
:1096000003CA03C390461A0043461B88138043468F
:109610009B7893702000A730FF300B223900A847B9
:109620002300B533FF3306CF06C31A0043461B8819
:10963000138043469B7893700722E1235B00E2523C
:10964000F8321633E2526E4A0233E2526D4A023366
:10965000E252BF3BFF3BEF225200A352962189000A
:109660000432A152023AA6520432A352D733FF3336
:109670000022E2520023524924310A201A00D33238
:10968000FF3288520233102BF8D14D4A0E3B5E490F
:109690005352023153520023163953525B495352ED
:1096A0005B4BD3185B4951180022FA20C000642498
:1096B0001A805880D8809A801C815A810C338B4242
:1096C000F6D13F4C544BE01809225449404DA8476D
:1096D000534BE01809225349A847534BE0180B227B
:1096E0005249A847524BE0180D225249A847524B05
:1096F000E01809225149A84796225200504BE252E5
:109700002D32FF324F4BE25278234F4AA35202329E
:10971000A3524E4AA35200250024294B9C4608A878
:1097200001264B4B984623004A331B0163441F001C
:109730002437295A31403A78B2430A433A706A468C
:10974000515D49009A8C47463A400A439A84013455
:109750000235102CE7D11A4C3E4BE01806223E4948
:109760001B4DA8473D4BE0180A223D49A8473D4BF9
:10977000E0180A223C49A8473C4BE0180A223C4921
:10978000A8473C4BE0180A223B49A8473B4BE0184E
:109790000A223B49A8473B4BE0180A223A49A8470E
:1097A0003A4BE0180A223A49A8473A4BE0180C22F3
:1097B00072E0C046DD1102002C9302006DA400008F
:1097C000940E0020E32E0000489302005493020000
:1097D00059110200609302006C930200789302001A
:1097E00084930200909302000E020000B80B000068
:1097F0001202000016020000A0930200A8930200CB
:109800000F0F000003100000060200000A02000013
:109810001A0200004A0200006A040000B493020029
:109820007A040000C09302008A040000CC93020076
:109830009A040000D8930200AA040000E8930200F2
:10984000BA040000BC040000BE040000C204000012
:1098500001FEFFFFC6040000F4930200D6040000DE
:10986000FC930200E604000008940200F6040000E5
:109870001494020006050000209402001605000062
:109880002C940200260500003894020036050000E2
:1098900044940200460500002149A847214BE018E6
:1098A0000C222149A847214BE0180C222049A84747
:1098B000204BE0180C222049A847204BE0180C222E
:1098C0001F49A8471F4BE0180C221F49A8471F4BF0
:1098D000E0180C221E49A8471E4BE0180C221E4916
:1098E000A847802212011D4BE25200231C496352FB
:1098F0001C496252B922D200A352FA239B001A4A91
:10990000A3521A4AA3520232A352194AA352194B24
:10991000984711B03CBC90469946A246AB46F0BD74
:1099200050940200560500005C9402006605000099
:109930006894020076050000749402008605000019
:1099400080940200960500008C940200A605000099
:1099500098940200B6050000A4940200C605000019
:10996000C4050000CA050000CC050000CE050000BB
:10997000D20500003593000070B5164C164BE01868
:1099800009221649164DA847164BE0180922164918
:10999000A847164BE0180A221549A847154BE018AE
:1099A0000D221549A847154BE01809221449A8476C
:1099B00096225200134BE2522D32FF32124BE252EA
:1099C0007823124AA3520232A352114AA352114BD6
:1099D000984770BD940E00206A040000B493020002
:1099E000591102007A040000C09302008A040000AA
:1099F000B09402009A040000D8930200AA04000068
:109A0000E8930200BA040000BC040000BE04000099
:109A1000C204000035930000F0B5DE4657464E46BE
:109A20004546E0B589B003247A4B9B467A4B99466C
:109A30007A4B9A467A4ED8477A4A7B490020D047DB
:109A400032005932794BB621C9007748784DA84782
:109A50005923F25C1202013BF35C9B181B04754A0C
:109A600049468A5893422FD000217348734B984738
:109A7000694D2F0024376B4A390084200001674B61
:109A80009847674B9846583342465932B621C90029
:109A90003800674FB84759234246D25C1202013B57
:109AA0004146CB5C9B181B04624AAA58934200D1E2
:109AB000A8E000216248614B9847013CE4B2002CC9
:109AC000B9D1604B984705E000215F485B4B984750
:109AD000002CF6D05D4C1F2363832A3323830A3383
:109AE000A383012252424533E2520D32584959486C
:109AF000594B9847211D0023564E544D0020F25CCF
:109B00000A70EA18140032342070463210708876D9
:109B100001330131142BF2D14C490B005A3364311B
:109B200000221A709A7201338B42FAD1474A882375
:109B3000D358484C94215158029190215158019189
:109B40008C2152580092454A0C392000444DA847B8
:109B500001212000434B98472F4F7937FF370026CC
:109B60002D4D7B68049373009B199B00EB18753394
:109B7000FF339A785207D20F03929A78D206920F47
:109B800002923A6801921B78DB07DB0F00933300E7
:109B9000354A80212F48324CA04700212D48314BB7
:109BA000984701360C37032EDBD11B4A2F4BD35A73
:109BB000284C2F49515A0691BA21C900515A059192
:109BC0002C49515A04912C49515A03912B49515A0D
:109BD0000291B921C900515A01912949525A009262
:109BE000284A802120001E4DA847002120001D4B3F
:109BF0009847254B984709B03CBC90469946A246E9
:109C0000AB46F0BD002121480C4B9847204B9847AC
:109C10005EE7C0464DA20000940E002081A1000026
:109C200014140020B4050000B80E00206C140020AD
:109C300081880000D4050000D49402006DA40000C7
:109C400010950200C5930000BC940200140E002081
:109C500034950200801A002059110200409502003C
:109C60007112020009A4000064950200C4050000FE
:109C7000D2050000CE050000CC050000CA0500009A
:109C8000C60500008C950200E5920000F8940200E1
:109C90003593000010B500220D490C0002E001329E
:109CA000102A12D013004A331B01CB1824331B781F
:109CB000DB07F4D513004A331B01E3189B8CDB054B
:109CC0001B0E8342EBD110B201E00120404210BDD7
:109CD000940E00208E23FF33014AD05C4009704768
:109CE000940E0020010043001B185A000E4B9B18D5
:109CF000D122920094466344DB7901209B0611D562
:109D00004B005B185A00084B9B186344DB79DB0659
:109D100008D548004018400003490918034B9C46E9
:109D2000614408887047C046940E00204E0300002E
:109D300043001B189B000448C0187530FF3003789F
:109D40000122134303707047940E00208223DB0529
:109D50008022D2005A6198215A507047064A137ED9
:109D6000DB07FCD5044B98621A00137E9B07FCD5D9
:109D7000014B986AC0B270470004004270B50400FD
:109D800000290AD001398DB201354519034E002052
:109D9000B04720700134AC42F9D170BD5D9D000028
:109DA00070B50400002909D001398DB2013545197B
:109DB000034E2078B0470134AC42FAD170BDC046A2
:109DC0005D9D000010B5064B1870080C5870080A0D
:109DD0009870D970111D1800024B984710BDC046ED
:109DE00070140020A19D000010B5064B9847D720A5
:109DF000054CA0470020A0478022D2008223DB052B
:109E00009A6110BD4D9D00005D9D0000F8B50025D4
:109E10000C4E0D4F3C0005E000237B63636B012B70
:109E2000FCD91500B047030604D46A1C92B2272D52
:109E3000F2DD1500E80F00222723AB425041C0B2EB
:109E4000F8BDC046E99D0000D0480020F0B589B0BB
:109E50000224FF25374E50E0083399420BD01A7880
:109E60008242F9D15A8894469F889E7901220792AE
:109E700006920592F0E7059B002B26D1069B002B4E
:109E800001D02D4B9F81079B002B01D02A4B1E72C6
:109E9000294A5389294E03943F2129400291117A7E
:109EA000019192890092264A80213000254CA047DA
:109EB00000213000244B9847013DEBB20020FD22E9
:109EC0009A424041C0B209B0F0BD1B4B62465A8174
:109ED000D4E701211D481E4B984700221D4B5A63B1
:109EE00019001D4A4B6B9342FCD91C4B98476B1EC3
:109EF000DBB2FD2BE2D9013CE0D3B0470028E8D02B
:109F0000174B98470500431EDBB2FD2B0ED80A4BBA
:109F10005A8994469F891E7A124B1900603100229B
:109F20000792069205923D20284098E70138C3B277
:109F3000E1E7C0460D9E000070140020801A00204A
:109F4000249602007112020009A400004896020043
:109F50006DA40000D0480020E70300008501020046
:109F6000E99D0000C4950200F8B505000C0016003C
:109F70001F000D4B9847002800D1F8BD0B4B9847A8
:109F80000B4B1B7A2900994021430422D220094B14
:109F9000984739003000084B98478022D20082232E
:109FA000DB059A610120E8E70D9E00004D9D000051
:109FB00070140020C59D00007D9D000070B5060056
:109FC0000C0015000B4B9847002800D170BD0A4BC0
:109FD0009847002231008420084B98472900200030
:109FE000074B98478022D2008223DB059A6101202B
:109FF000ECE7C0460D9E00004D9D0000C59D000091
:10A00000A19D000010B504000A4B9847002800D11C
:10A0100010BD094B9847094B1B7A2100994000223B
:10A020008320074B98478022D2008223DB059A6168
:10A030000120EDE70D9E00004D9D000070140020F2
:10A04000C59D000010B504000A4B9847002800D1B8
:10A0500010BD094B9847094B1B7A210099400022FB
:10A060008120074B98478022D2008223DB059A612A
:10A070000120EDE70D9E00004D9D000070140020B2
:10A08000C59D000010B504000A4B9847002800D178
:10A0900010BD094B9847094B1B7A210099400022BB
:10A0A0005320074B98478022D2008223DB059A6118
:10A0B0000120EDE70D9E00004D9D00007014002072
:10A0C000C59D0000F0B5DE4657464E464546E0B514
:10A0D00083B005008B461700234B5C892100234B7E
:10A0E0009847824621002800214B9847002F31D005
:10A0F000204B9846204B99460E0024E053466A4672
:10A100001380138801931800C0470090041E22D0CA
:10A11000AAB2B0B25946C847009B1840C4B2002C3E
:10A1200019D00198154B98470440A8190E4B59892E
:10A130000F4B98470E0001239C46E244AB447F1B23
:10A1400009D0002C07D0084B5D89AD1BBD42D5D985
:10A150003D00D3E70124200003B03CBC9046994663
:10A16000A246AB46F0BDC04670140020B10102000B
:10A17000BD02020085A00000BD9F000005A00000F8
:10A18000F0B5DE4657464E464546E0B583B006007C
:10A190008A4615001F4B5C8921001F4B984787B2E8
:10A1A000210030001D4B98478CB2002D28D0194B50
:10A1B0009B469946A84625001BE0B3B20193524640
:10A1C00029003800164CA0470090019B5C19A0B2F2
:10A1D0004B465989114B98478DB20137BFB23604AF
:10A1E000360CB24443469B1B98460BD0009B002B79
:10A1F00008D05B465E89761B4645DED94646DCE7DD
:10A2000001230093009803B03CBC90469946A246B7
:10A21000AB46F0BD70140020B1010200BD02020087
:10A22000699F00008223DB058022D2009A609A6138
:10A23000802292009A609A61013AFF3A9A609A618C
:10A24000802212015A605A617047000010B5034B1A
:10A250009847034B9847034B984710BD25A2000031
:10A26000054401004D9E000010B5044B1B78012BE6
:10A2700001D0034B9847012010BDC0460C1B0020A5
:10A28000094C010010B57A23104AD35C032B05DD7D
:10A29000042B11D10E4B1B78012B0DD00D4B8122BD
:10A2A000D2009A588021C9005B58934204D00A4BCF
:10A2B0000849CB58002B00D010BD0B0001200649E7
:10A2C0005850985C054B9847F6E7C046F447002085
:10A2D0000C1B0020E44300200404000069A20000DD
:10A2E00070B50D00094C0A0001002000084B98478A
:10A2F0008023DB00E55000220833E2500132054B99
:10A30000E2502078044B9847012070BDE4430020C0
:10A310005911020004040000094C0100F8B5CE46B2
:10A32000474680B505000C007A231D4AD05C002802
:10A330001DD0032807DD042801D0002017E0194BA9
:10A340001B78012B29D08023DB00174AD058021933
:10A350009A4210DC144E801922002900134B9847B2
:10A360008023DB00F25894466444F45001200CBC76
:10A3700090469946F8BD98461E1A0B4FC0193200F8
:10A3800029000A4B99469847A41BA91922003800B6
:10A39000C8474346FC500120E9E70020E7E7C046F4
:10A3A000F44700200C1B0020E44300205911020058
:10A3B00010B58CB00E498B69DB03DB0E8A69120580
:10A3C000920E89698906890E0A4880890290019156
:10A3D0000092094A202104A8084CA04704A8084B71
:10A3E0009847010004A8074B98470CB010BDC04621
:10A3F00000240040D0480020609602007112020044
:10A40000F91402001DA3000010B5040000291CD19E
:10A4100020000F4B9847010020000E4B9847002862
:10A4200012D00D4B0D4AD358002B0DD17A330C4A64
:10A43000D35C002B08D0094B0121074A9950043204
:10A440009A58985C074B984710BD074B9847DFE731
:10A45000F91402001DA3000004040000E4430020DE
:10A46000F447002069A20000B1A3000010B5040069
:10A4700000291DD12000104B9847FF2101402000EA
:10A480000E4B9847002812D00D4B0E4AD358002B84
:10A490000DD17A330C4AD35C002B08D0094B012133
:10A4A000074A995004329A58985C084B984710BD57
:10A4B000074B9847DEE7C046F91402001DA30000D1
:10A4C00004040000E4430020F447002069A20000D7
:10A4D000B1A3000000B583B001AB20229A70002226
:10A4E000DA700F230340092B0DD90F2B02D8373315
:10A4F00001AA53700009092809D90F280AD8373052
:10A5000001AB187006E0303301AA5370F2E7303027
:10A5100001AB1870002101A8014B984703B000BDA2
:10A5200009A40000F0B583B001900D0016007A2355
:10A53000244AD35C002B3ED0052B24D0224B9847D5
:10A540000400214FB847001B6328FBD91F4B002292
:10A550008121C9005A5008395A501D495A50F307F1
:10A560002BD4002D08DD019B1F005C19194D387894
:10A57000A8470137A742FAD1B3071CD500211648D6
:10A58000164B984717E01149114A8B58002BFCD104
:10A590000E4E00228123DB00F2502A000199300088
:10A5A0000F4B98478023DB00F5500122084BF250F7
:10A5B00030780C4B984703B0F0BD00210A48074B98
:10A5C0009847CEE7F4470020FD570100E443002000
:10A5D00004040000D5A40000809602006DA40000D1
:10A5E0005911020069A200007896020010B50E4BC6
:10A5F00098470E4B00228121C9005A5008395A5001
:10A600000B495A500B4C02327A23E2540A4B9847BA
:10A61000E0670A4C0C220A4920000A4B98470021A7
:10A620002000094B984710BDE9490100E443002090
:10A6300004040000F44700200D580100801A002097
:10A640008C9602005911020009A40000F0B5D6460C
:10A650004F464646C0B590B081239B00A64AD358CA
:10A66000002B14D17A23A54AD35C0024002B00D000
:10A6700011E1A34B9847A14BDB6FC01AA04200D950
:10A680001AE110B01CBC90469946A246F0BD9D4B05
:10A69000984786239B00984AD358C01A3228E1D99C
:10A6A0001300812292009A58002199540124002716
:10A6B000002538E008AB994631001800924B9847C6
:10A6C0004B461B78002B27D0042E60D008A98A485F
:10A6D0008E4B984700281FD0884B98467A269C5569
:10A6E000874B98474346D867002201212420884B96
:10A6F00098476B1C874A80218748884DA8470121CD
:10A700008548874B9847002181239B007A4AD15086
:10A7100043469B5D032B2CDC2500052C00DD82E0ED
:10A7200001370134E4B2FEB2042DC3DD7D49724825
:10A73000764B98470028EFD0704D04227A23EA54D4
:10A740006F4B9847E867744D0423774A80212800AF
:10A75000724EB0470022012124206D4B9847012101
:10A7600028006F4B9847002181239B00624AD150FB
:10A77000D2E76E4B98476E4B00228121C9005A5098
:10A7800008395A506B495A506B4B9847C4E76D468D
:10A790006A4B6A4603CB03C21B88138008A968462C
:10A7A000674B98476846674B9847281803226649C5
:10A7B000664B984769465048544B9847002830D01C
:10A7C0004E4D05227A23EA544D4B9847E867574B84
:10A7D0009847574B002290468122D200414699501B
:10A7E000083A9950534A9950534B9847424D584B09
:10A7F0002A0043CB43C21B8813800022012124205E
:10A80000434B984728004F4B9847010082239B00F9
:10A81000E850032228004F4B984781239B00424673
:10A82000EA5025007CE781239B00334AD358002B54
:10A830000CD07A23314AD05C431E032B12D9052851
:10A8400013D0002181239B002B4AD1507A232B4A1D
:10A85000D35C002B1FD1002181239B00264AD150BD
:10A86000002406E73C4B9847F0E782239B00224AEE
:10A87000D158002905D1002181239B001E4AD150C7
:10A88000E4E7140003222000324B98470022822381
:10A890009B00E250EFE7013BD8B2304B98470400F1
:10A8A0007A23164AD35C042B00D0E2E62C4B1B78AB
:10A8B000012B00D0DDE6E4E601212A482A4B984727
:10A8C000002200212420124B984700217A230B4AB2
:10A8D000D1540C4B984705000A4CA047401B6328F5
:10A8E000FBD9134B00228121C9005A5008395A5014
:10A8F00010495A50C5E6C046C8410020F447002020
:10A900000D580100FD570100218F00002D19020094
:10A9100071E0000098960200801A00207112020077
:10A9200009A40000AB480020E8960200414B01005A
:10A93000E443002004040000E9490100C896020035
:10A9400039130200F9140200D496020059110200D2
:10A95000D896020025A5000051CB0100458F0000CC
:10A960000C1B0020209702006DA40000FEE70000F1
:10A9700010B5174A174B9A4211D01A00164B9A423B
:10A980000DD2164A03339B1A9B0801339B00002209
:10A9900010480F498C58845004329A42FAD1104A18
:10A9A000104B9A420AD2D3430E495B1803218B43C2
:10A9B00004339B18002102C29342FCD10A4AFF21B2
:10A9C0000A4B8B4393600A4B98470A4B9847FEE724
:10A9D0000CF8020000000020E00D00200400002020
:10A9E000E00D0020DC5E002000ED00E000800000B3
:10A9F000D910020069180100F0B5DE4657464E46F0
:10AA00004546E0B57C4A936901218A460B43936130
:10AA10008223DB05D327DA5D8A43DA55D2269A5D95
:10AA20008A439A5584228021090399508021C902C2
:10AA3000995082204000802292031A5080225203B3
:10AA40001A50802212031A501950802292021A5072
:10AA5000802252021A50DA5D02210A43DA559A5DC9
:10AA60000A439A555622FF329A5C0A435624FF3411
:10AA70001A55AA2252009A5C0A43013C1A555422E4
:10AA8000FF329A5C0A435424FF341A55A92252001B
:10AA900091469A5C0A434C461A555222FF32904620
:10AAA0009A5C0A4344461A55A822520094469A5C7E
:10AAB0000A4364461A55DA5D934604225C46144301
:10AAC000DC559F5D17439F555624FF341E5D16438A
:10AAD0001E55013C1E5D16431E555424FF341E5D59
:10AAE00016431E554C461E5D16431E5544461E5DBC
:10AAF00016431E5564461E5D16431E559826802437
:10AB000024039C518024E4029C5180368024A403B9
:10AB10009C51802464039C51802424039C518024F4
:10AB2000E4029C518024A4029C51802464029C5124
:10AB300080242401A0461C504C27FF37DC5D55467D
:10AB4000AC43DC55DC5DA4464024A14664464D463A
:10AB50002C43DC55DC5D0C43DC55DC5D1443DC55DB
:10AB600044469C518024A400A0461C504A27FF372D
:10AB7000DC5D5546AC43DC55DC5DA4464C46654681
:10AB80002C43DC55DC5D0C43DC55DC5D1443DC55AB
:10AB900044469C5180246404A0461C500F37DC5D61
:10ABA0000C43DC55DC5D1443DC5544469C51802449
:10ABB000A4041C505A20FF301F5C39431954195CFF
:10ABC0000A431A549C51802212039A605A618022CF
:10ABD000D2029A605A6151388021490119508A2263
:10ABE000520099508021C901195099503CBC90469F
:10ABF0009946A246AB46F0BD00080040074A135CE8
:10AC0000DB018221C9058C4663441B6A800012184F
:10AC1000D068184043425841C0B27047000200203B
:10AC200070B586B005AB00221A705A7002329A7065
:10AC3000DA7001AA104B70CB70C21B681360032836
:10AC40000CDC00290CD105AB1B5C800001AA8258EA
:10AC5000DB018221C9058C4663445A6106B070BD90
:10AC600005AB1B5C800001AA8258DB018221C9056B
:10AC70008C4663449A61F1E734970200F8B5DE46EA
:10AC800057464E464546E0B5194B98460024194BA9
:10AC90009946194B9A46194F10E0194B1A5D9300CB
:10ACA0009B185B00DA5D01218A431543DD550023C3
:10ACB000424608C2904601340C2C12D0E6B2300055
:10ACC000C847834605006B1E9D41EDB2072CE4D8B2
:10ACD0003000D0470028E0D05D466B425D41EDB2C8
:10ACE000DBE73CBC90469946A246AB46F8BDC04661
:10ACF00004480020FDAB0000818B0000781C002080
:10AD0000009D0200F0B5DE4657464E464546E0B58A
:10AD100089B0884B9847884BDB6AC01A182806D838
:10AD200009B03CBC90469946A246AB46F0BD834D67
:10AD3000AC69A406A40EFA27BF007C437D4EB04741
:10AD400039007F4B98470C1906AB5C70240A9C7045
:10AD5000AA691205920EDA70AA69D203D20E1A718C
:10AD6000AA699202D20E5A71AA699201120F9A71BF
:10AD7000AA69920EDA710C221A70B0476E4BD86233
:10AD8000704D714B99460024704B9A46704B9B4610
:10AD90001CE001334A461370664B984728634CE029
:10ADA0006C4B984705902E6803E06A4B98470590D6
:10ADB0002E68604B9847801B059B834269D90134FC
:10ADC000043501239C46E1440C2CA9D0E6B23000A6
:10ADD000D047804607007B1E9F41072C07DC3000D0
:10ADE0005D4B9847002802D047467B425F41049460
:10ADF0002000D8470028E2D1584B1A5D93009B18D9
:10AE00005B00574A9B5CDB07DB0F9F4269D0072C36
:10AE10003ADC002F13D00498524B98470028C4D036
:10AE20000498514B98470028BAD030004F4B9847B0
:10AE300005904B461B78002BABD02E6BB9E70498DE
:10AE4000484B9847002804D0424B984705902E68FD
:10AE5000AFE70498444B9847002810D03000434B8C
:10AE6000984705904B461B78002B01D02E6BA0E72E
:10AE700001334A4613702F4B98472863F6E7354B4A
:10AE8000984705902E6894E7324B984705902E6BB3
:10AE90008FE7324B049A9B5C9846F9B206AA1800D9
:10AEA000334B984743469B0043445B002C4A9F5CCE
:10AEB000FF07FB0F98461F4FB847049A531C059A8B
:10AEC0000292861B0196424600922A4A80212A4815
:10AED0002A4EB047B847286001212748284B984799
:10AEE0006DE7072C09DC04981E4B9847002811D009
:10AEF000002F06D000234A4613700E4B9847286057
:10AF00005DE704981F4B98470028F6D000234A4677
:10AF10001370F2E7002F03D100234A461370ECE7C9
:10AF20000498184B98470028E7D000234A4613702E
:10AF3000E3E7C046FD570100D04800200024004050
:10AF4000BD0202000448002080140020FDAB000078
:10AF5000E18E0000A18B0000818B0000009D0200AB
:10AF6000781C0020F98C0000B98C0000A18C000036
:10AF700071E0000044970200801A00207112020064
:10AF800009A40000D98C0000002308480021B22247
:10AF900092009A18121811601033802BF7D10021FB
:10AFA000A8235B01014AD1547047C046781C002099
:10AFB000F0B5DE4657464E464546E0B583B0BF4B3A
:10AFC0009847BF4B9B68C01A092806D803B03CBC01
:10AFD00090469946A246AB46F0BDB84B9847B84D4F
:10AFE000A8600C35B74E162399460024B64B9B46F5
:10AFF00001954F46D6E0B54A3B000E3BD25C93002C
:10B000009B185B00B04A9B5CDB07DB0F9A46B04B9A
:10B0100098473368C01A782832D8230034331B018C
:10B02000A94A9B5CDB07DB0F9A456BD0002B40D015
:10B0300001214046A74B9847A04B98477060019B61
:10B0400098461B68002B29D043461B6801334246B3
:10B050001360642B00D89CE09B484B4634331B01A3
:10B060001A5C01218A4311007F220A401A540023EE
:10B0700042461360002200213800974B984788E031
:10B080009149230034331B01585C7F2202405A54FB
:10B09000002200213800904B98477AE003008F4A45
:10B0A00040218F488F4DA84701218D488E4B9847EE
:10B0B000CAE700214046874B9847019B98461B688A
:10B0C000002B1AD043461B68013342461360642BA1
:10B0D0005FD97D484B4634331B011A5C01218A43FA
:10B0E00011007F220A401A540023424613600022B6
:10B0F00000213800784B98474BE001217B487C4B7E
:10B100009847DFE77049230034331B01585C7F22E6
:10B1100002405A543DE04046764B98478046674B84
:10B12000984743469B0043445B007268801A834201
:10B130002FD26548230034331B011A5C01218A4356
:10B140001100802252420A431A54614B98473060E2
:10B150005A4B98477368C31A674A40216048614D4B
:10B16000A84701215E48604B984712E04046614B7A
:10B1700098478246514B98477368C01A82455CD302
:10B1800040465C4B9847050040465C4B984700287A
:10B1900070D10134019B0433019301371036042C24
:10B1A00000D1ADE0E3B29846A146230034331B0141
:10B1B0005A469B5CDB0900D01DE7230034331B019A
:10B1C000414A9B5CDB07E4D5230034331B019B5CC5
:10B1D0009B06DB0EDAB2012AC8D0002AD0D0022AA0
:10B1E00099D0032AD5D033899A464046434B984795
:10B1F0000028CED0314B98477368C01A5045C8D943
:10B200003148230034331B011A5C01218A431100A9
:10B21000802252420A431A542D4B98473060274BE4
:10B2200098477368C31A344A40212D482D4DA847CA
:10B2300001212B482C4B9847ABE72348230034339C
:10B240001B011A5C01218A431100802252420A43E9
:10B250001A541F4B98473060184B98477368C31AAD
:10B26000254A40211E481F4DA84701211C481E4B5E
:10B27000984785E7114B98477368C01A854288D272
:10B2800011484B4634331B011A5C01218A431100DB
:10B29000802252420A431A540D4B98473060074BA4
:10B2A00098477368C31A144A40210D480D4DA847AA
:10B2B00001210B480C4B98476BE7C046FD57010036
:10B2C00080140020BC1F0020781C0020009D02007C
:10B2D0000D58010021AC000071E0000060970200F1
:10B2E000801A00207112020009A400007897020061
:10B2F0006DA40000BD8B00008C970200A58B0000A0
:10B300008C236A4AD3581B073DD48C23674AD358F1
:10B31000DB0645D48C23654AD3585B0761D48C2364
:10B32000624AD3585B0569D48C23604AD3581B0505
:10B330006FD48C235D4AD3585B047BD48C235B4A47
:10B34000D3581B0400D582E08C23584AD3581B06DF
:10B3500000D589E08C23554AD3589B0400D591E051
:10B360008C23524AD3589B0500D42FE60121504824
:10B37000504B98474D498C224F4B885803408B5077
:10B380004E4B984722E600214D484A4B9847474983
:10B390008C2208238858984388504A4B9847B4E732
:10B3A00000214948434B9847404B8C211022585864
:10B3B0009043585070229A5AF023DB001A42A9D0C9
:10B3C0003A4A7020135A41491940C0235B000B438D
:10B3D000135270321B0A78218B4353703C4B9847B1
:10B3E00098E700213B48334B984730498C2204238F
:10B3F000885898438850384B984790E70121374840
:10B400002C4B984729498C22354B885803408B5048
:10B410008AE701213348274B984724498C22324B35
:10B42000885803408B50314B9847314B9847314BEC
:10B4300098477EE7012130481E4B98471B498C22D4
:10B440002E4B885803408B502D4B984776E70121AF
:10B450002C48184B984715498C222B4B8858034091
:10B460008B502A4B98476FE701212948114B984789
:10B470000E498C2280238858984388500020254B01
:10B48000984767E7012124480A4B984707498C22CF
:10B49000224B885803408B50214B984780229200C2
:10B4A00020490020204B98475AE7C046F447002027
:10B4B000609802006DA40000FFFDFFFFD9D80100D5
:10B4C000A4970200C5930000BC9702007FF8FFFF1D
:10B4D00051920100D49702000D000200E49702008F
:10B4E000FFFBFFFFF8970200FFF7FFFF65D00000AA
:10B4F000CDC90000D5D6000008980200FFBFFFFFAD
:10B5000089AF000018980200FF7FFFFF79990000C3
:10B510002C9802003DE300003C980200FFDFFFFF93
:10B52000F9CF0100E41600201DD0010010B5040081
:10B53000094B9847002300280BD0084A240114190E
:10B54000B2239B009C46644423680020A821490143
:10B550005054180010BDC046E18E0000781C002039
:10B5600070B582B02B4D84229200002128002A4B16
:10B57000984700242800294E294DB2239B00E31848
:10B58000F158A8471034802CF7D10024234E244DC5
:10B59000B1239B00E318F158A8471034802CF7D151
:10B5A00000241E4E1E4D80239B00E318F158A8472F
:10B5B0003834E02CF7D10024184E194D80239B001D
:10B5C000E3189B195968A8473834E02CF6D10023BA
:10B5D0006A46137053704433124AD25C13019B1AAB
:10B5E0006A469370104A9369DB03DB0E6946CB70A1
:10B5F00093699B02DB0E0B7193699B011B0F4B71CF
:10B6000093699B0E6A468B7130210248074B98471D
:10B6100002B070BDD2140020DD110200781C0020A1
:10B62000FFFE0100D04800200024004045D3010067
:10B63000F0B5DE4657464E464546E0B583B0842217
:10B64000920034490120344B9847002805D000244B
:10B65000304F324E324B98460EE001213148324B8A
:10B660009847324B1900803100225A601A6010331B
:10B670008B42FAD147E02F003800B047B2239B003D
:10B68000E3184246D0503D1D1034802CF3D1274E94
:10B690002437224B984600E025002800C047306040
:10B6A0002C1D1036BC42F7D1214E14239B46AB44CF
:10B6B0001A4F0023984600E02C002000B847306065
:10B6C00043467360251D38365D45F5D1194E143457
:10B6D000124B9A46184B99462800D04701900023F8
:10B6E0000093326973690098019912184B413261D5
:10B6F00073610435C84730603836AC42ECD1012163
:10B700000E48094B984703B03CBC90469946A24668
:10B71000AB46F0BDE41600201DD00100EBFE010099
:10B72000781C0020809802006DA400003C1F0020BF
:10B73000781E0020681E0020FD5701009C98020022
:10B7400010B51D4A13698020034313611B4B1A88EF
:10B7500002218A431A801A8801210A431A80184A52
:10B760005A63184A9A631988802252000A431A8041
:10B770001988802292000A431A8019888022D200F8
:10B780000A431A801988802212010A431A801A88F3
:10B7900004218A431A801A8802210A431A800A4A1D
:10B7A000C124A40013591B021B0A802109060B4364
:10B7B0001351106010BDC0460008004000600041F9
:10B7C000C01900200019002000E100E01F4B5B6A57
:10B7D0009B0711D51D4A3F21535C0F208343012055
:10B7E000034353540F31535C02200343535400214D
:10B7F000D2235B01164AD150144B5B6A5B070FD50D
:10B80000124A3F21535C0F208343022003435354C9
:10B810000F31535C0343535400210E4B0C4AD1505B
:10B820000A4B5B6A1B0710D5084A3F21535C0F2067
:10B8300083430320034353540F31535C02200343DB
:10B8400053540021044B024AD1507047006000411C
:10B85000781C0020681E00009022000010B5042310
:10B86000196800231868014B984710BD1D58010046
:10B87000F0B5C64600B5C2B084235B006A4600211D
:10B880005748584CA0476E46F21DFF326C460025C3
:10B890002378ED1801349442FAD1534B1B78002BD6
:10B8A00003D042B004BC9046F0BD0733FF336A4674
:10B8B000D35C98460823FF33D75C00214B484C4BA0
:10B8C000984743461B02FF18BD4204D00021494857
:10B8D000474B9847E5E700214748454B98476B465B
:10B8E0001B781B026A465578ED18444B98478542F1
:10B8F00021D0002142483E4B98476B461B7A0133CA
:10B90000DBB26A461372022B66DC002332789B1886
:10B910000136A642FAD1190A8322520068468154A0
:10B920000822FF326946835401323648364B984725
:10B93000364B9847B5E7002135482D4B98476B4665
:10B940009B781B026A46D578ED18324B98478542A2
:10B9500021D06B461B7A0133DBB26A461372022B8D
:10B9600032DC002332789B180136A642FAD1190A3C
:10B9700083225200684681540822FF32694683546C
:10B9800001322048204B984700212348184B984704
:10B990001E4B984785E700212048154B98471048D3
:10B9A0001F4B9847C024E4001D4F1E4E80252D01DB
:10B9B0002000B847B0470134A4B2AC42F8D100210E
:10B9C00019480B4B98476CE700211848084B9847DB
:10B9D0000348134B984764E70148114B984760E7C9
:10B9E000FF050000699F00000C1B0020E898020082
:10B9F0006DA400007C99020004990200698E000089
:10BA000070990200F05D0C00C5A000005DB8000058
:10BA100014990200958C00004099020024990200BC
:10BA200045A00000850102003099020050990200F3
:10BA300010B5040002230370002343704922827072
:10BA4000C3702A3A02714371533383710D4B984787
:10BA50000023C15CE218D17101330F2BF9D123000F
:10BA60002000163000221978521801338342FAD18F
:10BA7000130AA375E27501210348044B9847182067
:10BA800010BDC0463D890000949902006DA40000DD
:10BA9000F8B5DE46474680B58046040001000B310C
:10BAA000030000261A78B61801338B42FAD14346B8
:10BAB000DB7A1B024246127B93469B4447460D3776
:10BAC000424D227842494348A84700214148424B11
:10BAD00098470134BC42F4D100214048404B98477C
:10BAE0005E4508D001213F483D4B984700200CBCE3
:10BAF00090469B46F8BD43465B781B0242469278CF
:10BB00009B18394A1360492B05D001213748344B23
:10BB100098470020EBE74346DB781B024146097952
:10BB20005B18936043465B791B02414689795B1839
:10BB300053604346DB791B024146097A5B18D360A8
:10BB400043465B7A1B024146897A5B1813610121E7
:10BB50002748234B9847274B9B78002B05D1002281
:10BB6000244B9A80204BD868C1E7012122481C4B06
:10BB70009847204BDB891C4A92689A4203D00022E6
:10BB80001C4B9A70EBE701211C48154B9847194B49
:10BB90001B89154A52689A42F1D101211848104B6D
:10BBA0009847144B1B8A104AD2689A42E7D1114C2D
:10BBB0006389A38001211348094B984702236370CE
:10BBC000114B98476061084BD86890E7F512020066
:10BBD000A4990200801A002009A40000A0DD020040
:10BBE0006DA40000009A020094140020EC99020059
:10BBF000AC9902000C1B0020C899020014990200A5
:10BC000024990200D89902000D58010070B50A006D
:10BC1000012303700023437049338370134B9968E9
:10BC20000C0AC47001715B68190A41718371130AAF
:10BC3000C37102720E4BDB881912417283720300CA
:10BC400006000B3600241D7864190133B342FAD183
:10BC5000230AC3720473074C07492000074B984717
:10BC600001212000064B984770BDC0469414002067
:10BC70000C1B0020801A0020209A0200F5120200FE
:10BC800009A4000070B5CCB01D4A557A01AB1D70F7
:10BC9000107A587054799C701179D970D268013A31
:10BCA000160A1E715A7103229A71023ADA71002241
:10BCB0001A725D729872DC7219730D2301A9073232
:10BCC000FF325B5401339342FBD101AB852040002E
:10BCD000684400221978521801338342FAD101AB2B
:10BCE000100A8321490058540821FF315A548422F4
:10BCF000520019000348044B98474CB070BDC04631
:10BD000094140020F05D0C00C5A00000F0B5D646EC
:10BD1000474680B5CFB005000F00544C0A00544987
:10BD20002000544B984700212000534B9847B91EE0
:10BD3000002926D02B00681800241A78A418013393
:10BD40008342FAD16B5C1B02EA19013A12789046E1
:10BD50009844A04517D001214848494B9847434D86
:10BD600000974346220047492800424CA047002143
:10BD70002800414B984700204FB00CBC90469A4693
:10BD8000F0BD0C00DEE70B2F51D0EE7936022B7A96
:10BD90009E19EB7A1B022A7B92469A4452463A49F4
:10BDA0003248344B984701213048334B984753462B
:10BDB000002B45D080235B009A45CCD803AB52467C
:10BDC000120A1A7152465A7129000D315246122038
:10BDD00068442E4B98475346FF2B3CD92C4A916818
:10BDE00003AB080A187059705268110A9970DA701A
:10BDF0008920400068440022197852180133834298
:10BE0000FAD103AB100A8321490058540821FF31AD
:10BE10005A54700180190001C6231B039C466044DC
:10BE20008422520003A91B4B98470120A4E72B78DA
:10BE3000042BAAD101211848114B984703209BE7F6
:10BE4000012116480E4B98470136114BDE60144B0A
:10BE50009847022090E780225200D21A4EA8504400
:10BE60002738FF3800210F4B9847B7E7801A00208A
:10BE7000349A0200F512020009A40000889A020018
:10BE80006DA40000A09A0200589A02005911020005
:10BE900094140020C5A00000449A0200749A020085
:10BEA00085BC0000DD11020010B5032303700023E0
:10BEB0004370493383700F4B9A68110AC170027145
:10BEC0005A68110A41718271DB681A0AC2710372E1
:10BED0000300040009340022197852180133A342E8
:10BEE000FAD1130A4372827200210348034B984728
:10BEF00010BDC04694140020C09A02006DA400003A
:10BF000010B50C4B9B88002B00D110BD01210A48B5
:10BF10000A4B9847074B01229A70094A9188198168
:10BF2000998859811189D981118A9981D2681A8297
:10BF3000EBE7C0460C1B0020D89A02006DA400005D
:10BF400094140020F8B50C0016001D00002807D13D
:10BF5000C64B5A780C2A0ED89300C54AD3589F4630
:10BF6000C24B00225A701A7000231800F8BD012934
:10BF70000CD0022921D0BD4B1A780223002AF4D11B
:10BF80000121BC48BC4B98470023EEE7BB4B9847C8
:10BF9000B64B9B69C01AFA22520002239042E4D9A0
:10BFA0000698B74B9847079B1860B04C0123637005
:10BFB000B44B984760610323D7E7B04B9847AB4B2E
:10BFC0009B69C01AFA22920002239042CDD90698AA
:10BFD000AB4B9847079B1860A44C01236370A94B97
:10BFE000984760610323C0E7012926D0022902D0C7
:10BFF00002230028B9D00D2D2BD00B2D4DD0022CB3
:10C0000053D00F22A04B9A619E4B9847974B5B6988
:10C01000C01A9D4B9A6902239042A6D9934C0025E1
:10C02000257001219948944EB04701219848B047A6
:10C03000984B98476570002397E786239B00964AA4
:10C04000D7588E4B9847C71BFA20B84280414042D0
:10C05000CEE73000914B984783B2844AD380002BBF
:10C0600004D10022814B1A7000237EE7864C000425
:10C07000020C8B4D23698B4928008B4EB047012160
:10C0800028008A4B98470222784B5A700023237568
:10C090008748884B9847032367E73378042BAED152
:10C0A0000422724B5A7002235FE77822764B9A6122
:10C0B000AAE7754A137D0133DBB21375052B0FDC3C
:10C0C0006A4CE288A18806987B4B984703236370EB
:10C0D0006C4B984760610D23079A13600A3B44E755
:10C0E0006C4B984701217548634EB0475F4C002563
:10C0F000257001217248B0476570002335E70122A1
:10C1000002291ED10223002A00D12EE7002D4CD097
:10C1100002332A009A430B2A1FD01023FF339D427B
:10C120001BD05F4C2B00674A80212000664DA8473A
:10C13000012120005D4B984702224C4B5A7002238C
:10C1400013E786239B00544AD7584C4B9847C01B93
:10C15000FA22824292415242D4E7290030005B4BDE
:10C16000984701280CD0002805D0022813D00328B6
:10C1700016D00223F9E602223C4B5A700323F4E660
:10C180003A4B02225A709A8801329A8000223E4B22
:10C190001A750323E9E60422344B5A700323E4E6BC
:10C1A0000B22324B5A700323DFE6012C11D0022CF4
:10C1B00013D0344B98472D4B5B69C01A324B9A69A8
:10C1C0000223904200D8D0E60222284B5A70022364
:10C1D000CBE601222C4B9A61EBE70F222A4B9A61A6
:10C1E000E7E706983A4B98470B23079A13601F4CD2
:10C1F000013B6370234B984760610223B5E6214BF6
:10C2000098471A4B5B69C01A0223032800D8ACE692
:10C21000164B00225A709A701A7001212D48164B45
:10C2200098470123A1E60698294B98470B23079AC4
:10C2300013600E4C01336370124B98476061022308
:10C2400093E6104B9847094B5B69C01A02230328F9
:10C2500000D88AE6094B9847044B986100221A706F
:10C2600001211D48044B984700237EE60C1B00204B
:10C27000B4980200CC9B02006DA40000FD570100A1
:10C2800031BA00000D58010094140020089B0200F0
:10C290001C9B020001BF0000C841002091BA0000B1
:10C2A000801A0020EC9A0200F512020009A4000096
:10C2B000FF05000045A000000DBC00003C9B0200F3
:10C2C000649B0200789B0200711202000DBD000009
:10C2D000A9BE0000A09B0200B89B0200024B0022F6
:10C2E0001A705A707047C0460C1B002070B584B09D
:10C2F000484B1B780120002B04D0012B04D0022BCB
:10C300002CD0012004B070BD00230393424A812346
:10C310009B00D35803A901910092012100203F4CBA
:10C32000A0470400039900290BD1012C0FD0002C49
:10C330000BD0032CE5D1002181239B00364AD1503C
:10C34000DFE73548364B9847EFE70020DAE704236C
:10C35000196800231868334B9847D2E77123324A93
:10C36000D25C07331340082B0CD0304B9847294B35
:10C370005B69C01A3C28C4D92D4B98470022254B35
:10C380001A70BEE70023039383239B00224AD258EE
:10C39000002A24D184239B001F4AD358002BE4D1C8
:10C3A00014008325AD00535903AA01920094220082
:10C3B00002210020194EB0470600039A84239B00F7
:10C3C000E25000236351002A13D1012E1BD0032E0B
:10C3D000CBD1002181239B000F4AD150C5E7154CDA
:10C3E00015492000154B984701212000144B984710
:10C3F000D0E7104C13492000104B98470121200032
:10C400000F4B9847E1E70423196800231868054B90
:10C410009847AAE70C1B0020C841002045BF000038
:10C42000E1A200001D580100F44700200D58010052
:10C4300001BF0000801A0020E09B0200F5120200FC
:10C4400009A40000049C0200F0B5DE4657464E46A3
:10C450004546E0B55F4CA54404008946170081427B
:10C4600009D90B1A0593059B002B00DCAFE00023D4
:10C47000984607976BE00B1A8022D20094466344DB
:10C4800005938142EFD10023984640468D239B00BF
:10C490009D443CBC90469946A246AB46F0BD1D1B50
:10C4A00043465B19DBB298464B4E4B4602930194D0
:10C4B000059B00932B00494A80213000484FB84724
:10C4C00001213000474B984753465E0156443601E0
:10C4D0003300454A9446634406938422920008A997
:10C4E0001800424B9847002D1DD00F239B460C3B54
:10C4F0009A4608A8079F5B462340514619404900C9
:10C500009B08023352468A409446C25C6646B24358
:10C510003E008E403243C254013D0134A405A40DB7
:10C52000002DE8D10797172304AA944663441622E6
:10C530006244062108A82E4DA847082208A906989B
:10C540002C4B9847A145A0D0059B98459DDA23091F
:10C550009A4601331B01A145A1D91D1B994501D262
:10C560004B461D1B43465B19DBB298461A4E4B46A1
:10C5700002930194059B00932B00184A8021300000
:10C58000174FB84701213000164B984753465E01BC
:10C59000564436013300144A944663440693842279
:10C5A000920008A91800114B9847002D9DD1172320
:10C5B00004AA9446634416226244062108A80C4D3E
:10C5C000A847082208A906980A4B9847BCE7002309
:10C5D00098465AE7CCFDFFFF801A0020DC9D020040
:10C5E0007112020009A4000040CE000081A10000E9
:10C5F00081880000C5A0000030B5174CA544040098
:10C600000F250D400909480140180001134B9C46B5
:10C610006044842292006946114B9847AB086B44F2
:10C620009B7803210A002A40520013410B4000204E
:10C63000022B03D085239B009D4430BD290184AB90
:10C640009C466144074B9C46614410222000064BE7
:10C6500098470120EEE7C046ECFDFFFF40CE00000A
:10C6600081A10000F8FDFFFF59110200054BDA68B7
:10C67000501C8005800DD8605B68181A431E9841D5
:10C68000C0B2704748490020F0B5DE4657464E46D6
:10C690004546E0B5B84CA544B84BB94F00249A467E
:10C6A0001D00B94607E001340A3504239C46E144E5
:10C6B000282C00D192E0A3001B195B00AF4A9B5CC1
:10C6C0009B07F0D5A3001B195B0052469A5C022120
:10C6D0008A4351465A544B461B68002B00D142E115
:10C6E00084AA1470A3001B195B00A4495B5CDB07E0
:10C6F000DB0F5370002384AAD218E918897891704F
:10C700000133072BF7D19F4B6B449F4A6A440E219C
:10C7100084A89E4EB346B0479D4F3E680F233340DA
:10C72000984633095E01F61836019A4B9C466644DA
:10C730008422920069463000974B9847434618017F
:10C7400088AB9C466044954B9C466044102284A96B
:10C75000934B9847434699080231032342461340BE
:10C760005B00032098406A46525C82430220984056
:10C77000030013436A4653546B46073306320621BF
:10C780006846D8478422920069463000854B984716
:10C790003B6801339B059B0D3B60BB680133BB606D
:10C7A0002300814A80218148814EB04700217F4883
:10C7B000804B98478023DB00BA689A4200D072E72A
:10C7C00000217D487D4B9847714A536801339B0592
:10C7D0009B0D53609368013B936064E7784B9946E7
:10C7E00028270026654B9A46684B984609E0013693
:10C7F0000A239C46E1440137FFB2F6339E4200D142
:10C80000B1E0B3009B195B005344E02292009446D0
:10C8100063441B789B07EAD5B3009B195B00574A1A
:10C8200094466344E0229200944663441A780221BD
:10C830008A431A7084AB1F70D207D20F5A706148B6
:10C8400068444A4611789970013201338342F9D124
:10C850004C4B6B444C4A6A440E2184A8C0474C4D53
:10C860002C680F2323409B4623095C01E418240114
:10C87000484B9C4664448422920069462000464B03
:10C8800098475B46180188AB9C466044434B9C46E6
:10C890006044102284A9424B98475B4699080231B4
:10C8A00003235A4613405B00032098406A46525CBB
:10C8B000824302209840030013436A4653546B4658
:10C8C0000733063206216846C04784229200694633
:10C8D0002000344B98472B6801339B059B0D2B6040
:10C8E000AB680133AB6000213748344B9847802355
:10C8F000DB00AA689A4200D079E700212E482F4B2E
:10C900009847234A536801339B059B0D53609368F6
:10C91000013B936014680F25254023095C01E4184E
:10C9200024011C4B9C4664440822694620001A4B93
:10C930009847AA08023203232B405B000321994049
:10C940006B469B5C8B4369468B546B4607336A4648
:10C950000632062168460D4DA84708226946200088
:10C96000104B984743E789239B009D443CBC90466D
:10C970009946A246AB46F0BDDCFDFFFF781C0020C7
:10C980000C9D02001F0200001E02000081880000B2
:10C990004849002040CE000081A10000E8FDFFFFD3
:10C9A00059110200C5A00000049E0200801A002058
:10C9B0007112020009A400001C9E02006DA4000078
:10C9C000FA1F002017020000389E0200F0B5184C34
:10C9D000A544184E002500246B461C705D709C70A9
:10C9E000DC701C715C7180225200FF2102A8124B86
:10C9F00098476B4607336A460632062168460F4F52
:10CA0000B84784229200694630000D4B98470135A3
:10CA100084239B009C466644402DDDD1094B0022B7
:10CA20005A601A609A6085239B009D44F0BDC04601
:10CA3000ECFDFFFF40CE0000DD1102008188000008
:10CA4000C5A0000048490020F0B5DE4657464E46D6
:10CA50004546E0B5CDB00021A448A54B98470CABA6
:10CA60009946A44F0023984600240AADA24B9A464B
:10CA700022E00422122161444846A04B984711E06D
:10CA80000422002148469E4B984723009D4A80215E
:10CA900049009D489D4EB04700219B489C4B9847BC
:10CAA00001239846013484239B009C466744042359
:10CAB0009C46E144402C30D0082229003800D04761
:10CAC0000E2306AA944663440F22624406212800DE
:10CAD000904EB047AA7906ABDB7B9A42D0D1EA7977
:10CAE0000E2306A98C4663441B789A42C8D16B7802
:10CAF000A342BED0042200214846814B9847230020
:10CB0000854A802149008048804EB04700217E48F8
:10CB10007F4B984701239846C4E74346002B17D123
:10CB20007E4B00225A601A609A600CAB18780200A3
:10CB30004346039304930026002106918B4600256B
:10CB4000002403270793059684462800D94626E04B
:10CB5000734B984700217348654B9847AAE04946B4
:10CB6000002938D0039901290CD106900491079926
:10CB700003910121059105E0012E34D04946012998
:10CB800020D04E4601333B4001309208002B04D1A7
:10CB9000013406AA18215218125DFF2C26D839003C
:10CBA00011400229E8D00329D9D00029EAD1002E6A
:10CBB0000AD0039D012DE5D1069004950391013122
:10CBC0000591DFE70391DDE70690039101210591CF
:10CBD00001260491D6E7069007990391012105915A
:10CBE00089460491CEE701210391CBE7059E60467B
:10CBF000002E0FD1049B002B10D047464346002245
:10CC0000059206920021032507970CAE14004246B8
:10CC1000270017E0414B069A1A60EBE7404B984714
:10CC200000214148324B984744E0002A00D003924B
:10CC300001332B4001378008002B01D10131705C9A
:10CC4000FF291AD82C000440022C04D0032CECD06D
:10CC5000002CEDD1E9E7002A09D0039C012CE7D193
:10CC600006972200079C039401240594E0E70697A9
:10CC70000392049A01240594DAE71700059B002B20
:10CC80001FD1002A2ED1254A136853601A00D11AE9
:10CC9000224881602149CB601B4C89680191009238
:10CCA000224A802149002000184DA8470021200079
:10CCB000174B98474DB03CBC90469946A246AB46B0
:10CCC000F0BD164B069A5A60002FDCD0134A536809
:10CCD00012689342DBD98021C9005118C91A0F4844
:10CCE0008160D7E70D4A53681268D0E74C9E020076
:10CCF0006DA4000040CE000081A100005911020087
:10CD0000DD1102007C9E0200801A002071120200D8
:10CD100009A40000818800005C9E020048490020B0
:10CD2000CDC90000949E0200B09E0200C09E020089
:10CD3000094B9B68834205D8074BDA685A6000228A
:10CD40009A607047044A1B1A936053689C4660447B
:10CD50008005800D5060F4E74849002070B51C4BF9
:10CD60009B680020002B1DD0194B1B7CDA071AD5BD
:10CD700000205B0716D5164B5868D968884209D041
:10CD8000144E154D1C000322B047A8476068E168A7
:10CD90008842F8D10E4A137C04218B4303398B431C
:10CDA0001374002070BD0D4B9847094B5B69C31A83
:10CDB0000020032BF6D9064A137C01210B43DBB27A
:10CDC00002210B43FB210B4013740130EAE7C046FC
:10CDD0004849002049C4000031CD00000D58010031
:10CDE000F0B5DE4657464E464546E0B5874CA5446D
:10CDF0000390874DAC69A406A40EFA2189004C4328
:10CE0000844B9889844B984789B2091904AB1970EF
:10CE1000090A5970AA691205920E9A70AA69D2037A
:10CE2000D20EDA70AA699202D20E1A71AA69920120
:10CE3000120F5A71AA69920E9A71784B9846784BE4
:10CE40009A460024454621E00E2C17DCA3001B194E
:10CE50005A00744B9B1819009131FF3108884A8899
:10CE6000120402439933FF331B785B07DB0F2968F9
:10CE70008946002902D0002B00D0B7E001340435E8
:10CE80000A239C46E2440C2C00D1B5E0039B002B06
:10CE9000DAD0072CF2DD2B689946A3001B195A0043
:10CEA000604B9B189133FF331A885B881B04134334
:10CEB00098464B46002BE1D08AAB4A461A704A4648
:10CEC000120A5A704A46120C9A704246DA7042466A
:10CED000120A1A71082C00DD8AE053461A888AABC0
:10CEE0005A71002304A88AAAD218195C91710133DF
:10CEF000072BF8D14C4B02AA944663444B4A624438
:10CF00000E218AA84A4EB0474A4B1B689B460F2306
:10CF10005A461A4017005B461B095E01F618360197
:10CF2000454B9C4666448422920006A93000434B40
:10CF3000984738018EAB9C466044414B9C46604408
:10CF400010228AA93F4B9847BA08023203205B4659
:10CF500003405B00984002A91027C919895C8143EE
:10CF60000220984003000B4302A9102009188B549B
:10CF7000172302AA9446634416226244062106A897
:10CF80002B4FB8478422920006A930002E4B9847B9
:10CF90002E4E284B1B680193434600934B462C4A68
:10CFA0008021490030002B4FB847002130002A4B28
:10CFB0009847204B1B6801331B051B0D1D4A13604E
:10CFC00093680133936080225201934200D055E769
:10CFD00000212248224B9847164A536801331B050B
:10CFE0001B0D53609368013B936047E7904663E7EE
:10CFF00000228AAB5A7174E78F239B009D443CBC8E
:10D0000090469946A246AB46F0BDC046C4FDFFFF20
:10D0100000240040D0480020BD020200BC9D020058
:10D02000101E0020781C00202F0200002E0200009D
:10D030008188000018490020809C010081A1000027
:10D04000E8FDFFFF59110200C5A00000801A002072
:10D05000DC9E02007112020009A400001C9E020066
:10D060006DA40000F0B5CE46474680B51A4CA544E5
:10D070001A4E002500246B461C705D709C70DC709D
:10D080001C715C7180235B0099461A00FF2102A885
:10D09000134B98476B4607336A46063206216846AB
:10D0A000104FB84784229200694630000E4B9847D3
:10D0B000013584239B009C4666444D45DBD10B4BD8
:10D0C00000225A601A609A6085239B009D440CBC24
:10D0D00090469946F0BDC046ECFDFFFF809C0100E4
:10D0E000DD11020081880000C5A000001849002061
:10D0F000F0B5DE4657464E464546E0B59D4CA54444
:10D1000000219D489D4B98470CAF9D4C00239846AD
:10D1100000260AAD9B4B9A46BB4618E0042212211A
:10D1200061445846984B984706E00422002158462F
:10D13000964B984701239846013684239B009C46D2
:10D14000644404239C46E344FC339E4225D00822D9
:10D1500029002000D0470E2306AA944663440F22DC
:10D160006244062128008A4FB847AA7906ABDB7BC8
:10D170009A42DAD1EA790E2306A98C4663441B78D9
:10D180009A42D2D16B78B342C8D0042200215846CB
:10D190007E4B984701239846CEE74346002B18D193
:10D1A0007C4B00225A601A609A600CAB187802001F
:10D1B0004346039304930021059100248B460026E7
:10D1C00000250327079374498C46069481465846E8
:10D1D00026E0724B984700217148684B9847ABE0B6
:10D1E0005946002937D0039901290CD1069604919C
:10D1F000079903910121059105E0012833D0594693
:10D2000001291FD0584601333B4001369208002BBC
:10D2100004D1013506AA18241219525D654525D896
:10D220003C001440022CE8D0032CD9D0002CEAD1C9
:10D23000002809D003990129E5D1069604910394A9
:10D240000591E0E70391DEE706960394012105913D
:10D2500001200491D7E706960799039101210591D2
:10D260008B460491CFE701210391CCE7069C484609
:10D27000059B002B0FD1049B002B0FD04746434644
:10D28000002205920692002603210797424D3400A2
:10D290004646270019E03F4B1C60ECE73F4B9847A0
:10D2A00000214048354B984746E0002E00D00396B9
:10D2B00001330B4001378008002B04D1013206A84E
:10D2C00018240019805CAA421AD80C000440022CD1
:10D2D00004D0032CE9D0002CEAD1E6E7002E09D0D7
:10D2E000039C012CE4D106972600079C039401249B
:10D2F0000594DDE706970396049E01240594D7E77D
:10D30000059B002B20D1002E2FD1224A1368536099
:10D310001A00D11A1F4881601E49CB60224C8968CF
:10D3200001910092214A802149002000204DA84708
:10D33000002120001F4B98471F4B9D443CBC90464A
:10D340009946A246AB46F0BD124B069A5A60002E93
:10D35000DBD0104A536812689342DAD98021490120
:10D360005118C91A0B488160D6E70A4A53681268F7
:10D37000CFE7C046CCFBFFFF0C9F02006DA400006E
:10D38000809C010081A1000059110200DD11020002
:10D390008188000018490020FF03000065D00000CC
:10D3A000209F0200409F0200801A0020509F020030
:10D3B0007112020009A4000034040000094B9B68AC
:10D3C000834205D8074BDA685A6000229A6070479A
:10D3D000044A1B1A936053689C4660440005000D84
:10D3E0005060F4E718490020054BDA68501C00052E
:10D3F000000DD8605B68181A431E9841C0B2704790
:10D400001849002070B5174CA54405000C000F26E4
:10D410000E400B095801C0180001134B9C46604494
:10D42000842292006946114B9847B3086B449A785E
:10D4300003231C406400E24013400020022B03D071
:10D4400084239B009D4470BD310184AB9C466144A4
:10D45000074B9C46614410222800064B9847012048
:10D46000EEE7C046F0FDFFFF809C010081A10000B7
:10D47000F8FDFFFF59110200F0B5DE4657464E4653
:10D480004546E0B55F4CA54404008946170081423B
:10D4900009D90B1A0593059B002B00DCAFE0002394
:10D4A000984607976BE00B1A80225201944663441A
:10D4B00005938142EFD10023984640468D239B007F
:10D4C0009D443CBC90469946A246AB46F0BD1D1B10
:10D4D00043465B19DBB298464B4E4B460293019490
:10D4E000059B00932B00494A80213000484FB847E4
:10D4F00001213000474B984753465E0156443601A0
:10D500003300454A9446634406938422920008A956
:10D510001800424B9847002D1DD00F239B460C3B13
:10D520009A4608A8079F5B46234051461940490088
:10D530009B08023352468A409446C25C6646B24318
:10D540003E008E403243C254013D01342405240D77
:10D55000002DE8D10797172304AA944663441622A6
:10D560006244062108A82E4DA847082208A906985B
:10D570002C4B9847A145A0D0059B98459DDA2309DF
:10D580009A4601331B01A145A1D91D1B994501D222
:10D590004B461D1B43465B19DBB298461A4E4B4661
:10D5A00002930194059B00932B00184A80213000C0
:10D5B000174FB84701213000164B984753465E017C
:10D5C000564436013300144A944663440693842239
:10D5D000920008A91800114B9847002D9DD11723E0
:10D5E00004AA9446634416226244062108A80C4DFE
:10D5F000A847082208A906980A4B9847BCE70023C9
:10D6000098465AE7CCFDFFFF801A0020DC9D0200FF
:10D610007112020009A40000809C010081A1000099
:10D6200081880000C5A00000F0B583B0214B9B6845
:10D630000020002B2BD01F4B1B7CDA0729D50020A4
:10D640005B0724D51B4A5368D268934217D01A4E01
:10D650001A4D1B4F0092320080212800B84701214B
:10D660002800184B9847134C0322E1686068164B5A
:10D670009847164B98476368E2689342EAD10D4A8F
:10D68000137C04218B4303398B431374002003B0B4
:10D69000F0BD0F4B9847074B5B69C31A0020032B63
:10D6A000F5D9044A137C01210B43FB210B40137471
:10D6B0000130ECE718490020789F0200801A002012
:10D6C0007112020009A4000079D40000BDD300004B
:10D6D0000D580100F0B5184CA544184E0025002443
:10D6E0006B461C705D709C70DC701C715C718022DC
:10D6F0005200FF2102A8124B98476B4607336A4637
:10D700000632062168460F4FB847842292006946C8
:10D7100030000D4B9847013584239B009C4666449E
:10D72000102DDDD1094B00225A601A609A608523C2
:10D730009B009D44F0BDC046ECFDFFFF4007040088
:10D74000DD11020081880000C5A0000030490020E2
:10D75000F0B5DE4657464E464546E0B5A64CA544D4
:10D760000021A648A64B98470CAB9946A54F00232D
:10D77000984600240AADA44B9A4622E004221221C6
:10D7800061444846A14B984711E0042200214846D5
:10D790009F4B984723009F4A802149009E489F4EF7
:10D7A000B04700219C489E4B98470123984601347E
:10D7B00084239B009C46674404239C46E144102C30
:10D7C00030D0082229003800D0470E2306AA9446FC
:10D7D00063440F22624406212800924EB047AA7982
:10D7E00006ABDB7B9A42D0D1EA790E2306A98C46A0
:10D7F00063441B789A42C8D16B78A342BED00422FE
:10D8000000214846824B98472300874A80214900DF
:10D810008148824EB04700217F48814B98470123C1
:10D820009846C4E74346002B17D1804B00225A602C
:10D830001A609A600CAB1878020043460393049375
:10D840000026002106918B4600250024032707931C
:10D85000059684462800D94626E0754B9847002156
:10D860007448674B9847A9E04946002938D0039986
:10D8700001290CD10690049107990391012105918A
:10D8800005E0012E34D04946012920D04E4601330F
:10D890003B4001309208002B04D1013406AA182124
:10D8A0005218125D3F2C26D8390011400229E8D0C9
:10D8B0000329D9D00029EAD1002E0AD0039D012DD9
:10D8C000E5D106900495039101310591DFE70391BD
:10D8D000DDE7069003910121059101260491D6E729
:10D8E0000690079903910121059189460491CEE79D
:10D8F00001210391CBE7059E6046002E0FD1049BCA
:10D90000002B10D047464346002205920692002184
:10D91000032507970CAE14004246270017E0434B3F
:10D92000069A1A60EBE7424B984700214248344B75
:10D93000984743E0002A00D0039201332B4001377F
:10D940008008002B01D10131705C3F291AD82C00CE
:10D950000440022C04D0032CECD0002CEDD1E9E7DC
:10D96000002A09D0039C012CE7D106972200079CCE
:10D97000039401240594E0E706970392049A012496
:10D980000594DAE71700059B002B20D1002A2ED141
:10D99000264A136853601A00D11A244881601E4C2D
:10D9A0002249896801910092244A8021490020007F
:10D9B0001A4DA84700212000194B984791239B003E
:10D9C0009D443CBC90469946A246AB46F0BD174BE1
:10D9D000069A5A60002FDBD0144A536812689342AB
:10D9E000DAD9511CFF31C91A10488160D7E70F4AB4
:10D9F00053681268D0E7C046BCFDFFFFD89F020005
:10DA00006DA400004007040081A10000591102002C
:10DA1000DD1102007C9E0200801A002071120200BB
:10DA200009A40000818800005C9E020030490020AB
:10DA3000D5D60000F09F0200409F02000CA002001B
:10DA4000F0B5DE4657464E464546E0B5654CA54422
:10DA5000654F0024654B9A46654B984604E00134B7
:10DA60000A37282C00D1B3E0E0B2A3001B195B00F9
:10DA700052469B5C1B07F2D5A3001B195B005B4A57
:10DA80009A5C08218A4359495A54C047431CE6D03E
:10DA900084AB1870A20015196D00544AAA5CD20715
:10DAA000D20F5A70534868443A0011789970013285
:10DAB00001338342F9D1504B6B44504A6A440E21E2
:10DAC00084A84F4DAB46A8474E4E35680F232B40D8
:10DAD00099462B095D01ED182D014B4B9C46654481
