:10800000C05C002005AE000001AE000001AE000023
:108010000000000000000000000000000000000060
:1080200000000000000000000000000001AE0000A1
:10803000000000000000000001AE00005D2D010006
:10804000618D000001AE0000291F010001AE00009B
:1080500001AE000001AE000001AE000079B40000E6
:1080600001AE00003D290100053301001924010083
:108070002926010001AE0000E926010001AE000042
:1080800001AE000001AE000001AE000001AE000034
:10809000ED2E0100E130010001AE000001AE000054
:1080A00001AE0000991B0100491B010001AE000058
:1080B0004D1C010001AE000001AE000010B5064CE1
:1080C0002378002B07D1054B002B02D0044800E099
:1080D00000BF0123237010BDB00B00200000000082
:1080E000CCA30200084B10B5002B03D00749084869
:1080F00000E000BF07480368002B00D110BD064B0D
:10810000002BFBD09847F9E700000000B40B0020DB
:10811000CCA30200CCA302000000000070B5060052
:108120000D00064B9847064CA620A0473000A047FC
:108130002800A047034B984770BDC046E5D4000017
:1081400065D500002DD50000F7B505000E4F0E00D7
:108150000192B8470D4CA620A0472800A0470C4D1F
:10816000A847B847A720A0470024B4420ADA701EE7
:10817000001B43425841074BC0B29847019B18551A
:108180000134F2E7A847F7BDE5D4000065D500004B
:108190002DD50000F1D5000013B50E4C00212D2087
:1081A000A04710212D20A04708212D20A0476B4675
:1081B000DC1D220001210020074B98472278074C44
:1081C00007492000074B984701212000064B98479C
:1081D00013BDC0461D8100004981000080180020A9
:1081E000294C0200F1CC010055A90000F0B58FB078
:1081F000029106A903920A007C269D4B019013CBA5
:1082000013C213CB13C203CB03C29A4B04AA082197
:108210003020984704AB1D782E407BD0964C32001E
:1082200096492000964B984720000021954B98478F
:10823000002433000122234113420CD006AAA300DC
:10824000D31ADB69904922008B488D4FB847002133
:1082500089488C4B98470134082CEAD18B4C6B062B
:1082600014D52300012651331A78324006D1092053
:10827000874B310098473000864B984701211020EA
:10828000854B9847854B9847854B5861AB0614D56D
:10829000230001265A331A78324006D10A207C4B3B
:1082A0003100984730007B4B9847012111207A4BD1
:1082B00098477A4B98477A4B9861EB0614D5230080
:1082C000012663331A78324006D10B20704B3100FF
:1082D000984730006F4B9847012112206E4B98470A
:1082E0006E4B98476E4B18616B0713D56C34227830
:1082F0000124224006D10C20654B21009847200024
:10830000644B984701211320634B9847634B984770
:10831000634BD8615D4C0125230051331B782B4200
:108320000ED05E4B98475E4B5B69C01A0F2807D989
:1083300000220920564B110098472800554B9847BA
:10834000230090331B78DB070AD5544B9847544BD6
:108350005B69C01A782803D9002110204E4B98473A
:10836000230001255A331B782B420ED04B4B9847E4
:108370004B4B9B69C01A0F2807D900220A20444B97
:10838000110098472800434B9847230099331B78E6
:10839000DB070AD5414B9847414B9B69C01A7828A7
:1083A00003D9002111203C4B9847230001256C3351
:1083B0001B782B420ED0394B9847394BDB69C01ADA
:1083C0000F2807D900220C20314B110098472800B4
:1083D000304B98472300AB331B78DB070AD52F4B74
:1083E00098472F4BDB69C01A782803D90021132046
:1083F000294B98472300012563331B782B420ED06D
:10840000264B9847264B1B69C01A0F2807D9002214
:108410000B201F4B1100984728001E4B9847A23491
:108420002378DB070AD51D4B98471D4B1B69C01AE3
:10843000782803D900211220174B984704ABDA782B
:108440009B7812021343019A1BB2136004AB5A7952
:108450001B7912021343029A1BB2136004ABDA7940
:108460009B7912021343039A1BB213600FB0F0BD45
:10847000FC4B02004981000080180020394C0200AA
:10848000F1CC010055A900004B4C0200781A0020E5
:1084900061D9000099DB000071E60000E52D0100C4
:1084A000CC0B0020F0B585B06A46102300250926C4
:1084B000012713700133537002339370013BD37063
:1084C000023302AC13710133237001336370023342
:1084D000A370013BE370023323716A46525D124B75
:1084E0007243D15C1A00C9078732C90F127800297C
:1084F0000ED03A4207D13200605D39004243D25C6F
:10850000D207D20F0DD00135052DE6D105B0F0BD53
:108510003A42F8D03200605D4243D35CDB07F2D5CB
:108520000A00024B9847EEE7781A002061D9000054
:108530008223DB05186AC000C00F7047024B586ADF
:10854000C000C00F7047C046FC00004110B50400D9
:10855000054B9847054B98472200211D0832200003
:10856000034B984710BDC046318500003D85000093
:10857000ED810000F7B56B46DC1D0F000C4B0121AF
:108580001600220005009847227801231100394186
:108590001940B14208D0BB40002E06D013432370CF
:1085A00021782800034B9847F7BD9A432270F7E7DC
:1085B000498100001D81000010B5FF220021034BFE
:1085C0009847034BC1B21D20984710BD91BA0100D6
:1085D0001D81000070B50E001500054CC1B21E20B3
:1085E000A047F1B21F20A047E9B22020A04770BDEC
:1085F0001D81000010B5FF220021034B9847034B5B
:10860000C1B22120984710BD91BA01001D81000020
:108610004A1E914110B5CAB2024B01002F20984763
:1086200010BDC046758500004A1E914110B5CAB202
:10863000024B01002E20984710BDC04675850000F2
:1086400010B5FF220021034B9847034BC1B22420F1
:10865000984710BD91BA01001D81000010B5FF229E
:108660000021034B9847034BC1B22520984710BD0A
:1086700091BA01001D81000010B5FF220021034BBB
:108680009847034BC1B22820984710BD91BA01000A
:108690001D81000010B5FF220021034B9847034BBA
:1086A000C1B22920984710BD91BA01001D81000078
:1086B00010B5020006212720014B984710BDC04687
:1086C0007585000010B5020005212720014B984751
:1086D00010BDC0467585000010B50200042127209A
:1086E000014B984710BDC0467585000010B50200CB
:1086F00002212720014B984710BDC0467585000018
:1087000010B5020001212720014B984710BDC0463B
:108710007585000010B5020000212720014B984705
:1087200010BDC0467585000010B5FF220021034B27
:108730009847034BC1B22620984710BD91BA01005B
:108740001D81000010B5020002212A20014B98472C
:1087500010BDC0467585000010B5020001212A2019
:10876000014B984710BDC0467585000010B502004A
:1087700000212A20014B984710BDC0467585000096
:1087800010B5C1B2014B2220984710BD1D810000D9
:1087900010B5FF220021034B9847034BC1B22320A1
:1087A000984710BD91BA01001D810000F8B56E4BCD
:1087B00098476E4B9847822380220224DB0552059E
:1087C0006B485A605A6101782143017069498A6097
:1087D0008A61AE2149005A5C22435A54664B674A6B
:1087E0001C7000245A60664A5C709A60654ADA60C0
:1087F000654B984721006548654B9847654B9847FE
:10880000654D664F020066492800B847654E210055
:108810002800B047644B9847644902002800B847D5
:1088200021002800B047624B9847624902002800A7
:10883000B84721002800B047564B98475E4B9847F1
:10884000594B98475D4B9847594B98475C4B984715
:1088500001205C4B984701205B4B984701205B4B04
:10886000984701205A4B984701205A4B98470120BE
:10887000594B98470120594B98470120584B98472E
:108880000120584B9847584B9847584902002800F8
:10889000B84721002800B047554B9847554902007A
:1088A0002800B84721002800B047534B9847534948
:1088B00002002800B84721002800B047504B9847D5
:1088C000504902002800B84721002800B0474E4B0D
:1088D00098474E4902002800B84721002800B047B9
:1088E000414B98474A4B9847414B9847494B9847CB
:1088F000414B9847484B9847414B9847474B9847BF
:10890000474B9847474B9847474B9847474B9847A3
:10891000474D21000620A84721000520A847012136
:108920000220A84721000420A847424D012106202B
:10893000A84701210520A84701210220A8470121BD
:108940000420A84701214942052208003A4B9847D4
:108950003A4B3B4A3B495C601C8159801C80103378
:108960009342F8D1F8BDC046C52F0100D1D4000014
:108970005C000041FC000041CC0B0020C3AB763B07
:10898000D86B763BF2E4643B99810000624C0200B4
:10899000B5A9000081A2000080180020F1CC0100E0
:1089A0007D4C020055A9000091A20000944C0200E9
:1089B000A1A20000AE4C0200418600005D860000CE
:1089C00029870000B1860000C5860000D986000016
:1089D000ED86000001870000158700004587000034
:1089E000598700006D87000021A20000C44C0200DE
:1089F00031A20000D64C020051A20000E84C020057
:108A000041A20000FC4C0200B1A200000F4D020088
:108A1000B9850000F585000081870000918700007E
:108A200061A200007986000071A200009586000016
:108A30001186000029860000D5850000C81B002093
:108A4000F81B0020FF7F000000221100F0B5084B4A
:108A5000084D0948094C0027DE5F141904322E51D5
:108A60009981D880998010330C2AF3D1F0BDC0468B
:108A7000C41B0020781A0020FF7F0000CC0F0000EC
:108A8000F0B5002585B03F4C039001953E4BEF18A3
:108A90003E4BFF18039B3A685B599E1A0293F317EB
:108AA000F6185E403A4B9847864201DD0123019358
:108AB000039B5B5902936B4608229B5EDA17991859
:108AC00051400420225E2380D01712184240914268
:108AD00000DDA3800620225ED0171218424091428A
:108AE00000DAE380A089A268411C504389B2C01813
:108AF000A181284B9847284EA0603378022B09D1DA
:108B0000013B3370029B00213B600D20234B9847B3
:108B100000230193043510340C2DB7D1019B1B4C5D
:108B20001F4D002B14D001201E4B98471E4B984719
:108B30000121753422780A4002D10D201B4B984741
:108B4000A847012130621420144B984705B0F0BDAE
:108B500075342378012423420CD0A847336AC01A05
:108B60000F2807D9019A0D20104B110098472000BB
:108B70000F4B9847A847336AC01A7828E6D90021D6
:108B8000E1E7C046C41B0020CC0F0000781A00208B
:108B9000B1A20000C1BC0100CC0B002071E60000B6
:108BA000E52D0100FDC60000498A000061D90000E2
:108BB00099DB0000002310B5034C23722360034BA4
:108BC0009847606010BDC046F00B0020E52D010005
:108BD000024A137A013313727047C046F00B00202B
:108BE000F0B52E4D97B0A8472D4C6368C01A0228E7
:108BF00051D9A847237A60603F2B4CDC294F3B6852
:108C0000002B48D10EAC2000274B9847002842D0BB
:108C1000264B9847264D0100264B280098472649A9
:108C2000264E2800B047264B20789847214B01005C
:108C300006A8984706A92800B04763782149002B69
:108C400000D121492800B047204B9847FA21227AC9
:108C5000E37865790492E2791B020392A279890094
:108C60000292A078C0181A4B984701902379194AAC
:108C7000009340212B00184C06A8A0470C4C06A9D5
:108C80000E4B20009847154B200098470121386073
:108C9000134B2000984717B0F0BDC046E52D0100EA
:108CA000F00B0020281900208DD20000A59A0000AA
:108CB0002C190020E5CE0100B54D020035CD010094
:108CC0003D920000C04D0200C74D020071D200006D
:108CD000ADBB0100CF4D02006DCC0100F5CE01000F
:108CE00055A90000022210B5194B1A481969182419
:108CF00091431961196901401961402118690843BC
:108D000018615868104358601869A0430400102087
:108D100020431861186902431A610F4B5A691143C5
:108D2000012259610D4B191DCA67BFF34F8FBFF365
:108D30006F8FC021C024FF2049005A50A400195948
:108D4000814308008021014319511A6010BDC046BB
:108D500000180040FFFEFFFF0008004000E100E0B7
:108D600010B5054B9A68920705D5022299680A4307
:108D70009A60024B984710BD0018004071B3000084
:108D800073B5B84C230058331B78022B04DC230046
:108D900059331B78022B48DDB34B98470325054018
:108DA00000D109E22300382250331B781340082BEE
:108DB0003BD1AE4B9847002801D1AD4B188423001E
:108DC000503318884005000F06282ED812F0D8FE20
:108DD0000700520078019801D301DD012E00A54B58
:108DE0009847A54B1B68C01A03281ED9A34B5B8864
:108DF000192B0ADD0022A14B50345A802388A04A47
:108E00001A40A0239B00134332E09E4B002098475A
:108E10000F23503403409A4A2088DB011040184346
:108E200078232080000A9843607073BD954B002022
:108E3000984721000F235031914A03400888DB01F5
:108E400010401843F023DB000880184011008A4BC3
:108E50000022802801D11A7901321A711B79022B64
:108E6000E3DD2300032257331A70503423880B406C
:108E70002380DAE72300513318784006000F0628D4
:108E8000D3D812F069FE042884C5DAE0ED00002092
:108E90007D4B9847782250346378784D93431A007D
:108EA000102313436370794C794A6B88802120002A
:108EB000784EB04700212000774B98476B880120FF
:108EC00001336B80754B9847754B01209847754867
:108ED000754B9847A9E7754B0020984722000F2350
:108EE0007821503203405078DB008843184350709B
:108EF0006F4B00209847022803DD00225F4B1A8049
:108F00005A802300513318784006000F0B2800D9EF
:108F10008BE712F02BFE0C0012008AFF0C000C00F5
:108F20000C000C008AFF8AFF160022003800002285
:108F3000110010005F4B984777E700224C4B1A87CF
:108F400073E700224D4B5034DA80637878329343D4
:108F50001A0008231343637067E7484A4B4DD388D0
:108F6000802101339BB2D3802800534A494EB04739
:108F700000212800484B9847782250346378934367
:108F80001A001823E6E7454B02209847F4E7434BC5
:108F90000020984722000F2378255032184053783C
:108FA000C100AB430B435370082800D93DE712F0D2
:108FB000DDFD090012003CFF3F0016003CFF3CFFB6
:108FC0003CFF210038225034237800209343237043
:108FD0003A4B984729E7002201211000AAE778229E
:108FE00050346378934363702388254A1A40C02322
:108FF0005B0008E750342388214A1A40A0239B00D5
:10900000134323808023A2785B421343A3700CE7B1
:10901000234B002098470F23782250340340607878
:10902000DB009043184360701040282800D0FCE615
:10903000104B9847104B9860F7E6782250346378CD
:1090400093436370DAE60B4B98470B4B9B68C01A4F
:10905000042800D8E9E678225034637893437AE70D
:109060005034C1E7D8360020A99C00006D4B0100A8
:1090700090370020E52D0100FC0B0020701A002025
:109080007FF8FFFFE5540100C9B1010080180020FE
:10909000E14D02006DCC010055A90000DDB50100D5
:1090A00099B70100FFFF0000B1980000E9B101008D
:1090B000EDB7010061D90000F34D02009D9C000056
:1090C000434B0020984722000F2350320340414970
:1090D0001088DB0108401843F023DB0010801840A3
:1090E0008028B8D080235B00984200D19DE63A4AA0
:1090F000538801335380394B9847394B186094E6B5
:10910000384B002098470F2350341840314D2388A6
:10911000C2012B4013432380032800D885E62E4A42
:10912000938801339BB29380032B08D9002393804B
:1091300023882B40A025AD001D43258075E63822ED
:109140002378002093432370274B98477822637835
:109150008021934363702388244A1D402580002486
:10916000234D230000942800224EB0472100280000
:10917000214B9847BFE7184B5B88012B00DD39E690
:1091800050342388134A134072E6230003225733D6
:109190001A70503423880F4A13404722238013400B
:1091A00023700024154B1C84154B984720000E4B50
:1091B0009847144B984738E6114B98470A4B2800BC
:1091C000984778225034637893436370D9E7C04658
:1091D000215901007FF8FFFF701A0020E52D0100E2
:1091E000FC0B0020255B01009D9C00000E4E020040
:1091F000801800206DCC010055A900009037002098
:10920000DD3201007D830100F0B5FF25094F002606
:109210002C00BC46B7B28F4208DA875D0136674042
:109220006446E45D6C40044DED5DF3E714701D7021
:10923000F0BDC046284E0200284F0200024B00013C
:10924000C018024B18187047A2040000080C002038
:10925000024B22308000181881647047881100206A
:10926000024B223080001818806C70478811002053
:10927000002310B5044A4832C45CD11801338C77FE
:10928000142BF9D110BDC0468811002010B5010083
:109290000248034B8E30984710BDC046881100200D
:1092A000E5CE010001488E307047C046881100208D
:1092B00001487A307047C0468811002010B501007F
:1092C0000248034B7A30984710BDC04688110020F1
:1092D000E5CE0100F7B5174B002117489847174C0A
:1092E000174D2600174F6436653439002800019465
:1092F00033002200144CA047019B29001A783378D0
:10930000B9261202F6009B181B0432000F4C0020F5
:10931000EB51A0478420320029000001A047002221
:1093200001211B200A4B984700211B20094B98471D
:10933000F7BDC046B5A90000285002000812002061
:10934000080C0020C4050000099200001DA60000C2
:1093500061D9000071E60000F0B589B0202200213B
:10936000E54B6846984701256B4629005D80E34838
:10937000E34B9847E34C00232100A8310A7823806F
:109380002A430A70A7225200A15C0D432100A55474
:10939000133AFF3A6280DC4AAA310A802100AC31DC
:1093A0000A801900A280E2800133312B0FD1002204
:1093B00011000132192A11D0A31818003633773062
:1093C00001700176FF33A63001701970F1E7E218E1
:1093D0001000ED32473001701170E5E72000CB4DF1
:1093E000CB494830A8472000CA49EE30A8472000A2
:1093F000C9497830A84720001F30C849FF30A84726
:109400002000C7499030A84720003730C549FF30B9
:10941000A8472000C44E08303100A8472000310082
:109420002830A84720003100AE30A8472000310086
:10943000CE30A847F42332225B00E25200220233EE
:10944000E252F722B94B5200A352A8210232A35292
:109450000232A3520232A352012302273C200326E8
:109460004900625C1A433A438243383802436254EB
:10947000C919625CB2431A4382431536B24362543F
:1094800021009622FC3192018A656422CA65F83275
:109490009446A25C24361A43BA43B243664602435A
:1094A000A255AF22520094465A3EA25CFF3EB24300
:1094B0001A4382431536B2436646A255962292015C
:1094C0004A6664228A660532FF329446A25C233ED5
:1094D0001A43BA43FF3EB243664669370243FF3739
:1094E000A255E25D663EFF3EB2431343182283431A
:1094F0009343E35596239B010B6764234B6721003D
:1095000061444B7807321A4020006023A130134396
:109510004B70FF308649A8472000864E75303100D9
:10952000FF30A847200083303100FF30A8472000DB
:1095300091303100FF30A847CF2307225B00E25271
:10954000F8321633E2527C4A0233E2527B4A02334B
:10955000E252DD2296219B3BFF3B5200A352890041
:109560000432A1523C21023AA1520432A3520022F9
:10957000B333FF33E2520A210023624C9A1C122AB1
:1095800004D0D333FF33E1521300F7E7F122022373
:109590005200A352D218A3520022CD33FF33E2521D
:1095A00067491833E25223006618FA216420F73322
:1095B000FF33C900B34207D01A805980D9809A80FE
:1095C00018815A810C33F5E75E4B5F49E018A847D4
:1095D0005E4B5F49E018A8475E4B5F49E018A8471B
:1095E0005E4B5F49E018A8475E4B5F49E018A8470B
:1095F00096225E4B5200E25292180233E2527823D6
:10960000002601275A4AA3525A4AA3525A4AA35241
:10961000102E1AD10023822519006D000433AB42AD
:109620002AD10022932511006D000632AA422CD0C7
:109630005248A31818180180C8208000181801800B
:10964000C92080001B181980EFE7330069464A33B0
:109650001B017200515AE25C3940BA430A43E2549A
:10966000E25A474930010A40E252464B4649C01887
:109670002018A8470136CBE78920E218800010188F
:109680000180424812181180C8E78022404B120125
:10969000B421E2520023C90063523E492D20625298
:1096A0003D4A0F21A352FA2304329B00A3523B4AA6
:1096B000A3523B4AA3523B4AA35232230232A35243
:1096C000394AA152394AB931A152394A7839A1529D
:1096D000B7210A22C90062523649605236491E300B
:1096E000605236490F38605202316252344AA352F6
:1096F000344B984709B0F0BDD9CB0100345002007B
:10970000B5A90000080C002001200000E5CE0100F2
:10971000425002004B500200545002005E500200C2
:1097200068500200725002007C500200B80B00002A
:10973000895002008E5002000F0F0000031000003D
:109740002602000046040000995002005604000062
:10975000A250020066040000AB5002007604000034
:10976000B650020086040000C350020096040000B8
:109770009A0400009C0400009E04000022030000E4
:1097800001FEFFFFA2040000CC50020022020000F4
:10979000A2050000A6050000A4050000AA0500001F
:1097A000AC050000AE050000B2050000B4050000E5
:1097B000B6050000BA050000BC050000BE050000AB
:1097C000C2050000D5920000054B002805D0A72255
:1097D0005200985CC007C00F7047A8331878F9E7AB
:1097E000080C0020074B002807D0A7225200985CE5
:1097F000002905D00007C00F7047A8331878F7E795
:109800004007F8E7080C002003000020012B09DCCA
:10981000074A50321178074AC90704D55433580013
:109820001018408870475B00D3189888FAE7C04644
:10983000D8360020080C0020002301280DDC0A4B3C
:10984000400150331A7801231A40084B07D01A0000
:109850000021ED321170AE301B181800704719004E
:109860000831CA770830F7E7D8360020080C002006
:10987000DD23024A5B00D05A7047C046080C002026
:10988000DE23024A5B00D05A7047C046080C002015
:10989000DF23024A5B00D05A7047C046080C002004
:1098A000E023024A5B00D05A7047C046080C0020F3
:1098B000014BE0331880704788110020014B188855
:1098C0007047C046080C0020014BE03318887047F1
:1098D00088110020DC23034A5B00D05A0005000DEC
:1098E0007047C046080C0020014B58887047C0469E
:1098F000080C002000487047080C0020B920C00068
:109900007047000000487047460400000C234343A2
:109910000348C0185130FF300078C007C00F7047AF
:10992000080C00200C2343430448C0180123513085
:10993000FF300278134303707047C046080C0020C4
:109940000C2343430348C0185130FF300078800691
:10995000000F7047080C00200C2343430348C01835
:109960005130FF3080784007C00F7047080C00204E
:109970000C2343430348C0185130FF308078C006A1
:10998000800F7047080C00200C2343430248C01886
:10999000FC30806D7047C046080C0020020000209B
:1099A000012A08DCE82304495B00C85AD03BFF3B8E
:1099B0009340184010417047080C00200520704764
:1099C00003000020022B05DC0E305843024B75309B
:1099D000FF3018187047C046080C00200200002015
:1099E000022A08D8CF2304495B00C85A9E3BFF3B9C
:1099F0009340184010417047080C002002000020DE
:109A0000072A08D8DA2304495B00C85AB43BFF3B55
:109A10009340184010417047080C002070B51600A4
:109A200003281ADC124C044004D50223013C5B429B
:109A30001C430134C20F12185210D2B20D4D6001F6
:109A40000D4B002A0AD0AE302818984730000B4B37
:109A50009847543464002D19688070BD0830281868
:109A600098473000054B984764002C19A080F4E714
:109A700001000080080C0020E5CE0100BDCA0100F5
:109A80009C207047014848307047C046881100202C
:109A90000C2343430248C018FC30C06D7047C046D9
:109AA000080C00200148A130FF307047080C00204E
:109AB000014B4833988B704788110020044BE830E5
:109AC000400018184388FA20800058437047C04669
:109AD000080C002002000020012A08D8F1230449C4
:109AE0005B00C85AE23BFF3B93401840104170476F
:109AF000080C002002000020012A08D8F2230449A3
:109B00005B00C85AE43BFF3B93401840104170474C
:109B1000080C002002000020012A08D8F323044981
:109B20005B00C85AE63BFF3B93401840104170472A
:109B3000080C0020002310B5064A07484832591C7B
:109B4000062905D01C006434145DC4540B00F6E7EC
:109B500010BDC0468811002080180020002310B5D9
:109B6000064A07484832591C092905D01C005A34B6
:109B7000145DC4540B00F6E710BDC04688110020E8
:109B80008018002037B5050000246B46285DD91DDC
:109B90000E4B984722000E4B6432002800D0285DFF
:109BA00019000134483188540A2CEED11A000021E2
:109BB000084CB5321170084D084AAC3340312000D2
:109BC000A84701212000064B984737BD2FB8010058
:109BD00088110020801800206DCC0100D2500200B6
:109BE00055A9000037B5050000246B46285DD91D36
:109BF0000E4B984722000E4B5A32002800D0285DA9
:109C000019000134483188540A2CEED11A00002181
:109C1000084CAB321170084D084AA2334031200085
:109C2000A84701212000064B984737BD2FB80100F7
:109C300088110020801800206DCC0100D250020055
:109C400055A90000014BB6331888704788110020D1
:109C5000014BB6331880704788110020014B483300
:109C6000588B704788110020014B4833188B704780
:109C700088110020054B002805D0A7225200985CCF
:109C80008007C00F7047A8331878F9E7080C002048
:109C9000014BB8331878704788110020014BB83356
:109CA0001880704788110020A722074B5200985C4B
:109CB000A8331B78C007C00FDB074000DB0FC018BC
:109CC000002800D103307047080C0020020000205B
:109CD000012A08D8E72304495B00C85ACE3BFF3B62
:109CE0009340184010417047080C002010B5044BF9
:109CF0000901C918034B20225918034B984710BD7E
:109D000046040000080C0020EDCF010092239B00C8
:109D1000C018024B40001818C0887047080C00207B
:109D2000044A1300EE33002801D113004833180011
:109D30007047C046080C0020044A13001F33FF334D
:109D4000002801D11300783318007047080C002058
:109D5000044A13003733FF33002801D11300903336
:109D600018007047080C0020034B1888002802D107
:109D7000024BE03318887047080C0020881100203F
:109D800002000020302A0BDC06235A43054B9B18A7
:109D9000C82292009B18DB799A0601D4DB06D80F03
:109DA0007047C046080C002002000020302A0BDC5F
:109DB00006235A43054B9B18C82292009B18DB7957
:109DC000DA0601D49B06D80F7047C046080C002065
:109DD0000023302806DC063343430348C018034BF6
:109DE000C018038818B27047080C00202A0300002E
:109DF00003002F280BDC0F4888339B00C318D98839
:109E00000D4A0020914201D0D87980097047002086
:109E10005F2BFBDC0622303B5A43064B9B18074A5C
:109E20009A181188044A9142F0D0C82292009B18D7
:109E3000EAE7C046080C0020FFFF000026030000F0
:109E400003002F2805DC094888339B00C318987944
:109E5000704700205F2BFBDC303B06305843034B40
:109E6000034A1B189B181878F2E7C046080C00201C
:109E7000260300000300303BDAB200202F2A09D865
:109E8000063043430448C018C8239B00C018C0795B
:109E90000007000F7047C046080C002003002F2861
:109EA00005DC094888339B00C318188970470020D7
:109EB0005F2BFBDCCA22303B06305843024B92003A
:109EC0001B189B181888F1E7080C00200C2343434B
:109ED00006483C22C0180F235130FF300B40017858
:109EE0009B009143194301707047C046080C002045
:109EF000014B18807047C046080C002070B5134B0A
:109F0000134C144DE0181449A847144B1449E01899
:109F1000A847144B1449E018A847144B1449E018FB
:109F2000A847144B1449E018A8479622134B520037
:109F3000E25292180233E2527823114AA352114A94
:109F4000A352114AA352114B984770BD460400001A
:109F5000080C0020E5CE01009950020056040000D4
:109F6000A250020066040000E250020076040000E5
:109F7000B650020086040000C350020096040000A0
:109F80009A0400009C0400009E040000D59200008A
:109F900070B50022092401250A490B4813004A33F1
:109FA0001B015E5CF60709D55B5ADB051B0E1B2BFC
:109FB00004DC6343C3185E782E435E700132102ABE
:109FC000ECD170BD080C0020781A00200323F0B5F6
:109FD00089B007935F4B9847B9225F4FD200390091
:109FE0005E4B002098475E4C5E4E65345E4B22000F
:109FF00031005E4D38000694A847069B5C4D1A78E8
:10A00000594B12021B7800219B18BA591B0493422A
:10A0100006D15848A84700211B20574B984728E0F5
:10A020005648A847B9228420D20039004B4B000182
:10A0300098474D4B069A310038004C4CA047069B80
:10A0400000211A78484B12021B789B18BA591B043E
:10A05000934204D14A48A8474A4B9847DBE74A480D
:10A06000A847079B013BDBB20793002BB2D1474BBC
:10A070009847474D26232E00483673832933338370
:10A08000443BB38301222B00424CE03352421A80FE
:10A090004149424B2000984700231900E05CF21828
:10A0A0001071100001333230017001759177142B5B
:10A0B000F4D100232E0019004836F21810000133A5
:10A0C0005A306432017011700A2BF6D12A00DC324A
:10A0D00012682B0002922A00D8321268D4350192FD
:10A0E0002A68D03300921B682D4A80212D4D200014
:10A0F000A847012120002C4B984700250C236B43D7
:10A10000FB181A0019005932FF32126851310492BB
:10A11000FF318A7855335207D20F03928A78FF3382
:10A12000D206920F02921B68204A01930B782000FE
:10A13000DB07DB0F009380212B001A4EB04701355F
:10A1400000212000184B9847032DD7D1184B984772
:10A1500009B0F0BD5DA70000080C0020B9A6000002
:10A1600008120020C40500006C12002009920000B3
:10A17000B5A90000EC50020071E600000451020095
:10A1800024510200D59200003D5102005993000075
:10A1900088110020801800205E510200E5CE0100E9
:10A1A0006A5102006DCC010055A900008B510200DC
:10A1B000919F0000002310B509491A004A3212018C
:10A1C000545CE40706D5525AD205120E824201D1E0
:10A1D00018B210BD0133102BEFD101204042F8E737
:10A1E000080C00206A23024AFF33D05C4009704704
:10A1F000080C00200623C8225843074B92001B1866
:10A200009A18D2790120910604D5D20602D5034AC4
:10A210009B1818887047C046080C00202A030000CD
:10A22000B623024ADB00D05E7047C046080C00200F
:10A23000014B024AD05A7047B2050000080C0020BA
:10A24000014B024AD05A7047B4050000080C0020A8
:10A25000014B024AD05A7047B6050000080C002096
:10A26000B723024ADB00D05E7047C046080C0020CE
:10A27000014B024AD05A7047BA050000080C002072
:10A28000014B024AD05E7047BC050000080C00205C
:10A29000014B024AD05A7047BE050000080C00204E
:10A2A000B823024ADB00D05A7047C046080C002091
:10A2B000014B024AD05A7047C2050000080C00202A
:10A2C00082238022DB05D2005A6198331A607047DE
:10A2D000054B1A00197EC907FCD59862137E9B07AF
:10A2E000FCD5906AC0B270470004004270B505000A
:10A2F0000C00002C07D00020034B9847013C28702D
:10A30000A4B20135F5E770BDD1A2000070B505001B
:10A310000C00002C06D02878034B013C98470135EF
:10A32000A4B2F6E770BDC046D1A20000064B10B53E
:10A330001870080C5870080A9870D9701800111D10
:10A34000024B984710BDC0466E1200200DA30000BE
:10A3500010B5064B9847064CD720A0470020A047D1
:10A3600080228223D200DB059A6110BDC1A20000C9
:10A37000D1A2000010B500240A4B9847030603D46D
:10A380000134A4B2292C06D100222723E00FA342D6
:10A390005041C0B210BD0022034B5A635A6B012AD0
:10A3A000FCD9E9E751A3000090370020F0B5032461
:10A3B000FF258BB06B1EDBB2FD2B62D9002C61D068
:10A3C000324B9847013CE4B2071E4DD0304B9847C2
:10A3D000431EDBB205000890FD2BEBD800213D2683
:10A3E00008002C4A2E40538905919C469389099672
:10A3F0000793137A0693284B284EB3420FD01E784A
:10A400003700099EB74208D159888C469988079130
:10A41000997906910121080005910833ECE7059E22
:10A420001C4B002E01D066465E81002802D0684693
:10A43000808B9881002902D06946097E19723F20DD
:10A4400008995389014003940291117A144E0191A5
:10A450009289802100923000124A134FB8470021A0
:10A460003000124B9847A5E701211148114B98473E
:10A47000114E124B77639847114B726B9A42FCD97D
:10A4800098E7012420000BB0F0BDC04675A3000082
:10A4900051A300006E120020B251020012520200BD
:10A4A00080180020125202006DCC010055A9000056
:10A4B00033520200B5A90000903700201DBB0100F7
:10A4C000E7030000F8B51F000E4B05000C00160056
:10A4D0009847002814D00C4B984729000B4B0422B6
:10A4E0001B7AD22099400A4B214398473000094BF0
:10A4F00039009847802282230120D200DB059A612F
:10A50000F8BDC04675A30000C1A200006E12002075
:10A510002DA30000EDA2000070B50C4B06000C004E
:10A5200015009847002810D0094B984700223100A9
:10A530008420084B98472000074B29009847802229
:10A5400082230120D200DB059A6170BD75A3000053
:10A55000C1A200002DA300000DA3000010B50B4BFD
:10A560000400984700280FD0094B98472100094B59
:10A5700000221B7A83209940074B98478022822330
:10A580000120D200DB059A6110BDC04675A3000012
:10A59000C1A200006E1200202DA3000010B50B4BCD
:10A5A0000400984700280FD0094B98472100094B19
:10A5B00000221B7A81209940074B984780228223F2
:10A5C0000120D200DB059A6110BDC04675A30000D2
:10A5D000C1A200006E1200202DA3000010B50B4B8D
:10A5E0000400984700280FD0094B98472100094BD9
:10A5F00000221B7A53209940074B984780228223E0
:10A600000120D200DB059A6110BDC04675A3000091
:10A61000C1A200006E1200202DA30000F0B5204B57
:10A6200085B05D8902911F4B2900040017009847EF
:10A63000290001901C4B2000984701250E00002F97
:10A6400002D0002D03D10025280005B0F0BD144B29
:10A650005C89A41BBC4200D93C006B469B880393D9
:10A660001800124B9847051EEDD0A2B2B0B2029965
:10A670000F4B98470540EDB2002DE4D00D4B0398E9
:10A680009847074B054059893019074B9847019B5C
:10A690000E0001330193029B3F1B1B190293CEE76F
:10A6A0006E120020ADBB0100B9BC0100DDA50000A9
:10A6B00019A500005DA50000F7B51A4B01915D8951
:10A6C000194B290004001600984783B20093290013
:10A6D0002000164B984701278DB2002E20D0002F66
:10A6E0001ED0104B5C89641BB44200D93400A3B265
:10A6F0002900019A0E4F0098B847A3B2ED18094BF4
:10A7000007005989A8B2094B98470098A4B20130B4
:10A7100083B20093019B8DB21B190193361BDCE7BA
:10A720003800FEBD6E120020ADBB0100B9BC0100B7
:10A73000C5A4000082238022DB05D2009A609A61C2
:10A74000802292009A609A61013AFF3A9A609A6177
:10A75000802212015A605A617047000010B5034B05
:10A760009847034B9847034B984710BD35A7000007
:10A77000511F0100ADA3000037B5134CA0470028BE
:10A7800020D0124B9847C72301A80370333B437076
:10A79000143B83701A33C37004210D4B98478022F9
:10A7A0008223FA25D200DB059A61AD00A04700287C
:10A7B00007D101210748084B98472800074B9847C5
:10A7C000F4E701203EBDC04675A30000C1A2000011
:10A7D0000DA3000060520200B5A9000071BA01008B
:10A7E000044B10B51B78012B01D0034B9847012077
:10A7F00010BDC0460C190020B526010010B50F4B46
:10A800005A331B785A1E012A05D9042B15D10C4B3B
:10A810001B78012B11D0812280210A4BD200C90064
:10A820009A585958914208D007495858002804D1DD
:10A8300001305850985C054B984710BDD836002021
:10A840000C190020C832002004040000E1A7000019
:10A8500070B50A4C0D000A00094B01002000984712
:10A8600080230022DB00E55001250833E250054B30
:10A870002078E550044B9847280070BDC83200206E
:10A8800055CB010004040000B5260100F7B5174BB5
:10A8900007005A331B780C005A1E012A06D90020E3
:10A8A000042B1AD1124B1B78012B16D08025114E88
:10A8B000ED00715963188819AB420FDD6B1A1A004D
:10A8C000019339000C4B9847019B3000E41AF918AA
:10A8D0002200094B984701207451FEBD2200064B0F
:10A8E0003900984773591C19F5E7C046D83600203F
:10A8F0000C190020C832002055CB010010B50F49BB
:10A900000F488B698A6989698089120589068CB02C
:10A91000920E890EDB030290019100922021094AD8
:10A92000DB0E04A8084CA047084B04A89847084B26
:10A93000010004A898470CB010BDC0460024004098
:10A9400090370020695202006DCC0100F5CE010065
:10A950008DA8000010B50400002901D00E4B9847C7
:10A960000E4B200098470E4B01002000984700280E
:10A9700011D00C4B0C495A58002A0CD10B4A5A32B0
:10A980001278002A07D001225A508122D2009A5808
:10A99000985C074B984710BDFDA80000F5CE01005C
:10A9A0008DA80000C832002004040000D836002022
:10A9B000E1A7000010B50400002901D00E4B984714
:10A9C0000E4B200098470E4BC1B22000984700283C
:10A9D00011D00C4B0C495A58002A0CD10B4A5A3250
:10A9E0001278002A07D001225A508122D2009A58A8
:10A9F000985C074B984710BDFDA80000F5CE0100FC
:10AA00008DA80000C832002004040000D8360020C1
:10AA1000E1A70000202307B501AA93700023D3709B
:10AA20000F33034019000A3905290DD83733537005
:10AA3000030919000A39052908D837331370002192
:10AA40001000034B984707BD3033F0E73033F5E78C
:10AA500055A90000F7B5244B04005A331B780D00AC
:10AA60001700002B18D0FD22033B134215D11F4EB7
:10AA70001F4FF359002BFCD18122D200B35021008B
:10AA80001C4B2A00300098478023DB00F55001233F
:10AA90003078F351184B9847F7BD184EB0470190E6
:10AAA000B047019BC01A6328FAD9812200210F4BBD
:10AAB000D2009950083A99500D4A9950FB0702D597
:10AAC0000F48104B98472600331B9D4204DD307819
:10AAD0000D4B98470136F7E7BB07DDD500210B4842
:10AAE000084B9847D8E7C046D8360020C832002027
:10AAF0000404000055CB0100E1A70000D52D0100A2
:10AB000080520200B5A9000015AA00008852020078
:10AB100070B50E4B9847812200240D4BD2009C50FB
:10AB2000083A9C500B4D0C4A9C502B0002225A3381
:10AB30001A700A4B9847E865094D0A4928000A4BE4
:10AB4000984728002100094B984770BDB1240100A7
:10AB5000C8320020D836002004040000E52D010092
:10AB60008018002091520200E5CE010055A9000096
:10AB7000F0B58125844CAD00635993B0002B08D00B
:10AB8000824B984786239B00E358C01A322800D98D
:10AB9000B3E000257E4B5A331878A84204D0013820
:10ABA000C0B27C4B98470500794C23005A331B7880
:10ABB000042B03D1784B1B78012B21D0774B98477E
:10ABC000E36DC01AA8421BD901217548754B9847FF
:10ABD00000221A201100744B984700235A34237026
:10ABE0006A4CA0470500A047401B6328FBD9812180
:10ABF00000226E4BC9005A5008395A506C495A50BD
:10AC000013B0F0BD6B490AA86B4DA84702A96B4B66
:10AC10000AA898476A490AA8684B98470AA92000D9
:10AC2000B047002800D1ADE0594E052233005A3319
:10AC30001A705A4B98470121F06500221A205A4B8E
:10AC40009847604B984781220026584BD2009E506F
:10AC5000083A9E50564A9E505B4B98475B492000ED
:10AC6000A8475B4B2000984782239B00E0500100DF
:10AC7000584B032220009847019BE65082E0424C4B
:10AC800055492000554B984700287BD0404D022263
:10AC90002B005A331A70414B98470022E865012176
:10ACA0001A20414B98474E4D4E4A022380212800DE
:10ACB0004D4EB0474D4B0121280098470023019A83
:10ACC000A3505FE08123304D9B00EA58304C002AAE
:10ACD00007D022005A321078421E032A0AD8444B69
:10ACE00098475A342078002800D058E781239B00E9
:10ACF000E8504EE70022EA50F3E700276359019538
:10AD0000E754FDB2062FDDD0052FB8D0394B29000E
:10AD100002A8984702AB1B78002B33D01A4C2F4E59
:10AD2000042F00D16EE702A92000B047002829D0E7
:10AD3000314B01351D70194B154E98470022F065B7
:10AD400001211A20184B9847254D7B1C2B4A802146
:10AD50002800254EB04728000025244B01219847A4
:10AD6000019BE550244B1B78022B0BDD154B9847BC
:10AD700081220E4BD2009D50083A9D500C4A9D50A6
:10AD8000114B98470137BCE7AC300020D52D0100AE
:10AD9000D83600200D9D00000C190020E52D010083
:10ADA0001C530200B5A9000061D90000C832002080
:10ADB00004040000CD520200E5CE010035CD0100B3
:10ADC000E252020011260100B1240100D752020014
:10ADD000F5CE010055AA00006B37002029D30100F1
:10ADE00080180020E55202006DCC010055A900003A
:10ADF0002D8D0100ED9C0000323700209D52020095
:10AE0000FEE700000F48104970B5884204D00023C7
:10AE10000E4CCA18A2420ED300210D4B0D4A93428C
:10AE20000DD3FF210C4B0D4A8B4393600C4B98477D
:10AE30000C4B9847FEE7C55804331560E9E702C399
:10AE4000EDE7C046CCA3020000000020B00B0020BC
:10AE5000B00B0020BC4C00200080000000ED00E0A2
:10AE6000D5CA01002D030100012070B5154A442404
:10AE70009369FF34034393618223DB051A00C632D2
:10AE80001178402581431170195D814319551900CE
:10AE900080240831A404CD675C6011780018014358
:10AEA0001170190059310E7830430870042016785B
:10AEB000064316700A7810431A009832087015601D
:10AEC0009C6170BD00080040F0B5124C91B001AE1D
:10AED00021000C22104B05003000984704AA1300F3
:10AEE0000C3483CC83C383CC83C383CC83C383CC14
:10AEF00083C30020012D0BDC8221735DC905DB01BA
:10AF00005B18AD001B6AA858184043425841C0B2B4
:10AF100011B0F0BD3853020055CB0100F8B5002543
:10AF20000927EEB2104B30009847104B0400300058
:10AF30009847002814D1631E9C4101200C4B0D49F9
:10AF40005A5DE4B27A43535C83431C4354540A4A27
:10AF5000AB009B1800222D181A61022DE1D1F8BD1B
:10AF600063425C41E9E7C046C9AE00009D9900001C
:10AF700068570200781A0020D8360020F0B56C4DD2
:10AF800089B0A8476B4EF36AC01A182800D8CDE0E4
:10AF9000FA27694CBF00A1698906890E794304919B
:10AFA000A847664B39009847049BC91806AB5970EF
:10AFB000090A9970A2691205920EDA70A269D20389
:10AFC000D20E1A71A2699202D20E5A71A26992012E
:10AFD000120F9A71A269920EDA710C221A70A847A8
:10AFE0000025574FF062ECB2022D00D19EE0554B88
:10AFF00020009847544B06002000984700286BD14A
:10B00000731E9E412800514B9847F6B204900028C9
:10B010005FD109224E4B28005B5D53434D4A9B5C38
:10B020004D4ADB07DB0FB34261D0002E57D090476B
:10B03000002857D02800494B9847002852D02000BC
:10B04000474B9847474B0400EA5C002A04D1013281
:10B05000EA54374B984738623B6A0493344B98471D
:10B06000049BC01A844234D828003F4B98470028DC
:10B0700009D009220821364B5B5D5343354AD25C27
:10B080000A433449CA54324B31005B5D06AA1800AA
:10B090000593364B98470923059A5A432D4BD35CA9
:10B0A000DB07DB0F0593224B9847049A304E801A3A
:10B0B000059A80216B1C02940190009230002D4A69
:10B0C0002D4CA0471A4B9847012138602B4B30007C
:10B0D00098470135043786E773425E4192E790470F
:10B0E0000028A7D0264B98473B680400B5E7904757
:10B0F000041E11D0002E07D12800224B98470028AB
:10B1000006D0184BEE5403E06A46164B127CEA5404
:10B11000074B98473860DCE7002EF2D02800194B27
:10B1200098470028F4D00F4BEC54F1E709B0F0BD7C
:10B13000D52D01009037002000240040B9BC01004B
:10B14000E8360020C9AE00009D990000CD9C0000AB
:10B1500068570200781A0020159B0000D59A00005D
:10B16000BD9A00007C120020FD99000061D900000A
:10B1700080180020745302006DCC010055A9000016
:10B18000BD990000F59A000070B5574DA847574C7F
:10B19000A368C01A092800D8A4E0A8470825A06021
:10B1A000534C636E2B4208D0524B002152489847B3
:10B1B000636EAB436366514B98471025636E2B4219
:10B1C00017D000214B4B4E4898472100F022636E68
:10B1D0005031AB4363660B88D200134209D0494A11
:10B1E0001A40C0235B00134378220B801B0A934351
:10B1F0004B700425636E2B4208D03E4B0021424821
:10B200009847636EAB436366404B9847636E5B053C
:10B2100007D5384B01213E489847626E3D4B13409D
:10B220006366636E1B0517D501213B48314B984778
:10B23000626E3A4B13406366394B9847394B9847D7
:10B24000394B9847394B9847394B984780223949B1
:10B2500092000120384B9847636E5B0407D5254B5D
:10B26000012136489847626E354B13406366636E22
:10B270001B0409D51F4B012132489847626E324B9F
:10B2800013406366314B98478025636E2B4209D08B
:10B290002F48184B01219847636E0020AB4363662B
:10B2A0002C4B9847636E9B040FD501212A48114B04
:10B2B0009847626E294B13406366294B984780225A
:10B2C0001C49920000201C4B9847636E9B0509D5D2
:10B2D000084B012123489847626E234B1340636655
:10B2E000224B984770BDC046D52D01007C1200202E
:10B2F000D8360020B5A900008D53020059930000F4
:10B30000A45302007FF8FFFFB853020091B9010077
:10B31000BF530200FFFBFFFFD0530200FFF7FFFF08
:10B3200079A70000CD9F000005C9000099C3000067
:10B33000F9CD0000B0120020A5910100E0530200F9
:10B34000FFBFFFFFEF530200FF7FFFFFFD9E0000E6
:10B350000054020085DB00000E540200FFDFFFFFF7
:10B36000819101002F540200FFFDFFFFBD980100F5
:10B3700007B500216B46197059700E4B68463C3377
:10B380001A780F2353436A4693700B4A9369DB0381
:10B39000DB0EC37093699B02DB0E037193699B0103
:10B3A0001B0F437193696A469B0E83710348044BDC
:10B3B000984707BD9037002000240040E214002089
:10B3C00041940100842210B5920005490120054BEB
:10B3D0009847002803D1044B9847044B984710BD69
:10B3E000B0120020A5910100F1F9000071B3000036
:10B3F000802110B51B4A13690B43136102221A4BBB
:10B4000018889043188001201C8820431880174812
:10B4100058631748986380201C8840002043188098
:10B4200080201C8880002043188080201C88C00059
:10B430002043188080201C880001204304241880A9
:10B440001888A043C12418801888A40002438020D3
:10B450001A80084A000613591B021B0A03431351A2
:10B46000116010BD0008004000600041C0170020BE
:10B470000017002000E100E01E4B5A6A920710D529
:10B480000F211D4802788A43110001220A430270ED
:10B4900002221A490878024300200A70184A194902
:10B4A00088505A6A52070FD50F21134802788A43F1
:10B4B0000D390A430270114A1078014311709E221F
:10B4C00000201049520188505B6A1B0710D50F22DB
:10B4D00009490B7893431A00032313430B7002238B
:10B4E000064A11780B4300211370074B054AD150CF
:10B4F0007047C046006000413F6000414E6000411F
:10B5000098120000781A0020E814000000231B683D
:10B51000FFDE00008423F0B5C5B05B0002AA002165
:10B520004A484B4CA047002383220093520002A9B3
:10B53000C95C00980133411800919342F7D1454B03
:10B540001C78002C63D1FF2602ABF618337AF7790A
:10B5500021004148414D0193A847019B3F02DF195B
:10B56000009B21003E48BB422AD13E48A84702AB7F
:10B570001F785B783F02DF193B4B984721008742D9
:10B5800047D13A48A84702AB9F78DB783F02DF19E2
:10B59000374B9847874215D121003648A847C02429
:10B5A0002A48354E8027B047E4003F01200001348F
:10B5B000B047A4B2314B9847BC42F7D10021304884
:10B5C000A84724E002AB1B7A02AA0133DBB2137254
:10B5D000022B16D883222300520002A9C95C013332
:10B5E00064189342F9D18422230AF37102A952000C
:10B5F0002448254B3472984700212448A847244BFF
:10B60000984721002348A84710481B4B984745B04E
:10B61000F0BD1E48A84702AB1B7A02AA0133DBB279
:10B620001372022BF0D883222300520002A9C95CB6
:10B63000013364189342F9D18422230AF371520032
:10B6400002A9114B0F4834729847D8E7FF05000054
:10B65000C5A400000C1900204F540200B5A9000039
:10B66000EA540200725402005D9C00008354020000
:10B67000B19A0000935402009DA500001DBB01007B
:10B68000A0540200F05D0C001DA60000B55402009D
:10B690000DB50000C4540200022370B500250370EC
:10B6A0004D338370293B03711B3B83714570C5701B
:10B6B00045710D4B04009847415D62190135D17108
:10B6C0000F2DF9D12100220000231631107801320C
:10B6D0001B189142FAD11A0AE375A2750121034899
:10B6E000034B9847182070BDB19200000955020025
:10B6F000B5A90000F7B5020004000500030000260C
:10B700000B321978013376189342FAD1E37A227B0F
:10B710001B02D318009323000D330193324F2A7874
:10B720003249334B38009847324B00213800984754
:10B73000019B01359D42F1D100212F482F4DA84793
:10B74000009B9E424DD16378A2781B022C4E9B1821
:10B7500033604F2B40D1E37822791B029B18B360F2
:10B760006379A2791B029B187360E379227A1B022A
:10B770009B18F360637AA27A1B029B18012121486F
:10B780003361A847204CA378002B22D001211F4809
:10B79000A847E389B2689A4219D101211C48A847F9
:10B7A000238972689A4212D101211A48A847238A34
:10B7B000F2689A420BD1638901211748A380A847F8
:10B7C00002236370154B98476061F068FEBD00234B
:10B7D000A3700023A380F8E701211148A8470020A7
:10B7E000F4E701210F48F9E7801800201C550200FA
:10B7F000F1CC010055A90000BC890200B5A90000E8
:10B8000088120020225502000C1900203155020038
:10B810003F5502005255020062550200E52D01001D
:10B82000775502009355020001230A004F2170B59D
:10B83000037000238170134943708C684968250A9E
:10B84000047181710C0A110AC1710F494471C570EC
:10B850000272C9880C1281720100447204000B311B
:10B86000257801345B19A142FAD1084C190AC1723A
:10B87000037307492000074B984701212000064B1E
:10B88000984770BD881200200C19002080180020F5
:10B89000AB550200F1CC010055A9000070B51D4D5B
:10B8A000CCB0AB682A7A1C0A6B6801A9180A2B79FC
:10B8B000ED684A70013D2E0A4D7103258D71023DE0
:10B8C000CD718A7200258322CB700B730D23E4B2F5
:10B8D000C0B20C7088700E710D724C72C87252003A
:10B8E000CB5401339342FBD1002383201A00400044
:10B8F0008C5C01321B198242FAD16A460432180A62
:10B90000FF32D07113728422034B520003489847D0
:10B910004CB070BD881200201DA60000F05D0C0028
:10B92000F0B50500514C0A00D3B00E00504B514900
:10B9300020009847504B00212000984700222B0000
:10B940000392B21E591B8A4205D919780398013314
:10B9500041180391F6E7AB5CAA19013A12781B0271
:10B96000D3180493049A039B934200D06BE00B2EF0
:10B9700009D12B78042B06D140480121404B984730
:10B98000032053B0F0BDE8792B7A0002EC7A1B1843
:10B99000287B364F2402041905933A49344B220080
:10B9A0003800984701213800334B9847002C0BD1C1
:10B9B00001213548324B98470598344B0130D86007
:10B9C000334B98470220DCE780277F00BC423AD8FF
:10B9D0002900122007AE230A337104ABC0180D31C1
:10B9E00022002C4B74719847BC4205D0A01D3A1B15
:10B9F00030180021284B9847244B9A685B68110A3D
:10BA00007270F3701A0A002331708321B2701A0029
:10BA10004900B05C01321B188A42FAD10C2204A8FA
:10BA2000FF3212188420190A1372059B80005843B4
:10BA3000C623D17184221B03C01852003100174B5A
:10BA4000984701209DE7012115480D4B9847074C69
:10BA5000049B039A134900962000054DA847200037
:10BA60000021054B984700208BE7C0468018002036
:10BA7000F1CC0100BC55020055A90000CC550200D4
:10BA8000B5A90000E0550200FA5502008812002016
:10BA90009DB8000055CB0100D9CB01001DA60000C8
:10BAA0000E5602002A5602004F22032310B5827060
:10BAB0000F4A0370916800230C0A01715168D26823
:10BAC000C47081710C0A110AC17101000272020076
:10BAD000437044710931147801321B199142FAD133
:10BAE0001A0A4272837200210248034B984710BD24
:10BAF0008812002049560200B5A9000010B50B4C71
:10BB0000A388002B10D00A4B01210A489847012333
:10BB1000A370094B9A882281A28862811A89E281E6
:10BB20001A8ADB68A281238210BDC0460C1900204E
:10BB3000B5A900006056020088120020F7B59E4C9F
:10BB400001910093050060781600089F0C2812D818
:10BB500010F016F80D003B008A00AA00FD0011004D
:10BB60001100110011001100080119012001012D1F
:10BB700007D0022D1AD02578002D0AD101218F4837
:10BB800016E18F4B9847A369C01AFA235B009842CD
:10BB900001D8022508E000988A4B98473860657004
:10BBA000894B9847606103252800FEBD844B984768
:10BBB000A369C01AFA239B009842EAD9814B0098E6
:10BBC0009847012338606370EAE7012D1ED0022DEB
:10BBD000DFD10D2E26D101987C4B984785B2E580A8
:10BBE000002D1DD07A4D7B4E82B22B697A493000F0
:10BBF0007A4FB84730000121794B98470223637090
:10BC0000002378482B75784B9847CCE78623774AF2
:10BC10009B00D7586A4B9847C71BFA2FD9D8B8E76B
:10BC20002570C1E70B2E05D1019B1B78042B01D198
:10BC30006370AEE7664E0F23022D00D17823B36107
:10BC4000614B98476369C01AB3699842A1D900252E
:10BC500001216748674E2570B04701216648B0470B
:10BC6000664B984765709FE7594A137D0133DBB2F5
:10BC70001375052B0BD90025604B984701216048AF
:10BC80005C4EB04701215F482570B047EAE70325C5
:10BC9000E288A18800985C4B98474B4B65709847A9
:10BCA0000D2360613B607FE7022D09D086234F4A58
:10BCB0009B00D758424B9847C71BFA2F00D868E71C
:10BCC000002E0DD1424E012D3CD0022D3CD03E4BDA
:10BCD00098476369C01AB369984200D859E72FE0C2
:10BCE000042332009A430B2A03D01023FF339E42D1
:10BCF0001BD131000198454B98470225032800D9F4
:10BD000052E70FF029FF02050E10022363704AE785
:10BD1000022300226370A3880133A3802C4B1A7581
:10BD200041E70423F2E70B23F0E72A4D330080219B
:10BD3000374A2800374EB04701212800284B984742
:10BD400002258FE7B561C2E70F23B361BFE7324B2E
:10BD5000009898470B233B60013B63701A4B984750
:10BD6000606116E7184B98476369C01A032800D82A
:10BD70000FE7002301216370A370237027481D4B38
:10BD80009847012510E7244B009898470B233B6008
:10BD90000133E2E70C4B98476369C01A032800D8C7
:10BDA000F7E6074B984700250121A0611B48257045
:10BDB000104B9847F8E6C0460C19002021570200A6
:10BDC000D52D010099B60000E52D0100F5B6000063
:10BDD000881200208018002072560200F1CC010069
:10BDE00055A90000FF0500009DA50000AC30002013
:10BDF0008C560200B5A900009D560200FDBA000055
:10BE0000C3560200E756020029B8000021B900001D
:10BE1000F85602006DCC0100A9BA0000AE5602002F
:10BE20000022024B1A705A707047C0460C1900204D
:10BE3000F0B53D4B85B01878002803D0012804D018
:10BE4000022820D0012005B0F0BD00238122374C0C
:10BE5000039303AB009392002100354D2300A258B9
:10BE6000A84703990500002902D02000314B9847CC
:10BE7000012D50D0281EE6D0032DE3D181230022CE
:10BE80009B00E250DEE778222B4B51331B781340A6
:10BE9000082B34D1002303938323244C9B00E258C6
:10BEA000002A08D0254D2649264B28009847012115
:10BEB0002800254B98478427BF00E659002E1ED145
:10BEC000832203AB009392002300A258184D210057
:10BED0000220A8478323039A9B000500E251E65005
:10BEE000002A08D0154C1949164B2000984701210B
:10BEF0002000154B9847012D0DD0032D0ED0144B6B
:10BF00009847094C6369C01A3C289BD9114B984744
:10BF10000023237096E700231B68FFDE81230021A6
:10BF2000024A9B00D150EAE70C190020AC300020F7
:10BF30003DBB000051A80000D8360020801800202A
:10BF400032570200F1CC010055A9000054570200FD
:10BF5000E52D0100FDBA0000F0B53E4C0D00A544F2
:10BF600004003D4E0300079200913C4A80213000BE
:10BF70003B4FB8473B4B0121300098472B1BAC424D
:10BF800003D38023DB00EB181B1B0493142B01DD70
:10BF90001423049300230593AC4255D0059B049AC7
:10BFA000934251DA2309069301331B011F1BAC4254
:10BFB00002D29D4200D22F1B059B2B4ADB19DBB21C
:10BFC0000593049B80210093254E3B00029501942C
:10BFD0002148B04701212048224B98478422230959
:10BFE00092005343214A08AE9B18842206931800FE
:10BFF000920031001E4B9847002F15D00F2323408D
:10C0000019000322114049008A40944660469B086B
:10C010000233F25C013482430798A405884002434E
:10C02000F254013FA40DE7E7172304AA9B18162238
:10C0300004A9521808A806210E4EB047082208A9E4
:10C0400006980D4B9847A7E705988D239B009D44C4
:10C05000F0BDC046CCFDFFFF80180020FC57020059
:10C060006DCC010055A900001858020040CE000018
:10C07000B9A60000099200001DA6000030B5842278
:10C08000124C9200A5440F24050008095043104BA0
:10C090000C40C01869460F4B984703212200A308A3
:10C0A0006B449B780A405200134100200B40022B46
:10C0B00008D1240121000831694410222800064BD0
:10C0C0009847012085239B009D4430BDECFDFFFF78
:10C0D00040CE0000B9A6000055CB0100054BDA6840
:10C0E000501C8005800DD8601B68181A431E9841AB
:10C0F000C0B2704700380020F0B500269A4CA54425
:10C1000009217143994A8B5C980778D502208343B3
:10C1100097488B54B300C358002B00D120E102ABE9
:10C120001E708B5C02A8DB07DB0F4370002302A8A4
:10C130001C18C818101880780133A070072BF6D18E
:10C1400002AA08339B180E2202A9521802A80E2137
:10C15000884CA0470F248422874D92002B6806A9A3
:10C160001C401B095343854A9B188422009392006C
:10C170001800834B984723018AAAD318814A9B1839
:10C1800002AA83CA83C31900136810200B6003211D
:10C19000A2080C406400A14002AB02321B189B5C59
:10C1A0008B430221A1400B4302A909188B5417238A
:10C1B00002AA9B18162202A9521806A806216D4C45
:10C1C000A0478422704B920006A9009898478022CD
:10C1D0002B68D20001339B059B0D2B60AB680133AC
:10C1E000AB6093420BD1694B0021694898476B685B
:10C1F00001339B059B0D6B60AB68013BAB60013667
:10C200001C2E00D07CE7002300930921009B574A95
:10C21000594350188930FF3003799C0700D499E0C6
:10C220000224A3430371DB0702ACDB0F637000231E
:10C2300000981C30207002A81C18C8188F30FF30DE
:10C24000105C0133A070072BF5D102AA08339B18AC
:10C250000E2202A9521802A80E21464CA0470F2711
:10C2600084238422444C9B00266806AD374036095F
:10C270005E43424B2900F318019392001800404B93
:10C2800098473B018AAAD3183E4A9B1802AA43CA80
:10C2900043C319001368BA080B60032319001F4039
:10C2A0007F00B9400232AB5C28008B430221B940C9
:10C2B0000B43AB54172302AA9B18162202A952184B
:10C2C0002C4F0621B84784222900920001982E4F56
:10C2D000B8472368002101339B059B0D2360A368A9
:10C2E0002C480133294EA360B0478023A268DB00AD
:10C2F0009A422FD100212648B04763680F260133A8
:10C300009B059B0D6360A3680822013BA360842307
:10C3100024689B00264024095C43184B2900E4183C
:10C320002000174B98470323B2081E407600B34005
:10C330000232A95C280099431723A95402AA9B182A
:10C34000162202A952180B4E0621B04708222900D6
:10C350002000B847009B01330093C02B00D054E766
:10C360008B239B009D44F0BDD4FDFFFF781A002075
:10C370006C570200099200000038002040CE0000F7
:10C38000B9A60000F8FDFFFF1DA60000B5A900003A
:10C390003E58020057580200F0B580270025164C81
:10C3A0007F00A5446B4600245D701C709C70DC709F
:10C3B0001C715C713A00FF21104B02A898476B4634
:10C3C0006A4607330632062168460D4EB047842080
:10C3D0008422800068430B4B9200C01869460A4BC8
:10C3E00001359847402DDDD1084B5C601C609C6096
:10C3F00085239B009D44F0BDECFDFFFFD9CB0100E0
:10C400000992000040CE00001DA600000038002068
:10C41000F0B500242700CDB0844B00218448984714
:10C420000CAB0293842080007843824B0AAEC01884
:10C4300008223100804B98470F2306AA9B180E2232
:10C4400006A95218300006217C4DA84706ABB279E8
:10C450009B7B9A422FD106ABF279DB7B9A422AD1A1
:10C460007378BB4216D1122106ABC9180422029878
:10C47000734B9847029B013704330293402FD1D16D
:10C48000002C1FD06F4B984700216F48674B98478F
:10C490004DB0F0BD0026029B6C4C1E603B006C4A08
:10C4A0008021200049006B4DA847200031006A4BD5
:10C4B00098470124DEE70026029B644C1E60674A11
:10C4C0003B00EDE7664B20001C605C609C600CABA1
:10C4D0001B78210004930693270026000123029471
:10C4E0000794039405940322069D1540022D13D052
:10C4F000032D0AD0002D14D1002E34D0012C10D1E0
:10C5000002940399002402980BE0002FF6D13C001E
:10C51000039918001F002AE0012E2AD0012F28D0ED
:10C520003E000322079D01351540039A079501320D
:10C530000392069A92080692002D05D1059D0CAA39
:10C540000135525D05950692059DFF2DCBD900283A
:10C5500001D0434B1960029B002B0CD1394B9847FB
:10C560000299404892E7340018001E000399029394
:10C57000D7E71C00D5E700231F001E001800190094
:10C5800003930322049D1540022D34D0032D01D0C6
:10C59000002D01D1002B37D10325039A0130013240
:10C5A0002A400392049A92080492039A002A03D123
:10C5B00001310CAA525C0492FF29E2D9284A002FCB
:10C5C0002ED05660002B01D1136853605368116858
:10C5D0008B4220D8C81A9060D36092680091802165
:10C5E0001A4C01924900204A20001A4DA847002108
:10C5F0002000194B4BE7002B08D0012CCCD1230095
:10C60000060000241F00C7E71C00C5E71C00060049
:10C61000029B0127C0E78020C0000818C01ADAE793
:10C62000002BD1D053681168D4E7C046B5A90000EB
:10C630006B58020040CE0000B9A60000099200002D
:10C6400055CB010099C30000B058020080180020AB
:10C650007B5802006DCC010055A9000098580200DB
:10C6600000380020CB580200C1950200084B9A68A0
:10C67000824207D9121A9A605A6880188005800D84
:10C6800058607047DA685A6000229A60F9E7C0463D
:10C690000038002070B5154CA368002B01D1002094
:10C6A00011E00125237C2B420ED1114B9847636981
:10C6B000C01A0328F3D90223227C28002A431343FB
:10C6C00004229343237470BD5B07E8D56068E1687A
:10C6D000884205D00322074B9847074B9847F5E758
:10C6E000FA22237C13402374D9E7C0460038002087
:10C6F000E52D010059BF00006DC60000FA21F0B51C
:10C70000724C734BA544734C0590A5699889AD068E
:10C710008900714BAD0E4D43984789B206AB49195C
:10C720001970090A5970A36906AA1B059B0E93701C
:10C73000A369DB03DB0ED370A3699B02DB0E1371CD
:10C74000A3699B011B0F5371A369002426002700D6
:10C750009B0E9371082C00D1B3E0059B5F4A002B20
:10C7600000D195E00A236343D318591CFF3149795E
:10C77000490600D49EE05A48A100F83347589988EA
:10C78000DB8801261B040B430193002F00D196E0A8
:10C7900008A83B0A43703B0C83706B461B790770FB
:10C7A000C370019B1B0A03710A2363430533FF33E4
:10C7B000D35A4371002306A9595CC2180133917101
:10C7C000072BF8D106AA10339B18162206A9521877
:10C7D000444D0E21A847444D0CA92B6802930F230A
:10C7E000029A1340039313098422920053433F4A51
:10C7F0009B1884220493920018003D4B9847039B9A
:10C8000090AA1B01D3183B4A9B1808AA43CA43C3EA
:10C810001900136818200B600321029E039B0E4031
:10C820007600B1409B0806AA02331218D25C8A43F4
:10C830000221B1400A4306A90918CA541F2306AAB7
:10C840009B181E2206A952180CA80621254EB04797
:10C850008422294B92000CA90498984780222B68C7
:10C86000520101331B051B0D2B60AB680126013300
:10C87000AB60934223D1214B0021214898476B683C
:10C880009B191B051B0D6B60AB68013BAB6016E091
:10C890000A236343D3181900F8318888C988013303
:10C8A000090401430191FF331E790D49A300760766
:10C8B000CF58F60F002F02D0002E00D068E70134C9
:10C8C00048E791239B009D44F0BDC046BCFDFFFF9F
:10C8D0009037002000240040B9BC0100781A0020E5
:10C8E000DC57020009920000D0370020809C010034
:10C8F000B9A60000F8FDFFFF1DA60000B5A90000C5
:10C900003E580200F0B584260025174CB600A54419
:10C910006B46002480225D701C709C70DC701C7162
:10C920005C715200FF21114B02A898476B466A4682
:10C9300007330632062168460D4FB847300084227F
:10C9400068430C4B9200C01869460B4B98478023F4
:10C9500001355B009D42DBD1084B5C601C609C6034
:10C9600085239B009D44F0BDECFDFFFFD9CB01006A
:10C9700009920000809C01001DA60000D037002015
:10C98000F0B5804C804BA5440024270000217F484F
:10C9900098470CAB02938420800078437C4B0AAE0E
:10C9A000C018082231007B4B98470F2306AA9B181A
:10C9B0000E2206A9521830000621774DA84706AB73
:10C9C000B2799B7B9A4221D106ABF279DB7B9A420A
:10C9D0001CD17378BB4219D1122106ABC9180422AD
:10C9E00002986E4B9847029B0137043302938023D1
:10C9F0005B009F42CFD1002C0DD0694B984700219E
:10CA00006848614B9847684B9D44F0BD0023029AEB
:10CA100001241360E7E7654B20001C605C609C60AC
:10CA20000CAB1B78210004930693270026000123FA
:10CA300002940794039405940322069D1540022D49
:10CA400013D0032D0AD0002D14D1002E36D0012C86
:10CA500010D102940399002402980BE0002FF6D124
:10CA60003C00039918001F002CE0012E2CD0012F50
:10CA70002AD03E000322079D01351540039A0795F1
:10CA800001320392069A92080692002D05D1059D67
:10CA90000CAA0135525D05950692059D2A00444D6C
:10CAA000AA42C9D9002801D0404B1960029B002B33
:10CAB0000CD13B4B984702993E48A2E7340018003E
:10CAC0001E0003990293D5E71C00D3E700231F0043
:10CAD0001E001800190003930322049D1540022D27
:10CAE00035D0032D01D0002D01D1002B38D10325E5
:10CAF000039A013001322A400392049A9208049268
:10CB0000039A002A03D101310CAA525C0492284DE9
:10CB1000A942E1D9254A002F2ED05660002B01D121
:10CB200013685360536811688B4220D8C81A90600C
:10CB3000D3609268009180211F4C019249001F4AE6
:10CB400020001F4DA847002120001E4B5AE7002B54
:10CB500008D0012CCBD12300060000241F00C6E71B
:10CB60001C00C4E71C000600029B0127BFE78020D1
:10CB700040010818C01ADAE7002BD1D053681168B9
:10CB8000D4E7C046CCFBFFFFB5A90000D85802008F
:10CB9000809C0100B9A600000992000055CB01005D
:10CBA00005C90000EB58020034040000D037002013
:10CBB000FF030000095902008018002016590200E6
:10CBC0006DCC010055A90000084B9A68824207D934
:10CBD000121A9A605A6880180005000D5860704754
:10CBE000DA685A6000229A60F9E7C046D037002020
:10CBF000054BDA68501C0005000DD8601B68181A38
:10CC0000431E9841C0B27047D037002070B58422CF
:10CC1000124C9200A5440F24060008095043104B03
:10CC20000D000C40C01869460E4B98470322A3081C
:10CC30006B449B7815406D00EB4000201340022BA5
:10CC400008D124012100083169440D323000064B1F
:10CC50009847012084239B009D4470BDF0FDFFFF99
:10CC6000809C0100B9A6000055CB0100F0B5364C00
:10CC70000B1AA5440792802252019A1804000D0055
:10CC80000592814200D9059300230493AC4255D00C
:10CC9000049B059A934251DA2309069301331B0141
:10CCA0001F1BAC4202D29D4200D22F1B049B274A7D
:10CCB000DB19DBB20493059B80210093244E3B00DB
:10CCC000029501942348B04701212248224B9847FE
:10CCD0008422230992005343204A08AE9B188422E1
:10CCE00006931800920031001D4B9847002F15D075
:10CCF0000F23234019000322114049008A40944623
:10CD000060469B080233F25C013482430798240595
:10CD100088400243F254013F240DE7E7172304AA99
:10CD20009B18162204A9521808A806210D4EB047D8
:10CD3000082208A906980C4B9847A7E704988D236A
:10CD40009B009D44F0BDC046CCFDFFFF185802007B
:10CD50006DCC01008018002055A90000809C0100C6
:10CD6000B9A60000099200001DA6000073B51A4C78
:10CD7000A368002B01D100200FE00125237C2B426A
:10CD80000CD1164B98476369C01A0328F3D90422C3
:10CD90002800237C2B439343237476BD5B07EAD59D
:10CDA0006368E268934212D00D4D009280210D4AD3
:10CDB00028000D4EB047280001210C4B9847032254
:10CDC000E16860680A4B98470A4B9847E8E7FA22FF
:10CDD000237C13402374CEE7D0370020E52D0100DB
:10CDE000801800203B5902006DCC010055A90000BD
:10CDF0006DCC0000C9CB0000F0B580270025164C93
:10CE00007F00A5446B4600245D701C709C70DC7034
:10CE10001C715C713A00FF21104B02A898476B46C9
:10CE20006A4607330632062168460D4EB047842015
:10CE30008422800068430B4B9200C01869460A4B5D
:10CE400001359847102DDDD1084B5C601C609C605B
:10CE500085239B009D44F0BDECFDFFFFD9CB010075
:10CE600009920000400704001DA60000E8370020DA
:10CE7000F0B5864C864BA544002427000021854848
:10CE800098470CAB0293842080007843824B0AAE13
:10CE9000C01808223100814B98470F2306AA9B181F
:10CEA0000E2206A95218300006217D4DA84706AB78
:10CEB000B2799B7B9A4231D106ABF279DB7B9A4205
:10CEC0002CD17378BB4218D1122106ABC9180422A9
:10CED0000298744B9847029B013704330293102F3A
:10CEE000D1D1002C21D0704B984700216F48684B5E
:10CEF000984791239B009D44F0BD0026029B6C4CFB
:10CF00001E603B006B4A8021200049006A4DA84703
:10CF100020003100694B98470124DCE70026029B82
:10CF2000634C1E60664A3B00EDE7664B20001C60C8
:10CF30005C609C600CAB1B78210004930693270077
:10CF40002600012302940794039405940322069D6E
:10CF50001540022D13D0032D0AD0002D14D1002E20
:10CF600034D0012C10D102940399002402980BE0D4
:10CF7000002FF6D13C00039918001F002AE0012E73
:10CF80002AD0012F28D03E000322079D01351540ED
:10CF9000039A079501320392069A92080692002D91
:10CFA00005D1059D0CAA0135525D05950692059D9A
:10CFB0003F2DCBD9002801D0424B1960029B002B9A
:10CFC0000CD1394B984702993F4890E7340018003C
:10CFD0001E0003990293D7E71C00D5E700231F002A
:10CFE0001E001800190003930322049D1540022D12
:10CFF00033D0032D01D0002D01D1002B36D10325D4
:10D00000039A013001322A400392049A9208049252
:10D01000039A002A03D101310CAA525C04923F29E1
:10D02000E2D9284A002F2CD05660002B01D113687A
:10D030005360536811688B421FD8C81A9060926879
:10D04000009180211A4C01924900204A20001A4D7B
:10D05000A84700212000194B4AE7002B08D0012CDB
:10D06000CDD12300060000241F00C8E71C00C6E73E
:10D070001C000600029B0127C1E7481CFF30C01AB4
:10D08000DCE7002BD3D053681168D6E7BCFDFFFF67
:10D09000B5A900009659020040070400B9A6000097
:10D0A0000992000055CB0100F9CD0000AB590200F8
:10D0B000801800207B5802006DCC010055A90000AB
:10D0C00098580200E837002009590200C6590200AA
:10D0D0000023F0B55A4CA54400936B461878009B8A
:10D0E0001C2B00D1A8E009255D43564C2B5D1A0787
:10D0F00000D49EE0082293432B55534B9847431C82
:10D1000000D196E002AB18702B5D02AADB07DB0FA3
:10D11000537000230133082B06D05A19A2185178F6
:10D1200002A81A185170F5E70F2302AA9B180E22C5
:10D1300002A9521802A80E21444CA0470F278423AD
:10D140008422434C9B00266806AD374036095E4377
:10D15000404B2900F3180193920018003E4B98476A
:10D160003B018AAAD3183D4A9B1802AA43CA43C36B
:10D1700019001368BA080B60032319001F407F00D1
:10D18000B9400232AB5C28008B430221B9400B430B
:10D19000AB54172302AA9B18162202A952182B4F30
:10D1A0000621B8478422FF26920029002C4B0198C3
:10D1B000984723680021013333402360A36829483E
:10D1C0000133294FA360B8478023A2685B009A42CD
:10D1D0002FD100212548B8476368082201331E403B
:10D1E000A3686660013BA3600F26842324689B002C
:10D1F000264024095C43174B2900E4182000164BF5
:10D2000098470323B2081E407600B3400232A95C5F
:10D21000280099431723A95402AA9B18162202A991
:10D2200052180A4E0621B0470822290020000C4B54
:10D230009847009B01334FE78B239B009D44F0BD33
:10D24000D4FDFFFF781A0020B5A10000099200006C
:10D25000E837002040070400B9A60000F8FDFFFFF2
:10D260001DA60000EE590200B5A900003E580200BC
:10D27000054A9368002B05D0013B93605368013346
:10D28000DBB253607047C046E8370020F0B50600B7
:10D290004248434C4368A5441A090F2402920322D2
:10D2A0001C4022400392026893423ED88168D01A03
:10D2B000814212D0019180213A4D009249003A4AB0
:10D2C00028003A4FB84701212800394B98470121DF
:10D2D0003848394B9847394B98478422029D920031
:10D2E0005543374B04A9ED182800364B98470822C0
:10D2F000A10802AB9B180231585C039B02005F003F
:10D300003A4103231A40022A25D0244B032A41D054
:10D31000012A3FD000209B68834202D02A4B9847C5
:10D32000002089239B009D44F0BD511C8068FF3183
:10D33000C91A8842D1D080211A4D0190009249002B
:10D34000194A2800194FB84701212800184B98475F
:10D3500001211E48BDE7BB400343082002AA121862
:10D3600024015354211804AB59181022184B3000D3
:10D3700098470F2302AA9B180E2202A9521804A84C
:10D380000621144CA047082204A92800124B9847F4
:10D390000120C6E798680028C3D0BFE7E83700201F
:10D3A000DCFDFFFF80180020065A02006DCC010052
:10D3B00055A90000225A0200B5A9000071CE000054
:10D3C00040070400B9A6000071D20000355A0200DF
:10D3D00055CB0100099200001DA60000084A10B5B7
:10D3E0009168536812885B189B059B0D012193423D
:10D3F00003D00448044B98470021080010BDC046E4
:10D4000000380020485A0200B5A90000084A10B5AB
:10D410009168536812885B181B051B0D012193420C
:10D4200003D00448044B98470021080010BDC046B3
:10D43000D0370020485A0200B5A900008223DB053E
:10D4400019000220CC310A78943382430A7080227A
:10D45000C4395201CA671A6070478223DB0519007C
:10D460000220CC310A78943382430A7080224439F6
:10D4700052010A601A6070478223DB05190080227E
:10D4800008315201CA678C310A600222CC33197804
:10D490000A431A7070470000024B1868C004C00F9E
:10D4A0007047C046A00000418223DB05190080229E
:10D4B000083192019433CA671A6070478223DB05F2
:10D4C000190080228831920194330A601A607047F3
:10D4D00010B5024B9847024B984710BDA9D40000E5
:10D4E0003DD4000010B50A4B98470A4B98470A4CA8
:10D4F0000220A047094B98470220A047084B9847B5
:10D500000220A047074B9847074B984710BDC046DD
:10D51000A9300100A9D40000A1BA01003DD4000047
:10D520005BD40000BDD40000C930010010B5074B2A
:10D530009847074B9847074B98470220064B984758
:10D54000064B9847064B984710BDC046A9300100CE
:10D550005BD40000A9D40000A1BA01003DD40000B2
:10D56000C9300100F8B5194B05000826984701207D
:10D57000174CA0476BB2002B26DA164B98470120B8
:10D58000A047154FB8470220A0476D00134B013E3E
:10D59000EDB29847002EEAD1114B98470220A047E0
:10D5A000B8470120A0470F4B984705000120A0472E
:10D5B0000A4B98470120A047681E85410A4B9847AF
:10D5C0000A4B9847E8B2F8BD074BD7E7A9300100EE
:10D5D000A1BA01003DD40000A9D40000BDD40000D0
:10D5E00079D4000099D400005BD40000C930010058
:10D5F000F7B5174B01909847164B98470926002519
:10D60000013E154C154F002E10D00220A047144BA0
:10D6100098470120A047134B6D009847002801D080
:10D6200001231D430120A047B847E9E70120A04797
:10D63000019B002B0AD10C4B98470120A047084BB7
:10D6400098470220A047B8472800FEBD074BF3E7E4
:10D65000A930010079D40000A1BA0100BDD40000B6
:10D66000A9D4000099D400005BD400003DD4000090
:10D6700068210E4A0E4B10B5D1540E4B6439D1546B
:10D680000D490E4C0868430013550D4C1B0A1355E9
:10D690004B680C4C8B605B0013550B4C01301B0A24
:10D6A0000860C8601355062010BDC046781A0020D7
:10D6B0001811000019110000183800201A1100007C
:10D6C0001B1100001C1100001D110000002370B58B
:10D6D000224D19002A002B616B61AB611C329954F9
:10D6E0000133102BFBD10124022004211C4A1D4EC2
:10D6F0005368D3607368F360337CA34383438B43E5
:10D700003374137CA34383438B431374164B9847A2
:10D710002B002C335C70154B9847002228632300A4
:10D7200011001000124DA847002223001100100024
:10D73000104DA84700222300110010000E4DA847ED
:10D740000022230011000D4D1000A84700222300E5
:10D75000110010000A4CA04770BDC04618380020C8
:10D76000D037002000380020259C0100E52D010065
:10D770000DF200005DF9000045F800001DF7000003
:10D780003DF60000F0B587B006000F000492624D30
:10D79000052851D10023280019002B611C305A1C88
:10D7A000112A03D0C31819701300F8E705235B4A48
:10D7B0002B775B4B97423DD100221A656A460124C4
:10D7C000127C584B6C611A740023AC61564D019366
:10D7D0008021029400940533544A2800544EB047E7
:10D7E00021002800534B98474E4E330030331B78AE
:10D7F000002B78D04C4D504A80214D4C2800A0473A
:10D80000002128004B4B9847002432003032127818
:10D81000731C944200DB7AE01B19DB7F474A8021AE
:10D820002800434FB847013400212800414B984756
:10D83000A4B2EAE71F65C1E7002B56D04C226C6901
:10D840003F492B191E773F4B3F48CB585A4305920F
:10D850008A1812181268062A12D9472E10D13023BE
:10D860009C463048063A8444634620308446D2B20F
:10D8700005981A70354BC31859186046344B9847B1
:10D88000274B2649A2009B188F4231D100221A65EE
:10D890006A46244B127C2F481B1901341A74044029
:10D8A00004D51022013C5242144301341A4A9369B0
:10D8B0005461591C10291DDC9161AB691A4F029308
:10D8C0002B698021019300943300184A3800184CCA
:10D8D000A0470121380085E70B001029AED0591C64
:10D8E000D35CB342F8D107B0F0BD2A001C32F6E792
:10D8F0001F65CDE71023936113690133034004D5FD
:10D900001021013B49420B4301331361D5E701214B
:10D910001148124B9847E6E718380020FFFF000037
:10D92000183E0020983E002080180020685A02000F
:10D930006DCC010055A90000A15A02001C5502003F
:10D94000781A002090150000E40F0000EE0F000090
:10D9500055CB01000F000080BC890200B5A9000072
:10D96000F0B585B0040002911B2800D96EE00923B0
:10D970004343754D029E595DC807C00FB0423BD06E
:10D9800001200640814331435955002A36D0117891
:10D990000C2933D15178EB1899709178D970D178DE
:10D9A000197111795971517999719179D971D27926
:10D9B00009261A7202236643AA5D644F1343AB55CE
:10D9C0000123634A0193029BA40000938021A35882
:10D9D0003800604A604CA047012138005F4B9847EF
:10D9E0005F4B9847AB195B78DB0705D50823AA5D29
:10D9F0001343AB555B4B984705B0F0BDFA275A4E21
:10DA0000BF00B169594B8906890E79430391984744
:10DA1000574B39009847039BC91809236343EB18F8
:10DA20009970090AD970B2691205920E1A71B26919
:10DA3000D203D20E5A71B2699202D20E9A71B269B1
:10DA40009201120FDA71B269920EB1E7DB2876D833
:10DA5000070009231C3F7B433B49029ECB1818005B
:10DA60008930FF300179CD07ED0FB542C4D00125D3
:10DA70002E40A9430E430671002A31D011780C299B
:10DA80002ED1190050788F31FF310870907848708E
:10DA9000D07888701079C870507908719079487181
:10DAA000D2799533FF331A7009235F43264B012542
:10DAB000DF1902238937FF373A79802113433B71FD
:10DAC0002C4B029AE318214C009201952A4A20001F
:10DAD000214EB047214B290020009847204B8AE770
