:10000000C844002039090000350900003509000006
:1000100000000000000000000000000000000000E0
:100020000000000000000000000000003509000092
:10003000000000000000000035090000552100000C
:1000400035090000350900003509000035090000B8
:1000500035090000350900003509000035090000A8
:100060003509000035090000350900003509000098
:10007000C91D0000350900003509000035090000E0
:100080003509000035090000350900003509000078
:10009000F92200003509000035090000350900008B
:1000A0003509000035090000350900003509000058
:1000B00035090000350900003509000010B5064C6F
:1000C0002378002B07D1054B002B02D0044800E019
:1000D00000BF0123237010BD680200200000000053
:1000E000FC360000084B10B5002B03D00749084828
:1000F00000E000BF07480368002B00D110BD064B8D
:10010000002BFBD09847F9E7000000006C020020AC
:10011000FC360000FC36000000000000F0B5C646CA
:1001200000B590469C46002915DD0024FF27FF26D8
:100130000A4A0B4B05787540565D7E405F5D013481
:10014000A4B201308C42F5DB43461E7063461F703B
:1001500004BC9046F0BDFF27FF26F5E70000002015
:1001600000010020F0B5DE464F464646C0B5374C8C
:10017000A5440327364B9846364B99461C0001335D
:100180000193C047B922D20002A90020324B984700
:10019000324D4B46324A290002A8324EB0474B46F8
:1001A0005A7812021B789B181B0402AA52599342D8
:1001B0002BD000212C482D4B9847B922D20002A900
:1001C00080200001244B9847244D2300019A2900E8
:1001D00002A8244EB0476278120223789B181B04B1
:1001E00002AA5259934225D0002121481F4B98471B
:1001F000013FFFB2002FC4D116481E4B9C466044FD
:100200000D221D491D4B98470CE000211C48174B3F
:100210009847B922D20002A90E480430174B9847DC
:10022000002FE9D0BA23DB009D441CBC90469946C0
:10023000A346F0BD002113480C4B9847B922D200C9
:1002400002A9044804300D4B9847E9E730FAFFFF54
:100250008D07000084020020B9060000C4050000DC
:10026000850200201D010000A4300000B908000034
:10027000E03000007A04000004310000CD260000C8
:100280008C300000C430000010B50449044B9C467B
:1002900061442022034B984710BDC04684020020D1
:1002A0007A040000D1270000064A137EDB07FCD544
:1002B000044B98621A00137E9B07FCD5014B986A89
:1002C000C0B270470004004270B5040000290AD093
:1002D00001398DB201354519034E0020B047207019
:1002E0000134AC42F9D170BDA902000070B5040020
:1002F000002909D001398DB201354519034E207806
:10030000B0470134AC42FAD170BDC046A90200002A
:1003100010B5064B1870080C5870080A9870D97000
:10032000111D1800024B984710BDC0465008002010
:10033000ED02000070B58224E4058025ED006561C2
:10034000D720034EB0470020B047A56170BDC0461E
:10035000A9020000F8B500250C4E0D4F3C0005E049
:100360000023FB62E36A012BFCD91500B0470306AA
:1003700004D46A1C92B2272DF2DD1500E80F00228A
:100380002723AB425041C0B2F8BDC0463503000040
:10039000A4220020F0B589B00224FF25374E50E09A
:1003A000083399420BD01A788242F9D15A88944680
:1003B0009F889E790122079206920592F0E7059B9D
:1003C000002B26D1069B002B01D02D4B9F81079B34
:1003D000002B01D02A4B1E72294A5389294E0394BF
:1003E0003F2129400291117A019192890092264A77
:1003F00080213000254CA04701213000244B984734
:10040000013DEBB20020FD229A424041C0B209B04A
:10041000F0BD1B4B62465A81D4E701211D481E4B9B
:10042000984700221D4BDA6219001D4ACB6A93429D
:10043000FCD91C4B98476B1EDBB2FD2BE2D9013C6B
:10044000E0D3B0470028E8D0174B98470500431E7B
:10045000DBB2FD2B0ED80A4B5A8994469F891E7A2F
:10046000124B1900603100220792069205923D203E
:10047000284098E70138C3B2E1E7C04655030000C1
:1004800050080020F808002074310000F126000018
:100490008D08000098310000B9080000A422002057
:1004A000E7030000152500003503000014310000AB
:1004B000F0B583B005000C00009201930D4B9847F6
:1004C000002801D103B0F0BD8226F6058027FF0089
:1004D0007761094B1B7A2900994021430422D220DD
:1004E000064B984701990098054B9847B761012042
:1004F000E8E7C04655030000500800201103000043
:10050000C9020000F0B583B00600019115000B4B45
:100510009847002801D103B0F0BD8227FF05802451
:10052000E4007C61002231008420054B98472900BB
:100530000198044B9847BC610120ECE7550300008B
:1005400011030000ED02000070B504000A4B98474B
:10055000002800D170BD8225ED058026F6006E6171
:10056000064B1B7A2100994000228320044B9847B8
:10057000AE610120EEE7C0465503000050080020A0
:100580001103000070B504000A4B9847002800D101
:1005900070BD8225ED058026F6006E61064B1B7A44
:1005A0002100994000228120044B9847AE61012030
:1005B000EEE7C0465503000050080020110300007C
:1005C00070B504000A4B9847002800D170BD822501
:1005D000ED058026F6006E61064B1B7A21009940DE
:1005E00000225320044B9847AE610120EEE7C0463D
:1005F000550300005008002011030000F0B5DE464E
:1006000057464E464546E0B583B005008B46170079
:10061000234B5C892100234B984782462100280008
:10062000214B9847002F31D0204B9846204B9946BC
:100630000E0024E053466A46138013880193180085
:10064000C0470090041E22D0AAB2B0B25946C84793
:10065000009B1840C4B2002C19D00198154B984744
:100660000440A8190E4B59890F4B98470E000123DF
:100670009C46E244AB447F1B09D0002C07D0084BBA
:100680005D89AD1BBD42D5D93D00D3E701242000D3
:1006900003B03CBC90469946A246AB46F0BDC0466E
:1006A000500800203525000041260000C10500004B
:1006B0000505000049050000F0B5DE4657464E46E8
:1006C0004546E0B583B006008A4615001F4B5C899D
:1006D00021001F4B984787B2210030001D4B9847DF
:1006E0008CB2002D28D0194B9B469946A846250070
:1006F0001BE0B3B20193524629003800164CA047C4
:100700000090019B5C19A0B24B465989114B984748
:100710008DB20137BFB23604360CB24443469B1B40
:1007200098460BD0009B002B08D05B465E89761B59
:100730004645DED94646DCE701230093009803B026
:100740003CBC90469946A246AB46F0BD50080020FE
:100750003525000041260000B10400008223DB059E
:100760008022D20088215A5010315A509A609A61E2
:10077000802292009A609A61013AFF3A9A609A61E7
:10078000802212015A605A617047000010B5034B75
:100790009847034B9847034B984710BD5D070000EF
:1007A000491B00009503000010B50400064B1B78A0
:1007B000012B05D0054B98472000054B984710BDED
:1007C000034B9847FBE7C046F8090020291E0000AC
:1007D000AD1F0000F0B5CE4600B592B02D236A469D
:1007E0001380224B99469869C003C00E0A2210A9B3
:1007F0001F4FB84710A968461E4EB04768461E4CAA
:10080000A047684402221D491D4DA8474B469869E0
:100810000005800E0A2210A9B84710A96846B04703
:100820006846A047684402221449A8474B46986985
:100830008006800E0A2210A9B84710A96846B04762
:100840006846A047684402220E49A8476846A04768
:10085000041E07D06D460C4E013C2878B047013588
:10086000002CF9D112B004BC9146F0BD0024004028
:10087000C526000099270000C3270000B031000002
:10088000CD260000B4310000A907000070B50400B7
:10089000002909D12078002805D0054D0134A8474A
:1008A00020780028FAD170BD024B9847F2E7C04685
:1008B000A9070000D507000070B50400002909D180
:1008C0002078002805D0054D0134A847207800285D
:1008D000FAD170BD024B9847F2E7C046A907000065
:1008E000D507000010B58223DB05802252049A60F0
:1008F0005A61802292049A605A61084B98470221FB
:100900004223074AD154074C0A2207492000074BCB
:10091000984701212000064B984710BD751C000028
:1009200044220020F8080020CC31000055270000A8
:100930008D080000FEE7000010B5174A174B9A42D9
:1009400011D01A00164B9A420DD2164A03339B1A45
:100950009B0801339B00002210480F498C5884509B
:1009600004329A42FAD1104A104B9A420AD2D34327
:100970000E495B1803218B4304339B18002102C2EC
:100980009342FCD10A4AFF210A4B8B4393600A4BE6
:1009900098470A4B9847FEE7FC360000000000200D
:1009A000680200200400002068020020C424002007
:1009B00000ED00E0000000004D260000B114000032
:1009C000F0B583B01D4C5823220000211C481D4D5A
:1009D000A8476B46DD1D06332A00502120001A4E21
:1009E000B0472A78236D9A421DD0144C4F232360C0
:1009F000453B636022000832144B23CB23C26B4675
:100A00009D1DDE1D2B003200502120000E4FB847E7
:100A1000337823652B786365582221000C480D4BF1
:100A2000984703B0F0BD6B469A79044B5B6D9A42D0
:100A3000DBD101210848094B9847F2E76008002004
:100A4000FE050000B10400001D0100003832000066
:100A5000E05B0C00FD05000020320000B90800003A
:100A600010B502230370002343704F228270C370BD
:100A7000037143718371C21D01001631137001327D
:100A80008A42FBD1030000211C78091901339342EB
:100A9000FAD10B0A8375C17501210248024B9847B0
:100AA000182010BDF0320000B9080000F8B5DE468D
:100AB000474680B58046040001000B310300002644
:100AC0001A78B61801338B42FAD14346DB7A1B02FF
:100AD0004246127B93469B4447460D37424D22784F
:100AE00042494348A84700214148424B98470134B6
:100AF000BC42F4D100214048404B98475E4508D0A5
:100B000001213F483D4B984700200CBC90469B4636
:100B1000F8BD43465B781B02424692789B18394ADF
:100B200093654F2B05D001213748344B984700205F
:100B3000EBE74346DB781B02414609795B181366F5
:100B400043465B791B02414689795B18D36543466E
:100B5000DB791B024146097A5B18536643465B7A90
:100B60001B024146897A5B18936601212748234B73
:100B70009847274B9B78002B05D10022244B9A8065
:100B8000204B586EC1E7012122481C4B9847204B4F
:100B9000DB891C4A126E9A4203D000221C4B9A70C9
:100BA000EBE701211C48154B9847194B1B89154A47
:100BB000D26D9A42F1D101211848104B9847144B3D
:100BC0001B8A104A526E9A42E7D1114C6389A38066
:100BD00001211348094B984702236370114B984732
:100BE000A061084B586E90E75527000004330000C1
:100BF000F80800208D08000028360000B908000021
:100C00008433000060080020683300000C330000CB
:100C1000F80900201C3300002C3300004033000092
:100C200050330000D921000070B50A000123037081
:100C3000002343704F338370134B196E0C0AC4703A
:100C40000171DB6D190A41718371130AC37102725C
:100C50000E4BDB88191241728372030006000B36BB
:100C600000241D7864190133B342FAD1230AC372F8
:100C70000473074C07492000074B984701212000C7
:100C8000064B984770BDC04660080020F809002058
:100C9000F80800209C330000552700008D08000054
:100CA00070B5CCB0214D2B6E1C0AE4B201AB1C70A8
:100CB0006022AA1811785970EA6D100AC0B29870B3
:100CC0005C22AA181278DA706D6E013D2E0A1E7130
:100CD0005D7103259D71023DDD7100251D725C7201
:100CE0009972D8721A730D2301A9832252005B54A2
:100CF00001339342FBD101AB8520400068440022C0
:100D00001978521801338342FAD101AB100A8321BA
:100D1000490058540821FF315A54842252001900C6
:100D20000348044B98474CB070BDC0466008002093
:100D3000F05D0C00FD050000F0B5D646474680B5D5
:100D4000CFB005000F00544C0A0054492000544B0A
:100D5000984700212000534B9847B91E002926D000
:100D60002B00681800241A78A41801338342FAD1A2
:100D70006B5C1B02EA19013A127890469844A04530
:100D800017D001214848494B9847434D00974346A7
:100D9000220047492800424CA04700212800414B2F
:100DA000984700204FB00CBC90469A46F0BD0C000E
:100DB000DEE70B2F51D0EE7936022B7A9E19EB7AB3
:100DC0001B022A7B92469A4452463A493248344B97
:100DD000984701213048334B98475346002B45D064
:100DE00080235B009A45CCD803AB5246120A1A7195
:100DF00052465A7129000D315246122068442E4B3A
:100E000098475346FF2B3CD92C4A116E03AB080A76
:100E100018705970D26D110A9970DA7089204000EB
:100E2000684400221978521801338342FAD103AB87
:100E3000100A8321490058540821FF315A54700187
:100E400080190001C6231B039C4660448422520083
:100E500003A91B4B98470120A4E72B78042BAAD1A8
:100E600001211848114B984703209BE701211648A0
:100E70000E4B98470136114B5E66144B9847022083
:100E800090E780225200D21A4EA850442738FF38EB
:100E900000210F4B9847B7E7F8080020B033000057
:100EA000552700008D08000004340000B908000038
:100EB00020340000D4330000CD260000600800205C
:100EC000FD050000C0330000F0330000A10C00005D
:100ED000DF26000010B503230370002343704F3357
:100EE00083700F4B1A6E110AC1700271DA6D110A0C
:100EF000417182715B6E1A0AC271037203000400B1
:100F000009340022197852180133A342FAD1130A86
:100F10004372827200210348034B984710BDC046BC
:100F20006008002040340000B908000010B50F4BE5
:100F30009B88002B00D110BD01210D480D4B984717
:100F40000A4B01229A700C4A5C21511809881981B8
:100F500099885981602151180988D98168215118CF
:100F600009889981526E1A82E5E7C046F809002087
:100F700058340000B908000060080020F8B50C00E3
:100F800016001D00002807D1C84B5A780C2A0ED82D
:100F90009300C74AD3589F46C44B00225A701A7018
:100FA00000231800F8BD01290CD0022921D0BF4B25
:100FB0001A780223002AF4D10121BE48BE4B98477B
:100FC0000023EEE7BD4B9847B84B5B69C01AFA2285
:100FD000520002239042E4D90698B94B9847079BE8
:100FE0001860B24C01236370B64B9847A06103238D
:100FF000D7E7B24B9847AD4B5B69C01AFA22920013
:1010000002239042CDD90698AD4B9847079B1860B4
:10101000A64C01236370AB4B9847A0610323C0E744
:10102000012926D0022902D002230028B9D00D2D93
:101030002BD00B2D4ED0022C54D00F22A24B1A676E
:10104000A04B9847994B9B69C01A9F4B1A6F02237C
:101050009042A6D9954C0025257001219B48964EBB
:10106000B04701219A48B0479A4B984765700023D2
:1010700097E7A4235B00984AD758904B9847C71B23
:10108000FA20B84280414042CEE73000934B984767
:1010900083B2864AD380002B04D10022834B1A707E
:1010A00000237EE7884C0004020C8D4DA36E8D4911
:1010B00028008D4EB047012128008C4B9847022212
:1010C0007A4B5A7000226C23E2548948894B984726
:1010D000032366E73378042BADD10422734B5A7097
:1010E00002235EE77822784B1A67A9E776496C22DB
:1010F0008B5C0133DBB28B54032B0FDC6B4CE2882F
:10110000A18806987C4B9847032363706D4B9847E2
:10111000A0610D23079A13600A3B42E76D4B984785
:1011200001217648644EB047604C002525700121AE
:101130007348B0476570002333E7012202291ED1AE
:101140000223002A00D12CE7002D4DD002332A00C3
:101150009A430B2A1FD01023FF339D421BD0604CB3
:101160002B00684A80212000674DA84701212000FC
:101170005E4B984702224D4B5A70022311E7A4237D
:101180005B00554AD7584D4B9847C01BFA22824204
:1011900092415242D4E7290030005C4B9847012825
:1011A0000CD0002805D0022814D0032817D0022321
:1011B000F7E602223D4B5A700323F2E63B4B022234
:1011C0005A709A8801329A8000216C233E4AD15489
:1011D000693BE6E60422354B5A700323E1E60B2215
:1011E000324B5A700323DCE6012C11D0022C13D0B1
:1011F000344B98472D4B9B69C01A334B1A6F02230F
:10120000904200D8CDE60222284B5A700223C8E64D
:1012100005222D4B1A67EBE70F222B4B1A67E7E7E6
:1012200006983B4B98470B23079A13601F4C013BD2
:101230006370244B9847A0610223B2E6214B984784
:101240001A4B9B69C01A0223032800D8A9E6174B42
:1012500000225A709A701A7001212E48164B984736
:1012600001239EE606982A4B98470B23079A1360A2
:101270000E4C01336370134B9847A061022390E634
:10128000104B9847094B9B69C01A0223032800D8CA
:1012900087E60A4B9847054B586100221A700121D6
:1012A0001C48054B984700237BE6C046F809002000
:1012B000EC31000040350000B9080000C9210000F1
:1012C000610A0000D9210000600800208834000075
:1012D0009C3400002D0F0000E81C0020AD0A000027
:1012E000F80800206C340000552700008D0800002D
:1012F000FF05000085050000290C0000C434000033
:10130000E8340000FC340000F1260000390D000034
:10131000D50E000028350000024B00221A705A70CA
:101320007047C046F809002010B58223DB058021F4
:101330008903996099618824802252031A51982068
:101340001A50195119509A609A61044B044A1A6153
:101350005A61044A9A61DA6110BDC04644220020F5
:10136000030300003030000030B50022084B1A8023
:10137000020000230020064D8324640011784018E9
:1013800001339BB22B800132A342F7D130BDC0465E
:10139000D8220020F0B5CE46474680B583B0294E0E
:1013A000341D294BD88EC023DB009C46604480B29C
:1013B00084235B0022000021244DA84785235B0085
:1013C000F35C1B020C22FF32B55CED182000204BB1
:1013D0009847854209D001211E481F4B984700209D
:1013E00003B00CBC90469946F0BD164B1C79240204
:1013F0005A7914199D792D02DB795D19124B9946A2
:10140000DA8E164F0095230015493800154EB04767
:1014100001213800144B98474B461B8F9C420AD140
:10142000094B5B8F01209D42DAD001210F480A4B06
:1014300098470020D4E701210D48074B984700202A
:10144000CEE7C046D8220020D8230020B1040000F7
:10145000691300008C350000B9080000F80800206E
:1014600094350000552700008D080000AC350000C1
:10147000A835000010B5000280231B029C46604482
:10148000014B984710BDC0462519000010B5064A0B
:101490000A32000280231B029C46604480214900DE
:1014A000024B984710BDC046D822002061190000A9
:1014B000F0B5DE4657464E464546E0B583B0D34BC1
:1014C0009847D34B9847D34B9847D34B9847002125
:1014D0000020D24B9847D24B9847D24B9847D24BDB
:1014E0009847D24B984762B6D14B9847D14B984713
:1014F000D14B98470024D14B1C700121D048D14BCF
:101500009847019400940023002200210120CE4C32
:10151000A0470327CD4B9846CD4B9E2252009446C0
:1015200063449946CA4D38E1C44B1B78002B00D068
:101530003BE10021C748C34B9847C74B984700235E
:1015400001930093002201210120BF4CA047C34B0F
:1015500098470600C14CB94B9B46C14B9A4611E1D6
:101560005B46012B08D0032B00D016E100219C2301
:101570005B00B74AD15010E100270EE1B64B9A4606
:10158000B84B9846B84B9946D6E0002800D1F6E013
:10159000AE4B03221A61B54A5A619A610022DA61A0
:1015A000B04B9B7AB24A1364002B43D0AD490A7901
:1015B00012024B799B189BB2AD4C23878A79120299
:1015C000C879801880B260870D7A2D024A7A521944
:1015D00092B244256253023562530025E586C97AEA
:1015E00001292CD0A34C01920090A34A8021200015
:1015F000A24DA84701212000A14B984710E01A00F6
:10160000531C9BB28A42FADD964B1A8000219D48FA
:101610008C4B98479C4B1968043B18689B4B984728
:10162000934B0022DA8646329B5A002B5ADD8A4EB3
:10163000974D15E001219748824B9847FEE700241B
:101640008849CC72CEE7012193487E4B9847884A5F
:10165000D38E01339BB2D3864621525A93423FDA4E
:10166000B047A847041EEED101218C48754B98471E
:101670007F4AD38E01339BB2D3864621525A93427E
:101680002EDA002CECD1012185486E4B9847754C21
:10169000221D84235B0000218248734DA847A37A52
:1016A000002B02D0013B6F4A93726E4D2C1D20001F
:1016B0007D4B98476E4BD887021285235B00EA5416
:1016C0000C23FF33E8548422520021007548774BE5
:1016D00098476D4B1968043B18686C4B984708E0B5
:1016E000002CD0D00022624BDA8601217048554B85
:1016F00098475F4B0022DA8646329B5A002B15DD55
:10170000524F5A4E544D5A4CFE61A847E08E694BD9
:1017100098475F4B9847E08E674B9847E38E0133BD
:101720009BB2E3864622A25A9342EDDB564B1968E0
:10173000043B1868554B9847D04784235B005F4AA9
:1017400000215848C847414B484A5A6100229A61D3
:10175000DA61474C85235B004246D25C12020C23BF
:10176000FF334146CB5C9B18A38754484E4B9847A8
:1017700080B2E087A38F0122834200D105E7504960
:101780003EE7D047A047801B4E4B984203D85B46AC
:101790001B78002BF5D0013FBFB2002F00D0C3E66D
:1017A000264B1B78002B00D1E8E6474A4346DA6116
:1017B000464B41468B614A610B61274B98479C23FE
:1017C0005B00234AD3584A460192214A00920121E4
:1017D00000201D4CA047834600241D4E3C4B9A46DA
:1017E0009E235B00F358002B00D1B9E6285DD0475B
:1017F0000134A4B29E225200AB58013BAB50002BE7
:10180000EED1002133480F4B9847E9E7D918000083
:10181000C11F0000A9240000291300003D1E000084
:10182000E508000019130000151A0000012200004D
:101830008D07000065010000C1090000F8090020C3
:10184000B0350000B90800007D0F000044220020E0
:10185000E81C0020BC35000015250000C92100004F
:10186000BD230000D8220020B1040000555500001F
:10187000D8230020F808002000360000F1260000E0
:101880008D080000CC35000004800000E921000034
:1018900095130000D83500002C36000024360000D7
:1018A0003C360000FF05000069130000FD05000044
:1018B00034360000751400008D140000DC22002076
:1018C0005FEA0000DB050000F0F000000F0F0000F1
:1018D000291E0000283600000E4B9A6904210A4395
:1018E0009A611A691C310A431A610B4B5A686031BC
:1018F0000A435A605A6809490A405A605A680849B6
:101900001140802252020A435A601A00137DDB07FD
:10191000FCD570470008004000400041FFFFF3FF86
:10192000FFFFFCFF0B4A137DDB07FCD5094B1A8B2D
:1019300009490A401A834202D869920A800D80053B
:101940001043D861054A1A801A00137DDB07FCD5C5
:101950007047C04600400041E0FEFFFF02A5FFFFC8
:10196000F0B5D6464F464646C0B5264C237DDB072C
:10197000FCD5254C234B1C801C00237DDB07FCD5AC
:10198000204C238B214D2B4023834608002924DD46
:101990000123984300251E339A4623001C4CA04681
:1019A000194CA44604E00235ADB202308D4214DA7F
:1019B000541964782402575D3C4304800136544630
:1019C0003442F0D144461C801C7DE407FCD56446BB
:1019D0001C801C7DE407FCD5E5E7F3060DD00C4A1E
:1019E000084B1A801A00137DDB07FCD5064A054B0D
:1019F0001A801A00137DDB07FCD51CBC9046994663
:101A0000A246F0BD0040004144A5FFFFE0FEFFFFFD
:101A100004A5FFFF70B501214148424B9847424C55
:101A20006369202213436361404B9A8A02208243F8
:101A30009A823F4A126852039969520E12043D4D30
:101A400029400A439A619A8A40210A439A829A8AD3
:101A500010210A439A829A8A08218A439A829A8A92
:101A600004210A439A829A8A80210A439A821A6937
:101A700007218A4303390A431A619A8A02210A43D9
:101A80009A82626980239B00134363612A4B9A7B8D
:101A900001210A439A731A8882431A80190002228C
:101AA0000B691A42FCD1244B1A880C218A43082165
:101AB0000A431A801A8821491140B02212010A43B0
:101AC0001A801A8840218A431A80190008220B695B
:101AD0001A42FCD1184A13885B045B0C1380110076
:101AE000802212020B691342FCD1134A1188144B55
:101AF0000B4313801100802212020B691342FCD1A8
:101B00000D4A138802210B431380110002220B6936
:101B10001A42FCD101210B48024B984770BDC046C8
:101B200044360000B90800000008004000140040DE
:101B30009C220020FFFF80FF00240040FFF0FFFFF9
:101B40000080FFFF50360000F0B58223DB054820FF
:101B50001A5C01210A431A5401301A5C0A431A54D0
:101B600001301A5C0124A2431A5401301A5C0A4362
:101B70001A543334195D3C380F221140202631436A
:101B80001955195D8143022502273943195535211D
:101B90005C5C224032435A542D4AD3692B43D361B3
:101BA0002C4ACC23D1588024A143D150D158814311
:101BB000D150D15831300143D150274A1368AB433B
:101BC0001360D3699B07FCD4234B0B221A731A684A
:101BD00022490A401A601968802292050A431A6055
:101BE0001968802252050A431A601A681C490A4083
:101BF0001A601968C02292030A431A601A681949C8
:101C00000A401A601A681C218A4310390A431A6074
:101C10005968802292020A435A605A6812490A405F
:101C20005A605A6811490A405A60114A8021890055
:101C300080201150BFF34F8FBFF36F8F0130FF3003
:101C400011501A68FF39FF390A431A60DB69F0BD89
:101C500000080040001C004000040042FFFFFFBFDE
:101C6000FFFFFFF0FFFFFCFFFFDFFFFFFFFDFFFFB8
:101C700000E100E070B58223DB05802212045A6087
:101C80009A618022D2039A609A615622995C01205F
:101C90000143995457215A5C02435A541C395C5CE5
:101CA0000F200F222240202422435A545A5C8243A0
:101CB000022422435A54394AD3692B390B43D36146
:101CC000374AD823D1588024A143D150D1588143D9
:101CD000D150D15831300143D150324A13680221DA
:101CE0008B431360D3699B07FCD42E4B2E4A9A81F9
:101CF0001A682E490A401A601A682D49114080223C
:101D000052030A431A601A682A490A401A601A687C
:101D10001C218A4318390A431A6019688022D205A7
:101D20000A431A601A6824490A401A605A6807214F
:101D30008A435A605A6821490A405A605A682049C1
:101D40000A405A605A6840218A435A605968802282
:101D500052020A435A605968802292020A435A602A
:101D6000184A8025802040015051BFF34F8FBFF3A8
:101D70006F8FC021490050509C7D04210C439C75FD
:101D8000C324A4001159FF26B143294311511968F6
:101D9000022421431960DB69106070BD0008004017
:101DA000001C0040001000425CFEFFFFFFFFFFEF41
:101DB000FFFFCFFFFFFFFCFFFFFFFFF0FFFFFFFC78
:101DC000FFFBFFFF00E100E010B5144B1B7E5B073B
:101DD0000ED5124B198D89B21A7E042002431A7651
:101DE0009C235B000E4AD35898225200934209D993
:101DF0000A4B1B7E9B0704D5084A137E02210B4326
:101E0000137610BD064CE15401330832A350054B44
:101E10009847A4235B00E050EAE7C0460010004268
:101E2000E81C0020C9210000034A137EDB07FCD513
:101E300080B2014B1885704700100042F0B5822334
:101E4000DB05C6229C5C01252C439C544424FF34B2
:101E50001A5D2A431A553224FF341D5D0F260F22C6
:101E60002A4020252A431A557E3C1A5DB24302259A
:101E700002273A431A55434A136A2B431362424AD4
:101E800094235B00D4588027BC43D450D458B44327
:101E9000D450D45831363443D4503C4A1368AB4301
:101EA0001360D3699B07FCD4384B394A9A811A686E
:101EB000384C22401A601A68374C14408022520372
:101EC00022431A601A68354C22401A601A681C2492
:101ED000A243183C22431A601C688022D205224388
:101EE0001A601A682E4C22401A605A684024A24395
:101EF0005A605A68393CA2435A605C688022520298
:101F000022435A605C688022920222435A60254B29
:101F10008022D20080241A51BFF34F8FBFF36F8FFE
:101F20000134FF341A51002820D0184A937D042030
:101F30000343937500291FD1144A137D02210B43DB
:101F40001375124B1A6802210A431A60DA69154A9E
:101F5000C224A400115914480840802109040143F7
:101F60001151DB698023DB001360F0BD074A137D4C
:101F7000042003431375DDE7044A937D02210B43DC
:101F80009375DEE700080040001C00400004004399
:101F90005CFEFFFFFFFFFFEFFFFFCFFFFFFFFCFF38
:101FA000FFFFFFF000E100E0FFFF00FF034A137EA8
:101FB000DB07FCD580B2014B188570470004004355
:101FC000F8B54D4B00221A60DA601A614B494C4B50
:101FD00019600878C0084B4A07242040C0001378D5
:101FE0003825AB430D7825400343072083432B431B
:101FF00013704B785B0823405B0050780734A04394
:10200000034353700B88DB055B0F9B0110883E4C2C
:102010002040034313800B685B035B0E1B033B49AB
:10202000106801400B4313608222394B5A603949D2
:10203000723ACB681A42FCD0374B1A6A37490A40C9
:102040001A621A6A1204120C1A621A6A07218A4367
:1020500001390A431A62196A802252000A431A623D
:102060002C494B7D0F2293434B75244B5A683F20DC
:10207000520A8B6B0240834313438B630A009369BC
:102080005B07FCD4264A00201060264B5360264C88
:10209000236A1B021B0AC02109060B4323629060BE
:1020A00007231360214B1B68214F224C3A008021EB
:1020B0002000214EB04721002048214B9847214B5A
:1020C0001B683A0080212000B04721001B481E4DAC
:1020D000A8471E4B1B683A0080212000B047210012
:1020E0001648A8471A4B1B683A0080212000B047C9
:1020F00021001248A847F8BDA422002020608000DB
:10210000AC2400209C2200203FFEFFFFFF0FF8FFC1
:102110000040004100100040001C0040FFEFFFFFA6
:1021200010E000E080BB000000ED00E00CA08000AB
:102130005C360000F8080020F1260000D4080020DA
:10214000B327000040A080009927000044A0800031
:1021500048A08000194B1A6A01321A62DA6A013209
:10216000DA621B69002B1FD1144B1A6801321A6006
:102170001A68D9688C4662441A600022DA60104BF3
:102180009A88531C9BB2FA2189008B4202DC0C4ACC
:1021900093800DE00B4B9C466244094B9A80074AA2
:1021A00053680133536003E0044AD3680133D360BA
:1021B000024AD36A0133D3627047C046A42200208A
:1021C000AC24002019FCFFFF024B186800221A61A2
:1021D0007047C046A4220020024B586800221A61B2
:1021E0007047C046A422002072B680221202034B20
:1021F0009A6080F3088808477047C04600ED00E009
:1022000010B5374AD16980235B010B43D361354B4D
:102210001A6802218A431A603349F82288588024B8
:10222000A04388508858713CA04388508858313466
:10223000204388501968EC3A9143196019682B4A79
:10224000114019601A6822431A601900FF220B69B5
:102250001A42FCD1234BDA7B01210A43DA731A7943
:10226000042002431A711A790A431A711A7A0A432E
:102270001A72187A102420431872187A20221043F8
:1022800018725A7A22435A721A7B032082430A43F5
:102290001A73174A9A83190040220B691A42FCD11B
:1022A000104A136802210B431360110002220B69CC
:1022B0001A42FCD10F4B8021490380229950BFF371
:1022C0004F8FBFF36F8F0132FF329950C5208000CE
:1022D0001A58FF24A2433F3C22431A50196010BDF4
:1022E0000008004000300042001C0040FFF8FFFFE3
:1022F00060EAFFFF00E100E030B58BB006AA294B91
:10230000180032C832C2110002680A6002AA1033F3
:1023100013CB13C21B681360234B5B690133322B51
:102320000CD0214A5361214B9A7A01210A439A72B7
:102330009A7A10210A439A720BB030BD00221A4BD0
:102340005A611B4B196800231A4C06A80DE002AA1B
:102350009A5801921A58D2018225ED05AC46624482
:10236000019D55610433102B0FD01A1912690A42CE
:10237000EDD002AA9A5801921A58D2018225ED0591
:10238000AC466244019D9561ECE749004A1E0A4B48
:102390009A4203D90122064B1A60C4E7044B196024
:1023A000C1E7C04664360000A4220020003000428D
:1023B0000002002044220020FF7F000030B589B0D9
:1023C0009C235B00284AD3580020002B01D109B080
:1023D00030BDA4235B00D458244B9847041B002035
:1023E000192CF4D9204C9C235B00E3580022E254C2
:1023F00068461F4B9847694620001E4B98470028A7
:1024000014D01D4D01224223EA54174900239C2079
:1024100040000B5004300B50184C22706370134B6B
:102420009847606103236B610120D0E714490E488F
:10243000104B9847002814D00F4D01224223EA5434
:10244000094900239C2040000B5004300B500B4CDA
:1024500022706370054B9847606103236B61012014
:10246000B5E70020B3E7C046E81C0020C921000002
:1024700089020000FB27000044220020F809002008
:10248000D40800200300064A1268002A04D0044A37
:102490001068C318136070470249014A1160F6E7DB
:1024A000B4240020C8440020184A516980235B00EE
:1024B0000B435361164A137802218B4313709368C0
:1024C0009B07FCD4124A11787F230B40137093684A
:1024D0001B07FCD40E4A137804218B4313709368B6
:1024E0005B07FCD40A4A53780F218B430B210B4323
:1024F0005370137802210B43137093689B07FCD42D
:10250000802212058223DB059A6070470008004094
:1025100000200040A522064B1A731A009368DB06C0
:10252000FCD4802212058223DB05DA617047C046A5
:1025300000200040002243088B4274D303098B42E1
:102540005FD3030A8B4244D3030B8B4228D3030C83
:102550008B420DD3FF22090212BA030C8B4202D325
:102560001212090265D0030B8B4219D300E0090A4D
:10257000C30B8B4201D3CB03C01A5241830B8B4256
:1025800001D38B03C01A5241430B8B4201D34B033F
:10259000C01A5241030B8B4201D30B03C01A5241A4
:1025A000C30A8B4201D3CB02C01A5241830A8B4229
:1025B00001D38B02C01A5241430A8B4201D34B0212
:1025C000C01A5241030A8B4201D30B02C01A524176
:1025D000CDD2C3098B4201D3CB01C01A524183092A
:1025E0008B4201D38B01C01A524143098B4201D364
:1025F0004B01C01A524103098B4201D30B01C01A8F
:102600005241C3088B4201D3CB00C01A5241830808
:102610008B4201D38B00C01A524143088B4201D335
:102620004B00C01A5241411A00D201465241104695
:102630007047FFE701B5002000F006F802BDC04674
:102640000029F7D076E770477047C04670B500267E
:102650000C4D0D4C641BA410A64209D1002601F0BC
:102660003DF80A4D0A4C641BA410A64205D170BD6A
:10267000B300EB5898470136EEE7B300EB589847A4
:102680000136F2E7E8360000E8360000E8360000E0
:10269000EC360000931E10B50C00222B04D9002349
:1026A0001C000B70200010BD0A2A09D1002807DA8F
:1026B0002D230B7001214042611800F0B7F8F1E7BB
:1026C0000021F9E710B5FFF7E5FF10BD002310B5B5
:1026D0009A4200D110BDCC5CC4540133F8E703002A
:1026E0008218934200D1704719700133F9E7000056
:1026F0000CB430B5164B9DB00C1E1D6808DA8B2348
:1027000001202B6040421DB030BC08BC02B018470D
:10271000822302A99B008B810023029008619C42C6
:1027200000D0631E8B604B6101235B42CB81209AFA
:1027300021AB2800019300F015F9431C01DA8B232B
:102740002B60002CDFD00023029A1370DBE7C04619
:10275000040200200EB410B59DB002A902900861D9
:102760000B48822488604861012040421FABC88129
:10277000084804CBA400006801938C8100F0F2F8B3
:102780000023029A13701DB010BC08BC03B0184798
:10279000FFFFFF7F04020020020010B51378002B1A
:1027A00005D1CC5CD4540133002CFAD110BD0132D8
:1027B000F4E7031C0A7801311A700133002AF9D1B9
:1027C00070470023C25C0133002AFBD1581E7047BA
:1027D00070B50400002A00D170BD0D78561E631C30
:1027E00025700131002D05D1A4189C42F4D01D7034
:1027F0000133FAE71C003200ECE710B50200007864
:10280000002804D1097800290DD010BD01321078BC
:102810000028FAD00023C85C002804D0D45C84428D
:10282000F4D10133F7E71000EFE70000F0B517002F
:102830008FB0252206000D0004A81849FFF746FFB7
:1028400004AABB1E00240392222B05D92C7025005C
:1028500028000FB0F0BD019C631C0193EB1800939E
:102860003000013B39000293FFF7EAFE039B029A16
:102870005B5C300013703900FFF75CFE061EEAD186
:10288000009B18702B005A1B9442E1DD1A78295DD9
:1028900019702A550133013CF5E7C0468436000023
:1028A000F0B58E6885B007000C00039201939E423C
:1028B00039D890238A89DB001A4234D0032509696C
:1028C00023685B1A0293636902985D43EB0F5D19FD
:1028D000019B6D1001331B18AB4200D91D0053053D
:1028E00032D52900380000F031FB061E09D10C2337
:1028F0003B6040230120A28940421343A38105B0DD
:10290000F0BD029A2169FFF7E1FEA389144A1A403B
:1029100080231343A381029B2661F618266065611C
:10292000019EED1AA560019BB34200D21E00320049
:102930000399206800F0ADFAA36800209B1BA360F8
:1029400023689E192660DAE72A00380000F05CFB55
:10295000061EE0D12169380000F0AEFAC7E7C04694
:102960007FFBFFFFF0B59FB0029005938B890F00AE
:1029700016001B0611D50B69002B0ED1402100F06B
:10298000E5FA38603861002805D10C23029A013835
:1029900013601FB0F0BD40237B61002306AD6B6167
:1029A00020336B761033AB7634002378002B47D17D
:1029B000A31B04930DD0A31B320039000298FFF72C
:1029C0006FFF431C00D1B5E06A69049B94466344E1
:1029D0006B612378002B00D1ACE00122002352422E
:1029E0006A6002A95432521801342B60EB60AB606C
:1029F0001370AB65584E05222178300000F03EFA86
:102A0000621C002820D12968CB0604D5532302AECE
:102A100020309B1918700B0704D553232B2002AECE
:102A20009B19187023782A2B16D000200A21099BA5
:102A30002278303A092A55D9002815D0099313E095
:102A4000252BB5D00134B0E70123801B83402968D2
:102A500014000B432B60CDE7059B181D1B680590E8
:102A6000002B39DB0993140023782E2B0BD16378CC
:102A7000621C2A2B3ED1059B02341A1D1B6805924D
:102A8000002B34DB0793354E21780322300000F011
:102A9000F5F9002806D04023801B83402A680134C2
:102AA00013432B60217806222D48661C297600F0FE
:102AB000E5F9002846D02B4B002B2FD12968059B28
:102AC0000722C90528D59B189343083305936B69E2
:102AD000039A9B186B6167E75B42EB6002230B4331
:102AE0002B60C0E74B4301349B180120A0E7012372
:102AF0005B42C7E7002314000A201A006B602178AC
:102B00003039092903D9002BBDD00792BBE74243D6
:102B1000013452180123F2E70733D5E705AB0093E0
:102B20003A00114B2900029800E000BF0390039B7C
:102B30000133CCD1BB890B985B0600D429E7012077
:102B4000404226E705AB00933A00074B2900029864
:102B500000F07AF8EAE7C046A9360000AF36000078
:102B6000B336000000000000A1280000F7B51500F2
:102B700001938A680B6900900C00934200DA1300FD
:102B800022002B6043321278002A01D001332B60DF
:102B900023689B0602D52B6802332B600627236827
:102BA0001F4027D0230043331B785A1E93412268CD
:102BB000920630D42200019943320098089EB04713
:102BC000431C25D0062320682A68E16803400025BD
:102BD000042B03D18D1AEB43DB171D40A368226938
:102BE000934201DD9B1AED180027BD4220D1002041
:102BF00010E00137E3682A689B1A9F42D2DA22006C
:102C00000123193201990098089EB047431CF0D166
:102C100001204042FEBD3020E11843310870210000
:102C20005A1C45310978A218433202331170C1E7AA
:102C3000220001231A3201990098089EB047431CD4
:102C4000E6D00137D1E70000F0B58BB006920A005C
:102C500043320793059004920A7E0C00109B6E2A63
:102C600000D18FE017D8632A2CD008D8002A00D1D1
:102C700099E0582A54D026004236327029E0642A5E
:102C800001D0692AF7D121681A68080623D5111DD9
:102C90001960156825E0732A00D188E008D86F2AEA
:102CA00029D0702AE7D1202209680A43226003E074
:102CB000752A20D0782ADED1220078214532117081
:102CC0006C4A30E00E001A684236111D1960136814
:102CD0003370012379E04906D9D5111D196000230D
:102CE000D55E002D03DA2D23049A6D421370624BDA
:102CF0000A2703932FE020681968050603D5081DED
:102D000018600D6805E04006F9D50D68081D1860CB
:102D1000ADB2594B082703936F2A18D00A2716E043
:102D200045310A70544A03921A682168101D1860D0
:102D30001568080622D5CB0702D520231943216048
:102D40001027002D03D1202322689A4322602300FC
:102D5000002243331A706368A360002B5CDB0422FB
:102D6000216891432160002D58D1049E002B64D02E
:102D70002600039B42361B7833705EE04806DAD5A6
:102D8000ADB2D8E709681A68080605D5111D1960A3
:102D9000136862691A6006E04906F7D5111D1960CB
:102DA0001368A28A1A800023049E236154E01A68E3
:102DB000111D1960166800216268300000F05EF88D
:102DC000002801D0801B6060636823610023049A9F
:102DD000137041E02369320006990598079DA847C2
:102DE000431C43D0236800259B070FD4099BE06850
:102DF00098423DDA18003BE022000123193206997F
:102E00000598079EB047431C30D00135E368099A06
:102E10009B1A9D42F0DBE9E7002DA9D0049E280013
:102E20003900FFF70DFC039B013E5B5C280033700B
:102E30003900FFF77FFB051EF1D1082F09D1236868
:102E4000DB0706D563682269934202DC3023013E2A
:102E50003370049B9B1B2361079B09AA00932100ED
:102E6000069B0598FFF782FE431CB3D10120404228
:102E70000BB0F0BDCB360000BA360000C9B28218E4
:102E8000904201D10020704703788B42FBD0013083
:102E9000F6E710B5884202D98B18984208D3002370
:102EA0009A4207D0CC5CC4540133F9E78B5C83545D
:102EB000013AFBD210BD000070B50500002910D00A
:102EC0000C1F2368002B00DAE418280000F0D4F867
:102ED0001D4A1368002B05D163601460280000F0C0
:102EE000CCF870BDA34209D9216860188342F3D1A0
:102EF00018685B6841182160EEE713005A68002AE1
:102F000001D0A242F9D919685818A0420BD1206803
:102F10000918581819608242E0D1106852684118A7
:102F200019605A60DAE7A04202D90C232B60D5E77A
:102F300021686018824203D11068526841182160EC
:102F400062605C60CAE7C046B8240020032370B505
:102F5000CD1C9D43083506000C2D1ED20C25A94220
:102F60001DD8300000F088F8254A14682100002997
:102F700019D1244C2368002B03D1300000F06AF8EB
:102F800020602900300000F065F8431C2CD10C2390
:102F90003000336000F071F803E0002DDFDA0C231D
:102FA0003360002070BD0B685B1B1AD40B2B03D958
:102FB0000B60CC18256003E08C420ED1636813606F
:102FC000300000F05AF8200007220B30231D9043F8
:102FD000C31AE7D05A42E250E4E74B6863600C0042
:102FE000EEE70C004968C2E70323C41C9C43A042DF
:102FF000E0D0211A300000F02DF8431CDAD1C6E7EA
:10300000B8240020BC240020F8B507000D001600ED
:10301000002905D11100FFF799FF04002000F8BD39
:10302000002A03D1FFF748FF3400F7E700F026F845
:103030002C008642F2D931003800FFF787FF041ECA
:10304000ECD029003200FFF741FB29003800FFF7E0
:1030500033FFE3E7002370B5064C0500080023604A
:10306000FFF710FA431C03D12368002B00D02B601C
:1030700070BDC046C0240020704770470B1F1B68FE
:10308000181F002B01DA0B58C01870474461746197
:10309000205072696D657220536563746F72204FA2
:1030A0004B210A0044617461205072696D65722081
:1030B000536563746F7220496E636F7272656374D7
:1030C0006F210A004461746120536567756E646FF7
:1030D00020536563746F72204F4B210A000000007B
:1030E0004461746120536567756E646F2053656336
:1030F000746F7220496E636F72726563746F210A18
:103100000000000066616374446F776E50617373F2
:10311000000000000C000801000209000D00000181
:10312000000208001C000801000809001D00000141
:103130000008080024000801001009002500000113
:10314000001008002C00100200100A002D000002E0
:10315000001009003400100200200A0035000002AF
:10316000002009003C00200400200B003D0000046A
:1031700000200A0044617461466C6173683A20253E
:10318000692C2025692C2025692C20253032782CAB
:103190002025690A0000000044617461466C617377
:1031A00068206E6F742072656164790A0000000007
:1031B0003A0000002D000000446174612D2D3E0096
:1031C0003C2D2D446174610A000000006465627545
:1031D0006720496E69742C20424F4F542056455247
:1031E00053494F4E3A2025640A000000A60F000004
:1031F00020100000EC1000003A1100002012000026
:10320000AE0F0000AE0F0000AE0F0000AE0F0000CA
:10321000AE0F00003C12000064120000801200009B
:103220004D6172636120646520626F6F7420636F0B
:103230007272656374610A004D6179203134203205
:1032400030323400436865717565616E646F206C5F
:10325000612076657273696F6E206465206669729D
:103260006D776172650A000043686B53756D20636A
:103270006F72726563746F0A0000000050726F6AAB
:103280006563746F20496775616C0A004275696CEB
:103290006420496775616C0A00000000426F727219
:1032A000616E646F206C61206D656D6F7269610A7B
:1032B0000000000059656E646F206120426F6F74DA
:1032C0000A00000044656D61736961646F73206971
:1032D0006E74656E746F730A0000000043686B5370
:1032E000756D20496E636F72726563746F0A0000BA
:1032F0004964207265706F727420656E76696164CE
:103300006F0A00002530325820000000496E666FB9
:103310002072656369626964610A00004E656564D4
:1033200020526573756D653F0A000000436F696E3A
:10333000636964652050726F796563746F0A000079
:10334000436F696E63696465204275696C640A0045
:10335000526573756D696E65646F20646573636132
:103360007267610A000000004E6F20636F696E6330
:103370006964652076657273696F6E2064652048A4
:1033800044570A0043486B20696E636F727265632D
:10339000746F20656E20696E666F0A004368756EF3
:1033A0006B2050656469646F2025640A000000008A
:1033B0004368756E6B206C656E203D2025750A0094
:1033C00044657363617267612063616E63656C61FC
:1033D00064610A006C656E20726563696269646F7E
:1033E000206465206368756E6B2025640A00000008
:1033F0006C656E203020756C74696D6F2063687524
:103400006E6B0A0063686B73756D20696E636F7213
:10341000726563746F20656E206368756E6B200043
:1034200063686B3A253034582053756D3A25303433
:1034300058206C656E3A25303458202D2D0A000036
:10344000456E64204669726D7761726520646F779E
:103450006E6C6F61640A00004163746976616E642A
:103460006F20726573756D650A0000004669726DA4
:103470007761726520726563696269646F20256493
:103480002C2025640A000000446F776E4C6F616445
:10349000204641494C2D310A000000007469656DD9
:1034A000706F20657863656469646F2C2044657370
:1034B00063617267612046696E616C697A616461FB
:1034C0000A0000004368756E6B206572726F6E654E
:1034D0006F2C2044657363617267612046696E6179
:1034E0006C697A6164610A00446F776E4C6F616445
:1034F000204641494C2D320A000000004368756E99
:103500006B206C6F6E6769747564206572726F6E84
:1035100065612025642C207265696E74656E746126
:103520006E646F0A00000000446573636172676136
:103530002046696E616C697A6164610A000000006E
:10354000446F776E4C6F6164204641494C2D330ABD
:10355000000000004D6F646275732052656D6F74DA
:103560006F202564206279746573207265636962D7
:1035700069646F730A0000004279746573206120EA
:10358000456E766961722025640A000043484B0944
:103590000000000050726F6A2025643A2025642CD8
:1035A0002025640A000000005009000042090000C4
:1035B000444C20496E69740A000000004E65772073
:1035C0004669726D776172653F0A00004E6F204454
:1035D0004154410A0000000044656D6173696164F3
:1035E0006F7320496E74656E746F7320646520700C
:1035F000726F6772616D6163696F6E0A000000002F
:103600004669726D7761726520456E636F6E747284
:103610006164303A2025642C2025642C2025640A1E
:1036200000000000502046210A00000050204F6B8F
:10363000210A000046204F6B0A0000004620460A7F
:103640000000000052544320496E697420310A0082
:1036500052544320496E697420320A00253038588C
:103660000000000000000000010000000100000058
:1036700000000000000020000000100000002000FA
:10368000000010003031323334353637383961625A
:10369000636465666768696A6B6C6D6E6F70717282
:1036A000737475767778797A00232D302B20006833
:1036B0006C4C00656667454647003031323334351F
:1036C000363738394142434445460030313233348D
:1036D000353637383961626364656600F8B5C046CF
:1036E000F8BC08BC9E467047E5000000F8B5C0462F
:0C36F000F8BC08BC9E467047BD000000FE
:1036FC0000C1814001C0804101C0804100C18140B6
:10370C0001C0804100C1814000C1814001C08041A5
:10371C0001C0804100C1814000C1814001C0804195
:10372C0000C1814001C0804101C0804100C1814085
:10373C0001C0804100C1814000C1814001C0804175
:10374C0000C1814001C0804101C0804100C1814065
:10375C0000C1814001C0804101C0804100C1814055
:10376C0001C0804100C1814000C1814001C0804145
:10377C0001C0804100C1814000C1814001C0804135
:10378C0000C1814001C0804101C0804100C1814025
:10379C0000C1814001C0804101C0804100C1814015
:1037AC0001C0804100C1814000C1814001C0804105
:1037BC0000C1814001C0804101C0804100C18140F5
:1037CC0001C0804100C1814000C1814001C08041E5
:1037DC0001C0804100C1814000C1814001C08041D5
:1037EC0000C1814001C0804101C0804100C18140C5
:1037FC0000C0C101C30302C2C60607C705C5C40485
:10380C00CC0C0DCD0FCFCE0E0ACACB0BC90908C8F4
:10381C00D81819D91BDBDA1A1EDEDF1FDD1D1CDCE4
:10382C0014D4D515D71716D6D21213D311D1D01054
:10383C00F03031F133F3F23236F6F737F53534F444
:10384C003CFCFD3DFF3F3EFEFA3A3BFB39F9F838B4
:10385C0028E8E929EB2B2AEAEE2E2FEF2DEDEC2CA4
:10386C00E42425E527E7E62622E2E323E12120E014
:10387C00A06061A163A3A26266A6A767A56564A404
:10388C006CACAD6DAF6F6EAEAA6A6BAB69A9A86874
:10389C0078B8B979BB7B7ABABE7E7FBF7DBDBC7C64
:1038AC00B47475B577B7B67672B2B373B17170B0D4
:1038BC0050909151935352929656579755959454C4
:1038CC009C5C5D9D5F9F9E5E5A9A9B5B9959589834
:1038DC00884849894B8B8A4A4E8E8F4F8D4D4C8C24
:1038EC004484854587474686824243834181804094
:1038FC000100000008020020000000000000000091
:10390C0000000000000000000000000000000000AB
:10391C00000000000000000000000000000000009B
:10392C00000000000000000000000000000000008B
:10393C00000000000000000000000000000000007B
:10394C00000000000000000000000000000000006B
:08395C00000000000000000063
:00000001FF
