:020000020000FC
:0C0000000C94EB180C9400000C94000011
:10000C000C9400000C9400000C9400000C94000064
:10001C000C9400000C9400000C9400000C94000054
:10002C000C9400000C941A4C0C9400000C940000DE
:10003C000C9400000C9400000C94FE210C94000015
:10004C000C9400000C9400000C9400000C94000024
:10005C000C9400000C9400000C943D6A0C9400006D
:10006C000C9400000C9400000C94CA280C94000012
:10007C000C9400000C9496220C9400000C9400003C
:10008C000C9400000C9400000C9400000C940000E4
:10009C000C9400000C9400000C9400000C940000D4
:1000AC000C9400000C9400000C9400000C940000C4
:1000BC000C940E230C9400000C9400000C94000083
:1000CC000C94706A0C9400000C9400000C94B529EC
:1000DC000C9400000C94000000000100FF00FF00D5
:1000EC00FF00FF00FF00FF00020003000400FF0000
:1000FC00FF000500FF00FF000C08010002090D00C5
:10010C00010002081C08010008091D000100080874
:10011C002408010010092500010010082C10020011
:10012C00100A2D000200100934100200200A3500BC
:10013C00020020093C200400200B3D000400200A92
:10014C0000C1814001C0804101C0804100C181409B
:10015C0001C0804100C1814000C1814001C080418B
:10016C0001C0804100C1814000C1814001C080417B
:10017C0000C1814001C0804101C0804100C181406B
:10018C0001C0804100C1814000C1814001C080415B
:10019C0000C1814001C0804101C0804100C181404B
:1001AC0000C1814001C0804101C0804100C181403B
:1001BC0001C0804100C1814000C1814001C080412B
:1001CC0001C0804100C1814000C1814001C080411B
:1001DC0000C1814001C0804101C0804100C181400B
:1001EC0000C1814001C0804101C0804100C18140FB
:1001FC0001C0804100C1814000C1814001C08041EB
:10020C0000C1814001C0804101C0804100C18140DA
:10021C0001C0804100C1814000C1814001C08041CA
:10022C0001C0804100C1814000C1814001C08041BA
:10023C0000C1814001C0804101C0804100C18140AA
:10024C0000C0C101C30302C2C60607C705C5C4046A
:10025C00CC0C0DCD0FCFCE0E0ACACB0BC90908C8DA
:10026C00D81819D91BDBDA1A1EDEDF1FDD1D1CDCCA
:10027C0014D4D515D71716D6D21213D311D1D0103A
:10028C00F03031F133F3F23236F6F737F53534F42A
:10029C003CFCFD3DFF3F3EFEFA3A3BFB39F9F8389A
:1002AC0028E8E929EB2B2AEAEE2E2FEF2DEDEC2C8A
:1002BC00E42425E527E7E62622E2E323E12120E0FA
:1002CC00A06061A163A3A26266A6A767A56564A4EA
:1002DC006CACAD6DAF6F6EAEAA6A6BAB69A9A8685A
:1002EC0078B8B979BB7B7ABABE7E7FBF7DBDBC7C4A
:1002FC00B47475B577B7B67672B2B373B17170B0BA
:10030C0050909151935352929656579755959454A9
:10031C009C5C5D9D5F9F9E5E5A9A9B5B9959589819
:10032C00884849894B8B8A4A4E8E8F4F8D4D4C8C09
:10033C004484854587474686824243834181804079
:10034C0000005E36BC6CE25A78D926EFC4B59A83AD
:10035C0089FFD7C935936BA5F126AF104D4A137C95
:10036C006BB23584D7DE89E8136B4D5DAF07F13185
:10037C00E24DBC7B5E2100179A94C4A226F878CE7D
:10038C00AF29F11F13454D73D7F089C66B9C35AA65
:10039C0026D678E09ABAC48C5E0F0039E263BC555D
:1003AC00C49B9AAD78F726C1BC42E274002E5E184D
:1003BC004D641352F108AF3E35BD6B8B89D1D7E735
:1003CC005E530065E23FBC09268A78BC9AE6C4D02D
:1003DC00D7AC899A6BC035F6AF75F14313194D2F15
:1003EC0035E16BD7898DD7BB4D38130EF154AF6205
:1003FC00BC1EE22800725E44C4C79AF178AB269DFD
:10040C00F17AAF4C4D16132089A3D79535CF6BF9E4
:10041C00788526B3C4E99ADF005C5E6ABC30E206DC
:10042C009AC8C4FE26A47892E211BC275E7D004BCC
:10043C0013374D01AF5BF16D6BEE35D8D78289B4B4
:10044C00BCA6E29000CA5EFCC47F9A4978132625AC
:10045C0035596B6F8935D7034D8013B6F1ECAFDA94
:10046C00D71489226B78354EAFCDF1FB13A14D9784
:10047C005EEB00DDE287BCB1263278049A5EC4687C
:10048C00138F4DB9AFE3F1D56B563560D73A890C64
:10049C009A70C446261C782AE2A9BC9F5EC500F35C
:1004AC00783D260BC4519A6700E45ED2BC88E2BE4C
:1004BC00F1C2AFF44DAE1398891BD72D35776B4134
:1004CC00E2F5BCC35E9900AF9A2CC41A264078762C
:1004DC006B0A353CD766895013D34DE5AFBFF18914
:1004EC008947D771352B6B1DF19EAFA84DF213C404
:1004FC0000B85E8EBCD4E2E278612657C40D9A3BFC
:10050C004DDC13EAF1B0AF8635056B338969D75FE3
:10051C00C4239A15784F2679BCFAE2CC00965EA0DB
:10052C00266E78589A02C4345EB70081E2DBBCEDCB
:10053C00AF91F1A713FD4DCBD748897E6B243512B3
:10054C00FF00000352455345542043415553453A4F
:10055C0020253032582C2025303258253032582066
:10056C000A004279746573206120456E7669617268
:10057C002025640A0045737461646F3A2025646D0C
:10058C00562C2025646D562C202564BA432C5B25F3
:10059C00642C25645D002825642C2025642C2025E2
:1005AC00642C2025642C20256429002820256C75BA
:1005BC002C20256C752C2025752C2025752C2025A0
:1005CC00752C202575290A00475052532049503A62
:1005DC002025730A003C3C444920537461747573A4
:1005EC003A002D2564003E3E5B5B25642C25642C73
:1005FC0025645D5D2D007B25752C25752C25647D72
:10060C002D000A444E503A7B25752C2025752C2044
:10061C0025752C2025752C2025752C2025752C2036
:10062C0025752C2025752C2025642C20253032583E
:10063C002C2025642C2025642C2025642C2025645A
:10064C007D007B25752C25757D0A0052455345543C
:10065C00207070704661696C436F756E740A00731C
:10066C006F66742072657365742064656C206D6FA1
:10067C0064656D0A004D4F44454D203347202D20B5
:10068C0046696E616C20646520496E696369616CB2
:10069C00697A6163696F6E0A004D6F64656D204302
:1006AC006F6C6761646F2C207265696E6963696138
:1006BC00646F0A000100001F1C1F1E1F1E1F1F1E3F
:1006CC001F1E1F00446562756720496E69740A001D
:1006DC00446562756720656E64002D25643A256457
:1006EC003A25642E25642D00446174612D2D3E0045
:1006FC002530325820003C2D2D446174610A0000D5
:10070C003D0E0000420E0000470E00003A070000AC
:10071C004C0E0000530E00005A0E0000610E00003B
:10072C002B51495552433A20227265637622004D73
:10073C006F64656D2053656E64203A20004D6F64C4
:10074C00656D205265636569766564203A200052B8
:10075C00494E470041542B434855500D0A00455211
:10076C00524F520041542B514953454E443D002C9D
:10077C00003E0053454E44204F4B0053454E442001
:10078C004641494C0041542B51494745544552521E
:10079C004F520D0A003536392C6D656D6F7279200C
:1007AC006E6F7420656E6F756768004D6F64656D54
:1007BC002073696E2050726F6D70740A00504F5721
:1007CC0045524B45590A0050756572746F2025309F
:1007DC0032580A005155454354454C20554332304C
:1007EC0020484152442052455345540A00507565E7
:1007FC0072746F3A203078253032580A0067707264
:10080C00732E706572736F6E616C2E636F6D006505
:10081C0064657375722E74656D70726573617300A7
:10082C0077617000696E7465726E65742E67707294
:10083C00732E756E69666F6E2E636F6D2E6172000E
:10084C006564657375722E6D326D2E636C61726F9B
:10085C002E636F6D2E61720069677072732E636CFC
:10086C0061726F2E636F6D2E61720074696D2E62F2
:10087C00720074696D00677072732E6F692E636FEE
:10088C006D2E6272006775657374007A61702E76D6
:10089C0069766F2E636F6D2E6272007669766F00CB
:1008AC00636C61726F2E636F6D2E627200636C618C
:1008BC00726F007761702E7469676F2E7079007497
:1008CC0069676F00696E7465726E6574007065722D
:1008DC00736F6E616C00696D6F76696C2E656E74EA
:1008EC00656C7063732E636C00656E74656C7063FD
:1008FC0073007765622E746D6F76696C2E636C0075
:10090C007765620062616D2E636C61726F636869FA
:10091C006C652E636C00636C61726F6368696C65E7
:10092C00006D6F7669737461722E6573004D4F564E
:10093C0049535441520041542B4353510D0A002B3F
:10094C00435351004E4956454C204445205345D104
:10095C00414C3A202D25642064426D0A0053494EC7
:10096C00205345D1414C0A0041542B435245473F3B
:10097C000D0A00435245473A004E4F205245474915
:10098C0053545241444F2047534D2F55544D5321EE
:10099C00210A4D45206973204E4F542063757272A5
:1009AC00656E746C7920736561726368696E67201B
:1009BC0061206E6577206F70657261746F72207440
:1009CC006F20726567697374657220746F0A0072A8
:1009DC006567697374657265642047534D2C206894
:1009EC006F6D65206E6574776F726B0A0072656748
:1009FC00697374657265642043444D41206E65745F
:100A0C00776F726B0A0072656769737465726564DF
:100A1C0020555452414E0A007265676973746572B1
:100A2C0065642047534D20572F45475052530A00B9
:100A3C007265676973746572656420555452414ED2
:100A4C0020572F48534450410A00726567697374EC
:100A5C006572656420555452414E20572F485355AA
:100A6C0050410A007265676973746572656420553C
:100A7C005452414E20572F485344504120616E64CC
:100A8C002048535550410A0072656769737465724A
:100A9C00656420452D555452414E0A0063617261C4
:100AAC00637465723A2025630A004E4F2052454705
:100ABC004953545241444F2047534D2F55544D5395
:100ACC0021210A4D452069732063757272656E741D
:100ADC006C7920736561726368696E672061206E42
:100AEC006577206F70657261746F7220746F2072FD
:100AFC006567697374657220746F0A004E4F2052DB
:100B0C0045474953545241444F2047534D2F555458
:100B1C004D5321210A726567697374726174696F30
:100B2C006E2064656E6965640A004E4F205245471D
:100B3C004953545241444F2021210A756E6B6E6FFC
:100B4C00770A007265676973746572656420475330
:100B5C004D2F55544D532C20726F616D696E670A81
:100B6C0000756E6B6E6F776E3A2025730A005369B1
:100B7C006E207265737075657374612043524547BE
:100B8C000A0041542B43475245473F0D0A00434747
:100B9C005245473A004E4F20524547495354524113
:100BAC00444F204461746F7321210A4D45206973B1
:100BBC00204E4F542063757272656E746C7920737D
:100BCC006561726368696E672061206E6577206F5E
:100BDC0070657261746F7220746F207265676973CF
:100BEC0074657220746F0A0072656769737465723C
:100BFC0065642047534D0A004E4F205245474953D8
:100C0C00545241444F204461746F7321210A4D4565
:100C1C002069732063757272656E746C79207365CC
:100C2C0061726368696E672061206E6577206F70F2
:100C3C00657261746F7220746F207265676973746A
:100C4C00657220746F0A004E4F2052454749535429
:100C5C005241444F204461746F7321210A726567BD
:100C6C00697374726174696F6E2064656E69656412
:100C7C000A004E4F205245474953545241444F208D
:100C8C004461746F7321210A756E6B6E6F770A0065
:100C9C0072656769737465726564204461746F73FF
:100CAC002C20726F616D696E670A00756E6B6E6FCA
:100CBC00776E3A200A0053696E2072657370756501
:100CCC007374612043475245470A0041540D0A0092
:100CDC004F4B210A00424153555241202D2D3E00CD
:100CEC004D6F64656D206E6F20726573706F6E64EE
:100CFC00652021210A002B2B2B00415448300D0A72
:100D0C00005175656374656C204F4B210A00506F60
:100D1C00636F7320627974657320726563696269AD
:100D2C00646F730A002D2D2D3E4461746F733A204D
:100D3C0025642C2025642C2025642C2025642C2053
:100D4C0025640A004552524F522064652074616D2F
:100D5C0061F16F20646520706171756574650A00BE
:100D6C0025303258200050617175657465206D75A1
:100D7C006C7469706C650A005044502044454143C2
:100D8C005400434C4F5345440051756974616E6473
:100D9C006F2064656C206275666665723A20256406
:100DAC002064652025640A005061717565746520A6
:100DBC006D756C7469706C652C206C656E3A2025B1
:100DCC00640A0041542B434D47523D00534D532070
:100DDC006C6579656E646F206D656E73616A6573A1
:100DEC002025640A002B434D475200534D5320726B
:100DFC006563696269646F2025730A00534D532043
:100E0C00256420726563696269646F0A0041542B22
:100E1C00434D47443D00534D5320256420656C6978
:100E2C006D696E61646F0A004154244F46460D0A89
:100E3C0000454332300045433235005543323000D3
:100E4C00512D4543323000512D4543323500512D43
:100E5C005543323000512D585858580043616D623B
:100E6C00696F2064652053494D434152440A005335
:100E7C00696D2053656C6563743A202564202D20C0
:100E8C0025640A00536F6674205475726E204F6689
:100E9C00662064656C204D6F64656D0A004170615D
:100EAC0067616E646F20656C206D6F64656D200AE0
:100EBC00004D6F64656D204170616761646F0A005D
:100ECC0046616C6C6120656E204170616761646F76
:100EDC002064656C206D6F64656D0A0044656D6FF0
:100EEC007261203520736567756E646F7320706155
:100EFC007261206170616761646F20253032580A1D
:100F0C0000456E63656E6469656E646F204D6F6439
:100F1C00656D0A0044656D6F7261205374657020B5
:100F2C00313520736567756E646F730A00415445E3
:100F3C00300D0A0041542B4950523D31313532307D
:100F4C00300D0A0041542644300D0A0041542B49FF
:100F5C0046433D302C300D0A0041542B4347534E31
:100F6C000D0A004D6F64656D20494D4549203A20AE
:100F7C0025730A004552524F5220444520494D4595
:100F8C00490041542B43494D490D0A004D6F64658E
:100F9C006D20494D5349203A2025730A0045525281
:100FAC004F5220444520494D53490041542B51493F
:100FBC00435347503D312C312C2200222C2200224D
:100FCC002C330D0A004D4F44454D203A2041504ED4
:100FDC00207365746561646F210A0041542B43478B
:100FEC005245473D320D0A0041542B435245473D73
:100FFC00320D0A004154490D0A00512D344700515D
:10100C002D334700512D32470041542B4347455156
:10101C004D494E0D0A00434745514D494E00415430
:10102C002B434745515245510D0A004347455152F8
:10103C0045510041542657300D0A00436F6E6578B8
:10104C00696F6E2025642073657276657220256445
:10105C000A0041542B514953544154453D312C30D5
:10106C000D0A002B514953544154453A203000533A
:10107C006F636B65742079612061637469766F0AA4
:10108C0000536F636B6574206C6973746F2C2063F1
:10109C006F6E656374616E646F210A00536F636BCE
:1010AC0065742061637469766F2C2063657272615C
:1010BC006E646F210A0041542B51494F50454E3DEF
:1010CC00312C0022544350222C2200222C002C3094
:1010DC002C310D0A002B51494F50454E00636F6E59
:1010EC006578696F6E2061207365727669646F72C2
:1010FC0020657869746F7361210D0A0066616C6CF0
:10110C006120636F6E6578696F6E20612073657204
:10111C007669646F72210D0A00414C524541445965
:10112C0020434F4E4E45435400434F4E4E4543547F
:10113C00204641494C002046616C6C6F20636F6EF9
:10114C006578696F6E2061207365727665722074A4
:10115C00696D656F7574210D0A0041542B5149411D
:10116C0043543F0D0A002B51494143543A2031005E
:10117C005044502041637469766F210D0A00636FEF
:10118C006E6578696F6E206120696E7465726E652C
:10119C007420657869746F73612049503A20257307
:1011AC000D0A00636F6E6578696F6E206120696E41
:1011BC007465726E65742066616C6C69646120493B
:1011CC00503A2025730D0A00504450204465736139
:1011DC00637469766F210D0A0053696E2052657332
:1011EC007075657374612C20646573636F6E6563D1
:1011FC0074616E646F0A00436865717565616E6435
:10120C006F20636F6E6578696F6E2025640A0053DA
:10121C006F636B6574206365727261646F0A004161
:10122C00542B5149434C4F5345004465736F6E65C5
:10123C0078696F6E20657869746F7361210D0A008F
:10124C0043657272616E646F20736F6C6F20736F85
:10125C00636B65740A0046616C6C6F20656E20646C
:10126C006573636F6E6563746172210D0A0044656A
:10127C0073636F6E6578696F6E20646520696E7438
:10128C0065726E657420657869746F73610A0051BC
:10129C00494143540053696E2052657370756573F0
:1012AC0074612C20514941435420434552524152C0
:1012BC0020434F4E4558494F4E0A0041542B51493B
:1012CC004143543D310D0A00636F6E6578696F6E52
:1012DC00206120696E7465726E657420657869741E
:1012EC006F73610A0041542B514944454143543DAD
:1012FC00310D0A00646573636F6E6578696F6E20DB
:10130C00646520696E7465726E65742065786974A5
:10131C006F73610A000044657465726D696E617269
:10132C00206572726F7220256C752C202530325816
:10133C002C2025303258253032582C2025750A00A7
:10134C00506F776572204F4E0A00506F7765722090
:10135C004F46460A00005761746368446F67205219
:10136C00657365742070656469646F0A0000434698
:10137C0047205550444154450A0044617461205043
:10138C0072696D657220536563746F72204F4B21C7
:10139C000A0044617461205072696D657220536556
:1013AC0063746F7220496E636F72726563746F2120
:1013BC000A004461746120536567756E646F205335
:1013CC006563746F72204F4B210A00446174612075
:1013DC00536567756E646F20536563746F72204933
:1013EC006E636F72726563746F210A0025733A2500
:1013FC00750A0061676F2E20313120323032320095
:10140C0044454D4F00446174612064656661756CA0
:10141C00740A003139302E322E31322E31343800EC
:10142C003131333537313037343700544553414D32
:10143C00000044617461466C6173683A2025692C24
:10144C002025692C2025692C20253032782C20254C
:10145C00690A0044617461466C617368206E6F7434
:10146C002072656164790A0064617461666C6173F1
:10147C00685F696E697428290A00496E707574205A
:10148C002564202D2D3E2025640A00446F466F6C88
:10149C006C6F772025642C202564202D2D3E202573
:1014AC00642C2025642C2025640A0044697374691B
:1014BC006E746F3A2025642C2025640A00507265E6
:1014CC006E6469656E646F2052454C452025640A34
:1014DC000041706167616E646F2052454C450A0093
:1014EC005469656D706F20646520656E63656E640C
:1014FC0069646F2025642025640A00436F6E666959
:10150C006775726163696F6E2064656661756C7472
:10151C000A00466F727A617220646573636F6E6540
:10152C0078696F6E0A0052657365740A00457261C2
:10153C00736520687369746F7269630A0000000038
:10154C0045726F72206465206C6F6E676974756488
:10155C000A0045726F722064652049440A00457286
:10156C00726F722064652076657273696F6E0A0003
:10157C0045726F722064652074616D61F16F0A00B1
:10158C005061717565746520696E636F6D706C6503
:10159C00746F0A0042726964676520696E636F6DCF
:1015AC0070656C746F0A0045726F722064652066FA
:1015BC00656368610A007B2242223A2231222C00A8
:1015CC007B2242223A2230222C00225351223A22F0
:1015DC000022494D4549223A220022494D534922C5
:1015EC003A2200224C4F43223A22002243454C22FD
:1015FC003A220022426C64223A2200224D414322BC
:10160C003A2200227D00224950223A220053796E60
:10161C006320446174613A2000545344206279740D
:10162C00657320656E766961646F732025640A00AA
:10163C004572726F72206E6F207365207075646FC7
:10164C0020656E766961722025640A004572726F9E
:10165C00722064652074616D61F16F206465206493
:10166C0061746F73203632320A006461746F7320B8
:10167C00726563696269646F732025642D2564212A
:10168C00210A002530325820005453440042656131
:10169C00636F6E20526563696269646F0A004C6FF8
:1016AC006E67697475642064656C20706171756512
:1016BC007465202564210A00426561636F6E2052B7
:1016CC006563696269646F2025640A00476574422A
:1016DC007566666572204552524F520A0045525249
:1016EC004F520052454356204552524F520A004326
:1016FC006F6D6D616E6400436F6D6D616E6420453E
:10170C0052524F520A00434C4F53454400434C4FE6
:10171C00534544204552524F52202D20436C6F7339
:10172C0065640A002B51495552433A2022636C6F71
:10173C007365642200434C4F534544204552524F2D
:10174C0052202D2051495552430A004445414354DF
:10175C00004445414354204552524F520A005453C1
:10176C0044203A204461746F7320656E20656C20B0
:10177C0070756572746F2072656D6F746F20320AAC
:10178C0000545344203A2070756572746F206D6F4D
:10179C00646275730A00545344203A204461746F98
:1017AC007320656E20656C2070756572746F206C8B
:1017BC006F63616C0A004945432031303420545822
:1017CC003A2000536F636B657420526563696269DC
:1017DC00646F3A2025750A0054696D65204F757445
:1017EC0020646520496E6163746976696461642064
:1017FC0025640A00536F636B6574204661696C0A3B
:10180C0000426561636F6E2073656E742025640AF7
:10181C000053796E712054696D6520656E7669612F
:10182C00646F0A005345545F54494D4520726563FB
:10183C00696269646F0A00545344203A2054494D3C
:10184C0045204F55542053594E432054494D452063
:10185C00212121210A004E6F207075646F20707257
:10186C006F63657361720A004573706572616E64B3
:10187C006F2061636B202E202E202E0A0041434BDB
:10188C0020726563696269646F210A005469656D31
:10189C004F75742041434B21210A0053616C6965DB
:1018AC006E646F2061636120310A00536572766546
:1018BC00723A2025640A00536572766572206E6F49
:1018CC00207365746561646F202D2D3E204E554C40
:1018DC004C0A004D61657374726F205365746561B9
:1018EC00646F2025750A000050756572746F205264
:1018FC0053323332206162696572746F0A003E4460
:10190C004E502D2052582025642062797465732026
:10191C003A006C6579656E646F20686973746F72D8
:10192C0069636F2025640A004D6F64627573203AF9
:10193C00204368656B53756D20496E636F727265D9
:10194C0063746F210A004D6F64627573203A2041F5
:10195C0043434553533A2025640A004D6F64627526
:10196C0073203A2041636365736F206F746F7267E5
:10197C0061646F206E6976656C2032285257290A93
:10198C00004D6F64627573203A2041636365736F19
:10199C00206F746F726761646F206E6976656C205E
:1019AC00312852290A004D6F64627573203A204128
:1019BC00636365736F2064656E656761646F210A8C
:1019CC0000446F776E6C6F616420496E69740044DB
:1019DC006F776E6C6F616420496E69740A004D619B
:1019EC00696E3A5278202564206279746573204CB4
:1019FC006F63616C0A004D61696E3A5478202564FE
:101A0C00206279746573204C6F63616C0A005265B7
:101A1C0073706F6E73653A20446F776E6C6F616490
:101A2C0020456E76696164610A004D61696E3A52B7
:101A3C00782025642062797465732072656D6F74EB
:101A4C006F0A004D61696E3A5478202564206279E2
:101A5C007465732072656D6F746F0A006473313333
:101A6C0030373A2025643A25643A25642C202530F9
:101A7C0032642F253032642F253032640A00496ECF
:101A8C00696369616E646F20686973740A00466FDC
:101A9C00726D6174656E61646F204572726F722035
:101AAC004C6563747572610A0077726974652030D5
:101ABC003A2025640A00777269746520333A202530
:101ACC00640A00466F726D6174656E61646F0A0022
:101ADC00726561643A2025640A00726561643A207B
:101AEC0025640977726974653A202564096C656E02
:101AFC003A2025640A00416C6D6163656E616E6409
:101B0C006F206576656E746F0A0042756666657245
:101B1C0020686973746F7269636F73206C6C656E87
:101B2C006F0A00000100010001003E4945432031CD
:101B3C003034202D205365742053656E642053740B
:101B4C0061747573203A2025642C2025642C202583
:101B5C00640A003E49454320313034202D20537413
:101B6C00617475735265616420696E205365743AB3
:101B7C002025640A003E49454320313034202D5342
:101B8C0050492025642C2076616C75652025642CC9
:101B9C00206368616E67652025640A004572726F68
:101BAC00722C2067726F73736F206572726F720A7A
:101BBC00003E49454320313034202D2052583A20E4
:101BCC002564200920257509002530325820003E57
:101BDC0049454320313034202D2050617175657496
:101BEC00652053757065727669736F727920414305
:101BFC004B204672616D653A202564202564200ACD
:101C0C00003E49454320313034202D205061717500
:101C1C00657465205500095445535446525F414341
:101C2C00540A00095445535446525F434F4E460ADA
:101C3C00000953544F5044545F4143540A00095314
:101C4C00544F5044545F434F4E0A00095354415271
:101C5C005444545F4143540A000953544152544470
:101C6C00545F434F4E460A003E49454320313034C1
:101C7C00202D205061717565746520490A003E491C
:101C8C00454320313034202D2050617175657465C9
:101C9C002049202D2041434B204672616D653A202E
:101CAC002564202564200A003E3078303030312DF8
:101CBC00434C4F434B0A003E4945432031303420BE
:101CCC002D47490A003E3078303030312D53430ACD
:101CDC00003E3078303030312D4143542053432076
:101CEC004C4F43414C0A003E3078303030312D445B
:101CFC00430A003E49454320313034202D20426CAC
:101D0C006F717565616E646F20536573696F6E20BA
:101D1C0070617261206D61737465722025750A00A3
:101D2C003E49454320313034202D2050617175657A
:101D3C0074652072656368617A61646F2025752013
:101D4C0025750A003E49454320313034202D205062
:101D5C006171756574652064652072656368617A6C
:101D6C006F2063726561646F3A2025642C20003EFD
:101D7C0049454320313034202D20436F6E657869FE
:101D8C006F6E20444E5020636572726164610A006C
:101D9C003E49454320313034202D2050617175650A
:101DAC0074652072656368617A61646F2025750AB9
:101DBC000050417175657465207061726120747298
:101DCC0061736E6D697469720A003E494543203136
:101DDC003034202D2054783A003E49454320313090
:101DEC0034202D20436F6E766572744461746120CB
:101DFC00544F54414C203A2025750A003E49454326
:101E0C0020313034202D20436F6E7665727444611E
:101E1C007461205061726369616C203A2025750AE7
:101E2C00003E444E502D456E7669616E646F2053B2
:101E3C0050490A003E444E502D456E7669616E64E1
:101E4C006F204D450A003E444E502D456E7669611B
:101E5C006E646F2047495F454E440A003E49454336
:101E6C0020313034202D20536F636B6574206C69E6
:101E7C0062657261646F2025640A003E4945432007
:101E8C00313034202D20536573696F6E2064657377
:101E9C00626C6F71756561646120706F7220696E20
:101EAC006163746976696461640A003E4945432044
:101EBC00313034202D205265706F7274652070653E
:101ECC0072696F6469636F0A003E49454320313083
:101EDC0034202D2050726F636573732053656E64CC
:101EEC00202D2D3E2025640A003E494543203130EB
:101EFC0034202D2053454E44202D2D3E2054455347
:101F0C005446525F434F4E460A003E4945432031EA
:101F1C003034202D2053454E44202D2D3E20544549
:101F2C00535446525F4143540A003E4945432031C5
:101F3C003034202D2053454E44202D2D3E2053541B
:101F4C0041525444545F434F4E460A003E49454368
:101F5C0020313034202D2053454E44202D2D3E2051
:101F6C00535441525444545F4143540A003E494532
:101F7C004320313034202D2053454E44202D2D3E0E
:101F8C002053555045525649534F52590A003E4919
:101F9C00454320313034202D204C656E3A20256489
:101FAC000A003E494543203130342D5350492025F9
:101FBC0064202C2025640A00000000004368657131
:101FCC007565616E646F206C612076657273696FE4
:101FDC006E206465206669726D776172650A0043D4
:101FEC00686B53756D20636F72726563746F0A0052
:101FFC0050726F6A6563746F20496775616C0A0073
:10200C004275696C6420496775616C0A00426F7295
:10201C0072616E646F206C61206D656D6F726961A9
:10202C000A0059656E646F206120426F6F740A005C
:10203C0044656D61736961646F7320696E74656E5C
:10204C00746F730A006572726F723A2025303458BF
:10205C0020202D2020253034580A0043686B5375FE
:10206C006D20496E636F72726563746F0A00496408
:10207C00207265706F727420656E766961646F0A88
:10208C00002530325820004275696C64206D656EF5
:10209C006F722064656C2061637475616C0A004911
:1020AC006E666F2072656369626964610A004E65D1
:1020BC00656420526573756D653F0A0052657375D2
:1020CC006D65204669726D776172653A2025642CC6
:1020DC002025642C2025642C2025642C2025640AC2
:1020EC0000436F696E636964652050726F79656334
:1020FC00746F0A00436F696E636964652042756989
:10210C006C640A00526573756D696E65646F20644A
:10211C00657363617267610A004E6F20636F696E4D
:10212C00636964652076657273696F6E20646520DF
:10213C004844570A0043486B20696E636F7272659E
:10214C0063746F20656E20696E666F0A0043687554
:10215C006E6B206C656E203D2025750A00446573FE
:10216C0063617267612063616E63656C6164610AAF
:10217C00006C656E20726563696269646F206465CA
:10218C00206368756E6B2025640A006C656E2030C8
:10219C0020756C74696D6F206368756E6B0A0063D3
:1021AC00686B73756D20696E636F72726563746FA3
:1021BC0020656E206368756E6B200063686B3A2532
:1021CC003034582053756D3A253034580A00456E1A
:1021DC0064204669726D7761726520646F776E6CEE
:1021EC006F61640A004163746976616E646F20727A
:1021FC006573756D650A004669726D77617265204D
:10220C0053697A6520726563696269646F2025641D
:10221C000A00446F776E4C6F6164204641494C0A4A
:10222C00007469656D706F20657863656469646FAF
:10223C002C2044657363617267612046696E616C22
:10224C00697A6164610A004368756E6B206572720D
:10225C006F6E656F2C2044657363617267612046F5
:10226C00696E616C697A6164610A004368756E6BB2
:10227C002050656469646F2025642C25640A004530
:10228C0072726F7220656E204368756E636B2C20C2
:10229C007265696E74656E74616E646F3A20256444
:1022AC000A004368756E6B206572726F6E656F2CD9
:1022BC00207265696E74656E74616E646F0A0000DD
:1022CC0052414D20456E61626C65205350490A00A5
:1022DC0052414D2073746174757320726567697314
:1022EC007465723A20253032580A00253032582055
:1022FC00000001003E444E502D20494E49542025EB
:10230C00752C2025750A003E444E502D2050726FBE
:10231C00636573616E646F202564206279746573E4
:10232C002064656C206275666665720A003E444ED8
:10233C00502D2071756974616E646F202564206264
:10234C00797465732064656C206275666665720AC3
:10235C00003E444E502D54202D3E2050656469643F
:10236C006F205265736574204C696E6B200A003EB9
:10237C00444E502D54202D3E20526571756573745A
:10238C00204C696E6B20537461747573200A003E87
:10239C00444E502D204C494E4B5F444E50204365CB
:1023AC00727261646F0A003E444E502D204C494EAF
:1023BC004B5F444E50204365727261646F2C206EEB
:1023CC006F20726573706F6E7365256C750A003EB5
:1023DC00444E502D204C494E4B5F444E502043658B
:1023EC00727261646F2C49646C652054696D652050
:1023FC00256C750A003E444E502D52203C2D205227
:10240C0045534554204445204C494E4B5F444E5057
:10241C000A003E444E502D54202D3E2041434B0A81
:10242C00003E444E502D52203C2D205245534554D5
:10243C0020555345520A003E444E502D52203C2DFF
:10244C002054455354204445204C494E4B5F444E38
:10245C00500A003E444E502D202D2D3E2041434B22
:10246C000A003E444E502D52203C2D20557365726F
:10247C0020646174610A003E444E502D7061717588
:10248C0065746520696E636F6D706C65746F0A009E
:10249C003E444E502D52203C2D2055534552204445
:1024AC00415441204E4F205245504C590A003E4455
:1024BC004E502D52203C2D20524551554553542001
:1024CC004C494E4B5F444E50205354415455530A83
:1024DC00003E444E502D54202D3E20535441544523
:1024EC000A003E444E502D52203C2D205354415452
:1024FC00450A003E444E502D52203C2D2041434B6A
:10250C0020726563696269646F0A003E444E502D07
:10251C00204C494E4B204F50454E0A003E444E50E5
:10252C002D52203C2D20536C617665204255535919
:10253C000A003E444E502D52203C2D204E41434B20
:10254C0020726563696269646F0A003E444E502DC7
:10255C0054202D3E20536C61766520425553590A08
:10256C00003E444E502D207061717565746520439A
:10257C00524320636F72726563746F0A003E444E5F
:10258C00502D20706171756574652043524320494C
:10259C004E636F72726563746F0A003E444E502D29
:1025AC002054582025642062797465733A200025E4
:1025BC003032582000003E444E502D204572726F30
:1025CC007220646520736571205472616E730A0009
:1025DC003E444E502D42756666657220525820540A
:1025EC0072616E73204C656E2025640A00003E44B7
:1025FC004E502D2053656E6420436F6E6669726D6C
:10260C000A00437265616E646F206D616E646F20A9
:10261C00646F626C652000202D2053656C656374BB
:10262C000A00202D204F7065726174650A003E44CB
:10263C004E502D20436F6E76657274446174612028
:10264C00736574656164613A2025642C204C656E59
:10265C0020546F74616C202564210A003E444E5056
:10266C002D20494E4943494F20646174610A003E54
:10267C00444E502D2046494E20646174610A003E40
:10268C00444E502D203C2D2D2041505020436F6E38
:10269C0066696D6174696F6E2072656369626964E5
:1026AC006F0A003E444E502D20415050205265730D
:1026BC00706F6E736520726563696269646F2C203C
:1026CC00696E7465726E616C20253032580A003E5A
:1026DC00444E503A2050656469646F206465204311
:1026EC006F6E6669726D6163696F6E0A003E444E6F
:1026FC00502D2041505020446174612072656369F3
:10270C006269646F2C206C656E2025752C202575F4
:10271C000A003E444E502D204150502044617461BB
:10272C0020726563696269646F2046494E414C2C86
:10273C00206C656E2025752C2025750A003E444EB4
:10274C00502D2041505020556E536F6C6963697445
:10275C00656420726563696269646F0A003E444E69
:10276C00502D2041505020554E534F4C20446174F5
:10277C006120726563696269646F2C206C656E20E0
:10278C0025752C2025750A003E444E502D204150B5
:10279C005020554E534F4C20446174612072656338
:1027AC00696269646F2046494E414C2C206C656E01
:1027BC002025752C2025750A003E444E502D2045B1
:1027CC0052524F522064652073656375656E636960
:1027DC0061204170700A003E444E502D20457374A8
:1027EC0061646F20627566666572203A20256420EC
:1027FC002C2025642C2025642C2025640A003E44C2
:10280C004E502D20506171756574652073696E2072
:10281C0046494E20444154410A003E444E502D201E
:10282C0044657363617274616E646F2041707020D3
:10283C005061727469616C204275666665720A003B
:10284C003E444E502D204150502062756666657294
:10285C00204C656E3A2025750A003E444E502D20C2
:10286C00426F7272616E646F207265737461727400
:10287C00206269740A003E444E502D2045736372E9
:10288C00696269656E646F20636C6F636B0A003EEE
:10289C00444E502D2050656469646F20646520633C
:1028AC006C61736520706F7220496E7465726E6115
:1028BC006C20696E64696361746F72730A003E44C4
:1028CC004E502D2050656469646F20646520636CE4
:1028DC0061736520506572696F6469636F0A0000EB
:1028EC000000030306010406020500030500001F97
:1028FC001C1F1E1F1E1F1F1E1F1E1F00001F1C1F24
:10290C001E1F1E1F1F1E1F1E1F003E444E503A202E
:10291C00322C3220616464726573732025640A0062
:10292C003E444E502D4F626A20312C20566172204D
:10293C00312C2025642C2025750A003E444E502D48
:10294C004F626A20312C2056617220322C20256473
:10295C00202D2025640A003E444E502D204F626AE3
:10296C0020312C2050726F636573732C2025642CDE
:10297C00202564200A003E444E502D4F626A2032BE
:10298C002C2056617220312C2025642C2025750AB0
:10299C00003E444E502D4F626A20322C20566172FC
:1029AC0020322C2025642C2025750A003E444E50E4
:1029BC002D4F626A20322C2056617220332C202538
:1029CC00642C2025750A003E444E502D4F626A201F
:1029DC00322C2050726F636573732C2025642C206D
:1029EC002564200A003E444E502D4F626A20332C41
:1029FC002056617220312C2025642C2025750A006C
:102A0C003E444E502D4F626A20332C20566172206A
:102A1C00322C202564202D2025640A003E444E5083
:102A2C002D204F626A20332C2050726F63657373B4
:102A3C002C2025642C202564200A003E444E502D69
:102A4C004F626A20342C2056617220312C20256470
:102A5C002C2025750A003E444E502D4F626A2034BE
:102A6C002C2056617220322C202564202D202564C8
:102A7C000A003E444E502D204F626A20342C2050C8
:102A8C00726F636573732C2025642C202564200AD7
:102A9C00003E444E502D4F626A2031302C2056613E
:102AAC007220312C2025642C2025750A003E444EC2
:102ABC00502D4F626A2031302C2056617220322CFE
:102ACC002025642C2025750A003E444E502D204FA5
:102ADC00626A2031302C2050726F636573732C2026
:102AEC0025642C202564200A003E444E502D4F6254
:102AFC006A2031312C2056617220312C2025642C17
:102B0C002025750A003E444E502D4F626A2031310B
:102B1C002C2056617220322C2025642C2025750A1D
:102B2C00003E444E502D4F626A2031312C205661AC
:102B3C007220332C2025642C2025750A003E444E2F
:102B4C00502D4F626A2031312C2050726F636573A7
:102B5C00732C2025642C202564200A003E444E5002
:102B6C002D4F626A2031322C2056617220312C207C
:102B7C0025642C2025750A003E444E502D4F626A68
:102B8C002032302C2056617220312C2025642025D7
:102B9C0064202D2025750A003E444E502D4F626A4C
:102BAC002032302C2056617220322C2025642025B6
:102BBC0064202D2025750A003E444E502D4F626A2C
:102BCC002032302C2056617220332C202564202595
:102BDC0064202D2025750A003E444E502D4F626A0C
:102BEC002032302C2056617220342C202564202574
:102BFC0064202D2025750A003E444E502D4F626AEC
:102C0C002032302C2056617220352C202564202552
:102C1C0064202D2025750A003E444E502D4F626ACB
:102C2C002032302C2056617220362C202564202531
:102C3C0064202D2025750A003E444E502D4F626AAB
:102C4C002032302C2056617220382C20256420250F
:102C5C0064202D2025750A003E444E502D4F626A8B
:102C6C002032302C2050726F636573732C202564D6
:102C7C002C202564200A003E444E502D4F626A20C1
:102C8C0032312C2056617220312C20256420256491
:102C9C00202D2025750A003E444E502D4F626A208F
:102CAC0032312C2056617220322C20256420256470
:102CBC00202D2025750A003E444E502D4F626A206F
:102CCC0032312C2056617220332C2025642025644F
:102CDC00202D2025750A003E444E502D4F626A204F
:102CEC0032312C2056617220342C2025642025642E
:102CFC00202D2025750A003E444E502D4F626A202F
:102D0C0032312C2056617220392C20256420256408
:102D1C00202D2025750A003E444E502D4F626A200E
:102D2C0032312C205661722031302C202564202524
:102D3C0064202D2025750A003E444E502D4F626AAA
:102D4C002032312C205661722031312C2025642008
:102D5C002564202D2025750A003E444E502D4F62CF
:102D6C006A2032312C205661722031322C2025649D
:102D7C00202564202D2025750A003E444E502D4FF1
:102D8C00626A2032312C2050726F636573732C2071
:102D9C0025642C202564200A003E444E502D4F62A1
:102DAC006A2032332C2056617220312C202564206D
:102DBC002564202D2025750A003E444E502D4F626F
:102DCC006A2032332C2056617220322C202564204C
:102DDC002564202D2025750A003E444E502D4F624F
:102DEC006A2032332C2056617220332C202564202B
:102DFC002564202D2025750A003E444E502D4F622F
:102E0C006A2032332C2056617220342C2025642009
:102E1C002564202D2025750A003E444E502D4F620E
:102E2C006A2032332C2056617220352C20256420E8
:102E3C002564202D2025750A003E444E502D4F62EE
:102E4C006A2032332C2056617220362C20256420C7
:102E5C002564202D2025750A003E444E502D4F62CE
:102E6C006A2032332C2056617220372C20256420A6
:102E7C002564202D2025750A003E444E502D4F62AE
:102E8C006A2032332C2056617220382C2025642085
:102E9C002564202D2025750A003E444E502D4F628E
:102EAC006A2032332C2050726F636573732C20258B
:102EBC00642C202564200A003E444E502D4F626A3B
:102ECC002033302C2056617220312C202564202593
:102EDC0064202D2025750A003E444E502D4F626A09
:102EEC002033302C2056617220322C2025642C206B
:102EFC0025752C2025750A003E444E502D4F626AD4
:102F0C002033302C2056617220332C2025642C2049
:102F1C0025752C2025750A003E444E502D4F626AB3
:102F2C002033302C2056617220342C2025642C2028
:102F3C0025752C2025750A003E444E502D4F626A93
:102F4C002033302C2050726F636573732C202564F2
:102F5C002C202564202C25750A003E444E502D4F04
:102F6C00626A2033312C2056617220312C2025646A
:102F7C00202564202D2025750A003E444E502D4FEF
:102F8C00626A2033312C2056617220322C20256449
:102F9C002C2025752C2025750A003E444E502D4FB3
:102FAC00626A2033312C2056617220332C20256428
:102FBC002C2025752C2025750A003E444E502D4F93
:102FCC00626A2033312C2056617220342C20256407
:102FDC002C2025752C2025750A003E444E502D4F73
:102FEC00626A2033312C2056617220352C202564E6
:102FFC002C2025752C2025750A003E444E502D4F53
:10300C00626A2033312C2056617220362C202564C4
:10301C002C2025752C2025750A003E444E502D4F32
:10302C00626A2033322C2056617220312C202564A8
:10303C002C2025750A003E444E502D4F626A2033D9
:10304C00322C2056617220322C2025642C202575C0
:10305C000A003E444E502D4F626A2033322C2056CB
:10306C00617220332C2025642C2025750A003E44E7
:10307C004E502D4F626A2033322C20566172203410
:10308C002C2025642C2025750A003E444E502D4FD3
:10309C00626A2033322C2050726F636573732C205C
:1030AC0025642C2025642C2025750A003E444E50A6
:1030BC002D4F626A2034302C2056617220312C2026
:1030CC0025642C2025750A003E444E502D4F626A13
:1030DC002034302C2056617220322C2025642C2078
:1030EC0025750A003E444E502D4F626A2034302C18
:1030FC002050726F636573732C2025642C2025641B
:10310C00200A003E444E502D4F626A2035302C2050
:10311C0056617220310A003E444E502D4F626A2097
:10312C0035302C2056617220320A003E444E502D10
:10313C004F626A2035312C2056617220582C202584
:10314C00640A003E444E502D4F626A2035322C20CA
:10315C0056617220582C2025640A000001002D4E67
:10316C00414E00494E460000040004004C0500008E
:10317C000100781AC00600001000BA1A0C070000F3
:10318C000C00000A7A1300000D000C0AFF1300005B
:10319C002600190A6719000025003F0A8D19000046
:1031AC001B00640AB21900000100A41D301B0000B2
:1031BC000100B31D321B00000100B41D341B0000C4
:1031CC000100801F683100000000F894EE27EFBB6F
:1031DC00F1E0F5BFE5BFE0937400E0937500F8E112
:1031EC00A895A4B7A77FA4BFF0936000E0936000FC
:1031FC008DE0A2E0BB27ED938A95E9F780E090E2A1
:10320C00A0E0B2E0ED930197E9F7E4E7F1E3D0E059
:10321C00DBBF87919791009781F0A791B7910790A9
:10322C001790C791D791BF01DBB7F001CBBF0790C7
:10323C000D920197E1F7FB01EBCFE0E0EEBBEFEF76
:10324C00EDBFE1E2EEBFC0E0DAE00C94EB19E0E098
:10325C00E2B9E1B9E5B9E4B9E8B9E7B9EBB9EAB96A
:10326C00EEB9EDB9E1BBE0BBE4BBE3BBE09302011B
:10327C00E0930101E0930501E0930401E093080160
:10328C00E0930701E0930B01E0930A01E4BDE5BD77
:10329C00E6BDE7BDE8BDE0938000E0938100E093DC
:1032AC008500E0938400E0938700E0938600E09330
:1032BC008900E0938800E0938B00E0938A00E09310
:1032CC008D00E0938C00E093B600E093B000E093A7
:1032DC00B100E093B200E093B300E093B400E0934C
:1032EC009000E0939100E0939500E0939400E093BC
:1032FC009700E0939600E0939900E0939800E09398
:10330C009B00E0939A00E0939D00E0939C00E09377
:10331C00A000E093A100E093A500E093A400E0934B
:10332C00A700E093A600E093A900E093A800E09327
:10333C00AB00E093AA00E093AD00E093AC00E09307
:10334C002001E0932101E0932501E0932401E09317
:10335C002701E0932601E0932901E0932801E093F3
:10336C002B01E0932A01E0932D01E0932C01E093D3
:10337C006900E0936A00EDBBE0936B00E0936C0096
:10338C00E0936D00E0936800E0936E00E0936F00B3
:10339C00E0937000E0937100E0937200E09373008F
:1033AC00E093C100E093C900E093D100E0933101B8
:1033BC00E0E8E0BFE0E0E0937B00E0937F00E09387
:1033CC007A00ECBDE093BC0008952897F894E0E0F7
:1033DC00F0E060E070E0E093920BF093930B60935D
:1033EC00940B7093950BE0E8E0936100E0E0E093C0
:1033FC0061002DDFE0E0EA93E1E0EA93A9E00E94AE
:10340C00F54BE0E0E093C00D0E944E230E94F021AA
:10341C000E942127EDEAFBE0FA93EA93E0E4F0E066
:10342C00FA93EA93E0E5F5E060E070E00F947C231A
:10343C00E4B7FF27662777270F947C23EEB7FF2787
:10344C00662777270F947C23EDB7FF27662777270E
:10345C000F947C238CE00F94FE1F6496EDEAFBE046
:10346C00FA93EA93A1E00E948F27E0E0E4BF7894FE
:10347C000E9493280E94524DA1E40E94EF990E9451
:10348C000F550E94ED730E942C740E94A44CE0E036
:10349C00EA93E2E5FAE1FA93EA93A4E00E945E75FE
:1034AC00E4E0EA93E6E5FAE1FA93EA93A4E00E94F9
:1034BC005E75A1E00E94213BE093270BEED4A1E0C6
:1034CC000E94166A0E9484550E94255B0E943E232E
:1034DC00EC83FD836E837F830E943223E093A80BE1
:1034EC00F093A90B6093AA0B7093AB0B0E94BB7B60
:1034FC000E948D750E94A44CEDE0EA93E1E0EA9302
:10350C00A0E0B0E00E94397DE0E0EA93A0E00E94E8
:10351C007E8EE1E0EA93A0E00E947E8EEDE0EA93DD
:10352C00A0E00E947E8E0E945F8F0E94AB29E0E09B
:10353C00E0935E1AE0935F1AE093601AE093611ACD
:10354C00E0935A1AE0935B1AE0935C1AE0935D1ACD
:10355C00E1E0E093880BE0E0E0935A1AE0935B1A09
:10356C00E0935C1AE0935D1AE0935E1AE0935F1AA5
:10357C00E093601AE093611A0E94E69B0E94A44CAF
:10358C000E94EE280E9483290E943E23AC81BD81BB
:10359C008E819F810F94C62309F41DC10E943E2386
:1035AC00EC83FD836E837F83A8EDB2E10F944F23F0
:1035BC00EF5FFF4F6F4F7F4F0F945923A091D8129D
:1035CC00B091D9128091DA129091DB12A937E0E018
:1035DC00BE07E0E08E07E0E09E0760F0E8E7F0E071
:1035EC0060E070E0E093D812F093D9126093DA1295
:1035FC007093DB12A4EFB2E10F944F23EF5FFF4FF8
:10360C006F4F7F4F0F945923A091F412B091F51284
:10361C008091F6129091F712AF31E0E0BE07E0E036
:10362C008E07E0E09E0760F0EEE1F0E060E070E015
:10363C00E093F412F093F5126093F6127093F71274
:10364C00AEEFB2E1ED91FD913196FE93EE93A09128
:10365C00FE12B091FF12DD9740F0E1E0EA93E0E05A
:10366C00EA93A0E0B0E00E94397DE091AC0BEF5FF3
:10367C00E093AC0BE150A6E9BBE00F944F23EF5F56
:10368C00FF4F6F4F7F4F0F945923A091960BB09122
:10369C00970B8091980B9091990BA935E2E0BE079E
:1036AC00E0E08E07E0E09E0760F0E8E5F2E060E025
:1036BC0070E0E093960BF093970B6093980B7093DC
:1036CC00990BAEE9BBE00F944F23EF5FFF4F6F4FA9
:1036DC007F4F0F945923A0919E0BB0919F0B80911B
:1036EC00A00B9091A10BAD32E1E0BE07E0E08E079C
:1036FC00E0E09E0760F0ECE2F1E060E070E0E09367
:10370C009E0BF0939F0B6093A00B7093A10BE0E0CA
:10371C00EA93E2E5FAE1FA93EA93A4E00E94447595
:10372C00E4E0EA93E6E5FAE1FA93EA93A4E00E9476
:10373C00447577D1A091280BA130F1F4A2E5BAE140
:10374C000F944F23EF5FFF4F6F4F7F4F0F94592311
:10375C00AAE5BAE10F944F23EF5FFF4F6F4F7F4FF6
:10376C000F945923E0E0E0935E1AE0935F1AE09324
:10377C00601AE093611A2FC0E0E0E0935A1AE093CC
:10378C005B1AE0935C1AE0935D1AAEE5BAE10F9414
:10379C004F23EF5FFF4F6F4F7F4F0F945923A6E5D9
:1037AC00BAE10F944F23EF5FFF4F6F4F7F4F0F9492
:1037BC005923A0915E1AB0915F1A8091601A909172
:1037CC00611AA131EEE0BE07E0E08E07E0E09E0753
:1037DC0010F00E94D64CA091AC0BA63020F0E0E08B
:1037EC00E093AC0B52D5A091960BB091970B8091B6
:1037FC00980B9091990BA630E0E0BE07E0E08E07A5
:10380C00E0E09E0708F09AD30F94321CE091C00DB3
:10381C00E03009F4B3C02497E091C00DE130B1F56C
:10382C00E0E0EA83EB83E883E983EA93E1E0EA935F
:10383C00E9EDFDE0FA93EA93E0910A0FF0910B0F9A
:10384C00FA93EA93E9EDFDE0FA93EA93DE011A9616
:10385C000E94A896E883F983EA81FB813097A9F04E
:10386C00A0E00E941C25E9EDFDE0FA93EA93AC81FF
:10387C00BD810E944726E881F981309731F0E0E064
:10388C00F0E0E0930A0FF0930B0F76C0E23009F0F2
:10389C0073C0E091280BE03009F453C0E0E0EA83F8
:1038AC00EB83E091D70DF091D80D309709F048C01B
:1038BC00E0E0EA93E2E0EA93E9EDFDE0FA93EA93C3
:1038CC00E091D50DF091D60DFA93EA93E9EDFDE078
:1038DC00FA93EA93DE011A960E94A896E883F9837C
:1038EC00EA81FB81E093D70DF093D80DE0E0E093F3
:1038FC00D50DE093D60DEA81FB81309709F1EDEA05
:10390C00FBE0FA93EA93E0E4F0E0FA93EA93EEE654
:10391C00F5E060E070E00F947C23E091D70DF0911E
:10392C00D80D662777270F947C2384E00F94FE1F15
:10393C002C96EDEAFBE0FA93EA93A1E00E948F2724
:10394C001BC00E943E23DF01CB01E091C50DF0911D
:10395C00C60D6091C70D7091C80D0F943B22AD330D
:10396C00E0E0BE07E0E08E07E0E09E0728F00E9452
:10397C002B96E0E0E093C00D249604C00E94DE700C
:10398C000E94BF710E943223DF01CB01E091A80B92
:10399C00F091A90B6091AA0B7091AB0B0F943B2289
:1039AC00A536E0E0BE07E0E08E07E0E09E0778F089
:1039BC000E943223E093A80BF093A90B6093AA0BFF
:1039CC007093AB0B0E94B2550E9418587DD2A091F7
:1039DC00280BA13021F4A091950DA33008F402C05E
:1039EC00A1E001C0A0E00E944F7E0E943223DF01C3
:1039FC00CB010F9463230F943B22A333E0E0BE076B
:103A0C00E0E08E07E0E09E0750F00E9432230F9416
:103A1C006D230E940E9D0E9405A60E94EFAEAECDB6
:103A2C00FFCF1A930A93EDEAFBE0FA93EA93E0E4F2
:103A3C00F0E0FA93EA93E1E8F5E060E070E00F94CF
:103A4C007C23E0912F0BF091300B662777270F9496
:103A5C007C23E091310BF091320B662777270F9482
:103A6C007C23E0912D0BF0912E0B662777270F947A
:103A7C007C23E091880BFF27662777270F947C2304
:103A8C00E091890BFF27662777270F947C2384E12D
:103A9C000F94FE1F6C96EDEAFBE0FA93EA93A1E01B
:103AAC000E948F27EDEAFBE0FA93EA93E0E4F0E062
:103ABC00FA93EA93E2EAF5E060E070E00F947C237D
:103ACC00E091270BFF27662777270F947C23E09143
:103ADC00870BFF27662777270F947C23E0912B0B0E
:103AEC00FF27662777270F947C23E091290BFF276C
:103AFC00662777270F947C23E091280BFF276627F6
:103B0C0077270F947C2384E10F94FE1F6C96EDEACB
:103B1C00FBE0FA93EA93A0E00E948F27EDEAFBE02A
:103B2C00FA93EA93E0E4F0E0FA93EA93E7EBF5E03A
:103B3C0060E070E00F947C23E091521AF091531ADC
:103B4C006091541A7091551A0F947C23E091561A77
:103B5C00F091571A6091581A7091591A0F947C234E
:103B6C00E0915A1AF0915B1A60915C1A70915D1A8F
:103B7C000F947C23E0915E1AF0915F1A6091601AA9
:103B8C007091611A0F947C23E091F30BF091F40B7C
:103B9C00662777270F947C23E091F10BF091F20BC1
:103BAC00662777270F947C2388E10F94FE1FA0963D
:103BBC00EDEAFBE0FA93EA93A0E00E948F27EDEA8E
:103BCC00FBE0FA93EA93E0E4F0E0FA93EA93E4ED95
:103BDC00F5E060E070E00F947C23EEE3FAE16627F9
:103BEC0077270F947C2384E00F94FE1F2C96EDEA2C
:103BFC00FBE0FA93EA93A1E00E948F27E1EEF5E057
:103C0C0060E070E00F947C23A0E00E94BF2700E0EE
:103C1C0010E00430E0E01E0748F5EDEAFBE0FA9313
:103C2C00EA93E0E4F0E0FA93EA93EEEEF5E060E07C
:103C3C0070E00F947C23A5E7BBE0F801EE0FFF1FAB
:103C4C00AE0FBF1F0F944523662777270F947C2355
:103C5C0084E00F94FE1F2C96EDEAFBE0FA93EA93B6
:103C6C00A0E00E948F270F5F1F4FD3CFEDEAFBE040
:103C7C00FA93EA93E0E4F0E0FA93EA93E2EFF5E0EA
:103C8C0060E070E00F947C23E091F90BF091FA0B5B
:103C9C00662777270F947C23E091FB0BF091FC0BAC
:103CAC00662777270F947C23E091FD0BF091FE0B98
:103CBC00662777270F947C238CE00F94FE1F649665
:103CCC00EDEAFBE0FA93EA93A0E00E948F27EDEA7D
:103CDC00FBE0FA93EA93E0E4F0E0FA93EA93E2E093
:103CEC00F6E060E070E00F947C23E091960BF0918D
:103CFC00970B6091980B7091990B0F947C23E0912A
:103D0C009E0BF0919F0B6091A00B7091A10B0F94E7
:103D1C007C23E091270BFF27662777270F947C23C2
:103D2C008CE00F94FE1F6496EDEAFBE0FA93EA93A5
:103D3C00A0E00E948F27EDEAFBE0FA93EA93E0E41F
:103D4C00F0E0FA93EA93EEE0F6E060E070E00F94B6
:103D5C007C23E091330FF091340F6091350F70910B
:103D6C00360F0F947C23E091370FF091380F609150
:103D7C00390F70913A0F0F947C23E091C711F09199
:103D8C00C811662777270F947C23E091C911F09115
:103D9C00CA11662777270F947C23E091CC11F09100
:103DAC00CD11662777270F947C23E091CE11F091EB
:103DBC00CF11662777270F947C23E091D011F091D7
:103DCC00D111662777270F947C23E091D211F091C3
:103DDC00D311662777270F947C230E9473A4FF27A7
:103DEC00662777270F947C23E0910515FF2766271C
:103DFC0077270F947C23E091F312FF276627772710
:103E0C000F947C23E0910915FF27662777270F94E1
:103E1C007C23E091D611FF27662777270F947C230C
:103E2C00E0911315FF27662777270F947C2388E3EF
:103E3C000F94FE1FEF962196EDEAFBE0FA93EA93BE
:103E4C00A0E00E948F27EDEAFBE0FA93EA93E0E40E
:103E5C00F0E0FA93EA93EEE4F6E060E070E00F94A1
:103E6C007C23E091C00DFF27662777270F947C23D6
:103E7C00E091BF0DFF27662777270F947C2388E0FE
:103E8C000F94FE1F6096EDEAFBE0FA93EA93A0E034
:103E9C000E948F27099119910895E0E0E0932C0B73
:103EAC00E093280BE0932B0BE2E0F0E0E093810B26
:103EBC00F093820BE3E8FBE0A2E0B0E0A083B183D7
:103ECC00E2E0E093850B0895E091880BE03009F077
:103EDC000895E091260FE53011F4ECEC09C0E230C6
:103EEC0011F4EAEA05C0E13011F4EFEF01C0E0E0B3
:103EFC00E0931B0BE091C00DE03011F0ECEC01C035
:103F0C00EAEAE093190BE091280BE03011F4E0E0C1
:103F1C0009C0E13011F4EFEF05C0E23011F0E330ED
:103F2C0019F4ECECE0931A0BE0912A0BE03011F44D
:103F3C00E0E001C0EFEFE0931C0B0895A091270B7C
:103F4C00A13009F00AC1E091280BE03009F004C15E
:103F5C00E091651AE03009F0DAC0A0E00E949734D5
:103F6C00E03021F4E1E0E093651AD0C0A0E00E94BB
:103F7C007B30A0E00E944C31E0932B0BA0912B0BDB
:103F8C00A23009F4C3C0E0E0E093960BE093970BEA
:103F9C00E093980BE093990B0E943E23E0939A0BCD
:103FAC00F0939B0B60939C0B70939D0BE0912B0BF0
:103FBC00E03049F5A6E6BAE1ED91FD913196FE931C
:103FCC00EE93E0912A0BEF7DE0932A0BA091661AF9
:103FDC00B091671A5A97B0F0E1E0E093621AE09161
:103FEC002A0BE860E0932A0BE0E0E093661AE0937A
:103FFC00671AE1E0E093651AE1E0F0E0E0938E0BE4
:10400C00F0938F0B2FC0A0912B0BA530C1F4E09136
:10401C00641AEF5FE093641AE0912A0BE062E0937C
:10402C002A0BA091641AAB3048F0E1E0E093651ADA
:10403C00E1E0F0E0E0938E0BF0938F0B13C0E09176
:10404C002A0BEF7DE0932A0BE0E0E093661AE093F5
:10405C00671AE093621AE093641AE0912A0BE77FE7
:10406C00E0932A0BE091651AE03009F04FC0A09163
:10407C00681AB091691A9E97C8F0E1E0E093631A50
:10408C00E0912A0BE061E0932A0BE1E0F0E0E09391
:10409C00681AF093691AE7E5F6E060E070E00F94B7
:1040AC007C23A1E00E94BF270E94D64CE091681AA5
:1040BC00F091691A309751F0A091681AB091691A71
:1040CC00E5E0F0E00F942B23309709F00EC0A8E642
:1040DC00BAE1ED91FD913196FE93EE93E1E0E09320
:1040EC00651AE0E0E0932B0B11C0E0E0E093651A59
:1040FC00E091681AF091691A309741F4E0912A0B1B
:10410C00EF7EE0932A0BE0E0E093631A25C0E09188
:10411C00651AE03009F1EBE6F6E060E070E00F9430
:10412C007C23A1E00E94BF27A1E00E949734A1E06C
:10413C000E947B30A1E00E944C310E949E3AA2E08A
:10414C000E94213BE093270BE0912A0BE77CE09344
:10415C002A0BE0E0E093651A55C0A0919E0BB0913C
:10416C009F0B8091A00B9091A10BAF31E0E0BE07AB
:10417C00E0E08E07E0E09E0728F4A091270BA23028
:10418C0008F440C0A091270BA23011F0A2E001C0AE
:10419C00A0E00E94213BE093270BA091270BA230BB
:1041AC0089F1E1E8F6E060E070E00F947C23A1E097
:1041BC000E94BF27E0E0E093880BE0E0F0E060E0D5
:1041CC0070E0E0939E0BF0939F0B6093A00B7093A9
:1041DC00A10BE093661AE093671AE093960BE093B9
:1041EC00970BE093980BE093990BE091270BE03041
:1041FC0021F4E0912A0BE46003C0E0912A0BEB7FE1
:10420C00E0932A0BA091960BB091970B8091980B91
:10421C009091990BA53BE0E0BE07E0E08E07E0E053
:10422C009E0790F1E5EAF6E060E070E00F947C23E5
:10423C00A1E00E94BF27A1E00E949734A1E00E9458
:10424C007B30A1E00E944C310E949E3AA2E00E9479
:10425C00213BE0E0F0E060E070E0E0939E0BF09337
:10426C009F0B6093A00B7093A10BE5E0F0E060E076
:10427C0070E0E093960BF093970B6093980B709310
:10428C00990BE0E0E093270B0895EF97EF97EF97EA
:10429C00EF9723970F94D02346E250E0E1E0EE83B2
:1042AC00E3E0EF83E42FEE0FE88700E0A2E0A49FA9
:1042BC00F001A59FF00DA02FB0E0AE17BF0758F48A
:1042CC00E02FEE5FF0E0DE011696AE0FBF1FE0E0D0
:1042DC00EC930F5FEBCF00E0063000F5AFE6BBE0F0
:1042EC00EE27A00FBE1F2C913327022E032A11F0AC
:1042FC002FEF30E0E02FEE0FED5FF0E0DE011696D1
:10430C00AE0FBF1F3C93E02FEE0FEC5FF0E0DE0131
:10431C001696EA0FFB1F20830F5FDECF20912F0B29
:10432C003091300BE32FDE01AF5ABF4FEC93FE01FF
:10433C00EE5AFF4F2083E091290BDE01AD5ABF4F9F
:10434C00EC93E091280BDE01AC5ABF4FEC93FE01CD
:10435C003696FA93EA93A2E0A49FF001A59FF00D84
:10436C003396FA93EA93A2E0A49FF001A59FF00D77
:10437C003396DE011A96EA0FFB1FFA93EA93A2E03A
:10438C00A49FF001A59FF00D3496DE011C96AE0F94
:10439C00BF1F0E94DB54E42FEE0FEB5F1E2FFE01BC
:1043AC003696FA93EA93E12FF0E0FA93EA93A3E0BE
:1043BC000E9406280F94D7232596DF5F0895E0917D
:1043CC000A01E66CE0930A01E0910B01E66CE093C4
:1043DC000B010895F4DFE1E1E093190BE2E2E093C5
:1043EC001A0BE4E4E0931B0BE8E8E0931C0B089534
:1043FC000A921A92FA926A937A938A939A93AA934C
:10440C00BA93EA93FA93EBB7EA93ECB7EA93EFB764
:10441C00EA93E091920BF091930B6091940B709155
:10442C00950BE061E093920BF093930B6093940BDC
:10443C007093950BA2E7BAE10F944F23EF5FFF4FF8
:10444C006F4F7F4F0F945923A6E7BAE1ED91FD9181
:10445C003196FE93EE93A9EAB9E10F944F23EF5FE7
:10446C00FF4F6F4F7F4F0F945923552079F5E091F3
:10447C00721AF091731A6091741A7091751AE09314
:10448C006A1AF0936B1A60936C1A70936D1AA09160
:10449C00761AB091771AA83EE3E0BE07B8F057D26F
:1044AC00A091761AB091771AE8EEF3E00F942B23D3
:1044BC00E093761AF093771AAEE6BAE10F944F2395
:1044CC00EF5FFF4F6F4F7F4F0F945923A1E3BFE076
:1044DC00ED91FD913196FE93EE93E091920BF0915C
:1044EC00930B6091940B7091950BEF7EE093920B74
:1044FC00F093930B6093940B7093950BE991EFBF32
:10450C00E991ECBFE991EBBFF991E991B991A991CE
:10451C009991899179916991F990199009901895CF
:10452C000A926A937A93AA93BA93EA93FA93EFB79F
:10453C00EA932497E4E0E883E2E0E983E0E8EA83A5
:10454C00E0E4EB831A93E091920BF091930B609162
:10455C00940B7091950BE062E093920BF093930B9C
:10456C006093940B7093950BA091781AA03011F076
:10457C00A03811F4E1E003C0E091781AEE0FE0935B
:10458C00781A10E0143038F5E12FF0E0E75EF44FC4
:10459C00E081A091781AEA2369F0ABE0B1E0BD01AB
:1045AC000C90E12FF0E0DE011196AE0FBF1FEC91E5
:1045BC00E0290DC0ABE0B1E0BD010C90E12FF0E0C3
:1045CC00DE011196AE0FBF1FEC91E095E021DB01EF
:1045DC00EC931F5FD7CFE091920BF091930B60910E
:1045EC00940B7091950BEF7DE093920BF093930BE2
:1045FC006093940B7093950B18812596E991EFBFFE
:10460C00F991E991B991A9917991699109901895CC
:10461C006A937A93AA93BA93EA93FA93EFB7EA93CD
:10462C00A2E9BBE00F944F23EF5FFF4F6F4F7F4F1B
:10463C000F945923A2E9BBE00F944F2331976040AC
:10464C0070400F945923E991EFBFF991E991B99119
:10465C00A9917991699118952497E1E05E2EE091EA
:10466C006A1AF0916B1A60916C1A70916D1A0BC0EA
:10467C002497E1E05E2EE0916E1AF0916F1A609132
:10468C00701A7091711A0F946D2355242496089505
:10469C00E0E0E4BDE5BDE6BDE7BDE8BDE09380002C
:1046AC00E0938500E0938400E0938700E09386001C
:1046BC00EBE2E0938900E3E3E0938800E0E0E09331
:1046CC008B00E0938A00E0938D00E0938C00E9E08E
:1046DC00E0938100E0E0E093B600E093B000E0935B
:1046EC00B100E093B200E093B300E093B400E09328
:1046FC009000E0939500E0939400E0939700E09392
:10470C009600EAE2E0939900E0E3E0939800E0E0A1
:10471C00E0939B00E0939A00E0939D00E0939C0053
:10472C00ECE0E0939100E0E0E093A000E093A100C6
:10473C00E093A500E093A400E093A700E093A6000B
:10474C00E093A900E093A800E093AB00E093AA00EB
:10475C00E093AD00E093AC00E0932001E0932501E1
:10476C00E0932401E0932701E0932601E0932901D3
:10477C00E0932801E0932B01E0932A01E0932D01B3
:10478C00E0932C01E0932101E0936E00E2E0E093D2
:10479C006F00E0E0E0937000E2E0E0937100E0E095
:1047AC00E0937200E09373000895AA932C97A09164
:1047BC00210BBB2788279927ECE3F0E060E070E041
:1047CC000F94B222A091220BBB27882799270F9414
:1047DC0031227F936F93FF93EF93A091200BBB2714
:1047EC0088279927E0E1FEE060E070E00F94B222A8
:1047FC00AF91BF918F919F910F943122E887F987E8
:10480C006A877B87A989BB2788279927ECE3F0E087
:10481C0060E070E00F94B222AA89BB278827992701
:10482C000F9431227F936F93FF93EF93A889BB274B
:10483C0088279927E0E1FEE060E070E00F94B22257
:10484C00AF91BF918F919F910F943122EC83FD8397
:10485C006E837F83AC81BD81E885F985EA1BFB0BF8
:10486C00DF010F947220662777270F946D230F9426
:10487C006823AF31E0E0BE07E0E08E07E0E09E0782
:10488C0058F0EC85E03041F0EAE0EA93E1E0EA939D
:10489C00A0E0B0E00E94397DEA89E093220BE9891F
:1048AC00E093210BE889E093200BEE85E0931E0B3F
:1048BC00EF85E0931F0BED85E0931D0BE37011F476
:1048CC00E1E001C0E0E0E093250B0F946823AF31E9
:1048DC00E0E0BE07E0E08E07E0E09E0758F0EC85D4
:1048EC00E03041F0EAE0EA93E0E0EA93A0E0B0E0E7
:1048FC000E94397DDE011D960E94B774679608955B
:10490C00BA93AA93E091220BA881B9811596EC93E6
:10491C00E091210BA881B9811496EC93E091200BC6
:10492C00A881B9811396EC93E0911E0BA881B981F3
:10493C001196EC93E0911F0BA881B9811296EC9320
:10494C00E0911D0BA881B981EC93229608952D97C7
:10495C008DE0A0E0B0E0E2ECF6E060E00F94DE2346
:10496C00E091220BEF5FE093220BE150A091220B20
:10497C00AC3308F459C0E091210BEF5FE093210BAD
:10498C00E150A091220BECE30F942823E093220B2F
:10499C00A091210BAC3308F447C0E091200BEF5FE2
:1049AC00E093200BE150E0E0E093210BA091200B71
:1049BC00A831D0F1A091200BE8E10F942823E093CB
:1049CC00200BE0911E0BEF5FE0931E0BE150E0918A
:1049DC00250BE03011F0EDE1E98300901E0BE09126
:1049EC001F0BF0E0DE01AE0FBF1FEC91E015E0F401
:1049FC00E1E0E0931E0BE0911F0BEF5FE0931F0BC8
:104A0C00E150A0911F0BAD3078F0E1E0E0931F0B6B
:104A1C00E0911D0BEF5FE0931D0BE37011F4E1E0EF
:104A2C0001C0E0E0E093250B2D960895AA93E88150
:104A3C00E41509F424C14880E881E03009F5E0EC84
:104A4C00F0E0E093791AF0937A1AE1ECF0E0E0935D
:104A5C007B1AF0937C1AE2ECF0E0E0937D1AF09371
:104A6C007E1AE4ECF0E0E0937F1AF093801AE5EC08
:104A7C00F0E0E093811AF093821AE6ECF0E068C063
:104A8C00E13009F5E8ECF0E0E093791AF0937A1A4A
:104A9C00E9ECF0E0E0937B1AF0937C1AEAECF0E09E
:104AAC00E0937D1AF0937E1AECECF0E0E0937F1A21
:104ABC00F093801AEDECF0E0E093811AF093821AF7
:104ACC00EEECF0E045C0E23009F5E0EDF0E0E0930B
:104ADC00791AF0937A1AE1EDF0E0E0937B1AF093F7
:104AEC007C1AE2EDF0E0E0937D1AF0937E1AE4ED8F
:104AFC00F0E0E0937F1AF093801AE5EDF0E0E0939C
:104B0C00811AF093821AE6EDF0E022C0E33021F531
:104B1C00E0E3F1E0E093791AF0937A1AE1E3F1E043
:104B2C00E0937B1AF0937C1AE2E3F1E0E0937D1AB8
:104B3C00F0937E1AE4E3F1E0E0937F1AF093801A8D
:104B4C00E5E3F1E0E093811AF093821AE6E3F1E0F9
:104B5C00E093831AF093841A92C0AA93A0917B1AC3
:104B6C00B0917C1AE0E0EC93A0917D1AB0917E1A82
:104B7C00EC93AD81BE818F8198859CD0A0917D1ADC
:104B8C00B0917E1AEC91E260EC93A0917D1AB091F9
:104B9C007E1AEC91E460EC93AB81A13071F4A0919E
:104BAC007D1AB0917E1AEC91E062EC93A0917D1A83
:104BBC00B0917E1AEC91E06109C0AB81A23039F45E
:104BCC00A0917D1AB0917E1AEC91E062EC93EC818D
:104BDC00E03039F0A0917D1AB0917E1AEC91E8602A
:104BEC00EC93E881E03039F0A0917B1AB0917C1AFB
:104BFC00EC91E068EC93E981E03039F0A0917B1AFC
:104C0C00B0917C1AEC91E061EC93EA81E03039F0E0
:104C1C00A0917B1AB0917C1AEC91E860EC930C9407
:104C2C009128A0917B1AB0917C1AEC91EF7EEC93B9
:104C3C00A0917B1AB0917C1AEC91E77FEC93A09138
:104C4C007B1AB0917C1AEC91EF77EC930895AA93B0
:104C5C00A091791AB0917A1AEC91E072C9F3EC91A7
:104C6C00E064EC93E091831AF091841AA881A083FC
:104C7C00A091791AB0917A1AEC91E074C9F321964B
:104C8C000895BA93AA931A930A930CED15E0EA814E
:104C9C00FB813197EA83FB83319641F0AC81BD8176
:104CAC00ED91AC83BD83AE2FD2DFF1CF198108819A
:104CBC00269608950F9481236097E889F9896A896B
:104CCC007B89A0E1B0E080E090E00F94B222A0E0FC
:104CDC00B0EC88EA90E00F94FE22E150F040604086
:104CEC007040EC87FD876E877F87EF5FFF4F6F4FBC
:104CFC007F4FA0E1B0E080E090E00F94B222A0E002
:104D0C00B0EC88EA90E00F94FE22EC83FD836E8376
:104D1C007F83E889F9896A897B89A8E0B0E080E023
:104D2C0090E00F94B222A0E0B0EC88EA90E00F94EF
:104D3C00FE22E150F04060407040E887F9876A87B6
:104D4C007B87EF5FFF4F6F4F7F4FA8E0B0E080E0B5
:104D5C0090E00F94B222A0E0B0EC88EA90E00F94BF
:104D6C00FE220F946D23AC85BD858E859F85EC81CD
:104D7C00FD816E817F810F9436220F01CB01DF0103
:104D8C00CB01BC017F936F93FF93EF93A885B985FB
:104D9C008A859B850F9463230F943622DF01CB0108
:104DAC00A885B9858A859B850F9463230F94362239
:104DBC00AF91BF918F919F910F94CB23E8F4E09129
:104DCC00811AF091821AFF93EF93AC85BD858E8585
:104DDC009F85E8E00F947222AF91BF91EC93A09164
:104DEC007F1AB091801AEC85EC93A091791AB0914E
:104DFC007A1AEC91ED7F1CC0E091811AF091821A25
:104E0C00FF93EF93A885B9858A859B85E8E00F947D
:104E1C007222AF91BF91EC93A0917F1AB091801A3E
:104E2C00E885EC93A091791AB0917A1AEC91E26032
:104E3C00EC9364960895E1E07E2EA0E0F7DDE0E0CF
:104E4C00FBE460E070E00F947C23EA93EA93E1E0EA
:104E5C00EA93EA93A1E081DEE0EDF6E060E070E039
:104E6C000F947C23A0E085D00895ECEDF6E060E093
:104E7C0070E00F947C23A0E07CD0A0E0D7DDD1DEE5
:104E8C0077240895A0971A930A93FE0132968F0106
:104E9C00FE013296FA93EA93E0E4F0E0FA93EA9397
:104EAC00E6EEF6E060E070E00F947C23E091200BDE
:104EBC00FF27662777270F947C23E091210BFF2790
:104ECC00662777270F947C23E091220BFF27662718
:104EDC0077270F947C230E943223DF01CB01E8EE6D
:104EEC00F3E060E070E00F942E230F947C2380E1BC
:104EFC000F94FE1F6896D801EC91E03031F00F5FF3
:104F0C001F4FAC916CD0E030B1F719810881A2969B
:104F1C000895AA931A930A9300E010E0A091C00D93
:104F2C00A13011F4A2E001C0A0E080DDEA81E03004
:104F3C0009F0A8DFAB81BC810F94B5218F0100343F
:104F4C00E0E01E0790F4AB81BC81A05CBF4FE0E0B9
:104F5C00EC93AB81BC81EC91E03039F0ED91AB83FB
:104F6C00BC83AE2F3CD0E030A1F719810881259687
:104F7C000895AA931A930A93A091C00DA13011F42D
:104F8C00A2E001C0A0E052DDEA81E03009F07ADF56
:104F9C00AB81BC818D819E810F94C1218F01003426
:104FAC00E0E01E07D8F4EB81FC816D817E816BBF44
:104FBC00E691E03099F0DE0113960F944F23EF5FEA
:104FCC00FF4F6F4F7F4F0F945923E150F0406040DB
:104FDC0070406BBFA69103D0E03029F766C0AA934E
:104FEC00E1E0E71511F4A88132DEE1E00C945F2DCD
:104FFC00E72D0895E1E0E71511F07E2E1CDF0895F2
:10500C00AA931A930A93E1E0E71509F044C0EA81E8
:10501C00E17041F0E4EFF6E060E070E00F947C2387
:10502C00A0E0A7DF00E010E0EB81FC810E171F076A
:10503C0030F5EDEAFBE0FA93EA93E0E4F0E0FA9362
:10504C00EA93ECEFF6E060E070E00F947C23F8015B
:10505C00AD85BE85AE0FBF1FEC91FF276627772766
:10506C000F947C2384E00F94FE1F2C96EDEAFBE05A
:10507C00FA93EA93A0E04DDF0F5F1F4FD5CFEA8183
:10508C00E27041F0E2E0F7E060E070E00F947C2326
:10509C00A0E06FDF0AC0A0E00E941C25ED81FE811C
:1050AC00FA93EA93AD81BE81ECDD198108812796D4
:1050BC000895AA932497ED81FE81662777270F9494
:1050CC006D23EF81F8850F946823662777270F945B
:1050DC003B220F947223EC810F946823FF276627E1
:1050EC0077270F94D8220F946D230F946823E4E64E
:1050FC00F0E060E070E00F9423230F946D23EF81B8
:10510C00F8850F946823662777270F9431220F9424
:10511C006D23E881F98129960895E0ECE0937C00F9
:10512C00E0E0E0937B00E7E8E0937A00E0917A001E
:10513C00E064E0937A000895AA93A881A83030F037
:10514C00E8E0E0937B00E881E85004C0E0E0E09305
:10515C007B00E881E06CE0937C0085E28A95F1F7B6
:10516C00E0917A00E064E0937A00E0917A00E071DB
:10517C00E1F3E0917A00E061E0937A00E09178004D
:10518C00F09179000C945F2D6A937A93AA93BA9359
:10519C00EA93FA93EFB7EA93A2E9BBE00F944F239B
:1051AC00EF5FFF4F6F4F7F4F0F945923A2E9BBE086
:1051BC000F944F233197604070400F945923E9911D
:1051CC00EFBFF991E991B991A991799169911895EC
:1051DC0024971A930A93A0E0AFDF8F011A930A93D6
:1051EC00E091851AF091861AFA93EA93AAE561DFA9
:1051FC00E093851AF093861AA091851AB091861ABD
:10520C0088279927EAE0F0E060E070E00F94B22282
:10521C00EA83FB836C837D83AA81BB818C819D8116
:10522C00E4E0F0E060E070E00F942323EA83FB837A
:10523C006C837D83A2EFB0E080E090E00F94D822E5
:10524C00EA83FB836C837D83AA81BB818C819D81E6
:10525C00E6E1F0E060E070E00F942323EA83FB8347
:10526C006C837D83E454FD4F6F4F7F4FEA83FB8348
:10527C006C837D83EA81FB81E0932F0BF093300BE1
:10528C00A2E05ADF8F011A930A93E091871AF091EA
:10529C00881AFA93EA93AAE50CDFE093871AF09345
:1052AC00881AA091871AB091881A88279927EAE062
:1052BC00F0E060E070E00F94B222EA83FB836C8331
:1052CC007D83AA81BB818C819D81E4E0F0E060E06C
:1052DC0070E00F942323EA83FB836C837D830F940C
:1052EC009022EA83FB836C837D83EA81FB81E093CC
:1052FC00310BF093320B0C94D62D1A930A93A1E038
:10530C001BDF8F011A930A93E091891AF0918A1A84
:10531C00FA93EA93AAE5CDDEE093891AF0938A1A00
:10532C00A091891AB0918A1AE9E10F94D222E05720
:10533C00F741DF01E4E6F0E00F94EB22E0932D0B54
:10534C00F0932E0B0991199108950E94CE51E4709F
:10535C0011F0E0E001C0E1E0E093870B08950A92C0
:10536C001A92FA926A937A938A939A93AA93BA931B
:10537C00EA93FA93EBB7EA93ECB7EA93EFB7EA93B5
:10538C001A93E091920BF091930B6091940B7091A6
:10539C00950BE860E093920BF093930B6093940B56
:1053AC007093950B10913601E0914618E030F9F0AE
:1053BC00A0914518A032D0F4A5E2B8E1E0914518CF
:1053CC00F0E0EA0FFB1F1083E0914518EF5FE093CC
:1053DC004518E150E0E0F0E060E070E0E093A919DE
:1053EC00F093AA196093AB197093AC1948C0E09173
:1053FC004518E030B1F0ABE9B5E1E091A519F091B9
:10540C00A619EA0FFB1FFA93EA93E5E2F8E1FA9387
:10541C00EA93A0914518BB270F945121E0E0E0934B
:10542C004518A091A519B091A619AA38E2E0BE07BB
:10543C0030F5ABE9B5E1E091A519F091A619EA0FA9
:10544C00FB1F1083A5EAB9E1ED91FD913196FE9316
:10545C00EE93ABE9B5E1E091A519F091A619AE0F69
:10546C00BF1FE0E0EC93E0E0F0E060E070E0E09380
:10547C00A919F093AA196093AB197093AC19E09128
:10548C00920BF091930B6091940B7091950BE77FBD
:10549C00E093920BF093930B6093940B7093950B9A
:1054AC001991E991EFBFE991ECBFE991EBBFF9914B
:1054BC00E991B991A9919991899179916991F99011
:1054CC001990099018950F94D223E1E0E0934618B7
:1054DC00EBE9F5E1FA93EA93ACE2B7E080E090E017
:1054EC000F94ED219F01022E032A31F0ADB7BEB708
:1054FC001F930E94C2371F91EBE9F5E1FA93EA93EF
:10550C00E0E0EA93AAE8B2E00F946321E0E0F0E077
:10551C00E093A519F093A619E09346180F94D9239C
:10552C000DC3E7E4F8E1FA93EA93E0E0EA93AEE521
:10553C00B1E00F946321E0E0F0E0E093A719F09361
:10554C00A8190895AA93A8810E942D26E1E0B1C262
:10555C00BA93AA93A3E00E941C25EA81FB81FA93DB
:10556C00EA93AA81BB810E944726E8C2BA93AA9308
:10557C000F94D22300E010E0A3E00E941C25EC81E4
:10558C00FD813097C1F03197EC83FD83F801AE813A
:10559C00BF8188859985662777270F9431226BBF49
:1055AC003691A32FCFDFE03019F4E0E0EC83ED83EC
:1055BC000F5F1F4FE4CF13C1BA93AA931A930A93A8
:1055CC00AA81BB810F94B5218F010130E1E01E0748
:1055DC0010F000E011E0EBE9F5E1FA93EA93E0E07A
:1055EC00EA93AAE8B2E00F946321E0E0F0E0E093E4
:1055FC00A519F093A619EA81FB81FA93EA93D801D5
:10560C00A7DFEBE3F7E060E070E00F947C23A0E011
:10561C000E94BF27EA81FB81FA93EA93A0E00E94E3
:10562C008F27198108818AC20F9481231A930A93B8
:10563C00AA81BB818C819D810F94C1218F01EBE9E3
:10564C00F5E1FA93EA93E0E0EA93A0E0B1E00F947D
:10565C006321E0E0F0E0E093A519F093A619EA814C
:10566C00FB816C817D810F947C23D8017FDFEBE380
:10567C00F7E060E070E00F947C23A0E00E94BF276D
:10568C00EA81FB816C817D810F947C23A0E00E94D8
:10569C00BF2786C2BA93AA9324970F94D2230E9451
:1056AC003223EC83FD836E837F830E943223AC8193
:1056BC00BD818E819F810F943622DF01CB01E8855D
:1056CC00F985662777270F94CB2308F087C0E091E4
:1056DC004518E03081F0A091A919B091AA198091D8
:1056EC00AB199091AC19AA31E0E0BE07E0E08E074F
:1056FC00E0E09E0708F416C0ABE9B5E1E091A5190E
:10570C00F091A619EA0FFB1FFA93EA93E5E2F8E190
:10571C00FA93EA93A0914518BB270F945121E0E02E
:10572C00E0934518A091A519B091A6190F94B82330
:10573C0080F4A091A919B091AA198091AB199091FC
:10574C00AC19A333E0E0BE07E0E08E07E0E09E0773
:10575C0008F443C0E9E4F7E060E070E00F947C23C8
:10576C00A0E00E94BF27EBE9F5E1FA93EA93A0E0F1
:10577C000E948F27EBE9F5E1FA93EA93ABE5B7E0EA
:10578C0080E090E00F94ED218F01002E012A79F03A
:10579C00A0E6B7E080E090E047DFA6E9BAE1ED9142
:1057AC00FD913196FE93EE93E1E0E093A81AEBE9BC
:1057BC00F5E1FA93EA93AAE6B7E080E090E00F9463
:1057CC00ED218F01002E012A31F0E0E0F0E0E093B2
:1057DC00A519F093A619E1E002C067CFE0E00F94A1
:1057EC00D9232A960895BA93AA93A5E0B0E052DF84
:1057FC00AA81BB81E1DEA881B9814CDF9FC10F94E6
:10580C008123EBE9F5E1FA93EA93AA81BB818C81C0
:10581C009D810F94ED21309709F08FC1E0E08EC18E
:10582C00AA93EF9729971A93FE01E75BFF4FE0814C
:10583C00F0E0FA93EA93DE0113960F94B320FE0185
:10584C003996FA93EA93A0E7B7E080E090E00F94E2
:10585C00A521FE013996FA93EA93DE0113960F9473
:10586C007321FE013996FA93EA93ABE7B7E080E037
:10587C0090E00F948421FE01E65BFF4F0190F081D4
:10588C00E02DFA93EA93DE0113960F94B320FE01F8
:10589C003996FA93EA93DE0113960F947321FE0165
:1058AC003996FA93EA93A7E6B7E080E090E00F947C
:1058BC00842109DEFE013996FA93EA93A4EFB1E054
:1058CC0092DFADE7B7E080E090E099DFE03009F4DB
:1058DC0076C0F9DDA3E00E941C25FE01E45BFF4FBE
:1058EC000190F081E02DFA93EA93DE01A45BBF4FA7
:1058FC000D90BC91A02D0E944726A0EDB7E0CADE0A
:10590C00EBE9F5E1FA93EA93AFE7B7E080E090E0DA
:10591C000F94ED21DE01A45BBF4FED93FC93309708
:10592C0019F0D1DDE1E055C0EBE9F5E1FA93EA932A
:10593C00A7E8B7E080E090E00F94ED21DE01A45BD6
:10594C00BF4FED93FC933097F1F0A1E9B7E080E005
:10595C0090E06ADEA8EEB3E09DDEE03099F0EBE972
:10596C00F5E1FA93EA93A1EAB7E080E090E00F94B6
:10597C00ED21DE01A45BBF4FED93FC93309711F04A
:10598C00E2E027C025C0EBE9F5E1FA93EA93AAE639
:10599C00B7E080E090E00F94ED21DE01A45BBF4FF7
:1059AC00ED93FC93309749F0A1E9B7E080E090E0EB
:1059BC003BDEA8EEB3E06EDE0BC085DD09C0E7EB85
:1059CC00F7E060E070E00F947C23A1E00E94BF2719
:1059DC00E0E01881EF962F96089524970E943223C9
:1059EC000F946D23A3E00E941C250E9417260E9491
:1059FC003223DF01CB010F9463230F943B22A2339C
:105A0C00E0E0BE07E0E08E07E0E09E0780F3E0E018
:105A1C00F2EC61E070E00F947C23EA93EA93E1E00E
:105A2C00EA93EA93A1E00E94B32588C0AA93E0E030
:105A3C00E0931B15E0938B1AE093981AE093991A54
:105A4C00E0939A1AE0939B1AE0939C1AE093A21AA3
:105A5C00E881E030F1F0E0E0F0E0E0938C1AF093B4
:105A6C008D1AE0938E1AF0938F1AE093901AF0939C
:105A7C00911AE093921AF093931AE093941AF0937C
:105A8C00951AE093961AF093971AE0939E1AF09356
:105A9C009F1A0E943223E093A41AF093A51A6093E4
:105AAC00A61A7093A71AE0E0F0E0E093A519F09322
:105ABC00A619219608952497E8B1E074E8B93E9AA6
:105ACC000E9432230F946D23E9ECF7E060E070E064
