:10800000F87800209DA9000099A9000099A9000016
:108010000000000000000000000000000000000060
:1080200000000000000000000000000099A900000E
:10803000000000000000000099A90000455901005F
:10804000FD82000099A900007146010099A9000075
:1080500099A9000099A9000099A90000C5B80000DD
:1080600099A9000089510100ED5E0100D94B010082
:10807000F14D010099A9000099A9000099A90000FB
:1080800099A9000099A9000099A9000099A90000E8
:10809000DD5B01009D5C010099A9000099A9000029
:1080A00099A9000011420100B141010099A9000005
:1080B000D942010099A9000099A9000010B5064C09
:1080C0002378002B07D1054B002B02D0044800E099
:1080D00000BF0123237010BDF00B00200000000042
:1080E0005CFB0200084B10B5002B03D00749084881
:1080F00000E000BF07480368002B00D110BD064B0D
:10810000002BFBD09847F9E700000000F40B00209B
:108110005CFB02005CFB02000000000010B5044C98
:10812000002323722360034B9847606010BDC04654
:108130000C0C0020C55A0100024A137A0133137255
:108140007047C0460C0C002070B596B03A4B98476B
:108150003A4B5B68C01A022801D816B070BD364B86
:108160009847364B58601B7A3F2BF6DC344B1B6824
:10817000002BF2D106A8334B98470028EDD0324BA4
:1081800098470100314C2000314EB0472000314B60
:10819000984700190B223049304B984706AD287894
:1081A0002F4B984701000EA8B0470EA920002D4B79
:1081B00098476B78002B34D0244C2000254B9847EF
:1081C000001907222849254B9847284B984706ACA9
:1081D000E3781B026579227A0492E2790392A2790C
:1081E0000292A078C018FA218900214B9847FF23FA
:1081F00018400190237900932B001E4A40210EA8BD
:108200001D4CA047114C0EA92000164B984720008A
:10821000104B9847231F186001212000174B9847E7
:108220009BE70A4C20000B4B984700190822144981
:108230000A4B9847C9E7C046C55A01000C0C0020FC
:10824000381900208DDD0000498C00003C19002009
:1082500001170200111702001894020071130200A6
:10826000B192000051150200249402006DDD00005F
:10827000C9030200349402008914020021A4000002
:108280002C94020030B5194B1A6902218A431A61F5
:108290001A69174802401A611A694230FF300243D6
:1082A0001A615A680A435A601A691824A243083CA2
:1082B00022431A611A690A431A610E4A5369034339
:1082C00053610D4B703401391951BFF34F8FBFF318
:1082D0006F8FC02252009950C02080001A58FF258D
:1082E000AA4322431A50196030BDC046001800400E
:1082F000FFFEFFFF0008004000E100E010B5064B64
:108300009B689B0700D410BD034A936802210B436E
:108310009360024B9847F6E700180040F9AF000061
:10832000F0B587B08C461600019303AC064D2200D1
:108330008ACD8AC2800000596044019A3100034B03
:108340009847012007B0F0BD48940200B5A0000096
:1083500070B582B07823C84AD35C022B03DC792342
:10836000D35C022B0BDDC54B9847830700D157E246
:108370007023C14AD25C383B1340082B01D002B0B5
:1083800070BDBF4B9847002802D10022BD4B1A8414
:108390007023B94AD35A5B051B0FDAB2062AEED80E
:1083A0009300B94AD3589F46B84B9847B84B1B68BF
:1083B000C01A0328E3D9B74B5B88192B0CDD0022C8
:1083C000B44B5A80AC487021435AB34A1A40A02398
:1083D0009B0013434352D2E70020B04B9847A64A74
:1083E00070240F230340D901135BAB4803400B43B8
:1083F000135370321B0A78218B435370BFE7002060
:10840000A64B98479C4970220F231840C0018B5AF5
:10841000A14C234003438B52F022D2001340802B07
:1084200003D000229A4B1A71A9E7994A13790133B4
:10843000DBB21371022BA2DD8F4B032177229954FB
:108440006D315A5A944802405A5298E771238A4A29
:10845000D35C5B061B0FDAB2062A00D98FE79300C4
:108460008F4AD3589F4600208E4B9847824A7032DD
:10847000537878218B4310210B435370854C6388CC
:10848000894D8A4A80212800894EB0470021280062
:10849000884B98476388013363800120864B984757
:1084A0008648874B98476AE70020864B9847724971
:1084B00070310F230340DA004B7878208343134355
:1084C0004B700020804B9847022803DD714B00223F
:1084D0001A805A807123684AD35C5B061B0FDAB29C
:1084E0000B2A00D94BE79300784AD3589F460022C5
:1084F00011001000764B984741E70022614B1A8724
:108500003DE70022634BDA805B4B70335A78782169
:108510008A43110008220A435A7030E75D4AD38823
:1085200001339BB2D380604C6A4A80212000604DA9
:10853000A847002120005F4B98474F4B70335A7873
:1085400078218A43110018220A435A7017E7022043
:10855000594B9847484B70335A7878218A43110019
:1085600018220A435A700AE70020534B98470F23FA
:108570001840414A7032C10053787824A3430B431A
:108580005370082800D9FAE68000534B1B589F46C9
:10859000394970228B5C382083438B5400204F4B29
:1085A0009847ECE6002201211000494B9847E6E687
:1085B000364B9847364B9860E1E62F4B70201918E0
:1085C0004A787824A2434A701A5A33491140C0228B
:1085D00052000A431A52D2E6274B70201A5A2E49EB
:1085E0001140A02292000A431A521B189978802247
:1085F00052420A439A70C2E6394B98471E4970317D
:108600000F230340DA004B787820834313434B70E9
:1086100078221340282B00D0B1E61C4B98471C4B06
:108620009860ACE6144B7020190070314A787824B9
:10863000A2434A701A5A18491140A02292000A43D4
:108640001A529CE6114B9847114B9B68C01A04289C
:1086500000D894E6084B70335A7878218A435A70D0
:108660008DE605487021435A0B4A1A40C0235B002F
:108670001343435283E6C04604420020918E00001B
:10868000457D0100E042002054940200C55A0100DB
:10869000180C0020801A00207FF8FFFFED880100F1
:1086A00070940200EDF8010090180020E0940200A0
:1086B0008914020021A400000DFE0100FFFF00004C
:1086C0003D8A00000DF901006D0002008C9402004B
:1086D000B5E10000F4940200BC940200858E000015
:1086E000310002000020574B9847574970220F2352
:1086F0001840C0018B5A554C234003438B52F02243
:10870000D2001340802B0DD080225200934200D122
:1087100035E64F4A5388013353804E4B98474E4BB2
:1087200018602CE60B0070335A7878218A435A700F
:1087300025E60020494B98470F23184042497022F4
:10874000C4018B5A414D2B4023438B52032800DC3C
:1087500015E63F4A938801339BB29380032B0CDDCF
:1087600000223B4B9A8008007021435A2A001A408D
:10877000A0239B001343435201E6334C7025635DF5
:108780003822934363550020354B984722007032BE
:10879000537878218B435370635B2C4A13406353A7
:1087A000304C00230093304A083120002F4DA84759
:1087B000002120002E4B9847264B9847264B1860E7
:1087C000DDE5234B5B88012B0CDD0022204B5A801A
:1087D0001D487021435A1D4A1A40A0239B00134391
:1087E0004352CCE5184970228B5A184803408B52EB
:1087F000C5E5154A03217723D1546D31535A1348E7
:10880000034053524720034053540022194B1A840B
:10881000194B98470020124B9847184B9847AEE5E4
:10882000154B984700200E4B9847074B70211800B6
:10883000703042787824A24342705A5A034802406A
:108840005A529CE5658E0100044200207FF8FFFF2C
:10885000801A0020C55A0100180C0020D190010098
:10886000858E0000901800200C95020089140200EB
:1088700021A40000E0420020C55E0100DDBB010034
:10888000F0B5C64600B594469846114B99421ADC9D
:10889000002915DD0024FF27FF260E4A0E4B057820
:1088A0007540565D7E405F5D0134A4B20130A14247
:1088B000F5DC63461E7043461F7004BC9046F0BD55
:1088C000FF27FF26F5E70023137042461370F4E7F5
:1088D000FF07000028950200289602002230800041
:1088E000014BC1507047C046240C0020223080004C
:1088F000014BC0587047C046240C002005490B00AE
:108900001E33323102781A70013001338B42F9D1B3
:108910007047C046240C002010B5010002484630C4
:10892000024B984710BDC046240C002001170200DE
:10893000014846307047C046240C002001483230C0
:108940007047C046240C002010B5010002483230A8
:10895000024B984710BDC046240C002001170200AE
:10896000002805D1CC23064AD05CC007C00F704751
:10897000B9235B00024AD05CC007C00FF7E7C046CE
:10898000A40C0020002070470023012801DD1800FE
:1089900070477033074AD35CDB0704D44000064BB2
:1089A0001818038DF3E754304000034B1818C38C9C
:1089B000EDE7C04604420020A40C0020012817DC8B
:1089C00070230C4AD35CDB0708D40B4B1A004B32E4
:1089D00000211170400118182C307047064A13000E
:1089E0001233FF330021197040011018D230F4E720
:1089F0000020F2E704420020A40C0020EF235B00DB
:108A0000014AD05A7047C046A40C0020F0235B00F6
:108A1000014AD05A7047C046A40C0020F1235B00E5
:108A2000014AD05A7047C046A40C0020F2235B00D4
:108A3000014AD05A7047C046A40C00209823014A2E
:108A4000D0527047240C0020014B988C7047C046D0
:108A5000A40C00209823014AD05A7047240C00200F
:108A6000EE235B00024AD05A0005000D7047C04655
:108A7000A40C0020014BD88C7047C046A40C0020E9
:108A8000014824307047C046A40C002000487047BD
:108A9000B4050000004870474604000043001B185E
:108AA0009B000448C0187530FF300078C007C00F25
:108AB0007047C046A40C002043001B189B000448CC
:108AC000C0187530FF3000788006000F7047C04630
:108AD000A40C002043001B189B000448C0187530EC
:108AE000FF3000788007C00F7047C046A40C0020FC
:108AF00043001B189B000448C0187530FF30807875
:108B00004007C00F7047C046A40C002043001B184C
:108B10009B000448C0187530FF308078C006800F75
:108B20007047C046A40C002043001B189B0003485C
:108B3000C0187930FF3000687047C046A40C002090
:108B400002000020032A08DCFA235B000349C85A0C
:108B5000F43BFF3B9340184010417047A40C0020A9
:108B60000520704784239B00034AD25A0123834087
:108B70001340034118007047A40C0020F43040005B
:108B8000014B1818408D7047A40C0020022807DC08
:108B9000C3001B1A5B000348C0189930FF307047B0
:108BA0000020FCE7A40C002002000020022A08D8C4
:108BB000E1235B000349C85AC23BFF3B9340184086
:108BC00010417047A40C002070B51500032814DC78
:108BD000C30FC21801241440E41A5010C0B2002878
:108BE0000CD10D4E600130182C300C4B98472800EA
:108BF0000B4B984764003419208570BD064E600108
:108C00003018D230054B98472800054B984754340C
:108C100064003619F084F0E7A40C0020011702006C
:108C2000D91202009C20704700487047240C002095
:108C300043001B189B000348C0187D30FF300068BC
:108C40007047C046A40C00200148C530FF30704773
:108C5000A40C0020014B988B7047C046240C0020C8
:108C6000072809DDE0304000074B1818C38C1B0AA9
:108C7000FA20800058437047E8304000024B181833
:108C8000C38CFF200340F3E7A40C00200200002067
:108C9000032A06D8034B0449C85A012393401840BD
:108CA000D040704706020000A40C00200200002003
:108CB000032A07D882239B000349C85A0123934003
:108CC0001840D0407047C046A40C0020020000208D
:108CD000032A06D8034B0449C85A0123934018407D
:108CE000D04070470A020000A40C00200023054871
:108CF00005491A0064328A5CC2540133052BF8D14D
:108D00000048704790180020240C002000230548DC
:108D100005491A005A328A5CC2540133082BF8D133
:108D20000048704790180020240C0020F0B5C6467B
:108D300000B582B005000024154E164B98461F0062
:108D400007E023006433434400221A7001340A2CE4
:108D50000AD0285D6B46D91DB0470028F1D02A5DA6
:108D600023006433FA54F1E70A4B00216D22995431
:108D70006433094C094A40312000094DA8470121BC
:108D80002000084B984702B004BC9046F0BDC04696
:108D9000B3000200240C0020901800202897020045
:108DA0008914020021A40000F0B5C64600B582B0C7
:108DB00005000024154E164B98461F0007E02300BF
:108DC0005A33434400221A7001340A2C0AD0285D19
:108DD0006B46D91DB0470028F1D02A5D23005A33D5
:108DE000FA54F1E70A4B0021632299545A33094C93
:108DF000094A40312000094DA84701212000084BB5
:108E0000984702B004BC9046F0BDC046B3000200D3
:108E1000240C0020901800202897020089140200DA
:108E200021A400006E23014AD05A7047240C002070
:108E30006E23014AD0527047240C0020014B588BFE
:108E40007047C046240C0020014B188B7047C04669
:108E5000240C0020002805D1CC23064AD05C8007D2
:108E6000C00F7047B9235B00024AD05C8007C00F77
:108E7000F7E7C046A40C00207023014AD05C70477D
:108E8000240C00207023014AD0527047240C00208B
:108E9000074BB9225200985CC007C00F4000A63AA9
:108EA0009B5CDB07DB0FC018002800D10330704744
:108EB000A40C002002000020072A08D8F9235B0038
:108EC0000349C85AF23BFF3B93401840104170479A
:108ED000A40C002003000120072B07D80833F92237
:108EE000520003498A5A9840104018417047C046C2
:108EF000A40C002010B50B010449C918044B9C4672
:108F000061442022034B984710BDC046A40C0020AA
:108F10006A0400000918020092239B009C466044EA
:108F20004000024B1818408D7047C046A40C00202A
:108F3000002802D103486C30704702481330FF30DC
:108F4000FAE7C046A40C0020002802D103489C3058
:108F5000704702484330FF30FAE7C046A40C0020B7
:108F6000002802D10348B430704702485B30FF301C
:108F7000FAE7C046A40C00200023032809DC4300C4
:108F80001B189B000448C018044B9C4660440022F8
:108F9000835E18007047C046A40C00201A0200002F
:108FA000002303280ADC43001B189B000448C01858
:108FB00087239B009C4660440022835E1800704714
:108FC000A40C00200023012801DD18007047430095
:108FD0001B189B000548C01889239B009C466044D1
:108FE0000388032BF1DD0423EFE7C046A40C002027
:108FF0000023012801DD1800704743001B189B0067
:109000000348C018034B9C4660440022835EF2E78D
:10901000A40C00201E0200000023012801DD18001E
:10902000704743001B189B000448C01888239B000E
:109030009C4660440022835EF1E7C046A40C0020F9
:109040000023012801DD1800704743001B189B0016
:109050000348C018034B9C4660440388F3E7C046AE
:10906000A40C002022020000034B988C002802D19F
:109070009823024AD05A7047A40C0020240C0020E8
:109080000023302815DC43001B185A000A4B9B189C
:10909000D122920094466344DA790023920608D4E0
:1090A00043001B185B000448C0186044C379DB060A
:1090B000DB0F18007047C046A40C002000233028A6
:1090C00015DC43001B185A000A4B9B18D122920052
:1090D00094466344DA790023D20608D443001B186F
:1090E0005B000448C0186044C3799B06DB0F18007E
:1090F0007047C046A40C00200023302808DC430041
:109100001B185B000348C018034B9C46604403884F
:1091100018B27047A40C00204E03000003002F2853
:1091200010DC010088318900164A5218518D164A08
:10913000914223D088339B001248C3182433D87936
:109140008009704700205F2BFBDC303B5A00D218AF
:1091500051000C4A52180D498C46624411880A4A43
:1091600091420DD05800C0184000064B1B18D12268
:10917000920094466344D8798009E2E70020E0E752
:109180000020DEE7A40C0020FFFF00004A030000DF
:1091900003002F280DDD00205F2B10DC303B580032
:1091A000C0184000064B1B18064A944663441878C2
:1091B00005E088339B0002482430C3189879704733
:1091C000A40C00204A0300000200303A00232F2A9A
:1091D0000BD853009B185B000548C018D1239B0097
:1091E0009C466044C3791B071B0F18007047C0469C
:1091F000A40C002003002F280EDD00205F2B10DCC4
:10920000303B5800C0184000064B1B18D322920078
:1092100094466344188804E088339B000148C318CF
:10922000988D7047A40C0020420012189200064846
:1092300080187530FF300F230B409B0001783C22D3
:109240009143194301707047A40C0020014B024A5E
:10925000D05A7047C6050000A40C0020014B024AFA
:10926000D05A7047CA050000A40C0020014B024AE6
:10927000D05A7047C4050000A40C0020B923DB00BD
:10928000014AD05A7047C046A40C0020B5239B0069
:109290009C4660444000024B1818808C7047C046C2
:1092A000A40C0020014B98847047C046A40C0020F9
:1092B00003010348C018034B9C4660447047C046F6
:1092C000A40C0020C604000070B500221048040061
:1092D0001049012502E00132102A18D013004A3348
:1092E0001B01C31824331B78DB07F4D513004A3362
:1092F0001B01E3189B8CDB051B0E2B2BEBDC9E006C
:10930000F3185B00CB185E782E435E70E3E770BD08
:10931000A40C0020881A0020F8B500211748184B2B
:109320009847184D2B0058332A005932164E3400F6
:109330002434B621C9002000144FB8475923EA5CF1
:109340001202013BEB5C9B181B04114AB350114EF7
:10935000320021000020104DA84732002100842057
:109360000001A8470D4B98470022012125200C4BF6
:109370009847002125200B4B9847F8BD38970200ED
:1093800091A4000024120020A40C00208188000079
:10939000D4050000B4050000B5A00000C99200008B
:1093A000B5E1000055F50000F0B5DE4657464E46E3
:1093B0004546E0B591B008AC202200212000F64DD2
:1093C000A847012323806380A380E38023816381F6
:1093D000202200216846A8473F236A4613800133B4
:1093E0005380023393800133D380203B13811233A7
:1093F00053810121E948EA4B9847EA4800238384D6
:10940000CC33C25C01210A43C254B9225200835CAE
:109410000B4383543C23C384E34B03854385A43A25
:1094200083520232835203006C339C3000221A7044
:109430001900A6310A7001338342F8D1D9480100DE
:109440004331FF31B43000221A701A760A700A765E
:10945000013301318342F7D1D24C22006C32D34B1D
:1094600003CB03C21B78137020001330FF30092296
:10947000CF49D04DA84722009C32CF4B03CB03C22B
:109480001B88138020004330FF300A22CB49A847B5
:109490002200B432CA4B03CB03C21B8813802000C6
:1094A0005B30FF300A22C749A84723002C33C64E41
:1094B000320083CA83C39446190013780B702300CB
:1094C0004C33310085C985C3190063461B780B7086
:1094D0002000D2300D223100A8472000F2300D22AA
:1094E0003100A847322283239B00E252B74B00226F
:1094F000E252B74BB74AA3520232A352B64AA35222
:109500000232A352BA214900635C01221343DBB249
:10951000022083460343DBB23C26B3430420844647
:1095200081464846034363540231635C032080460E
:1095300083431343DBB2604683431827BB43635422
:1095400096208001BC235B00E05004331339FF39BF
:10955000E15004339A46E35C1343DBB259468B4334
:10956000B34349460B4351466354C1235B009A46BB
:10957000E35C41468B431343DBB261468B43BB4301
:1095800051466354C2235B00E05004331F39FF3956
:10959000E15004339A46E35C1343DBB259468B43F4
:1095A000B34349460B4351466354C7235B009A4675
:1095B000E15C434699430A43D2B263469A43BA43B5
:1095C0005346E2540233E05004336422E250230055
:1095D000C533FF33814A1168196012791A712C3B27
:1095E0007F4F3A0003CA03C390461A0043461B88C4
:1095F000138043469B7893702000A730FF300B22E6
:109600003900A8472300B533FF3306CF06C31A003D
:1096100043461B88138043469B7893700722E123BF
:109620005B00E252F8321633E2526E4A0233E252E3
:109630006D4A0233E252BF3BFF3BEF225200A3527E
:10964000962189000432A152023AA6520432A35252
:10965000D733FF330022E2520023524924310A203B
:109660001A00D332FF3288520233102BF8D14D4A00
:109670000E3B5E4953520231535200231639535266
:109680005B4953525B4BD3185B4951180022FA20B7
:10969000C00064241A805880D8809A801C815A8126
:1096A0000C338B42F6D13F4C544BE01809225449FD
:1096B000404DA847534BE01809225349A847534B44
:1096C000E0180B225249A847524BE0180D2252498C
:1096D000A847524BE01809225149A8479622520048
:1096E000504BE2522D32FF324F4BE25278234F4A19
:1096F000A3520232A3524E4AA35200250024294B02
:109700009C4608A801264B4B984623004A331B0170
:1097100063441F002437295A31403A78B2430A4340
:109720003A706A46515D49009A8C47463A400A436E
:109730009A8401340235102CE7D11A4C3E4BE018C4
:1097400006223E491B4DA8473D4BE0180A223D49E1
:10975000A8473D4BE0180A223C49A8473C4BE0187B
:109760000A223C49A8473C4BE0180A223B49A8473B
:109770003B4BE0180A223B49A8473B4BE0180A2222
:109780003A49A8473A4BE0180A223A49A8473A4BC7
:10979000E0180C2272E0C046F51302004497020064
:1097A00091A40000A40C0020E32E000060970200AA
:1097B0006C970200711302007897020084970200F0
:1097C000909702009C970200A89702000E020000EA
:1097D000B80B00001202000016020000B897020049
:1097E000C09702000F0F00000310000006020000E7
:1097F0000A0200001A0200004A0200006A04000087
:10980000CC9702007A040000D89702008A04000076
:10981000E49702009A040000F0970200AA040000F6
:1098200000980200BA040000BC040000BE0400005E
:10983000C204000001FEFFFFC60400000C980200F5
:10984000D604000014980200E604000020980200EC
:10985000F60400002C98020006050000389802006B
:1098600016050000449802002605000050980200EA
:10987000360500005C980200460500002149A84713
:10988000214BE0180C222149A847214BE0180C225B
:109890002049A847204BE0180C222049A847204B1C
:1098A000E0180C221F49A8471F4BE0180C221F4943
:1098B000A8471F4BE0180C221E49A8471E4BE01872
:1098C0000C221E49A847802212011D4BE2520023A0
:1098D0001C4963521C496252B922D200A352FA2396
:1098E0009B001A4AA3521A4AA3520232A352194A9F
:1098F000A352194B984711B03CBC90469946A246DA
:10990000AB46F0BD6898020056050000749802004E
:109910006605000080980200760500008C98020021
:10992000860500009898020096050000A4980200A1
:10993000A6050000B0980200B6050000BC98020021
:10994000C6050000C4050000CA050000CC050000E3
:10995000CE050000D20500001993000070B5164C2A
:10996000164BE01809221649164DA847164BE01869
:1099700009221649A847164BE0180A221549A8479C
:10998000154BE0180D221549A847154BE018092280
:109990001449A84796225200134BE2522D32FF324F
:1099A000124BE2527823124AA3520232A352114AB6
:1099B000A352114B984770BDA40C00206A0400000C
:1099C000CC970200711302007A040000D8970200BD
:1099D0008A040000C89802009A040000F097020070
:1099E000AA04000000980200BA040000BC040000B1
:1099F000BE040000C204000019930000F0B5DE466A
:109A000057464E464546E0B589B003247A4B9B46FF
:109A10007A4B99467A4B9A467A4ED8477A4A7B498E
:109A20000020D04732005932794BB621C90077481F
:109A3000784DA8475923F25C1202013BF35C9B1856
:109A40001B04754A49468A5893422FD00021734817
:109A5000734B9847694D2F0024376B4A3900842097
:109A60000001674B9847674B984658334246593236
:109A7000B621C9003800674FB84759234246D25C27
:109A80001202013B4146CB5C9B181B04624AAA5858
:109A9000934200D1A8E000216248614B9847013C05
:109AA000E4B2002CB9D1604B984705E000215F4833
:109AB0005B4B9847002CF6D05D4C1F236383293302
:109AC00023832C33A383012252422433E2520D32EA
:109AD00058495948594B9847211D0023564E544D1B
:109AE0000020F25C0A70EA1814003234207046320A
:109AF0001070887601330131142BF2D14C490B00E0
:109B00005A33643100221A709A7201338B42FAD1AF
:109B1000474A8823D358484C9421515802919021A8
:109B2000515801918C2152580092454A0C3920001D
:109B3000444DA84701212000434B98472F4F7937C8
:109B4000FF3700262D4D7B68049373009B199B0003
:109B5000EB187533FF339A785207D20F03929A7835
:109B6000D206920F02923A6801921B78DB07DB0F54
:109B700000933300354A80212F48324CA047002102
:109B80002D48314B984701360C37032EDBD11B4A49
:109B90002F4BD35A284C2F49515A0691BA21C9004C
:109BA000515A05912C49515A04912C49515A03910B
:109BB0002B49515A0291B921C900515A01912949A1
:109BC000525A0092284A802120001E4DA8470021A9
:109BD00020001D4B9847254B984709B03CBC904648
:109BE0009946A246AB46F0BD002121480C4B984750
:109BF000204B98475EE7C0463DA20000A40C002021
:109C000071A1000024120020B4050000C80C00203F
:109C10007C12002081880000D4050000EC9802002E
:109C200091A4000028990200A9930000D498020092
:109C3000240C00204C99020090180020711302009F
:109C4000589902008914020021A400007C990200A6
:109C5000C4050000D2050000CE050000CC050000C0
:109C6000CA050000C6050000A4990200C9920000C0
:109C7000109902001993000010B500220D490C0044
:109C800002E00132102A12D013004A331B01CB1814
:109C900024331B78DB07F4D513004A331B01E31888
:109CA0009B8CDB051B0E8342EBD110B201E001203F
:109CB000404210BDA40C00208E23FF33014AD05C2B
:109CC00040097047A40C0020010043001B185A00F3
:109CD0000E4B9B18D122920094466344DB790120FD
:109CE0009B0611D54B005B185A00084B9B18634428
:109CF000DB79DB0608D54800401840000349091805
:109D0000034B9C46614408887047C046A40C002061
:109D10004E03000010B543001B189B000548C018F7
:109D20007530FF300378012213430370024B9847CC
:109D300010BDC046A40C0020199300008223DB054F
:109D40008022D2005A6198215A507047064A137EE9
:109D5000DB07FCD5044B98621A00137E9B07FCD5E9
:109D6000014B986AC0B270470004004270B504000D
:109D700000290AD001398DB201354519034E002062
:109D8000B04720700134AC42F9D170BD4D9D000048
:109D900070B50400002909D001398DB2013545198B
:109DA000034E2078B0470134AC42FAD170BDC046B2
:109DB0004D9D000010B5064B1870080C5870080A2D
:109DC0009870D970111D1800024B984710BDC046FD
:109DD00080120020919D000010B5064B9847D720B7
:109DE000054CA0470020A0478022D2008223DB053B
:109DF0009A6110BD3D9D00004D9D0000F8B5002505
:109E00000C4E0D4F3C0005E000237B63636B012B80
:109E1000FCD91500B047030604D46A1C92B2272D62
:109E2000F2DD1500E80F00222723AB425041C0B2FB
:109E3000F8BDC046D99D0000E0420020F0B589B0D1
:109E40000224FF25374E50E0083399420BD01A7890
:109E50008242F9D15A8894469F889E7901220792BE
:109E600006920592F0E7059B002B26D1069B002B5E
:109E700001D02D4B9F81079B002B01D02A4B1E72D6
:109E8000294A5389294E03943F2129400291117A8E
:109E9000019192890092264A80213000254CA047EA
:109EA00000213000244B9847013DEBB20020FD22F9
:109EB0009A424041C0B209B0F0BD1B4B62465A8184
:109EC000D4E701211D481E4B984700221D4B5A63C1
:109ED00019001D4A4B6B9342FCD91C4B98476B1ED3
:109EE000DBB2FD2BE2D9013CE0D3B0470028E8D03B
:109EF000174B98470500431EDBB2FD2B0ED80A4BCB
:109F00005A8994469F891E7A124B190060310022AB
:109F10000792069205923D20284098E70138C3B287
:109F2000E1E7C046FD9D000080120020901800204F
:109F30003C9A02008914020021A40000609A0200E9
:109F400091A40000E0420020E70300009D0302000E
:109F5000D99D0000DC990200F8B505000C00160040
:109F60001F000D4B9847002800D1F8BD0B4B9847B8
:109F70000B4B1B7A2900994021430422D220094B24
:109F8000984739003000084B98478022D20082233E
:109F9000DB059A610120E8E7FD9D00003D9D000082
:109FA00080120020B59D00006D9D000070B5060078
:109FB0000C0015000B4B9847002800D170BD0A4BD0
:109FC0009847002231008420084B98472900200040
:109FD000074B98478022D2008223DB059A6101203B
:109FE000ECE7C046FD9D00003D9D0000B59D0000D2
:109FF000919D000010B504000A4B9847002800D13D
:10A0000010BD094B9847094B1B7A2100994000224B
:10A010008320074B98478022D2008223DB059A6178
:10A020000120EDE7FD9D00003D9D00008012002015
:10A03000B59D000010B504000A4B9847002800D1D8
:10A0400010BD094B9847094B1B7A2100994000220B
:10A050008120074B98478022D2008223DB059A613A
:10A060000120EDE7FD9D00003D9D000080120020D5
:10A07000B59D000010B504000A4B9847002800D198
:10A0800010BD094B9847094B1B7A210099400022CB
:10A090005320074B98478022D2008223DB059A6128
:10A0A0000120EDE7FD9D00003D9D00008012002095
:10A0B000B59D0000F0B5DE4657464E464546E0B534
:10A0C00083B005008B461700234B5C892100234B8E
:10A0D0009847824621002800214B9847002F31D015
:10A0E000204B9846204B99460E0024E053466A4682
:10A0F0001380138801931800C0470090041E22D0DB
:10A10000AAB2B0B25946C847009B1840C4B2002C4E
:10A1100019D00198154B98470440A8190E4B59893E
:10A120000F4B98470E0001239C46E244AB447F1B33
:10A1300009D0002C07D0084B5D89AD1BBD42D5D995
:10A140003D00D3E70124200003B03CBC9046994673
:10A15000A246AB46F0BDC04680120020C9030200F3
:10A16000D504020075A00000AD9F0000F59F00001F
:10A17000F0B5DE4657464E464546E0B583B006008C
:10A180008A4615001F4B5C8921001F4B984787B2F8
:10A19000210030001D4B98478CB2002D28D0194B60
:10A1A0009B469946A84625001BE0B3B20193524650
:10A1B00029003800164CA0470090019B5C19A0B202
:10A1C0004B465989114B98478DB20137BFB23604BF
:10A1D000360CB24443469B1B98460BD0009B002B89
:10A1E00008D05B465E89761B4645DED94646DCE7ED
:10A1F00001230093009803B03CBC90469946A246C8
:10A20000AB46F0BD80120020C9030200D504020055
:10A21000599F00008223DB058022D2009A609A6158
:10A22000802292009A609A61013AFF3A9A609A619C
:10A23000802212015A605A617047000010B5034B2A
:10A240009847034B9847034B984710BD15A2000051
:10A250009D4601003D9E000010B5044B1B78012B6C
:10A2600001D0034B9847012010BDC0461C190020A7
:10A27000B94E0100044B00228021C9005A50083118
:10A280005A5002495A507047F43D0020040400001F
:10A2900010B57A23124AD35C002B1DD0032B05DDA9
:10A2A000042B1BD10F4B1B78012B17D00E4B812297
:10A2B000D2009A588021C9005B5893420ED00B4BB4
:10A2C0000949CB58002B09D10B00012007495850F0
:10A2D000985C074B984701E0064B984710BDC04675
:10A2E000044200201C190020F43D0020040400005A
:10A2F00059A2000075A2000070B50D00094C0A00BB
:10A3000001002000084B98478023DB00E550002225
:10A310000833E2500132054BE2502078044B984755
:10A32000012070BDF43D0020711302000404000000
:10A33000B94E0100F8B5CE46474680B505000C0081
:10A340007A231D4AD05C00281DD0032807DD04288D
:10A3500001D0002017E0194B1B78012B29D0802356
:10A36000DB00174AD05802199A4210DC144E8019AB
:10A3700022002900134B98478023DB00F2589446B3
:10A380006444F45001200CBC90469946F8BD9846B0
:10A390001E1A0B4FC019320029000A4B99469847E4
:10A3A000A41BA91922003800C8474346FC500120CD
:10A3B000E9E70020E7E7C046044200201C1900201E
:10A3C000F43D00207113020010B58CB00E498B696A
:10A3D000DB03DB0E8A691205920E89698906890EF4
:10A3E0000A488089029001910092094A202104A81C
:10A3F000084CA04704A8084B9847010004A8074B45
:10A4000098470CB010BDC04600240040E042002038
:10A41000789A0200891402001117020035A3000087
:10A4200010B504007A23134AD35C002B1DD00029F9
:10A430001CD12000104B9847010020000F4B98477B
:10A44000002812D00E4B0F4AD358002B0DD17A336F
:10A45000084AD35C002B08D00A4B0121084A9950C6
:10A4600004329A58985C084B984710BD074B9847A0
:10A47000DFE7C046044200201117020035A30000A8
:10A4800004040000F43D002059A20000C9A300000C
:10A4900010B504007A23134AD35C002B1ED0002988
:10A4A0001DD12000104B9847FF21014020000F4B89
:10A4B0009847002812D00E4B0E4AD358002B0DD1CE
:10A4C0007A33084AD35C002B08D00A4B0121084A92
:10A4D000995004329A58985C074B984710BD074B27
:10A4E0009847DEE7044200201117020035A3000060
:10A4F00004040000F43D002059A20000C9A300009C
:10A5000000B583B001AB20229A700022DA700F23CD
:10A510000340092B0DD90F2B02D8373301AA5370F2
:10A520000009092809D90F280AD8373001AB18705B
:10A5300006E0303301AA5370F2E7303001AB1870F7
:10A54000002101A8014B984703B000BD21A40000E1
:10A55000F0B583B001900D0016007A23244AD35C35
:10A56000002B3ED0052B24D0224B98470400214FCE
:10A57000B847001B6328FBD91F4B00228121C9006B
:10A580005A5008395A501D495A50F3072BD4002D00
:10A5900008DD019B1F005C19194D3878A847013769
:10A5A000A742FAD1B3071CD500211648164B98478D
:10A5B00017E01149114A8B58002BFCD10E4E002296
:10A5C0008123DB00F2502A00019930000F4B98479D
:10A5D0008023DB00F5500122084BF25030780C4B01
:10A5E000984703B0F0BD00210A48074B9847CEE7D3
:10A5F00004420020B55A0100F43D0020040400008C
:10A6000001A50000989A020091A4000071130200B5
:10A6100059A20000909A020010B50E4B98470E4BBD
:10A6200000228121C9005A5008395A500B495A500A
:10A630000B4C02327A23E2540A4B9847E0670A4CEB
:10A640000C220A4920000A4B984700212000094BA0
:10A65000984710BD814C0100F43D00200404000027
:10A6600004420020C55A010090180020A49A02005C
:10A670007113020021A40000F0B5D6464F464646AD
:10A68000C0B590B081239B00A64AD358002B14D1AB
:10A690007A23A54AD35C0024002B00D011E1A34B00
:10A6A0009847A14BDB6FC01AA04200D91AE110B045
:10A6B0001CBC90469946A246F0BD9D4B9847862308
:10A6C0009B00984AD358C01A3228E1D9130081223E
:10A6D00092009A580021995401240027002538E05F
:10A6E00008AB994631001800924B98474B461B78AF
:10A6F000002B27D0042E60D008A98A488E4B98479B
:10A7000000281FD0884B98467A269C55874B98473F
:10A710004346D867002201212420884B98476B1CB0
:10A72000874A80218748884DA84701218548874B63
:10A730009847002181239B007A4AD15043469B5D74
:10A74000032B2CDC2500052C00DD82E001370134D1
:10A75000E4B2FEB2042DC3DD7D497248764B9847C2
:10A760000028EFD0704D04227A23EA546F4B9847AB
:10A77000E867744D0423774A80212800724EB04761
:10A780000022012124206D4B9847012128006F4BA6
:10A790009847002181239B00624AD150D2E76E4B3B
:10A7A00098476E4B00228121C9005A5008395A50EF
:10A7B0006B495A506B4B9847C4E76D466A4B6A46E3
:10A7C00003CB03C21B88138008A96846674B9847D0
:10A7D0006846674B9847281803226649664B984796
:10A7E00069465048544B9847002830D04E4D0522BA
:10A7F0007A23EA544D4B9847E867574B9847574B95
:10A80000002290468122D20041469950083A995040
:10A81000534A9950534B9847424D584B2A0043CBCB
:10A8200043C21B881380002201212420434B9847F8
:10A8300028004F4B9847010082239B00E8500322D9
:10A8400028004F4B984781239B004246EA50250041
:10A850007CE781239B00334AD358002B0CD07A230A
:10A86000314AD05C431E032B12D9052813D0002196
:10A8700081239B002B4AD1507A232B4AD35C002B97
:10A880001FD1002181239B00264AD150002406E7D6
:10A890003C4B9847F0E782239B00224AD15800297D
:10A8A00005D1002181239B001E4AD150E4E714000A
:10A8B00003222000324B9847002282239B00E25063
:10A8C000EFE7013BD8B2304B984704007A23164A91
:10A8D000D35C042B00D0E2E62C4B1B78012B00D07C
:10A8E000DDE6E4E601212A482A4B984700220021B0
:10A8F0002420124B984700217A230B4AD1540C4B49
:10A90000984705000A4CA047401B6328FBD9134B0E
:10A9100000228121C9005A5008395A5010495A5012
:10A92000C5E6C046D83B002004420020C55A0100BD
:10A93000B55A0100F58E0000451B0200B5E100008C
:10A94000B09A0200901800208914020021A400008F
:10A95000BB420020009B0200D94D0100F43D0020C5
:10A9600004040000814C0100E09A0200511502002D
:10A9700011170200EC9A020071130200F09A020013
:10A9800051A500003DCD0100198F00001C190020C9
:10A99000389B020091A40000FEE7000010B5174AA2
:10A9A000174B9A4211D01A00164B9A420DD2164AF2
:10A9B00003339B1A9B0801339B00002210480F4968
:10A9C0008C58845004329A42FAD1104A104B9A4261
:10A9D0000AD2D3430E495B1803218B4304339B18DF
:10A9E000002102C29342FCD10A4AFF210A4B8B4349
:10A9F00093600A4B98470A4B9847FEE75CFB0200BE
:10AA000000000020E80B002004000020F00B0020D4
:10AA1000F458002000ED00E000800000F112020078
:10AA2000311B0100F0B5DE4657464E464546E0B5BF
:10AA30007C4A936901218A460B4393618223DB059B
:10AA4000D327DA5D8A43DA55D2269A5D8A439A552E
:10AA500084228021090399508021C90299508220C3
:10AA60004000802292031A50802252031A50802202
:10AA700012031A501950802292021A508022520258
:10AA80001A50DA5D02210A43DA559A5D0A439A5553
:10AA90005622FF329A5C0A435624FF341A55AA22E2
:10AAA00052009A5C0A43013C1A555422FF329A5CC8
:10AAB0000A435424FF341A55A922520091469A5C45
:10AAC0000A434C461A555222FF3290469A5C0A437A
:10AAD00044461A55A822520094469A5C0A4364469A
:10AAE0001A55DA5D934604225C461443DC559F5D9B
:10AAF00017439F555624FF341E5D16431E55013CD7
:10AB00001E5D16431E555424FF341E5D16431E550C
:10AB10004C461E5D16431E5544461E5D16431E558B
:10AB200064461E5D16431E559826802424039C51BE
:10AB30008024E4029C5180368024A4039C5180240C
:10AB400064039C51802424039C518024E4029C5182
:10AB50008024A4029C51802464029C5180242401FE
:10AB6000A0461C504C27FF37DC5D5546AC43DC55F6
:10AB7000DC5DA4464024A14664464D462C43DC558A
:10AB8000DC5D0C43DC55DC5D1443DC5544469C51D4
:10AB90008024A400A0461C504A27FF37DC5D5546A0
:10ABA000AC43DC55DC5DA4464C4665462C43DC5585
:10ABB000DC5D0C43DC55DC5D1443DC5544469C51A4
:10ABC00080246404A0461C500F37DC5D0C43DC5528
:10ABD000DC5D1443DC5544469C518024A4041C5085
:10ABE0005A20FF301F5C39431954195C0A431A5428
:10ABF0009C51802212039A605A618022D2029A608C
:10AC00005A6151388021490119508A2252009950C5
:10AC10008021C901195099503CBC90469946A246E2
:10AC2000AB46F0BD00080040032804DD002302000D
:10AC3000083A012A0ED8084A135CDB018221C905B3
:10AC40008C466344196A80001018C3680B40584250
:10AC50004341DBB2180070470000002070B586B099
:10AC600005AB00221A705A7002329A70DA7001AA8B
:10AC7000114B70CB70C21B681360012801DD06B058
:10AC800070BD00290BD105AB1B5C800001AA825866
:10AC9000DB018221C9058C4663445A61EFE705ABAD
:10ACA0001B5C800001AA8258DB018221C9058C4609
:10ACB00063449A61E3E7C0464C9B0200F8B5DE4668
:10ACC00057464E464546E0B5194B98460024194B69
:10ACD0009946194B9A46194F10E0194B1A5D93008B
:10ACE0009B185B00DA5D01218A431543DD55002383
:10ACF000424608C2904601340C2C12D0E6B2300015
:10AD0000C847834605006B1E9D41EDB2072CE4D871
:10AD10003000D0470028E0D05D466B425D41EDB287
:10AD2000DBE73CBC90469946A246AB46F8BDC04620
:10AD30001442002029AC0000418B0000881A00203A
:10AD400018A10200F0B5DE4657464E464546E0B52E
:10AD500089B0894B9847894BDB6AC01A182806D8F6
:10AD600009B03CBC90469946A246AB46F0BD844D26
:10AD7000AC69A406A40EFA27BF007C437E4EB04700
:10AD80003900804B98470C1906AB5C70240A9C7004
:10AD9000AA691205920EDA70AA69D203D20E1A714C
:10ADA000AA699202D20E5A71AA699201120F9A717F
:10ADB000AA69920EDA710C221A70B0476F4BD862F2
:10ADC000714D724E0024724B994674E04046714BAF
:10ADD0009847002802D07B427B419B460494200088
:10ADE0006D4B9847002860D16C4B1A5D93009B18FF
:10ADF0005B006B4A9B5CDB07DF0F5F4500D197E090
:10AE0000032C49DC5B46002B23D0049F3800654BA4
:10AE10009847002818D03800634B984700280ED078
:10AE20004046624B984782463378002B01D02F6B07
:10AE300036E001333370504B98472863F7E75C4B9B
:10AE4000984782462F682BE0594B984782462F68D7
:10AE500026E00498534B9847002804D0544B984759
:10AE600082462F681CE004984F4B984700280ED06C
:10AE700040464E4B984782463378002B01D02F6BCB
:10AE80000EE0013333703C4B98472863F7E7484B9B
:10AE9000984782462F6803E0454B984782462F6BC0
:10AEA000354B9847C01B824516D90134043501360D
:10AEB0000C2C00D154E7E3B298461800C8470700AD
:10AEC0000200531E9A419346032C00DC7EE72300C8
:10AED000083B012BE9D881E7304B049A9B5C9846EC
:10AEE0005B466A46D375D17D06AA4046314B9847EA
:10AEF00043469B0043445B00294A9B5CDB07DB0F16
:10AF00009B461D4B9847049A531C52460292C01B05
:10AF100001905A460092284A80212848284FB84775
:10AF2000154B9847286001212448264B9847BCE7D9
:10AF3000072C08DC04981B4B984700280FD0002FE3
:10AF400005D0002333700C4B98472860ADE7049878
:10AF50001D4B98470028F6D000233370F3E7002FED
:10AF600002D100233370EEE70498174B984700286E
:10AF7000E9D000233370E6E7B55A0100E042002033
:10AF800000240040D504020014420020901200204A
:10AF900029AC0000418B0000B58E000018A1020012
:10AFA000881A0020CD8C00008D8C0000618C000080
:10AFB000618B0000B5E100005C9B0200901800204E
:10AFC0008914020021A40000AD8C000010B504001B
:10AFD000064B98470023002806D0054A3134240147
:10AFE000A358002003495054180010BDB58E00002E
:10AFF000881A0020C815000070B582B0314D842237
:10B00000920000212800304B9847002428002F4E42
:10B010002F4DC4239B00E318F158A8471034802C0F
:10B02000F7D10024294E2A4DC3239B00E318F15881
:10B03000A8471034802CF7D10024244E244D9223AD
:10B040009B00E318F158A8473834E02CF7D10024CE
:10B050001E4E1F4D92239B00E3189B195968A84769
:10B060003834E02CF6D10024184E194D8C239B0067
:10B07000E318F158A8473834E02CF7D100236A468A
:10B08000137053704433134AD25C13019B1A5B0054
:10B090006A469370104A9369DB03DB0E6946CB70F6
:10B0A00093699B02DB0E0B7193699B011B0F4B7124
:10B0B00093699B0E6A468B7140210248074B984763
:10B0C00002B070BDE6120020F5130200881A0020BD
:10B0D00017010200E04200200024004031D50100A9
:10B0E00010B5084B1900803100225A601A601033E5
:10B0F0008B42FAD10021044B044AD154044B9847A7
:10B1000010BDC046941D0020C8150000881A0020FC
:10B11000F9AF0000F0B5DE4657464E464546E0B56D
:10B1200083B0CB4B9847CB4B9B68C01A092806D8F5
:10B1300003B03CBC90469946A246AB46F0BDC44B1A
:10B140009847C4498860C44EEA24A400325D7F2336
:10B150001A40012082433255EE229200B45C234013
:10B160008343B3540C2398468844E3239B009C46B6
:10B170006644162399460024B74B9B464D46E9E0AA
:10B18000B64A2B000E3BD25C93009B185B00B24A80
:10B190009F5CFF07FF0FB24B98473368C01A7828AF
:10B1A0003AD8009B1A01AC4B9B18E22292009446BD
:10B1B00063441B78DB07DB0F9F4273D0002B48D022
:10B1C00001214846A74B9847A14B98477060C2465B
:10B1D00043461B68002B31D053461B68013352464F
:10B1E0001360642B00D8ACE0009B1A019A4B9B18AB
:10B1F000E2229200944663441A7801218A431100A6
:10B200007F220A401A700023524613600022002158
:10B210002800954B984794E0009B1A018E4B9B1891
:10B22000E22292009446634419787F220A401A7001
:10B230000022002128008C4B984782E003008B4AB3
:10B2400040218B488B4FB847012189488A4B98474A
:10B25000C2E700214846834B984747463B68002B8E
:10B260001BD03B6801333B60642B6AD9009B1A01F9
:10B27000794B9B18E2229200944663441A7801218C
:10B280008A4311007F220A401A7000233B6000228B
:10B2900000212800744B984753E001217748784BF0
:10B2A0009847DEE7009B1A016B4B9B18E222920045
:10B2B0009446634419787F220A401A7041E0484658
:10B2C000704B98470700624B9847BB00DB195B0047
:10B2D0007268801A834234D2009B1A015E4B9B181D
:10B2E000E2229200944663441A7801218A431100B5
:10B2F000802252420A431A70594B98473060544B8F
:10B3000098477368C31A604A40215948594FB84753
:10B3100001215748584B984713E04846594B9847E6
:10B3200007004B4B98477368C01A87426ED3484654
:10B33000544B984707004846544B9847002800D084
:10B34000A6E0013404239C46E04401351036022C6B
:10B3500000D1C5E0E3B29946009423015B44E222A8
:10B360009200944663441B78DB0900D008E7230170
:10B37000394A94466344E2229200944663441B781F
:10B38000DB07DED5009B1B01334A94466344E2226F
:10B390009200944663441B789B06DB0EDAB2012AC6
:10B3A000BBD0002AC3D0022A89D0032AC9D0019673
:10B3B00037894846354B98470028C2D0244B9847D8
:10B3C0007368C01AB842BCD9009B1B01224AD3182B
:10B3D000E2229200944663441A7801218A431100C4
:10B3E000802252420A431A701D4B9847019F3860D1
:10B3F000174B98477B68C31A234A40211C481D4FAE
:10B40000B84701211A481C4B98479AE7009B1A013C
:10B41000114B9B18E2229200944663441A78012152
:10B420008A431100802252420A431A700C4B9847FB
:10B430003060074B98477368C31A134A40210C4881
:10B440000C4FB84701210A480B4B98476FE7C0469D
:10B45000B55A010090120020881A002018A102009D
:10B46000C55A01005DAC0000B5E10000789B020008
:10B47000901800208914020021A40000909B020073
:10B4800091A400007D8B0000A49B0200658B00004E
:10B490007E4B98477368C01A874200D351E7009BE0
:10B4A0001A017B4B9B18E2229200944663441A785F
:10B4B00001218A431100802252420A431A70754BBF
:10B4C00098473060714B98477368C31A724A40219D
:10B4D0007248734FB84701217048724B984730E764
:10B4E0008833714AD3581B073DD48C236E4AD358F6
:10B4F000DB0645D48C236C4AD3585B0761D48C237C
:10B50000694AD3585B0569D48C23674AD3581B0515
:10B510006FD48C23644AD3585B047BD48C23624A57
:10B52000D3581B0400D582E08C235F4AD3581B06F6
:10B5300000D589E08C235C4AD3589B0400D591E068
:10B540008C23594AD3589B0500D4F1E50121574873
:10B55000574B984754498C22564B885803408B5080
:10B56000554B9847E4E500215448514B98474E49C4
:10B570008C220823885898438850514B9847B4E749
:10B58000002150484A4B9847474B8C21102258586D
:10B590009043585070229A5AF023DB001A42A9D0E7
:10B5A000414A7020135A48491940C0235B000B439D
:10B5B000135270321B0A78218B435370434B9847C8
:10B5C00098E7002142483A4B984737498C22042398
:10B5D0008858984388503F4B984790E701213E4850
:10B5E000334B984730498C223C4B885803408B5052
:10B5F0008AE701213A482E4B98472B498C22394B38
:10B60000885803408B50384B9847384B9847384BF5
:10B6100098477EE701213748254B984722498C22DD
:10B62000354B885803408B50344B984776E70121BF
:10B6300033481F4B98471C498C22324B8858034093
:10B640008B50314B98476FE701213048184B984792
:10B6500015498C22802388589843885000202C4B11
:10B66000984767E701212B48114B98470E498C22D8
:10B67000294B885803408B50284B984780229200D2
:10B6800027490020274B98475AE7C046B55A010082
:10B69000881A0020C55A0100A49B020090180020BF
:10B6A0008914020021A4000004420020789C0200BA
:10B6B00091A40000FFFDFFFFE9DA0100BC9B02003E
:10B6C000A9930000D49B02007FF8FFFFDDBB0100BF
:10B6D000EC9B020025020200FC9B0200FFFBFFFF27
:10B6E000109C0200FFF7FFFF95D10000DDCA0000AB
:10B6F00019D80000209C0200FFBFFFFFE1B000004E
:10B70000309C0200FF7FFFFF5D990000449C020017
:10B710007DE40000549C0200FFDFFFFFE5D1010043
:10B72000F814002009D20100F0B5DE4657464E4617
:10B730004546E0B583B08422920034490120344B61
:10B740009847002805D00024304F324E324B98469F
:10B750000EE001213148324B9847324B19008031BD
:10B7600000225A601A6010338B42FAD147E02F0052
:10B770003800B047C4239B00E3184246D0503D1D1B
:10B780001034802CF3D1274E2437224B984600E00A
:10B7900025002800C04730602C1D1036BC42F7D170
:10B7A000214E14239B46AB441A4F0023984600E0D9
:10B7B0002C002000B847306043467360251D3836A2
:10B7C0005D45F5D1194E1434124B9A46184B9946E3
:10B7D0002800D047019000230093326973690098D4
:10B7E000019912184B41326173610435C8473060CA
:10B7F0003836AC42ECD101210E48094B984703B0D2
:10B800003CBC90469946A246AB46F0BDF8140020D9
:10B8100009D2010003010200881A0020989C02004E
:10B8200091A40000941D0020D01C0020C01C00200A
:10B83000B55A0100B49C020010B51D4A136980205E
:10B84000034313611B4B1A8802218A431A801A880A
:10B8500001210A431A80184A5A63184A9A631988C0
:10B86000802252000A431A801988802292000A43DB
:10B870001A8019888022D2000A431A8019888022EF
:10B8800012010A431A801A8804218A431A801A88EE
:10B8900002210A431A800A4AC124A40013591B0238
:10B8A0001B0A802109060B431351106010BDC046CE
:10B8B0000008004000600041D01700201017002051
:10B8C00000E100E01F4B5B6A9B0710D51D4A3F213A
:10B8D000535C0F2083430120034353540F31535CC7
:10B8E0000220034353540021174B184AD150154BE3
:10B8F0005B6A5B070FD5134A3F21535C0F208343DC
:10B900000220034353540F31535C0343535400212B
:10B910000F4B0E4AD1500B4B5B6A1B0710D5094ADF
:10B920003F21535C0F2083430320034353540F31C3
:10B93000535C0220034353540021064B034AD15069
:10B940007047C046006000413C1A0000881A002081
:10B95000CC1C00005C1F000010B5042319680023F4
:10B960001868014B984710BDD55A0100F0B5C6467E
:10B9700000B5C2B084235B006A4600215748584C8A
:10B98000A0476E46F21DFF326C4600252378ED1865
:10B9900001349442FAD1534B1B78002B03D042B0B0
:10B9A00004BC9046F0BD0733FF336A46D35C98462B
:10B9B0000823FF33D75C00214B484C4B9847434644
:10B9C0001B02FF18BD4204D000214948474B98474D
:10B9D000E5E700214748454B98476B461B781B021B
:10B9E0006A465578ED18444B9847854221D000218E
:10B9F00042483E4B98476B461B7A0133DBB26A469E
:10BA00001372022B66DC002332789B180136A642A3
:10BA1000FAD1190A83225200684681540822FF3263
:10BA20006946835401323648364B9847364B98471F
:10BA3000B5E7002135482D4B98476B469B781B0294
:10BA40006A46D578ED18324B9847854221D06B462F
:10BA50001B7A0133DBB26A461372022B32DC0023FD
:10BA600032789B180136A642FAD1190A8322520075
:10BA7000684681540822FF326946835401322048C7
:10BA8000204B984700212348184B98471E4B984756
:10BA900085E700212048154B984710481F4B9847D1
:10BAA000C024E4001D4F1E4E80252D012000B84704
:10BAB000B0470134A4B2AC42F8D1002119480B4B75
:10BAC00098476CE700211848084B98470348134BE8
:10BAD000984764E70148114B984760E7FF0500006D
:10BAE000599F00001C190020009D020091A4000035
:10BAF000949D02001C9D02003D8E0000889D020066
:10BB0000F05D0C00B5A0000059B900002C9D0200AA
:10BB1000558C0000589D02003C9D020035A000009D
:10BB20009D030200489D0200689D020010B50400BC
:10BB3000022303700023437048228270C370293AA5
:10BB400002714371743383710D4B98470023C15CBC
:10BB5000E218D17101330F2BF9D1230020001630E8
:10BB600000221978521801338342FAD1130AA375BF
:10BB7000E27501210348044B9847182010BDC046C8
:10BB80003D890000AC9D020091A40000F8B5DE469E
:10BB9000474680B58046040001000B3103000026B3
:10BBA0001A78B61801338B42FAD14346DB7A1B026E
:10BBB0004246127B93469B4447460D37424D2278BE
:10BBC00042494348A84700214148424B9847013425
:10BBD000BC42F4D100214048404B98475E4508D014
:10BBE00001213F483D4B984700200CBC90469B46A6
:10BBF000F8BD43465B781B02424692789B18394A4F
:10BC00001360482B05D001213748344B984700205A
:10BC1000EBE74346DB781B02414609795B189360EA
:10BC200043465B791B02414689795B185360434662
:10BC3000DB791B024146097A5B18D36043465B7A85
:10BC40001B024146897A5B18136101212748234B67
:10BC50009847274B9B78002B05D10022244B9A80D4
:10BC6000204BD868C1E7012122481C4B9847204B44
:10BC7000DB891C4A92689A4203D000221C4B9A70BE
:10BC8000EBE701211C48154B9847194B1B89154AB6
:10BC900052689A42F1D101211848104B9847144B31
:10BCA0001B8A104AD2689A42E7D1114C6389A3805B
:10BCB00001211348094B984702236370114B9847A1
:10BCC0006061084BD86890E70D150200BC9D02002A
:10BCD0009018002021A40000D8DE020091A40000EA
:10BCE000189E0200A4120020049E0200C49D0200BF
:10BCF0001C190020E09D02002C9D02003C9D0200CA
:10BD0000F09D0200C55A010070B50A0001230370BE
:10BD10000023437048338370134B99680C0AC47036
:10BD200001715B68190A41718371130AC371027250
:10BD30000E4BDB88191241728372030006000B362A
:10BD400000241D7864190133B342FAD1230AC37267
:10BD50000473074C07492000074B98470121200036
:10BD6000064B984770BDC046A41200201C19002045
:10BD700090180020389E02000D15020021A400003A
:10BD800070B5CCB01D4A557A01AB1D70107A587051
:10BD900054799C701179D970D268013A160A1E71D3
:10BDA0005A7103229A71023ADA7100221A725D7294
:10BDB0009872DC7219730D2301A90732FF325B54AC
:10BDC00001339342FBD101AB85204000684400223F
:10BDD0001978521801338342FAD101AB100A83213A
:10BDE000490058540821FF315A5484225200190046
:10BDF0000348044B98474CB070BDC046A4120020C5
:10BE0000F05D0C00B5A00000F0B5D646474680B501
:10BE1000CFB005000F00544C0A0054492000544B89
:10BE2000984700212000534B9847B91E002926D07F
:10BE30002B00681800241A78A41801338342FAD121
:10BE40006B5C1B02EA19013A127890469844A045AF
:10BE500017D001214848494B9847434D0097434626
:10BE6000220047492800424CA04700212800414BAE
:10BE7000984700204FB00CBC90469A46F0BD0C008D
:10BE8000DEE70B2F51D0EE7936022B7A9E19EB7A32
:10BE90001B022A7B92469A4452463A493248344B16
:10BEA000984701213048334B98475346002B45D0E3
:10BEB00080235B009A45CCD803AB5246120A1A7114
:10BEC00052465A7129000D315246122068442E4BB9
:10BED00098475346FF2B3CD92C4A916803AB080A7C
:10BEE000187059705268110A9970DA7089204000F0
:10BEF000684400221978521801338342FAD103AB07
:10BF0000100A8321490058540821FF315A54700106
:10BF100080190001C6231B039C4660448422520002
:10BF200003A91B4B98470120A4E72B78042BAAD127
:10BF300001211848114B984703209BE7012116481F
:10BF40000E4B98470136114BDE60144B9847022088
:10BF500090E780225200D21A4EA850442738FF386A
:10BF600000210F4B9847B7E7901800204C9E020025
:10BF70000D15020021A40000A09E020091A4000063
:10BF8000B89E0200709E020071130200A4120020ED
:10BF9000B5A000005C9E02008C9E020081BD0000E6
:10BFA000F513020010B503230370002343704833D8
:10BFB00083700F4B9A68110AC17002715A68110A96
:10BFC00041718271DB681A0AC271037203000400B6
:10BFD00009340022197852180133A342FAD1130A06
:10BFE0004372827200210348034B984710BDC0463C
:10BFF000A4120020D89E020091A4000010B50C4BA2
:10C000009B88002B00D110BD01210A480A4B98479C
:10C01000074B01229A70094A9188198199885981A0
:10C020001189D981118A9981D2681A82EBE7C046B9
:10C030001C190020F09E020091A40000A412002010
:10C04000F8B50C0016001D00002807D1C64B5A7821
:10C050000C2A0ED89300C54AD3589F46C24B0022E3
:10C060005A701A7000231800F8BD01290CD002295B
:10C0700021D0BD4B1A780223002AF4D10121BC48FB
:10C08000BC4B98470023EEE7BB4B9847B64B9B69E8
:10C09000C01AFA22520002239042E4D90698B74B04
:10C0A0009847079B1860B04C01236370B44B9847C6
:10C0B00060610323D7E7B04B9847AB4B9B69C01A2D
:10C0C000FA22920002239042CDD90698AB4B9847B2
:10C0D000079B1860A44C01236370A94B98476061CB
:10C0E0000323C0E7012926D0022902D00223002819
:10C0F000B9D00D2D2BD00B2D4DD0022C53D00F22AB
:10C10000A04B9A619E4B9847974B5B69C01A9D4B19
:10C110009A6902239042A6D9934C002525700121EB
:10C120009948944EB04701219848B047984B98479A
:10C130006570002397E786239B00964AD7588E4B5D
:10C140009847C71BFA20B84280414042CEE73000F2
:10C15000914B984783B2844AD380002B04D10022AC
:10C16000814B1A7000237EE7864C0004020C8B4D35
:10C1700023698B4928008B4EB047012128008A4B48
:10C1800098470222784B5A70002323758748884BC2
:10C190009847032367E73378042BAED10422724B10
:10C1A0005A7002235FE77822764B9A61AAE7754AB4
:10C1B000137D0133DBB21375052B0FDC6A4CE2886B
:10C1C000A18806987B4B9847032363706C4B984774
:10C1D00060610D23079A13600A3B44E76C4B984754
:10C1E00001217548634EB0475F4C00252570012141
:10C1F0007248B0476570002335E7012202291ED13D
:10C200000223002A00D12EE7002D4CD002332A0051
:10C210009A430B2A1FD01023FF339D421BD05F4C43
:10C220002B00674A80212000664DA847012120008D
:10C230005D4B984702224C4B5A70022313E786232A
:10C240009B00544AD7584C4B9847C01BFA22824255
:10C2500092415242D4E7290030005B4B98470128B5
:10C260000CD0002805D0022813D0032816D00223B2
:10C27000F9E602223C4B5A700323F4E63A4B0222C1
:10C280005A709A8801329A8000223E4B1A75032315
:10C29000E9E60422344B5A700323E4E60B22324BC6
:10C2A0005A700323DFE6012C11D0022C13D0344B3B
:10C2B00098472D4B5B69C01A324B9A690223904212
:10C2C00000D8D0E60222284B5A700223CBE6012286
:10C2D0002C4B9A61EBE70F222A4B9A61E7E706980D
:10C2E0003A4B98470B23079A13601F4C013B63702E
:10C2F000234B984760610223B5E6214B98471A4BC0
:10C300005B69C01A0223032800D8ACE6164B002252
:10C310005A709A701A7001212D48164B98470123C4
:10C32000A1E60698294B98470B23079A13600E4CF9
:10C3300001336370124B98476061022393E6104B00
:10C340009847094B5B69C01A0223032800D88AE684
:10C35000094B9847044B986100221A7001211D482F
:10C36000044B984700237EE61C190020CC9C020059
:10C37000E49F020091A40000B55A01002DBB00000B
:10C38000C55A0100A4120020209F0200349F020021
:10C39000FDBF0000D83B00208DBB0000901800209E
:10C3A000049F02000D15020021A40000FF050000FB
:10C3B00035A0000009BD0000549F02007C9F0200D0
:10C3C000909F02008914020009BE0000A5BF000072
:10C3D000B89F0200D09F0200024B00221A705A70D0
:10C3E0007047C0461C19002070B584B0484B1B78BC
:10C3F0000120002B04D0012B04D0022B2CD00120D3
:10C4000004B070BD00230393424A81239B00D3589C
:10C4100003A901910092012100203F4CA047040094
:10C42000039900290BD1012C0FD0002C0BD0032C29
:10C43000E5D1002181239B00364AD150DFE7354802
:10C44000364B9847EFE70020DAE70423196800230A
:10C450001868334B9847D2E77123324AD25C0733CE
:10C460001340082B0CD0304B9847294B5B69C01AFE
:10C470003C28C4D92D4B98470022254B1A70BEE7A3
:10C480000023039383239B00224AD258002A24D1FD
:10C4900084239B001F4AD358002BE4D1140083252A
:10C4A000AD00535903AA01920094220002210020FA
:10C4B000194EB0470600039A84239B00E2500023E4
:10C4C0006351002A13D1012E1BD0032ECBD10021A2
:10C4D00081239B000F4AD150C5E7154C1549200018
:10C4E000154B984701212000144B9847D0E7104C7A
:10C4F00013492000104B9847012120000F4B98470B
:10C50000E1E70423196800231868054B9847AAE758
:10C510001C190020D83B002041C00000F9A20000F7
:10C52000D55A010004420020C55A0100FDBF000099
:10C5300090180020F89F02000D15020021A40000B1
:10C540001CA00200F0B5DE4657464E464546E0B513
:10C55000644CA544040089461700814206D90B1A91
:10C560000593142B0FDD142305930CE00B1A802286
:10C57000D200944663440593142B01DD14230593E4
:10C58000A14500D19FE0059B002B00DCA7E0002324
:10C590009846079757E01D1B43465B19DBB2984648
:10C5A000514E4B4602930194059B00932B004F4A3A
:10C5B000802130004E4FB847012130004D4B984745
:10C5C00053465E015644360133004B4A9446634459
:10C5D00006938422920008A91800484B9847002D22
:10C5E0001DD00F239B460C3B9A4608A8079F5B462D
:10C5F00023405146194049009B08023352468A4065
:10C600009446C25C6646B2433E008E403243C254FA
:10C61000013D0134A405A40D002DE8D1079717238F
:10C6200004AA9446634416226244062108A8344DA5
:10C63000A847082208A90698324B9847A14544D03C
:10C64000059B984541DA23099A4601331B01A14510
:10C65000A1D91D1B994501D24B461D1B43465B19B1
:10C66000DBB29846204E4B4602930194059B009303
:10C670002B001E4A802130001D4FB8470121300099
:10C680001C4B984753465E015644360133001A4A04
:10C690009446634406938422920008A91800174B1D
:10C6A0009847002D9DD1172304AA9446634416226F
:10C6B0006244062108A8124DA847082208A9069836
:10C6C000104B9847BCE70023984640468D239B00BB
:10C6D0009D443CBC90469946A246AB46F0BD002323
:10C6E0009846F2E7CCFDFFFF9018002004A202005C
:10C6F0008914020021A4000040CE000071A10000B6
:10C7000081880000B5A0000030B5174CA544040096
:10C710000F250D400909480140180001134B9C46A4
:10C720006044842292006946114B9847AB086B44E1
:10C730009B7803210A002A40520013410B4000203D
:10C74000022B03D085239B009D4430BD290184AB7F
:10C750009C466144074B9C46614410222000064BD6
:10C7600098470120EEE7C046ECFDFFFF40CE0000F9
:10C7700071A10000F8FDFFFF71130200054BDA689C
:10C78000501C8005800DD8601B68181A431E984104
:10C79000C0B2704758430020F0B5DE4657464E46BB
:10C7A0004546E0B5B84CA544B84BB94F00249A466D
:10C7B0001D00B94607E001340A3504239C46E144D4
:10C7C0002C2C00D192E0A3001B195B00AF4A9B5CAC
:10C7D0009B07F0D5A3001B195B0052469A5C02210F
:10C7E0008A4351465A544B461B68002B00D141E105
:10C7F00084AA1470A3001B195B00A4495B5CDB07CF
:10C80000DB0F5370002384AAD218E918897891703D
:10C810000133072BF7D19F4B6B449F4A6A440E218B
:10C8200084A89E4EB346B0479D4F3E680F233340C9
:10C83000984633095E01F61836019A4B9C466644C9
:10C840008422920069463000974B9847434618016E
:10C8500088AB9C466044954B9C466044102284A95A
:10C86000934B9847434699080231032342461340AD
:10C870005B00032098406A46525C82430220984045
:10C88000030013436A4653546B46073306320621AE
:10C890006846D8478422920069463000854B984705
:10C8A0003B6801339B059B0D3B60BB680133BB605C
:10C8B0002300814A80218148814EB04700217F4872
:10C8C000804B98478023DB00BA689A4200D072E719
:10C8D00000217D487D4B9847714A536801339B0581
:10C8E0009B0D53609368013B936064E7784B9946D6
:10C8F0002C270026654B9A46684B984608E001367F
:10C900000A239C46E1440137FFB2C02E00D1B1E0BA
:10C91000B3009B195B005344F22292009446634497
:10C920001B789B07EBD5B3009B195B00574A9446D5
:10C930006344F2229200944663441A7802218A43A7
:10C940001A7084AB1F70D207D20F5A7061486844C6
:10C950004A4611789970013201338342F9D14D4B27
:10C960006B444D4A6A440E2184A8C0474C4D2C6844
:10C970000F2323409B4623095C01E4182401494B03
:10C980009C4664448422920069462000464B9847A6
:10C990005B46180188AB9C466044444B9C4660440F
:10C9A000102284A9424B98475B4699080231032321
:10C9B0005A4613405B00032098406A46525C82430B
:10C9C00002209840030013436A4653546B460733D2
:10C9D000063206216846C04784229200694620003C
:10C9E000344B98472B6801339B059B0D2B60AB683C
:10C9F0000133AB6000213848344B98478023DB007B
:10CA0000AA689A4200D07AE700212F482F4B984716
:10CA1000234A536801339B059B0D53609368013B88
:10CA2000936014680F25254023095C01E418240154
:10CA30001C4B9C4664440822694620001A4B9847C8
:10CA4000AA08023203232B405B00032199406B4666
:10CA50009B5C8B4369468B546B4607336A460632B0
:10CA6000062168460D4DA847082269462000114B53
:10CA7000984744E789239B009D443CBC90469946D7
:10CA8000A246AB46F0BDC046DCFDFFFF881A002081
:10CA900024A102001F0200001E0200008188000085
:10CAA0005843002040CE000071A10000E8FDFFFFC8
:10CAB00071130200B5A000002CA202009018002003
:10CAC0008914020021A4000044A2020091A40000E5
:10CAD000521E00201702000060A20200F0B5184CA0
:10CAE000A544184E002500246B461C705D709C7098
:10CAF000DC701C715C7180225200FF2102A8124B75
:10CB000098476B4607336A460632062168460F4F40
:10CB1000B84784229200694630000D4B9847013592
:10CB200084239B009C466644402DDDD1094B0022A6
:10CB30005A601A609A6085239B009D44F0BDC046F0
:10CB4000ECFDFFFF40CE0000F513020081880000DD
:10CB5000B5A0000058430020F0B5DE4657464E46CB
:10CB60004546E0B5CDB00021A448A54B98470CAB95
:10CB70009946A44F0023984600240AADA24B9A463A
:10CB800022E00422122161444846A04B984711E05C
:10CB90000422002148469E4B984723009D4A80214D
:10CBA00049009D489D4EB04700219B489C4B9847AB
:10CBB00001239846013484239B009C466744042348
:10CBC0009C46E144402C30D0082229003800D04750
:10CBD0000E2306AA944663440F22624406212800CD
:10CBE000904EB047AA7906ABDB7B9A42D0D1EA7966
:10CBF0000E2306A98C4663441B789A42C8D16B78F1
:10CC0000A342BED0042200214846814B984723000E
:10CC1000854A802149008048804EB04700217E48E7
:10CC20007F4B984701239846C4E74346002B17D112
:10CC30007E4B00225A601A609A600CAB1878020092
:10CC40004346039304930026002106918B4600255A
:10CC5000002403270793059684462800D94626E03A
:10CC6000734B984700217348654B9847AAE04946A3
:10CC7000002938D0039901290CD106900491079915
:10CC800003910121059105E0012E34D04946012987
:10CC900020D04E4601333B4001309208002B04D196
:10CCA000013406AA18215218125DFF2C26D839002B
:10CCB00011400229E8D00329D9D00029EAD1002E59
:10CCC0000AD0039D012DE5D1069004950391013111
:10CCD0000591DFE70391DDE70690039101210591BE
:10CCE00001260491D6E70690079903910121059149
:10CCF00089460491CEE701210391CBE7059E60466A
:10CD0000002E0FD1049B002B10D047464346002233
:10CD1000059206920021032507970CAE14004246A7
:10CD2000270017E0414B069A1A60EBE7404B984703
:10CD300000214148324B984744E0002A00D003923A
:10CD400001332B4001378008002B01D10131705C89
:10CD5000FF291AD82C000440022C04D0032CECD05C
:10CD6000002CEDD1E9E7002A09D0039C012CE7D182
:10CD700006972200079C039401240594E0E7069798
:10CD80000392049A01240594DAE71700059B002B0F
:10CD90001FD1002A2ED1254A136853601A00D11AD8
:10CDA000224881602149CB601B4C89680191009227
:10CDB000224A802149002000184DA8470021200068
:10CDC000174B98474DB03CBC90469946A246AB469F
:10CDD000F0BD164B069A5A60002FDCD0134A5368F8
:10CDE00012689342DBD98021C9005118C91A0F4833
:10CDF0008160D7E70D4A53681268D0E774A2020039
:10CE000091A4000040CE000071A100007113020047
:10CE1000F5130200A4A20200901800208914020059
:10CE200021A400008188000084A202005843002051
:10CE3000DDCA0000BCA20200D8A20200E8A20200E3
:10CE4000094B9B68834205D8074BDA685A60002279
:10CE50009A607047044A1B1A936053689C4660446A
:10CE60008005800D5060F4E75843002070B51C4BDE
:10CE70009B680020002B1DD0194B1B7CDA071AD5AC
:10CE800000205B0716D5164B5868D968884209D030
:10CE9000144E154D1C000322B047A8476068E16896
:10CEA0008842F8D10E4A137C04218B4303398B430B
:10CEB0001374002070BD0D4B9847094B5B69C31A72
:10CEC0000020032BF6D9064A137C01210B43DBB269
:10CED00002210B43FB210B4013740130EAE7C046EB
:10CEE0005843002045C5000041CE0000C55A01004E
:10CEF000F0B5DE4657464E464546E0B58D4CA54456
:10CF000002908D4DAC69A406A40EFA2189004C4311
:10CF10008A4B98898A4B984789B2091906AB1970D0
:10CF2000090A5970AA691205920E9A70AA69D20369
:10CF3000D20EDA70AA699202D20E1A71AA6992010F
:10CF4000120F5A71AA69920E9A717E4B9B46A823C2
:10CF50005B005B44994600239A4600247A4F33E0F5
:10CF6000072C0BDD794A5346203BD5580135642107
:10CF70005B461868764B9847039034E0E200121B3A
:10CF80005200744B9B181900B931FF3108884A8848
:10CF900012040243C133FF331B785B07DB0F6E497A
:10CFA00050460D58002D02D0002B00D0B2E00134C5
:10CFB00038239C46E3442A3B9C46E1440A3B9C467A
:10CFC000E2440A2C00D1ABE0029B002BC8D0072C16
:10CFD000EDDD5E4A5346203BD55864215B46186818
:10CFE0005B4B98470390002DE1D08CAB1D702A0A53
:10CFF0005A702A0C9A700399D9700A0A1A71082C6F
:10D0000000DD89E04B461A888CAB5A71002306A8D4
:10D010008CAAD218195C91710133072BF8D14F4BB0
:10D0200004AA944663444E4A62440E218CA84D4E95
:10D03000B0473B6898460F2342461A400492434645
:10D040001B095E01F6183601474B9C4633006344CA
:10D050008422920008A905931800444B9847049E27
:10D06000300190AB9C466044414B9C46604410228A
:10D070008CA9404B9847B208023203204346034034
:10D080005B00984004A910268919895C814302201D
:10D09000984003000B4304A9102009188B54172350
:10D0A00004AA9446634416226244062108A82D4E21
:10D0B000B0478422920008A905982F4B98472F4E1D
:10D0C0003B680193039B00932B002D4A802149006C
:10D0D00030002C4DA847002130002B4B98473B686F
:10D0E00001331B051B0D3B60BB680133BB60802215
:10D0F0005201934200D05AE700212448244B98471C
:10D10000114A536801331B051B0D53609368013BA3
:10D1100093604CE7039268E700228CAB5A7175E785
:10D1200091239B009D443CBC90469946A246AB4649
:10D13000F0BDC046BCFDFFFF00240040E0420020DF
:10D14000D5040200F81A002028430020D4A10200D0
:10D15000DD040200881A0020E4A102002F02000072
:10D160002E02000081880000809C010071A1000057
:10D17000E8FDFFFF71130200B5A000009018002029
:10D1800004A302008914020021A4000044A20200AA
:10D1900091A40000F0B5CE46474680B51A4CA54490
:10D1A0001A4E002500246B461C705D709C70DC706C
:10D1B0001C715C7180235B0099461A00FF2102A854
:10D1C000134B98476B4607336A460632062168467A
:10D1D000104FB84784229200694630000E4B9847A2
:10D1E000013584239B009C4666444D45DBD10B4BA7
:10D1F00000225A601A609A6085239B009D440CBCF3
:10D2000090469946F0BDC046ECFDFFFF809C0100B2
:10D21000F513020081880000B5A00000284300201B
:10D22000F0B5DE4657464E464546E0B59D4CA54412
:10D2300000219D489D4B98470CAF9D4C002398467C
:10D2400000260AAD9B4B9A46BB4618E004221221E9
:10D2500061445846984B984706E0042200215846FE
:10D26000964B984701239846013684239B009C46A1
:10D27000644404239C46E344FC339E4225D00822A8
:10D2800029002000D0470E2306AA944663440F22AB
:10D290006244062128008A4FB847AA7906ABDB7B97
:10D2A0009A42DAD1EA790E2306A98C4663441B78A8
:10D2B0009A42D2D16B78B342C8D00422002158469A
:10D2C0007E4B984701239846CEE74346002B18D162
:10D2D0007C4B00225A601A609A600CAB18780200EE
:10D2E0004346039304930021059100248B460026B6
:10D2F00000250327079374498C46069481465846B7
:10D3000026E0724B984700217148684B9847ABE084
:10D310005946002937D0039901290CD1069604916A
:10D32000079903910121059105E0012833D0594661
:10D3300001291FD0584601333B4001369208002B8B
:10D3400004D1013506AA18241219525D654525D865
:10D350003C001440022CE8D0032CD9D0002CEAD198
:10D36000002809D003990129E5D106960491039478
:10D370000591E0E70391DEE706960394012105910C
:10D3800001200491D7E706960799039101210591A1
:10D390008B460491CFE701210391CCE7069C4846D8
:10D3A000059B002B0FD1049B002B0FD04746434613
:10D3B000002205920692002603210797424D340071
:10D3C0004646270019E03F4B1C60ECE73F4B98476F
:10D3D00000214048354B984746E0002E00D0039688
:10D3E00001330B4001378008002B04D1013206A81D
:10D3F00018240019805CAA421AD80C000440022CA0
:10D4000004D0032CE9D0002CEAD1E6E7002E09D0A5
:10D41000039C012CE4D106972600079C0394012469
:10D420000594DDE706970396049E01240594D7E74B
:10D43000059B002B20D1002E2FD1224A1368536068
:10D440001A00D11A1F4881601E49CB60224C89689E
:10D4500001910092214A802149002000204DA847D7
:10D46000002120001F4B98471F4B9D443CBC904619
:10D470009946A246AB46F0BD124B069A5A60002E62
:10D48000DBD0104A536812689342DAD980214901EF
:10D490005118C91A0B488160D6E70A4A53681268C6
:10D4A000CFE7C046CCFBFFFF34A3020091A40000ED
:10D4B000809C010071A1000071130200F5130200AD
:10D4C0008188000028430020FF03000095D1000060
:10D4D00048A3020068A302009018002078A302006D
:10D4E0008914020021A4000034040000094B9B6849
:10D4F000834205D8074BDA685A6000229A60704769
:10D50000044A1B1A936053689C4660440005000D52
:10D510005060F4E728430020054BDA68501C0005F2
:10D52000000DD8601B68181A431E9841C0B270479E
:10D530002843002070B5174CA54405000C000F26A9
:10D540000E400B095801C0180001134B9C46604463
:10D55000842292006946114B9847B3086B449A782D
:10D5600003231C406400E24013400020022B03D040
:10D5700084239B009D4470BD310184AB9C46614473
:10D58000074B9C46614410222800064B9847012017
:10D59000EEE7C046F0FDFFFF809C010071A1000096
:10D5A000F8FDFFFF71130200F0B5DE4657464E4608
:10D5B0004546E0B5644CA544040089461700814205
:10D5C00006D90B1A0593102B0FDD102305930CE0E1
:10D5D0000B1A80225201944663440593102B01DDFF
:10D5E00010230593A14500D19FE0059B002B00DC93
:10D5F000A7E000239846079757E01D1B43465B1999
:10D60000DBB29846514E4B4602930194059B009322
:10D610002B004F4A802130004E4FB8470121300087
:10D620004D4B984753465E015644360133004B4AF2
:10D630009446634406938422920008A91800484B3C
:10D640009847002D1DD00F239B460C3B9A4608A8F7
:10D65000079F5B4623405146194049009B0802330F
:10D6600052468A409446C25C6646B2433E008E40B3
:10D670003243C254013D01342405240D002DE8D16C
:10D680000797172304AA944663441622624406218E
:10D6900008A8344DA847082208A90698324B984795
:10D6A000A14544D0059B984541DA23099A460133A8
:10D6B0001B01A145A1D91D1B994501D24B461D1B3C
:10D6C00043465B19DBB29846204E4B4602930194C9
:10D6D000059B00932B001E4A802130001D4FB84748
:10D6E000012130001C4B984753465E0156443601D9
:10D6F00033001A4A9446634406938422920008A990
:10D700001800174B9847002D9DD1172304AA944663
:10D71000634416226244062108A8124DA847082235
:10D7200008A90698104B9847BCE700239846404646
:10D730008D239B009D443CBC90469946A246AB4637
:10D74000F0BD00239846F2E7CCFDFFFF90180020C3
:10D7500004A202008914020021A40000809C0100A0
:10D7600071A1000081880000B5A00000F0B583B071
:10D77000214B9B680020002B2BD01F4B1B7CDA0712
:10D7800029D500205B0724D51B4A5368D2689342F1
:10D7900017D01A4E1A4D1B4F0092320080212800DC
:10D7A000B84701212800184B9847134C0322E16821
:10D7B0006068164B9847164B98476368E268934237
:10D7C000EAD10D4A137C04218B4303398B43137434
:10D7D000002003B0F0BD0F4B9847074B5B69C31A9D
:10D7E0000020032BF5D9044A137C01210B43FB21B4
:10D7F0000B4013740130ECE728430020A0A3020083
:10D80000901800208914020021A40000A9D500006E
:10D81000EDD40000C55A0100F0B5184CA544184ECF
:10D82000002500246B461C705D709C70DC701C71C0
:10D830005C7180225200FF2102A8124B98476B4670
:10D8400007336A460632062168460F4FB8478422DE
:10D850009200694630000D4B9847013584239B00A8
:10D860009C466644102DDDD1094B00225A601A6097
:10D870009A6085239B009D44F0BDC046ECFDFFFFF0
:10D8800040070400F513020081880000B5A00000E5
:10D8900040430020F0B5DE4657464E464546E0B5CB
:10D8A000A64CA5440021A648A64B98470CAB994628
:10D8B000A54F0023984600240AADA44B9A4622E0C7
:10D8C0000422122161444846A14B984711E00422EA
:10D8D000002148469F4B984723009F4A80214900DA
:10D8E0009E489F4EB04700219C489E4B984701237D
:10D8F0009846013484239B009C46674404239C463D
:10D90000E144102C30D0082229003800D0470E23E3
:10D9100006AA944663440F22624406212800924ED0
:10D92000B047AA7906ABDB7B9A42D0D1EA790E23C5
:10D9300006A98C4663441B789A42C8D16B78A342EF
:10D94000BED0042200214846824B98472300874AD4
:10D95000802149008148824EB04700217F48814B99
:10D96000984701239846C4E74346002B17D1804BC4
:10D9700000225A601A609A600CAB18780200434685
:10D98000039304930026002106918B460025002472
:10D9900003270793059684462800D94626E0754B51
:10D9A000984700217448674B9847A9E049460029E9
:10D9B00038D0039901290CD106900491079903915D
:10D9C0000121059105E0012E34D04946012920D0DE
:10D9D0004E4601333B4001309208002B04D1013404
:10D9E00006AA18215218125D3F2C26D83900114082
:10D9F0000229E8D00329D9D00029EAD1002E0AD083
:10DA0000039D012DE5D10690049503910131059107
:10DA1000DFE70391DDE706900391012105910126DF
:10DA20000491D6E706900799039101210591894653
:10DA30000491CEE701210391CBE7059E6046002EBD
:10DA40000FD1049B002B10D047464346002205927D
:10DA500006920021032507970CAE140042462700CA
:10DA600017E0434B069A1A60EBE7424B98470021B8
:10DA70004248344B984743E0002A00D003920133D8
:10DA80002B4001378008002B01D10131705C3F2908
:10DA90001AD82C000440022C04D0032CECD0002C0B
:10DAA000EDD1E9E7002A09D0039C012CE7D10697C4
:10DAB0002200079C039401240594E0E70697039253
:10DAC000049A01240594DAE71700059B002B20D166
:10DAD000002A2ED1264A136853601A00D11A24480E
