:10800000E068002069A0000065A0000065A00000F5
:108010000000000000000000000000000000000060
:1080200000000000000000000000000065A000004B
:10803000000000000000000065A00000B11B01006E
:10804000AD82000065A000001D0A010065A00000CF
:1080500065A0000065A0000065A0000091A50000DB
:1080600065A00000B9140100292001000D0F0100D6
:108070001D110100DD1101006512010065A0000065
:1080800065A0000065A0000065A0000065A00000DC
:10809000351D01000D1E010065A0000065A0000057
:1080A00065A000008D0601003D06010065A00000EE
:1080B0004107010065A0000065A0000010B5064C56
:1080C0002378002B07D1054B002B02D0044800E099
:1080D00000BF0123237010BDA00B00200000000092
:1080E0002C830200084B10B5002B03D00749084829
:1080F00000E000BF07480368002B00D110BD064B0D
:10810000002BFBD09847F9E700000000A40B0020EB
:108110002C8302002C83020000000000024A137A24
:10812000013313727047C046BC0B0020F0B52E4DD2
:1081300097B0A8472D4C6368C01A022851D9A847A8
:10814000237A60603F2B4CDC294F3B68002B48D1E1
:108150000EAC2000274B9847002842D0264B98476A
:10816000264D0100264B280098472649264E280018
:10817000B047264B20789847214B010006A8984726
:1081800006A92800B04763782149002B00D1214976
:108190002800B047204B9847FA21227AE378657986
:1081A0000492E2791B020392A27989000292A078DC
:1081B000C0181A4B984701902379194A009340211F
:1081C0002B00184C06A8A0470C4C06A90E4B20000B
:1081D0009847154B2000984701213860134B200029
:1081E000984717B0F0BDC046391C0100BC0B0020F9
:1081F000D8180020A1C30000C5900000DC180020A2
:1082000029B10100402E020079AF0100158700005E
:108210004B2E0200522E020085C30000F19D01008A
:108220005A2E0200B1AE010039B10100159C0000C8
:10823000022210B5194B1A48196918249143196183
:10824000196901401961402118690843186158688B
:10825000104358601869A04304001020204318619F
:10826000186902431A610F4B5A691143012259617F
:108270000D4B191DCA67BFF34F8FBFF36F8FC0211E
:10828000C024FF2049005A50A40019598143080016
:108290008021014319511A6010BDC04600180040EA
:1082A000FFFEFFFF0008004000E100E010B5054BB5
:1082B0009A68920705D5022299680A439A60024B90
:1082C000984710BD0018004089A4000073B5B04C59
:1082D000237E022B02DC637E022B42DDAD4B9847EE
:1082E0000325054000D1DAE13822237C1340082B16
:1082F00037D1A94B9847002801D1A84B1884208A70
:108300004005000F06282CD811F05CFD07004A003C
:1083100024017201AC01B5012C00A14B9847A14B7F
:108320001B68C01A03281CD99F4B5B88192B09DDD9
:1083300000229D4B5A80238A9C4A1A40A0239B000E
:1083400013432BE09A4B002098470F23974A034092
:10835000208ADB011040184378232082000A9843CA
:10836000607473BD924B002098470F238F490340E0
:10837000208ADB0108401843F023DB002082002222
:108380001840884B802801D11A7901321A711B7963
:10839000022BE6DD0323E375238A0B402382E0E70B
:1083A000607C4006000F0628DBD811F0F7FC04249F
:1083B00073AFC2C79C0000207E4B98477822637C35
:1083C000794D93431A001023134363747A4C7B4A0C
:1083D0006B88802120007A4EB04700212000794B25
:1083E00098476B88012001336B80774B984777481B
:1083F000774B9847B5E7774B002098470F237822B3
:108400000340607CDB00904318436074724B002093
:108410009847022803DD0022634B1A805A80607C53
:108420004006000F0B289CD811F0AEFC060C9B06F2
:108430000606069B9B101B30002211001000674BA4
:1084400098478EE70022554B1A878AE70022564B41
:10845000DA80637C783293431A00082313436374F1
:108460007FE7514A544DD388802101339BB2D3809A
:1084700028005B4A524EB04700212800514B9847D4
:108480007822637C93431A001823E7E74E4B0220BF
:108490009847F5E74C4B002098470F237821184068
:1084A000637CC2008B4313436374082800D958E7E8
:1084B00011F07EFC0900110057FF3A00150057FF2C
:1084C00057FF57FF1F003822237C0020934323745B
:1084D000444B984745E7002201211000AFE778227E
:1084E000637C93436374238A304A1A40C0235B0041
:1084F00026E7238A2D4A1A40A0239B001343238298
:108500008023A27C5B421343A3742AE7364B98472F
:108510000F2378220340607CDB0090431843607493
:108520001040282800D01CE71D4B98471D4B986031
:1085300017E77822637C93436374FCE6184B9847F3
:10854000184B9B68C01A042800D80AE77822637C7D
:10855000934384E7254B002098470F23134A034099
:10856000208ADB0110401843F023DB0020821840F2
:108570008028EBD080235B00984200D1F1E60A4AC4
:10858000538801335380064B9847064B1860E8E642
:10859000704400205192000041390100E84400205D
:1085A000391C0100C80B0020201A00207FF8FFFFB3
:1085B000CD57010069940100301800206C2E020094
:1085C000B1AE0100159C00007D980100FFFF000086
:1085D000FD8E000089940100519A0100DDC7000062
:1085E0007E2E0200459200001D9A0100FD5B0100F5
:1085F000304B002098470F232F4D1840238AC2018B
:108600002B4013432382032800D8AAE62B4A9388E1
:1086100001339BB29380032B08D900239380238AD4
:108620002B40A025AD001D4325829AE63822237CED
:10863000002093432374224B98477822637C802147
:1086400093436374238A1F4A1D40258200241E4DD4
:108650002300009428001D4EB047210028001C4B29
:10866000984790E7154B5B88012B00DD60E6238A75
:10867000114A134092E603230F4AE375238A1340FD
:1086800047222382134023740024124B1C84124B74
:10869000984720000A4B9847104B984761E60E4BCD
:1086A0009847074B280098477822637C934363746C
:1086B000DDE7C046F55D01007FF8FFFF201A0020CE
:1086C00045920000992E020030180020B1AE010042
:1086D000159C0000E844002005200100F94E01002F
:1086E000F0B5FF25094F00262C00BC46B7B28F42DB
:1086F00008DA875D013667406446E45D6C40044DEE
:10870000ED5DF3E714701D70F0BDC046B32E02009E
:10871000B32F0200024B0001C018024B181870471B
:10872000A2040000D40B0020024B22308000181855
:108730004163704754110020024B2230800018180A
:10874000406B704754110020002310B5044A3432A6
:10875000C45CD11801338C77142BF9D110BDC046FD
:108760005411002010B501000248034B7A3098479D
:1087700010BDC0465411002029B1010001487A30D3
:108780007047C04654110020014866307047C0460B
:108790005411002010B501000248034B6630984781
:1087A00010BDC0465411002029B10100F7B5124B8D
:1087B000002112489847124CB6272600114DFF00A1
:1087C00050365134390028000194330022000E4CF9
:1087D000A047019B29001A78337812020B4E9B1890
:1087E0001B0432000A4C0020EB51A04784203200C9
:1087F00029000001A047F7BD719C0000B3300200C2
:10880000D4110020D40B0020E1860000B405000044
:10881000E1980000F0B591B020220021DA4E6846C0
:10882000B04701256B4608AC2022002120001D80A6
:108830005D809D80DD801D815D81B0473F23238069
:108840005B1963800233A3805B19E380203B2381A3
:10885000123363812900CD4BCD489847CD4C00237E
:108860002100A8310A7823802A430A70A7225200E7
:10887000A15C0D432100A554133AFF3A6280C64A19
:10888000AA310A802100AC310A801900A280E2805E
:108890000133312B0FD1002211000132192A11D0DE
:1088A000A31818003633773001700176FF33A630F5
:1088B00001701970F1E7E2181000ED3247300170D5
:1088C0001170E5E72000B54DB5494830A8472000B4
:1088D000B449EE30A8472000B3497830A8472000BB
:1088E0001F30B249FF30A8472000B1499030A84757
:1088F00020003730AF49FF30A8472000AE4E083087
:108900003100A847200031002830A847200031005E
:10891000AE30A84720003100CE30A847F4233222E1
:108920005B00E25200220233E252F722A34B5200D4
:10893000A352A8210232A3520232A3520232A352FE
:10894000012302273C2003264900625C1A433A4374
:108950008243383802436254C919625CB2431A43F5
:1089600082431536B243625421009622FC319201B3
:108970008A656422CA65F8329446A25C24361A439A
:10898000BA43B24366460243A255AF225200944610
:108990005A3EA25CFF3EB2431A4382431536B243AD
:1089A0006646A255962292014A6664228A6605327C
:1089B000FF329446A25C233E1A43BA43FF3EB243C1
:1089C000664669370243FF37A255E25D663EFF3EC9
:1089D000B2431343182283439343E35596239B01E9
:1089E0000B6764234B67210061444B7807321A40C0
:1089F00020006023A13013434B70FF307049A8471B
:108A00002000704E75303100FF30A84720008330C1
:108A10003100FF30A847200091303100FF30A847D7
:108A2000CF2307225B00E252F8321633E252664A45
:108A30000233E252654A0233E252DD2296219B3B29
:108A4000FF3B5200A35289000432A1523C21023A5A
:108A5000A1520432A3520022B333FF33E2520A215F
:108A600000234C4C9A1C122A04D0D333FF33E1521A
:108A70001300F7E7F122022300265200A352D21876
:108A8000A352CD33FF33E6521833E652504B5149CF
:108A9000E018A847504B5149E018A847504B51499E
:108AA000E018A847504B5149E018A847504B51498E
:108AB000E018A8479622504B5200E2529218023317
:108AC000E252782301274D4AA3524D4AA3524D4A00
:108AD000A352102E1AD10023822519006D000433F1
:108AE000AB422ED10022932511006D000632AA421E
:108AF00030D04548A31818180180C82080001818E5
:108B00000180C92080001B181980EFE733006A46F6
:108B10004A331B017100885AE25C3840BA43024371
:108B2000E25408AA515C3948E25A490002400A431B
:108B3000E252374B3001C01820183649A847013699
:108B4000C7E78920E2188000101801803248121807
:108B50001180C4E78022314B1201B421E25200237C
:108B6000C90063522E4962522E4AA352FA2304329C
:108B70009B00A3522C4AA3522C4AA3522C4AA35224
:108B80002C4B984711B0F0BD1DAE0100719C000048
:108B9000BF300200D40B0020E32E000029B10100F9
:108BA000CD300200D6300200DF300200E930020092
:108BB000F3300200FD30020007310200B80B000064
:108BC00014310200193102000F0F000003100000E1
:108BD0004604000024310200560400002D3102003A
:108BE00066040000363102007604000041310200C4
:108BF000860400004E310200960400009A04000032
:108C00009C0400009E0400002203000001FEFFFF00
:108C1000A20400005731020022020000A205000059
:108C2000A6050000A4050000AA050000AC05000090
:108C3000AE050000AD8700000323F0B589B00793AF
:108C40005F4B98475F4F604A3900604B0020984760
:108C5000B6215F4C5F4B51342200C9005E4D380095
:108C6000A8475C4B22781B7812029B18B622D200D0
:108C7000BA581B04594D0021934200D075E0584862
:108C8000A847584D01222B004E331A802B00453245
:108C90004C331A802B001D3A50331A802B00524C53
:108CA000CC332A3A1A805149514B2000984700236F
:108CB0002E0019003436E05CF218107110000133F8
:108CC0003230017001759177142BF4D100232E00FE
:108CD00019003436F218100001335A306432017032
:108CE00011700A2BF6D12A00C83212682B000292AA
:108CF0002A00C4321268C03501922A68BC3300923F
:108D00001B683C4A80213C4D2000A84701212000DF
:108D10003A4B984700250C236B43FB181A001900A7
:108D20005932FF32126851310492FF318A7855333B
:108D30005207D20F03928A78FF33D206920F029223
:108D40001B682F4A01930B782000DB07DB0F009391
:108D500080212B00284EB047013500212000274BF1
:108D60009847032DD7D109B0F0BD2648A8478420E5
:108D7000154A3900154B00019847B621154B2200C2
:108D8000C9003800144EB047124B22781B781202EB
:108D90009B18B622D200BA581B040021934204D17A
:108DA0001948A847194B98476BE71948A847079BEC
:108DB000013BDBB20793002B00D041E7154BF2E7F4
:108DC000219A0000D40B0020B40500007D9900001A
:108DD000D411002024120020E1860000719C0000C4
:108DE0005D3102005411002030180020CF31020004
:108DF00029B10100DB310200B1AE0100159C000079
:108E0000FC3102007531020095310200AD8700008F
:108E1000AE31020015880000054B002805D0A722BE
:108E20005200985CC007C00F7047A8331878F9E764
:108E3000D40B0020074B002807D0A7225200985CD3
:108E4000002905D00007C00F7047A8331878F7E74E
:108E50004007F8E7D40B002003000020012B08DCBA
:108E6000064A117C064AC90704D554335800101825
:108E7000408870475B00D3189888FAE77044002058
:108E8000D40B0020002301280CDC0A4B40011A7C83
:108E900001231A40084B07D01A000021ED3211704F
:108EA000AE301B181800704719000831CA77083017
:108EB000F7E7C04670440020D40B0020DD23024AAF
:108EC0005B00D05A7047C046D40B0020DE23024A14
:108ED0005B00D05A7047C046D40B0020DF23024A03
:108EE0005B00D05A7047C046D40B0020E023024AF2
:108EF0005B00D05A7047C046D40B0020014BCC33E6
:108F00001880704754110020014B18887047C046E4
:108F1000D40B0020014BCC3318887047541100202B
:108F2000DC23034A5B00D05A0005000D7047C046A1
:108F3000D40B0020014B58887047C046D40B00204A
:108F400000487047D40B002000487047B40500006B
:108F500000487047460400000C2343430348C018F0
:108F60005130FF300078C007C00F7047D40B00208D
:108F70000C2343430448C01801235130FF300278CA
:108F8000134303707047C046D40B00200C234343A7
:108F90000348C0185130FF3000788006000F70473A
:108FA000D40B00200C2343430348C0185130FF303A
:108FB00000788007C00F7047D40B00200C23434378
:108FC0000348C0185130FF3080784007C00F704709
:108FD000D40B00200C2343430348C0185130FF300A
:108FE0008078C006800F7047D40B00200C234343C9
:108FF0000248C018FC30806D7047C046D40B00207A
:1090000003000020022B05DC0E305843024B753064
:10901000FF3018187047C046D40B00200200002013
:10902000022A08D8CF2304495B00C85A9E3BFF3B65
:109030009340184010417047D40B002070B51600C3
:1090400003281ADC124C044004D50223013C5B4285
:109050001C430134C20F12185210D2B20D4D6001E0
:109060000D4B002A0AD0AE302818984730000B4B21
:109070009847543464002D19688070BD0830281852
:1090800098473000054B984764002C19A080F4E7FE
:1090900001000080D40B002029B1010001AD0100C6
:1090A0009C207047014834307047C046541100205E
:1090B0000C2343430248C018FC30C06D7047C046C3
:1090C000D40B00200148A130FF307047D40B0020A2
:1090D000014B50331888704754110020002310B5FD
:1090E000064A07483432591C062905D01C0064344E
:1090F000145DC4540B00F6E710BDC04654110020A7
:1091000030180020002310B5064A07483432591C95
:10911000092905D01C005A34145DC4540B00F6E72D
:1091200010BDC046541100203018002037B505008E
:1091300000246B46285DD91D0E4B984722000E4B2C
:109140006432002800D0285D19000134343188547D
:109150000A2CEED11A000021084CA1321170084DE2
:10916000084A983340312000A84701212000064BCF
:10917000984737BD979A01005411002030180020FD
:10918000B1AE010023320200159C000037B5050086
:1091900000246B46285DD91D0E4B984722000E4BCC
:1091A0005A32002800D0285D190001343431885427
:1091B0000A2CEED11A000021084C97321170084D8C
:1091C000084A8E3340312000A84701212000064B79
:1091D000984737BD979A010054110020301800209D
:1091E000B1AE010023320200159C0000014BA233F6
:1091F0001888704754110020014BA2331880704723
:1092000054110020014B4E33188870475411002030
:10921000014B4C331888704754110020054B00282F
:1092200005D0A7225200985C8007C00F7047A83372
:109230001878F9E7D40B0020014BA4331878704755
:1092400054110020014BA4331880704754110020A2
:10925000A722074B5200985CA8331B78C007C00FA9
:10926000DB074000DB0FC018002800D10330704737
:10927000D40B002010B5044B0901C918034B202260
:109280005918034B984710BD46040000D40B00202A
:1092900031B2010092239B00C018024B4000181805
:1092A000C0887047D40B0020044A1300EE33002816
:1092B00001D11300483318007047C046D40B00207A
:1092C000044A13001F33FF33002801D11300783301
:1092D00018007047D40B0020044A13003733FF33C3
:1092E000002801D11300903318007047D40B0020E0
:1092F000034B1888002802D1024BCC3318887047E2
:10930000D40B00205411002002000020302A0BDC76
:1093100006235A43054B9B18C82292009B18DB7901
:109320009A0601D4DB06D80F7047C046D40B002044
:1093300002000020302A0BDC06235A43054B9B1801
:10934000C82292009B18DB79DA0601D49B06D80F5D
:109350007047C046D40B00200023302806DC0633BB
:1093600043430348C018034BC018038818B2704722
:10937000D40B00202A03000003002F280BDC0F4829
:1093800088339B00C318D9880D4A0020914201D030
:10939000D8798009704700205F2BFBDC0622303B28
:1093A0005A43064B9B18074A9A181188044A91425F
:1093B000F0D0C82292009B18EAE7C046D40B0020E8
:1093C000FFFF00002603000003002F2805DC0948EA
:1093D00088339B00C3189879704700205F2BFBDC13
:1093E000303B06305843034B034A1B189B18187830
:1093F000F2E7C046D40B0020260300000300303BF8
:10940000DAB200202F2A09D8063043430448C01896
:10941000C8239B00C018C0790007000F7047C046E2
:10942000D40B002003002F2805DC094888339B005B
:10943000C3181889704700205F2BFBDCCA22303B21
:1094400006305843024B92001B189B181888F1E70E
:10945000D40B00200C23434306483C22C0180F23A2
:109460005130FF300B4001789B009143194301704C
:109470007047C046D40B0020014B18807047C0468F
:10948000D40B002070B5134B134C144DE018144945
:10949000A847144B1449E018A847144B1449E01886
:1094A000A847144B1449E018A847144B1449E01876
:1094B000A8479622134B5200E25292180233E2520E
:1094C0007823114AA352114AA352114AA352114BB5
:1094D000984770BD46040000D40B002029B101005C
:1094E00024310200560400002D3102006604000001
:1094F000333202007604000041310200860400008D
:109500004E310200960400009A0400009C04000002
:109510009E040000AD870000002310B509491A0021
:109520004A321201545CE40706D5525AD205120E93
:10953000824201D118B210BD0133102BEFD10120AE
:109540004042F8E7D40B00206A23024AFF33D05C84
:1095500040097047D40B00200623C8225843074B0C
:1095600092001B189A18D2790120910604D5D206D0
:1095700002D5034A9B1818887047C046D40B0020B8
:109580002A03000082238022DB05D2005A6198332F
:109590001A607047054B1A00197EC907FCD59862FE
:1095A000137E9B07FCD5906AC0B27047000400424E
:1095B00070B505000C00002C07D00020034B984725
:1095C000013C2870A4B20135F5E770BD9595000007
:1095D00070B505000C00002C06D02878034B013C28
:1095E00098470135A4B2F6E770BDC04695950000D6
:1095F000064B10B51870080C5870080A9870D9708E
:109600001800111D024B984710BDC04626120020BD
:10961000D195000010B5064B9847064CD720A047BF
:109620000020A04780228223D200DB059A6110BD72
:10963000859500009595000010B500240A4B9847C9
:10964000030603D40134A4B2292C06D10022272317
:10965000E00FA3425041C0B210BD0022034B5A6339
:109660005A6B012AFCD9E9E715960000E84400206E
:10967000F0B50324FF258BB06B1EDBB2FD2B62D946
:10968000002C61D0324B9847013CE4B2071E4DD00C
:10969000304B9847431EDBB205000890FD2BEBD8FA
:1096A00000213D2608002C4A2E40538905919C46F6
:1096B000938909960793137A0693284B284EB34251
:1096C0000FD01E783700099EB74208D159888C46C2
:1096D000998807919979069101210800059108332D
:1096E000ECE7059E1C4B002E01D066465E810028EB
:1096F00002D06846808B9881002902D06946097E95
:1097000019723F2008995389014003940291117AFC
:10971000144E01919289802100923000124A134F19
:10972000B84700213000124B9847A5E701211148A6
:10973000114B9847114E124B77639847114B726B40
:109740009A42FCD998E7012420000BB0F0BDC04636
:109750003996000015960000261200203E320200C5
:109760009E320200301800209E320200B1AE01008D
:10977000159C0000BF320200719C0000E8440020EC
:10978000619D0100E7030000F8B51F000E4B0500C6
:109790000C0016009847002814D00C4B984729005D
:1097A0000B4B04221B7AD22099400A4B2143984745
:1097B0003000094B39009847802282230120D200D3
:1097C000DB059A61F8BDC04639960000859500001A
:1097D00026120020F1950000B195000070B50C4BE9
:1097E00006000C0015009847002810D0094B984738
:1097F000002231008420084B98472000074B2900A5
:109800009847802282230120D200DB059A6170BD37
:109810003996000085950000F1950000D195000073
:1098200010B50B4B0400984700280FD0094B984700
:109830002100094B00221B7A83209940074B98474F
:10984000802282230120D200DB059A6110BDC04630
:10985000399600008595000026120020F195000041
:1098600010B50B4B0400984700280FD0094B9847C0
:109870002100094B00221B7A81209940074B984711
:10988000802282230120D200DB059A6110BDC046F0
:10989000399600008595000026120020F195000001
:1098A00010B50B4B0400984700280FD0094B984780
:1098B0002100094B00221B7A53209940074B9847FF
:1098C000802282230120D200DB059A6110BDC046B0
:1098D000399600008595000026120020F1950000C1
:1098E000F0B5204B85B05D8902911F4B2900040023
:1098F00017009847290001901C4B2000984701252C
:109900000E00002F02D0002D03D10025280005B045
:10991000F0BD144B5C89A41BBC4200D93C006B46D3
:109920009B8803931800124B9847051EEDD0A2B2F6
:10993000B0B202990F4B98470540EDB2002DE4D02C
:109940000D4B03989847074B054059893019074B31
:109950009847019B0E0001330193029B3F1B1B198B
:109960000293CEE726120020F19D0100FD9E01002A
:10997000A1980000DD97000021980000F7B51A4B70
:1099800001915D89194B290004001600984783B2A4
:10999000009329002000164B984701278DB2002E16
:1099A00020D0002F1ED0104B5C89641BB44200D91C
:1099B0003400A3B22900019A0E4F0098B847A3B211
:1099C000ED18094B07005989A8B2094B9847009830
:1099D000A4B2013083B20093019B8DB21B19019395
:1099E000361BDCE73800FEBD26120020F19D010089
:1099F000FD9E01008997000082238022DB05D200B2
:109A00009A609A61802292009A609A61013AFF3AC4
:109A10009A609A61802212015A605A617047000070
:109A200010B5034B9847034B9847034B984710BD1D
:109A3000F9990000450A01007196000037B5134CF2
:109A4000A047002820D0124B9847C72301A80370D5
:109A5000333B4370143B83701A33C37004210D4BA6
:109A6000984780228223FA25D200DB059A61AD0057
:109A7000A047002807D101210748084B9847280034
:109A8000074B9847F4E701203EBDC04639960000D9
:109A900085950000D1950000D4320200719C000031
:109AA000D99C0100044B10B51B78012B01D0034B4E
:109AB0009847012010BDC046BC180020A911010024
:109AC00010B50F4B9B7E5A1E012A05D9042B15D1C8
:109AD0000C4B1B78012B11D0812280210A4BD20024
:109AE000C9009A585958914208D008495858002836
:109AF00004D101305850985C054B984710BDC046C2
:109B000070440020BC1800206040002004040000C5
:109B1000A59A000070B50A4C0D000A00094B01001F
:109B20002000984780230022DB00E5500125083300
:109B3000E250054B2078E550044B9847280070BD53
:109B40006040002099AD010004040000A91101004B
:109B5000F7B5164B07009B7E0C005A1E012A06D94A
:109B60000020042B1AD1124B1B78012B16D0802514
:109B7000104EED00715963188819AB420FDD6B1A56
:109B80001A00019339000C4B9847019B3000E41AEE
:109B9000F9182200084B984701207451FEBD22009D
:109BA000054B3900984773591C19F5E7704400209C
:109BB000BC1800206040002099AD010010B50F498D
:109BC0000F488B698A6989698089120589068CB07A
:109BD000920E890EDB030290019100922021094A26
:109BE000DB0E04A8084CA047084B04A89847084B74
:109BF000010004A898470CB010BDC04600240040E6
:109C0000E8440020DD320200B1AE010039B10100AC
:109C1000519B000010B50400002901D00D4B98475E
:109C20000D4B200098470D4B01002000984700285D
:109C30000FD00B4B0B4A995800290AD10A49897E4B
:109C4000002906D00121995004329A58985C074B9C
:109C5000984710BDBD9B000039B10100519B000029
:109C6000604000200404000070440020A59A000019
:109C700010B50400002901D00D4B98470D4B200072
:109C800098470D4BC1B22000984700280FD00B4BCE
:109C90000B4A995800290AD10A49897E002906D021
:109CA0000121995004329A58985C074B984710BD8F
:109CB000BD9B000039B10100519B000060400020B5
:109CC0000404000070440020A59A0000202307B57A
:109CD00001AA93700023D3700F33034019000A398F
:109CE00005290DD837335370030919000A3905299E
:109CF00008D83733137000211000034B984707BD75
:109D00003033F0E73033F5E7159C0000F7B5234B0F
:109D100004009B7E0D001700002B18D0FD22033B92
:109D2000134215D11E4E1F4FF359002BFCD1812237
:109D3000D200B35021001C4B2A00300098478023EA
:109D4000DB00F55001233078F351184B9847F7BDED
:109D5000174EB0470190B047019BC01A6328FAD94B
:109D6000812200210E4BD2009950083A99500D4A99
:109D70009950FB0702D50F480F4B98472600331B1D
:109D80009D4204DD30780D4B98470136F7E7BB075D
:109D9000DDD500210A48084B9847D8E770440020D9
:109DA000604000200404000099AD0100A59A000065
:109DB000291C0100F4320200719C0000CD9C0000BF
:109DC000FC32020070B50D4B9847812200240C4BE9
:109DD000D2009C50083A9C500A4A0B4D9C500223DA
:109DE000AB760A4B9847E861094D0A4928000A4BAF
:109DF000984728002100094B984770BDA50F010026
:109E0000604000200404000070440020391C010060
:109E1000301800200533020029B10100159C000014
:109E2000F0B58125734CAD00635993B0002B08D079
:109E3000714B984786239B00E358C01A322800D9FB
:109E400099E000256D4B987EA84204D00138C0B23D
:109E50006B4B98470500694CA37E042B03D1694BDB
:109E60001B78012B1BD0684B9847E369C01AA842A6
:109E700015D901216548664B98470023A3765E4CAF
:109E8000A0470500A047401B6328FBD98121002281
:109E9000604BC9005A5008395A505F495A5013B0A4
:109EA000F0BD5E490AA85E4DA84702A95D4B0AA80D
:109EB00098475D490AA85B4B98470AA92000B0471C
:109EC000002800D193E005234C4EB3764E4B9847C3
:109ED000564BF0619847812200264E4BD2009E508F
:109EE000083A9E504C4A9E50514B98475149200089
:109EF000A847514B2000984782239B00E050010067
:109F00004E4B032220009847019BE6506FE0394CEE
:109F10004B4920004B4B9847002868D00223374D0F
:109F2000AB76394B9847E861474D484A0223802178
:109F30002800474EB047474B01212800984700238F
:109F4000019AA35053E081232A4C9B00E2582B4DE9
:109F5000002A05D0A87E421E032A09D83E4B984706
:109F6000A87E002800D071E781239B00E05068E7BD
:109F70000022E250F4E7002763590195E754FDB24F
:109F8000062FE0D0052FC2D0344B290002A89847F5
:109F900002AB1B78002B2AD0164C2A4E042F80D0FF
:109FA00002A92000B047002821D0144E0135164BDD
:109FB000B57698477B1CF061294A8021244D2248C0
:109FC000A8470025234B01211F489847019BE550D6
:109FD000B37E022B0BDD154B984781220D4BD2002F
:109FE0009D50083A9D500C4A9D50114B984701379F
:109FF000C5E7C046443E0020291C010070440020F3
:10A0000095920000BC180020391C0100903302001A
:10A01000719C0000604000200404000041330200F5
:10A0200029B1010079AF010056330200051101008A
:10A03000A50F01004B33020039B101000D9D000056
:10A04000C34400206DB501003018002059330200D0
:10A05000B1AE0100159C0000517101007592000025
:10A0600011330200FEE700000F48104970B5884226
:10A0700004D000230E4CCA18A2420ED300210D4B6F
:10A080000D4A93420DD3FF210C4B0D4A8B43936035
:10A090000C4B98470C4B9847FEE7C55804331560A6
:10A0A000E9E702C3EDE7C0462C8302000000002070
:10A0B000A00B0020A00B0020DC5800200080000036
:10A0C00000ED00E019AD01004DEE00000121F0B5FA
:10A0D000704A02209369704C0B4393618223DB0525
:10A0E0001A00802108320903D1678021C902D16793
:10A0F0008021F4328903916080214903916080219D
:10A10000090391608021C9029160802189029160D8
:10A11000802149029160604954270978A9260143AA
:10A1200021705E495D4C0978FF370143217056214B
:10A130005624FF31595CFF3401431955AA214900C7
:10A14000595C013C01431955D95D76000143D9554D
:10A15000995D5224014399555221FF31595CFF34D6
:10A1600001431955A8214900595C013C0143195587
:10A17000494909788C46042164460C43A446654647
:10A18000454C2570454C24780C43A4466546434C09
:10A1900025705624FF341C5D0C43A44656246546A6
:10A1A000FF341D55013C1C5D0C43A446AA246546A2
:10A1B00064001D55DC5D0C43DC5552249F5DFF346B
:10A1C0000F439F551E5D01270E431E55013C1D5D2B
:10A1D00080260D431D551C00802598342D032560D5
:10A1E0008025ED0225608024A403D46180246403CB
:10A1F000D46180242403D4618024A402D561D46175
:10A2000080246402D4614C2436019660FF341D5DC5
:10A2100005431D551D5D0D431D55D66180264A24FD
:10A22000B6009660FF341D5DBD431D5540251F5D82
:10A230003D431D551D5D05431D551D5D0D431D55BC
:10A24000D6618026760496600F341D5D05431D554A
:10A250001D5D0D431D5580255A24AD04D661FF3484
:10A2600095601E5D30431855185D014319558021D6
:10A270000903D561996059618021C90299605961CA
:10A2800080235B01D36093618023DB01D360936102
:10A29000F0BDC04600080040D3000041D20000419C
:10A2A0007047000070B5564DA847564C2368C01A39
:10A2B000092800D8A2E0A84708252060524C636A0C
:10A2C0002B4208D0514B002151489847636AAB4359
:10A2D0006362504B98471025636A2B4215D04B4B55
:10A2E00000214D489847F022636AD200AB43636275
:10A2F000238A134209D0494A1A40C0235B00134302
:10A30000782223821B0A934363740425636A2B42D9
:10A3100008D03E4B002142489847636AAB436362D2
:10A32000404B9847636A5B0507D5384B01213E488F
:10A330009847626A3D4B13406362636A1B0517D5F9
:10A3400001213B48314B9847626A3A4B13406362A4
:10A35000394B9847394B9847394B9847394B984771
:10A36000394B98478022394992000120384B984751
:10A37000636A5B0407D5254B012136489847626A1A
:10A38000354B13406362636A1B0409D51F4B0121DF
:10A3900032489847626A324B13406362314B9847A8
:10A3A0008025636A2B4209D02F48184B012198471A
:10A3B000636A0020AB4363622C4B9847636A9B043B
:10A3C0000FD501212A48114B9847626A294B134047
:10A3D0006362294B984780221C49920000201C4B45
:10A3E0009847636A9B0509D5084B01212348984784
:10A3F000626A234B13406362224B984770BDC0468C
:10A40000291C01003412002070440020719C0000BF
:10A41000AB33020015880000C23302007FF8FFFF53
:10A42000D6330200F99B0100DD330200FFFBFFFF82
:10A43000EE330200FFF7FFFF3D9A0000398C000069
:10A4400019BA0000B5B400000DBF00006012002072
:10A45000C9750100FE330200FFBFFFFF0D3402008B
:10A46000FF7FFFFF859400001E340200F5C9000045
:10A470002C340200FFDFFFFFA57501004D34020000
:10A48000FFFDFFFFE57C010007B500216B46197059
:10A4900059700E4B68463C331A780F2353436A4673
:10A4A00093700B4A9369DB03DB0EC37093699B02C5
:10A4B000DB0E037193699B011B0F437193696A461D
:10A4C0009B0E83710348044B984707BDE844002066
:10A4D000002400409214002065780100842210B509
:10A4E000920005490120054B9847002803D1044BF1
:10A4F0009847044B984710BD60120020C9750100B1
:10A50000C1E7000089A40000802110B51B4A13692F
:10A510000B43136102221A4B1888904318800120C4
:10A520001C88204318801748586317489863802078
:10A530001C8840002043188080201C888000204315
:10A54000188080201C88C0002043188080201C8830
:10A5500000012043042418801888A043C1241880D7
:10A560001888A400024380201A80084A0006135964
:10A570001B021B0A03431351116010BD0008004069
:10A580000060004170170020B016002000E100E0DC
:10A590001E4B5A6A920711D50F211D4802788A4333
:10A5A000110001220A43027002221A49087802436C
:10A5B0000A70992200201849520188505A6A52079D
:10A5C0000ED50F21124802788A430D390A430270D2
:10A5D000104A1078014300201170104A0E4988502B
:10A5E0005B6A1B0710D50F2209490B7893431A00A9
:10A5F000032313430B700223064A11780B430021F7
:10A600001370074B044AD1507047C04600600041A8
:10A610003F6000414E600041281A002048190000A8
:10A62000701F000000231B68FFDE00008423F0B5CC
:10A63000C5B05B0002AA00214A484B4CA04700234A
:10A6400083220093520002A9C95C0098013341188B
:10A6500000919342F7D1454B1C78002C63D1FF2623
:10A6600002ABF618337AF77921004148414D019346
:10A67000A847019B3F02DF19009B21003E48BB42D7
:10A680002AD13E48A84702AB1F785B783F02DF190A
:10A690003B4B98472100874247D13A48A84702AB35
:10A6A0009F78DB783F02DF19374B9847874215D1F7
:10A6B00021003648A847C0242A48354E8027B04795
:10A6C000E4003F0120000134B047A4B2314B984769
:10A6D000BC42F7D100213048A84724E002AB1B7AE6
:10A6E00002AA0133DBB21372022B16D88322230095
:10A6F000520002A9C95C013364189342F9D1842243
:10A70000230AF37102A952002448254B347298475A
:10A7100000212448A847244B984721002348A847F4
:10A7200010481B4B984745B0F0BD1E48A84702ABE8
:10A730001B7A02AA0133DBB21372022BF0D88322F8
:10A740002300520002A9C95C013364189342F9D175
:10A750008422230AF371520002A9114B0F4834726C
:10A760009847D8E7FF05000089970000BC18002033
:10A770006D340200719C0000083502009034020024
:10A7800005920000A1340200D1900000B134020013
:10A7900061980000619D0100BE340200F05D0C0074
:10A7A000E1980000D334020025A60000E234020044
:10A7B000022370B50025037044338370453B037159
:10A7C000283383714570C57045710D4B040098475F
:10A7D000415D62190135D1710F2DF9D1210022009F
:10A7E00000231631107801321B189142FAD11A0A4F
:10A7F000E375A27501210348034B9847182070BDEB
:10A800008987000027350200719C0000F7B502001F
:10A8100004000500030000260B3219780133761876
:10A820009342FAD1E37A227B1B02D31800932300D0
:10A830000D330193324F2A783249334B3800984711
:10A84000324B002138009847019B01359D42F1D1E0
:10A8500000212F482F4DA847009B9E424DD1637881
:10A86000A2781B022C4E9B183360462B40D1E37814
:10A8700022791B029B18B3606379A2791B029B1893
:10A880007360E379227A1B029B18F360637AA27AE1
:10A890001B029B18012121483361A847204CA37853
:10A8A000002B22D001211F48A847E389B2689A42B1
:10A8B00019D101211C48A847238972689A4212D1F4
:10A8C00001211A48A847238AF2689A420BD163896A
:10A8D00001211748A380A84702236370154B9847AE
:10A8E0006061F068FEBD0023A3700023A380F8E739
:10A8F00001211148A8470020F4E701210F48F9E79A
:10A90000301800203A35020035AF0100159C0000D8
:10A9100052690200719C000038120020403502008C
:10A92000BC1800204F3502005D3502007035020072
:10A9300080350200391C010095350200B135020056
:10A9400001230A00462170B503700023817013496A
:10A9500043708C684968250A047181710C0A110AD8
:10A96000C1710F494471C5700272C9880C1281729D
:10A970000100447204000B31257801345B19A142B7
:10A98000FAD1084C190AC172037307492000074B1A
:10A99000984701212000064B984770BD38120020CF
:10A9A000BC18002030180020C935020035AF010066
:10A9B000159C000070B51D4DCCB0AB682A7A1C0AFE
:10A9C0006B6801A9180A2B79ED684A70013D2E0ABF
:10A9D0004D7103258D71023DCD718A720025832250
:10A9E000CB700B730D23E4B2C0B20C7088700E7183
:10A9F0000D724C72C8725200CB5401339342FBD19A
:10AA0000002383201A0040008C5C01321B19824213
:10AA1000FAD16A460432180AFF32D07113728422C6
:10AA2000034B5200034898474CB070BD38120020C9
:10AA3000E1980000F05D0C00F0B50500514C0A00F3
:10AA4000D3B00E00504B514920009847504B002185
:10AA50002000984700222B000392B21E591B8A4205
:10AA600005D919780398013341180391F6E7AB5CD7
:10AA7000AA19013A12781B02D3180493049A039B73
:10AA8000934200D06BE00B2E09D12B78042B06D11A
:10AA900040480121404B9847032053B0F0BDE8796E
:10AAA0002B7A0002EC7A1B18287B364F24020419FB
:10AAB00005933A49344B2200380098470121380069
:10AAC000334B9847002C0BD101213548324B984726
:10AAD0000598344B0130D860334B98470220DCE7AF
:10AAE00080277F00BC423AD82900122007AE230AF3
:10AAF000337104ABC0180D3122002C4B7471984790
:10AB0000BC4205D0A01D3A1B30180021284B9847A5
:10AB1000244B9A685B68110A7270F3701A0A00235A
:10AB200031708321B2701A004900B05C01321B18E9
:10AB30008A42FAD10C2204A8FF3212188420190A82
:10AB40001372059B80005843C623D17184221B03D6
:10AB5000C01852003100174B984701209DE7012192
:10AB600015480D4B9847074C049B039A13490096D0
:10AB70002000054DA84720000021054B98470020E4
:10AB80008BE7C0463018002035AF0100DA350200EF
:10AB9000159C0000EA350200719C0000FE350200A1
:10ABA0001836020038120020B5A9000099AD010046
:10ABB0001DAE0100E19800002C360200483602006C
:10ABC0004622032310B582700F4A03709168002358
:10ABD0000C0A01715168D268C47081710C0A110AA3
:10ABE000C17101000272020043704471093114788E
:10ABF00001321B199142FAD11A0A42728372002162
:10AC00000248034B984710BD3812002067360200F7
:10AC1000719C000010B50B4CA388002B10D00A4B80
:10AC200001210A4898470123A370094B9A88228181
:10AC3000A28862811A89E2811A8ADB68A281238252
:10AC400010BDC046BC180020719C00007E3602007A
:10AC500038120020F7B59E4C0191009305006078F2
:10AC60001600089F0C2812D80FF0ACF80D003B001E
:10AC70008A00AA00FD00110011001100110011004E
:10AC8000080119012001012D07D0022D1AD02578C5
:10AC9000002D0AD101218F4816E18F4B9847A369F7
:10ACA000C01AFA235B00984201D8022508E00098F8
:10ACB0008A4B984738606570894B984760610325D7
:10ACC0002800FEBD844B9847A369C01AFA239B0055
:10ACD0009842EAD9814B0098984701233860637005
:10ACE000EAE7012D1ED0022DDFD10D2E26D10198CD
:10ACF0007C4B984785B2E580002D1DD07A4D7B4E68
:10AD000082B22B697A4930007A4FB847300001216E
:10AD1000794B984702236370002378482B75784B52
:10AD20009847CCE78623774A9B00D7586A4B9847C9
:10AD3000C71BFA2FD9D8B8E72570C1E70B2E05D16C
:10AD4000019B1B78042B01D16370AEE7664E0F2385
:10AD5000022D00D17823B361614B98476369C01A13
:10AD6000B3699842A1D9002501216748674E257033
:10AD7000B04701216648B047664B984765709FE72A
:10AD8000594A137D0133DBB21375052B0BD900250E
:10AD9000604B9847012160485C4EB04701215F48F5
:10ADA0002570B047EAE70325E288A18800985C4B4C
:10ADB00098474B4B657098470D2360613B607FE778
:10ADC000022D09D086234F4A9B00D758424B984703
:10ADD000C71BFA2F00D868E7002E0DD1424E012D77
:10ADE0003CD0022D3CD03E4B98476369C01AB369F2
:10ADF000984200D859E72FE0042332009A430B2AE7
:10AE000003D01023FF339E421BD131000198454BE4
:10AE100098470225032800D952E70EF0BFFF02052C
:10AE20000E10022363704AE7022300226370A38896
:10AE30000133A3802C4B1A7541E70423F2E70B235F
:10AE4000F0E72A4D33008021374A2800374EB047BB
:10AE500001212800284B984702258FE7B561C2E7FA
:10AE60000F23B361BFE7324B009898470B233B6039
:10AE7000013B63701A4B9847606116E7184B98477F
:10AE80006369C01A032800D80FE70023012163700B
:10AE9000A370237027481D4B9847012510E7244BCA
:10AEA000009898470B233B600133E2E70C4B98472F
:10AEB0006369C01A032800D8F7E6074B98470025B6
:10AEC0000121A0611B482570104B9847F8E6C04649
:10AED000BC1800203F370200291C0100B1A7000068
:10AEE000391C01000DA80000381200203018002085
:10AEF0009036020035AF0100159C0000FF050000F0
:10AF000061980000443E0020AA360200719C0000B7
:10AF1000BB36020015AC0000E13602000537020026
:10AF200041A9000039AA000016370200B1AE0100A5
:10AF3000C1AB0000CC3602000022024B1A705A70DE
:10AF40007047C046BC180020F0B53D4B85B018785E
:10AF5000002803D0012804D0022820D0012005B009
:10AF6000F0BD00238122374C039303AB0093920082
:10AF70002100354D2300A258A84703990500002958
:10AF800002D02000314B9847012D4FD0281EE6D02B
:10AF9000032DE3D1812300229B00E250DEE77822DB
:10AFA0002B4B5B7C1340082B34D10023039383236A
:10AFB000244C9B00E258002A08D0264D2649274BF6
:10AFC0002800984701212800254B98478427BF0077
:10AFD000E659002E1ED1832203AB0093920023007A
:10AFE000A258194D21000220A8478323039A9B00F1
:10AFF0000500E251E650002A08D0164C1949174BBB
:10B000002000984701212000154B9847012D0DD0B5
:10B01000032D0ED0144B9847094C6369C01A3C2885
:10B020009CD9124B98470023237097E700231B6895
:10B03000FFDE81230021034A9B00D150EAE7C0468E
:10B04000BC180020443E002055AC0000159B0000B9
:10B0500070440020301800205037020035AF010046
:10B06000159C000072370200391C010015AC00006D
:10B07000F0B5364C0B1AA54407928022D2009A18DC
:10B0800004000D000592814200D90593002304932A
:10B09000AC4255D0049B059A934251DA230906939A
:10B0A00001331B011F1BAC4202D29D4200D22F1B59
:10B0B000049B274ADB19DBB20493059B8021009394
:10B0C000244E3B00029501942348B04701212248B9
:10B0D000224B98478422230992005343204A08AE0A
:10B0E0009B18842206931800920031001D4B98474C
:10B0F000002F15D00F2323401900032211404900CF
:10B100008A40944660469B080233F25C01348243D5
:10B110000798A40588400243F254013FA40DE7E7D5
:10B12000172304AA9B18162204A9521808A806215E
:10B130000D4EB047082208A906980C4B9847A7E780
:10B1400004988D239B009D44F0BDC046CCFDFFFFBD
:10B15000CC370200B1AE010030180020159C000071
:10B1600040CE00007D990000E1860000E1980000DB
:10B1700030B58422124C9200A5440F240500080922
:10B180005043104B0C40C01869460F4B98470321A1
:10B190002200A3086B449B780A4052001341002010
:10B1A0000B40022B08D124012100083169441022F0
:10B1B0002800064B9847012085239B009D4430BD05
:10B1C000ECFDFFFF40CE00007D99000099AD01002D
:10B1D000054BDA68501C8005800DD8605B68181A32
:10B1E000431E9841C0B2704758450020F0B5002674
:10B1F000A04CA544092171439F4A8B5C980700D459
:10B2000084E0022083439D488B54B300C358002B35
:10B2100000D12BE104AB1E708B5C04A8DB07DB0FB5
:10B220004370002304A81C18C81810188078013334
:10B23000A070072BF6D104AA08339B180E2204A98C
:10B24000521804A80E218E4CA0470F2584228D4C45
:10B250009200236808A91D401B0953438A4A9B1882
:10B260008422019392001800884B98472B018CAAE6
:10B27000D318874A9B1804AA83CA83C3190013688A
:10B2800010200B600321AA080D406D00A94004ABFB
:10B2900002321B189B5C8B430221A9400B4304A97B
:10B2A00009188B54172304AA9B18162204A95218B4
:10B2B00008A80621724DA847842208A99200754B60
:10B2C000019898472368744D01339B059B0D2360BB
:10B2D000A368724A0133A360802133002800704FB5
:10B2E000B847704B0021280098478023A268DB00F4
:10B2F0009A420BD16C4B00216C489847636801332C
:10B300009B059B0D6360A368013BA3600136092E7A
:10B3100000D06FE7002303960193019B0399564ADF
:10B3200059435018A03083789C0700D498E0022439
:10B33000A3438370DB0704ACDB0F63700023019829
:10B340000930207004A81C18C818A430105C013300
:10B35000A070072BF6D104AA08339B180E2204A96B
:10B36000521804A80E21464CA0470F27842384229C
:10B37000444C9B00266808AD374036095E43424B7B
:10B380002900F318029392001800404B98473B01A4
:10B390008CAAD3183E4A9B1804AA43CA43C3190077
:10B3A0001368BA080B60032319001F407F00B940DF
:10B3B0000232AB5C28008B430221B9400B43AB54F3
:10B3C000172304AA9B18162204A952182C4F0621F1
:10B3D000B84784222900920002982E4FB84723686C
:10B3E000002101339B059B0D2360A3683048013386
:10B3F0002D4EA360B0478023A268DB009A422FD174
:10B4000000212A48B04763680F2601339B059B0D36
:10B410006360A3680822013BA360842324689B0027
:10B42000264024095C43184B2900E4182000174BE0
:10B4300098470323B2081E407600B3400232A95C4D
:10B44000280099431723A95404AA9B18162204A97B
:10B4500052180B4E0621B047082229002000B84799
:10B46000019B01330193C02B00D056E78D239B0035
:10B470009D44F0BDCCFDFFFF281A00208837020054
:10B48000E18600005845002040CE00007D99000074
:10B49000F8FDFFFFE198000030180020F2370200AD
:10B4A000B1AE0100159C0000719C00000A3802003A
:10B4B00023380200F0B580270025164C7F00A544F4
:10B4C0006B4600245D701C709C70DC701C715C719C
:10B4D0003A00FF21104B02A898476B466A46073393
:10B4E0000632062168460D4EB04784208422800033
:10B4F00068430B4B9200C01869460A4B01359847C8
:10B50000402DDDD1084B5C601C609C6085239B0056
:10B510009D44F0BDECFDFFFF1DAE0100E186000083
:10B5200040CE0000E198000058450020F0B500240E
:10B530002700CDB0844B0021844898470CAB029380
:10B54000842080007843824B0AAEC0180822310064
:10B55000804B98470F2306AA9B180E2206A9521863
:10B56000300006217C4DA84706ABB2799B7B9A42FE
:10B570002FD106ABF279DB7B9A422AD17378BB429A
:10B5800016D1122106ABC91804220298734B9847B2
:10B59000029B013704330293402FD1D1002C1FD0DE
:10B5A0006F4B984700216F48674B98474DB0F0BDEF
:10B5B0000026029B6C4C1E603B006C4A80212000E0
:10B5C00049006B4DA847200031006A4B9847012481
:10B5D000DEE70026029B644C1E60674A3B00EDE7F5
:10B5E000664B20001C605C609C600CAB1B782100EB
:10B5F00004930693270026000123029407940394E2
:10B6000005940322069D1540022D13D0032D0AD068
:10B61000002D14D1002E34D0012C10D102940399A6
:10B62000002402980BE0002FF6D13C00039918008B
:10B630001F002AE0012E2AD0012F28D03E0003222D
:10B64000079D01351540039A079501320392069A2A
:10B6500092080692002D05D1059D0CAA0135525D78
:10B6600005950692059DFF2DCBD9002801D0434BAF
:10B670001960029B002B0CD1394B98470299404826
:10B6800092E7340018001E0003990293D7E71C00CC
:10B69000D5E700231F001E001800190003930322A2
:10B6A000049D1540022D34D0032D01D0002D01D171
:10B6B000002B37D10325039A013001322A4003922F
:10B6C000049A92080492039A002A03D101310CAA29
:10B6D000525C0492FF29E2D9284A002F2ED05660EE
:10B6E000002B01D113685360536811688B4220D836
:10B6F000C81A9060D3609268009180211A4C019220
:10B700004900204A20001A4DA84700212000194B6B
:10B710004BE7002B08D0012CCCD1230006000024DD
:10B720001F00C7E71C00C5E71C000600029B01279D
:10B73000C0E78020C0000818C01ADAE7002BD1D07B
:10B7400053681168D4E7C046719C00003738020086
:10B7500040CE00007D990000E186000099AD010017
:10B76000B5B400007C3802003018002047380200D1
:10B77000B1AE0100159C000064380200584500205D
:10B780009738020025750200084B9A68824207D953
:10B79000121A9A605A6880188005800D58607047A8
:10B7A000DA685A6000229A60F9E7C04658450020DE
:10B7B00070B5154CA368002B01D1002011E00125C4
:10B7C000237C2B420ED1114B98476369C01A032882
:10B7D000F3D90223227C28002A43134304229343F3
:10B7E000237470BD5B07E8D56068E168884205D0C6
:10B7F0000322074B9847074B9847F5E7FA22237C2B
:10B8000013402374D9E7C04658450020391C010075
:10B8100071B0000089B70000FA21F0B56C4C6D4B97
:10B82000A5446D4C0790A5698900AD069889AD0EB9
:10B830006A4B4D439847002789B208AB49191970E4
:10B84000090A5970A2691205920E9A70A269D20370
:10B85000D20EDA70A2699202D20E1A71A269920116
:10B86000120F5A71A269920E9A71082F00D1AAE0A4
:10B87000079B002B00D0A4E00A217943584C594D76
:10B8800063181A0058329278B80028585207D20F1D
:10B890000390002800D194E0002A00D191E05033B9
:10B8A0005A889B880AA81B04134304936B461B7B8E
:10B8B0005A310370039B1B0A4370039B1B0C83705C
:10B8C0006B461B7CC370049B1B0A0371635A08AC54
:10B8D0004371079B195DC21801339171072BF9D190
:10B8E00006AA18339B181E2206A952183E4C0E2198
:10B8F000A04784223D4C920025680F262B09534314
:10B900003B4A2E409B1884220EA9069392001800F1
:10B91000384B05969847059B92AA1B01D318364AC7
:10B920009B180AAA43CA43C31900136803220B6079
:10B93000202115406D00AA40059B0EA89E0806AB6D
:10B9400002365B189B5D93430222AA40134306AA6A
:10B9500052189355272306AA9B18262206A9521887
:10B96000214D0621A84784220EA99200234B069858
:10B97000984780212368224D0193049B214A00931C
:10B980004900039B2800204EB047204B002128008F
:10B99000984780222368520101331B051B0D236049
:10B9A000A3680133A36093420BD1194B00211948BE
:10B9B0009847636801331B051B0D6360A368013B57
:10B9C000A360013751E793239B009D44F0BDC0461F
:10B9D000B4FDFFFFE844002000240040FD9E01006C
:10B9E000281A0020AC370200E1860000284500201C
:10B9F000809C01007D990000F8FDFFFFE1980000A8
:10BA000030180020A4380200B1AE0100159C0000DF
:10BA1000719C00000A380200F0B584260025174CFE
:10BA2000B600A5446B46002480225D701C709C709B
:10BA3000DC701C715C715200FF21114B02A8984709
:10BA40006B466A4607330632062168460D4FB847F3
:10BA50003000842268430C4B9200C01869460B4B9F
:10BA60009847802301355B009D42DBD1084B5C6029
:10BA70001C609C6085239B009D44F0BDECFDFFFF96
:10BA80001DAE0100E1860000809C0100E1980000ED
:10BA900028450020F0B5804C804BA54400242700A9
:10BAA00000217F4898470CAB0293842080007843A4
:10BAB0007C4B0AAEC018082231007B4B98470F23FD
:10BAC00006AA9B180E2206A9521830000621774DAF
:10BAD000A84706ABB2799B7B9A4221D106ABF2799B
:10BAE000DB7B9A421CD17378BB4219D1122106AB81
:10BAF000C918042202986E4B9847029B0137043301
:10BB0000029380235B009F42CFD1002C0DD0694B64
:10BB1000984700216848614B9847684B9D44F0BDA9
:10BB20000023029A01241360E7E7654B20001C60A4
:10BB30005C609C600CAB1B7821000493069327008B
:10BB40002600012302940794039405940322069D82
:10BB50001540022D13D0032D0AD0002D14D1002E34
:10BB600036D0012C10D102940399002402980BE0E6
:10BB7000002FF6D13C00039918001F002CE0012E85
:10BB80002CD0012F2AD03E000322079D01351540FD
:10BB9000039A079501320392069A92080692002DA5
:10BBA00005D1059D0CAA0135525D05950692059DAE
:10BBB0002A00444DAA42C9D9002801D0404B19603F
:10BBC000029B002B0CD13B4B984702993E48A2E7C1
:10BBD000340018001E0003990293D5E71C00D3E738
:10BBE00000231F001E001800190003930322049D68
:10BBF0001540022D35D0032D01D0002D01D1002B91
:10BC000038D10325039A013001322A400392049A65
:10BC100092080492039A002A03D101310CAA525CC3
:10BC20000492284DA942E1D9254A002F2ED0566012
:10BC3000002B01D113685360536811688B4220D8E0
:10BC4000C81A9060D3609268009180211F4C0192C5
:10BC500049001F4A20001F4DA847002120001E4B0D
:10BC60005AE7002B08D0012CCBD12300060000247A
:10BC70001F00C6E71C00C4E71C000600029B01274A
:10BC8000BFE7802040010818C01ADAE7002BD1D0A6
:10BC900053681168D4E7C046CCFBFFFF719C0000DD
:10BCA000D3380200809C01007D990000E1860000ED
:10BCB00099AD010019BA0000E63802003404000012
:10BCC00028450020FF03000004390200301800203E
:10BCD00011390200B1AE0100159C0000084B9A68B2
:10BCE000824207D9121A9A605A6880180005000D1E
:10BCF00058607047DA685A6000229A60F9E7C046D7
:10BD000028450020054BDA68501C0005000DD8605E
:10BD10005B68181A431E9841C0B27047284500203E
:10BD200070B58422124C9200A5440F240600080925
:10BD30005043104B0D000C40C01869460E4B9847FD
:10BD40000322A3086B449B7815406D00EB40002054
:10BD50001340022B08D124012100083169440D321F
:10BD60003000064B9847012084239B009D4470BD02
:10BD7000F0FDFFFF809C01007D99000099AD01005E
:10BD8000F0B5364C0B1AA5440792802252019A183E
:10BD900004000D000592814200D90593002304930D
:10BDA000AC4255D0049B059A934251DA230906937D
:10BDB00001331B011F1BAC4202D29D4200D22F1B3C
:10BDC000049B274ADB19DBB20493059B8021009377
:10BDD000244E3B00029501942348B047012122489C
:10BDE000224B98478422230992005343204A08AEED
:10BDF0009B18842206931800920031001D4B98472F
:10BE0000002F15D00F2323401900032211404900B1
:10BE10008A40944660469B080233F25C01348243B8
:10BE20000798240588400243F254013F240DE7E7B8
:10BE3000172304AA9B18162204A9521808A8062141
:10BE40000D4EB047082208A906980C4B9847A7E763
:10BE500004988D239B009D44F0BDC046CCFDFFFFA0
:10BE6000CC370200B1AE010030180020159C000054
:10BE7000809C01007D990000E1860000E1980000AF
:10BE800073B51A4CA368002B01D100200FE00125E7
:10BE9000237C2B420CD1164B98476369C01A0328A8
:10BEA000F3D904222800237C2B439343237476BDCB
:10BEB0005B07EAD56368E268934212D00D4D0092A9
:10BEC00080210D4A28000D4EB047280001210C4B5F
:10BED00098470322E16860680A4B98470A4B9847E5
:10BEE000E8E7FA22237C13402374CEE7284500209C
:10BEF000391C01003018002036390200B1AE0100B3
:10BF0000159C000081BD0000DDBC0000F0B580275D
:10BF10000025164C7F00A5446B4600245D701C7004
:10BF20009C70DC701C715C713A00FF21104B02A800
:10BF300098476B466A4607330632062168460D4E1F
:10BF4000B04784208422800068430B4B9200C018C5
:10BF500069460A4B01359847102DDDD1084B5C60CE
:10BF60001C609C6085239B009D44F0BDECFDFFFFA1
:10BF70001DAE0100E186000040070400E1980000CA
:10BF800040450020F0B5864C864BA5440024270090
:10BF90000021854898470CAB0293842080007843A9
:10BFA000824B0AAEC01808223100814B98470F23FC
:10BFB00006AA9B180E2206A95218300006217D4DB4
:10BFC000A84706ABB2799B7B9A4231D106ABF27996
:10BFD000DB7B9A422CD17378BB4218D1122106AB7D
:10BFE000C91804220298744B9847029B0137043306
:10BFF0000293102FD1D1002C21D0704B98470021F3
:10C000006F48684B984791239B009D44F0BD0026E4
:10C01000029B6C4C1E603B006B4A80212000490053
:10C020006A4DA84720003100694B98470124DCE79E
:10C030000026029B634C1E60664A3B00EDE7664BA0
:10C0400020001C605C609C600CAB1B78210004939A
:10C050000693270026000123029407940394059475
:10C060000322069D1540022D13D0032D0AD0002D6A
:10C0700014D1002E34D0012C10D102940399002445
:10C0800002980BE0002FF6D13C00039918001F0026
:10C090002AE0012E2AD0012F28D03E000322079D3E
:10C0A00001351540039A079501320392069A9208CA
:10C0B0000692002D05D1059D0CAA0135525D05950E
:10C0C0000692059D3F2DCBD9002801D0424B196027
:10C0D000029B002B0CD1394B984702993F4890E7BF
:10C0E000340018001E0003990293D7E71C00D5E71F
:10C0F00000231F001E001800190003930322049D53
:10C100001540022D33D0032D01D0002D01D1002B7D
:10C1100036D10325039A013001322A400392049A52
:10C1200092080492039A002A03D101310CAA525CAE
:10C1300004923F29E2D9284A002F2CD05660002BC8
:10C1400001D113685360536811688B421FD8C81A15
:10C1500090609268009180211A4C01924900204A17
:10C1600020001A4DA84700212000194B4AE7002B58
:10C1700008D0012CCDD12300060000241F00C8E701
:10C180001C00C6E71C000600029B0127C1E7481CF3
:10C19000FF30C01ADCE7002BD3D053681168D6E714
:10C1A000BCFDFFFF719C00009139020040070400B4
:10C1B0007D990000E186000099AD01000DBF0000EF
:10C1C000A63902003018002047380200B1AE010045
:10C1D000159C00006438020040450020043902002C
:10C1E000C13902000023F0B55A4CA54400936B46B8
:10C1F0001878009B092B00D1A8E009255D43564C17
:10C200002B5D1A0700D49EE0082293432B55534B15
:10C210009847431C00D196E002AB18702B5D02AA30
:10C22000DB07DB0F537000230133082B06D05A19AC
:10C23000A218517802A81A185170F5E70F2302AA24
:10C240009B180E2202A9521802A80E21444CA047A6
:10C250000F2784238422434C9B00266806AD374079
:10C2600036095E43404B2900F318019392001800F1
:10C270003E4B98473B018AAAD3183D4A9B1802AA15
:10C2800043CA43C319001368BA080B60032319009B
:10C290001F407F00B9400232AB5C28008B43022173
:10C2A000B9400B43AB54172302AA9B18162202A9CC
:10C2B00052182B4F0621B8478422FF2692002900EE
:10C2C0002C4B0198984723680021013333402360A9
:10C2D000A36829480133294FA360B8478023A26887
:10C2E0005B009A422FD100212548B8476368082295
:10C2F00001331E40A3686660013BA3600F268423C0
:10C3000024689B00264024095C43174B2900E4184D
:10C310002000164B98470323B2081E407600B34016
:10C320000232A95C280099431723A95402AA9B183A
:10C33000162202A952180A4E0621B04708222900E7
:10C3400020000C4B9847009B01334FE78B239B0049
:10C350009D44F0BDD4FDFFFF281A00201995000070
:10C36000E186000040450020400704007D99000060
:10C37000F8FDFFFFE1980000E9390200719C000020
:10C380000A380200054A9368002B05D0013B9360F0
:10C3900053680133DBB253607047C046404500200C
:10C3A000F0B506004248434C4368A5441A090F24DF
:10C3B000029203221C4022400392026893423ED81C
:10C3C0008168D01A814212D0019180213A4D0092A9
:10C3D00049003A4A28003A4FB84701212800394B12
:10C3E000984701213848394B9847394B9847842260
:10C3F000029D92005543374B04A9ED182800364B97
:10C4000098470822A10802AB9B180231585C039B95
:10C4100002005F003A4103231A40022A25D0244B30
:10C42000032A41D0012A3FD000209B68834202D0DA
:10C430002A4B9847002089239B009D44F0BD511C46
:10C440008068FF31C91A8842D1D080211A4D0190ED
:10C4500000924900194A2800194FB84701212800C5
:10C46000184B984701211E48BDE7BB4003430820F5
:10C4700002AA121824015354211804AB591810228F
:10C48000184B300098470F2302AA9B180E2202A9CE
:10C49000521804A80621144CA047082204A9280019
:10C4A000124B98470120C6E798680028C3D0BFE721
:10C4B00040450020DCFDFFFF30180020013A02005B
:10C4C000B1AE0100159C00001D3A0200719C0000F5
:10C4D00085BF0000400704007D99000085C300006F
:10C4E000303A020099AD0100E1860000E1980000B9
:10C4F000812368210D4A5B0110B5D1540C4B64397E
:10C50000D1540C490C4C0868430013550B4C1B0AC2
:10C5100013554B680A4C8B605B001355094C013076
:10C520001B0A0860C8601355062010BD281A002099
:10C530002110000070450020221000002310000090
:10C540002410000025100000002370B5224D1900B2
:10C550002A002B616B61AB611C3299540133102BA3
:10C56000FBD10124022004211C4A1D4E5368D360D4
:10C570007368F360337CA34383438B433374137C2E
:10C58000A34383438B431374164B98472B002C33E0
:10C590005C70154B9847002228632300110010009F
:10C5A000124DA8470022230011001000104DA8478B
:10C5B00000222300110010000E4DA8470022230086
:10C5C00011000D4D1000A84700222300110010009B
:10C5D0000A4CA04770BDC046704500202845002089
:10C5E000584500204D800100391C0100C5E00000C5
:10C5F0002DE7000015E60000EDE4000011E4000066
:10C60000F0B587B006000F000492624D052851D1A5
:10C610000023280019002B611C305A1C112A03D05A
:10C62000C31819701300F8E705235B4A2B775B4B9F
:10C6300097423DD100221A656A460124127C584B6C
:10C640006C611A740023AC61564D019380210294F1
:10C6500000940533544A2800544EB0472100280066
:10C66000534B98474E4E330030331B78002B78D015
:10C670004C4D504A80214D4C2800A04700212800F5
:10C680004B4B98470024320030321278731C94428E
:10C6900000DB7AE01B19DB7F474A80212800434FEB
:10C6A000B847013400212800414B9847A4B2EAE77B
:10C6B0001F65C1E7002B56D04C226C693F492B19EE
:10C6C0001E773F4B3F48CB585A4305928A181218A1
:10C6D0001268062A12D9472E10D130239C463048C2
:10C6E000063A8444634620308446D2B205981A70D4
:10C6F000354BC31859186046344B9847274B264989
:10C70000A2009B188F4231D100221A656A46244B41
:10C71000127C2F481B1901341A74044004D51022CE
:10C72000013C5242144301341A4A93695461591C22
:10C7300010291DDC9161AB691A4F02932B6980218E
:10C74000019300943300184A3800184CA047012187
:10C75000380085E70B001029AED0591CD35CB342DA
:10C76000F8D107B0F0BD2A001C32F6E71F65CDE70F
:10C770001023936113690133034004D51021013B59
:10C7800049420B4301331361D5E701211148124B94
:10C790009847E6E770450020FFFF0000704B00203F
:10C7A000F04B002030180020433A0200B1AE0100E7
:10C7B000159C00007C3A02003A350200281A00203D
:10C7C00098230000EC0E0000F60E000099AD010069
:10C7D0000F00008052690200719C0000F0B585B026
:10C7E00004000291082800D96EE009234343724DEA
:10C7F000029E595DC807C00FB0423BD001200640E1
:10C80000814331435955002A36D011780C2933D150
:10C810005178EB1899709178D970D1781971117994
:10C820005971517999719179D971D27909261A7210
:10C8300002236643AA5D614F1343AB550123604A4F
:10C840000193029BA40000938021A35838005D4A05
:10C850005D4CA047012138005C4B98475C4B9847E2
:10C86000AB195B78DB0705D50823AA5D1343AB55ED
:10C87000584B984705B0F0BDFA27574EBF00B16935
:10C88000564B8906890E794303919847544B3900DA
:10C890009847039BC91809236343EB189970090A49
:10C8A000D970B2691205920E1A71B269D203D20E12
:10C8B0005A71B2699202D20E9A71B2699201120F44
:10C8C000DA71B269920EB1E7C82870D8070009235F
:10C8D000093F7B433849029ECB181800A03081786D
:10C8E000CD07ED0FB542C5D001252E40A9430E431B
:10C8F0008670002A2ED011780C292BD1190050787F
:10C90000A431087090784870D07888701079C87019
:10C910005079087190794871D279AA331A70092335
:10C920005F43254B0125DF190223A037BA78802108
:10C930001343BB702B4B029AE318204C00920195D5
:10C94000294A2000204EB047204B2900200098475C
:10C950001F4B8EE7FA26204DB600A9691F4B8906AA
:10C96000890E7143039198471D4B31009847039BF3
:10C97000114AC91809237B43D3181A00A432117035
:10C98000090A51701900AA69A6311205920E0A709F
:10C99000AA69D203D20E4A70AA699202D20E8A7094
:10C9A000AA699201120FCA70AA69920EB5E7012115
:10C9B0000E480F4B98475DE7281A002030180020DA
:10C9C00088370200893A0200B1AE0100159C0000D0
:10C9D000EDB10000E5C1000000240040291C010069
:10C9E000FD9E0100EF2A0000B03A0200D63A020094
:10C9F000719C0000142210B5030000211000014CAE
:10CA0000A04710BD01C6000070B5204B04005B7844
:10CA1000043B012B20D800231D491A003C201D4D4A
:10CA2000A847002C12D11C4B984780211B4C0300B7
:10CA300049001B4A20001B4DA847012120001A4B2A
:10CA400098471A4B98471A4B586370BD012CF8D180
:10CA500021001848184BF3E7002811D10E4B9847D6
:10CA600080210E4C03004900144A20000D4DA847B8
:10CA7000012120000C4B98470020114B9847E0E71C
:10CA80000128F9D100210F480B4BF4E700000020EA
:10CA9000FFFF000001C60000358F000030180020A5
:10CAA000EB3A0200B1AE0100159C0000391C0100F8
:10CAB000F04B00200E3B0200719C00001E3B020068
:10CAC00019B800004E3B02000023114970B50C005C
:10CAD0001D002C340F4EE21896193678864202DA81
:10CAE0000D4E921915700133062BF3D10B4CCB6808
:10CAF0002200A16B3C328B4208D31B1A084D1370E5
:10CB00002064A8476064A847A06470BD0023F5E7CF
:10CB100070450020140600001A060000F04B0020AB
:10CB2000391C0100F0B54C255F4C604A6049A358A0
:10CB300007006B43E31859180878032187B00840B1
:10CB400003900492012823D0884243D0049B4C25B3
:10CB5000E358584A19006943039363189B181A68ED
:10CB6000062A00D89CE0EF231B01C818524B20185E
:10CB7000C9186118514B063A9847049BE3585D4326
:10CB80004C4B6419E4182368063B236007B0F0BDE2
:10CB90004B4A4C499A1812785B18187812024A4D81
:10CBA00080184008A863494B80B29847484B494FCA
:10CBB000DB68494A0093AB6B8021484E3800B04790
:10CBC0000399474B38009847464EB0476864B047D2
:10CBD000A864BBE701214448444EB047049B039A34
:10CBE000E3585D430593324B6519ED182B78934359
:10CBF000102B2DD007D8042B37D0082BA6D100211D
:10CC00003B48B04715E0402B0AD0802B15D0202B95
:10CC10009CD10622374B002137485A70B04795E720
:10CC200000213648B0470123002239001800344D56
:10CC3000A84704222F4B5A7088E704222D4B00216D
:10CC400030485A70B047274B98471F4B58647DE7D0
:10CC50000622284B00212C485A70B047012300229D
:10CC600039000398264DA84770E700212748B047B0
:10CC70001C4EB047144DA864B04708221D49686493
:10CC80004B789343012B04D10022114B5A60DA6098
:10CC90001A60042300224B700520033B3900E1E7B2
:10CCA00000221A6072E7C046281A0020982300006C
:10CCB000F20E0000EC0E0000F60E000099AD01002F
:10CCC000F50E0000F40E0000F04B0020C9CA000071
:10CCD00070450020301800206C3B0200B1AE01000E
:10CCE000159C0000391C01009C3B0200719C000057
:10CCF000F23B020000000020D73B0200AF3B0200E5
:10CD000001C60000BC3B0200CA3B0200E43B02003B
:10CD1000024A034BD15C4018D0547047281A0020B7
:10CD2000211000000122F0B585B0019302AB0F0085
:10CD3000DA71784D784C182800D1ADE057D8132817
:10CD400000D1A4E043D8042800D198E025D80128D8
:10CD500079D02B59062B1DD9704EC4253400063BC3
:10CD60001F002C34ED00605D1A00000214306C4985
:10CD70006C4B20189847605D6B4A23189A181770FF
:10CD80006A4A01309B183268C0B21A700621684B9B
:10CD90009847615502ABDB798CE0112863D01228EB
:10CDA000D7D1002302AA5E48624E0732B04728510D
:10CDB0000028EFD0604B9847285D604B98472B596F
:10CDC000042106332B5100205D4B9847C1E71528FD
:10CDD00000D179E000D270E0162800D17EE017285B
:10CDE000B7D102AA002307324D48564EDEE71D2870
:10CDF00034D00BD81A283CD045D31B2828D01C2867
:10CE0000A7D102ABDA1D46484F4B25E0312800D1AF
:10CE10006BE00CD830289CD101214C484C4B9847F2
:10CE2000454B9847019A39003D484A4B09E0322862
:10CE300068D0FF288DD1404B98473900019A384877
:10CE4000454B984748E0019A3548444B9847AEE730
:10CE500002ABDA1D3248424B9847A8E702ABDA1D15
:10CE60002F48404BF8E702AA002307322C483E4ED9
:10CE70009CE702AA0023073229483C4E96E7019A14
:10CE800027483B4BE2E7019A25483A4BDEE702ABE5
:10CE9000DA1D2348384BDFE7274B984702AA0023C7
:10CEA000073239001E48354EB0470123285100286B
:10CEB00000D082E7180005B0F0BD1F4B9847019ADB
:10CEC000390017482E4BBCE71B4B984702ABDA1DC5
:10CED000390013482B4B984728516EE7164B98475B
:10CEE000019A39000E48284BABE701212748184B1F
:10CEF0009847114B98470023019A3900244E08485F
:10CF0000B047E9E701212348114B98470A4B98475E
:10CF10000123F1E7281A00201C10000070450020B2
:10CF20004E2A002099AD01001A06000014060000E8
:10CF3000FD9E0100C5E00000F1C4000011CD00001D
:10CF40006D9A0100EDE4000025DE0000013C0200C6
:10CF5000719C000081E7000001DD000039E0000065
:10CF600005DF000069DD00002DE7000015E6000088
:10CF7000D5E1000069E300007DE2000011E400005B
:10CF800031E7000035E7000035DD00001E3C0200FF
:10CF900039E700003A3C0200F7B5019001380C0077
:10CFA0001600BA4D462868D80CF00CFF47007100F7
:10CFB0009000AD00B700D600670067006700F5007D
:10CFC0006700670067006700670067006700670029
:10CFD00067001601EA01EA01EA01EA01EA01EA0151
:10CFE0006700EA01EA01EA01EA01EA01EA01EA016D
:10CFF000EA01EA01EF01CC01D801E1016700670015
:10D0000067001E021E021E021E02FC0101021A021D
:10D0100067006700670067006700670067006700D8
:10D02000670053027F0267006700670067006700C0
:10D030006700670067006700920281226821042769
:10D040000026934B52019954924A1B319F54924AA5
:10D0500006209954914A9E54914A9E54914A9E5456
:10D06000914B98472B004C331E70A0B239008F4B68
:10D07000984701218E488F4B98474C352B785A1E84
:10D080009341019A5B421A4010000192FEBD812239
:10D090006821042700267E4B520199547D4A253988
:10D0A0009F547D4A062099547C4A9E547C4A9E5443
:10D0B0007C4A9E547C4B98472B004C331E70A0B288
:10D0C00039007A4B984701217B48D4E781226821B7
:10D0D00004276F4B520199546E4A45399F540026DC
:10D0E0006D4A062099546D4A9E546D4A9E546D4A6D
:10D0F0009E546D4B98472B0039004C331E70A0B2E4
:10D100006A4B9847B9E7812268210427604B520196
:10D110009954604A55399F54E1E7812268210427D8
:10D1200000265B4B520199545A4A5D399F545A4A22
:10D1300006209954594A9E54594A9E54594A9E541D
:10D14000594B98472B004C331E70A0B23900574BF7
:10D150009847012159488EE781226821042700263B
:10D160004B4B520199544B4A61399F544A4A06200D
:10D1700099544A4A9E544A4A9E544A4A9E544A4B9B
:10D1800098472B004C331E70A0B23900474B98478C
:10D1900001214B486FE781226821012600273C4B83
:10D1A000520199543B4A643999543B4A61009E5458
:10D1B0003A4A06209F543A4A99543A4AE109995406
:10D1C000394B98472B004C331F70A0B20421374BCA
:10D1D000984731003B484EE72B004C3318780B281A
:10D1E00000D99DE00CF0DAFD061625323B44487A62
:10D1F000858E9398012134482E4B984733002200A6
:10D200001421FF20314CA0472A004C3213780133FF
:10D21000137032E701212E48264B98472200330035
:10D2200014210120294CA0472B0002224C331A70F4
:10D2300023E7130012200A00244C1421A0470028E1
:10D2400000D11AE72B0003224C33F0E701212148DB
:10D25000184B98473300220014210420D2E7012103
:10D260001D48144B98473300220014211920C9E7A8
:10D270002B0006224C33DAE7130013200A00142196
:10D28000124CA047002800D1F7E6BDE7F04B002084
:10D29000281A002021100000221000002310000096
:10D2A00024100000251000005D9A01006D9A010015
:10D2B000503C0200719C00006F3C02008D3C02005B
:10D2C000AD3C0200CC3C0200EB3C020025CD00004E
:10D2D000043D0200183D02002D3D02002B000822F3
:10D2E0004C331A7018200A0033001421814CA047D7
:10D2F000C3E62B0009224C331A7017200A003300B2
:10D300001421F3E713001A200A001421B8E71300D0
:10D310000A001421080075E72B000C224C3386E725
:10D32000002701211F707448744B98473300220076
:10D330001421704C1620A047714B2C335F70714B39
:10D3400098479AE613001B200A002621694CA04743
:10D35000002823D12B0001224C3368E701216A48C1
:10D36000664B98473300220027211C20EEE701215D
:10D370006648624B98473300220028211D20E5E7CC
:10D38000130016200A000199B0E70F21220024099A
:10D390000A40330021400520564CA0472B004C3357
:10D3A000002244E713000A00302108009EE72F0006
:10D3B0004C373B78002B0AD0012B00D05DE61300E0
:10D3C00032200A004B4C3121A047002306E0130015
:10D3D0000A003121474C0800A04701233B704CE66E
:10D3E00013000A003221E0E701214948434B9847E6
:10D3F00000272E002C003036337820349F420CD288
:10D40000444EE35D444A80213000444CA047002153
:10D410003000434B98470137EBE701214148374B38
:10D420009847414B9847377821003A003F4B404896
:10D4300098476A463F4C404E404B1279A751E25400
:10D4400038003F4B9847A35904210633A3510020CD
:10D4500056E62B004C3318780828A1D81300254F26
:10D460000A000CF09BFC05090D101316191C1F0077
:10D4700000210420B847C7E63C211120B84701E746
:10D480003C211320FAE701211820F3E7012117209E
:10D49000F0E701211920EDE73C211420EAE73C21C7
:10D4A0001520E7E73C211A20E8E72F004C373B78AE
:10D4B000002B92D0012B88D113001A200A000D4CAA
:10D4C0003D21A047002800D1D7E53B78013385E70F
:10D4D000154B98472B00290030331F7820313A0034
:10D4E000124B13489847144E124C4722A751134B26
:10D4F000A5E7C04625CD0000463D0200719C000016
:10D50000704500204D8001005D3D02007A3D020023
:10D51000963D0200301800203A350200B1AE0100FD
:10D52000159C000052690200F1C4000099AD010091
:10D530004E2A0020281A00201C100000281000008D
:10D5400011CD0000F7B5092444430E4F0D00E35DF3
:10D55000DB07DB0F8B4213D00B4B8000C3580B4A09
:10D5600000910B4880210B4EB0470B4B002108481F
:10D57000984701222B00E55D134095431D43E55577
:10D58000F7BDC046281A0020883702009F3D0200E0
:10D5900030180020B1AE0100159C000070B51E4D82
:10D5A000A8471E4CA064A8476064A8472065A84708
:10D5B0006065A8471A4BA06598470A25E0650021D9
:10D5C0000424184A0B000131092906D06B43D318F3
:10D5D0005833987820439870F4E70121124B1400D7
:10D5E0002C335970082304208C328234157821782A
:10D5F00019432B4381438343137021700020022180
:10D600000A4B984700210A480A4B98470A4B98470B
:10D610000A4B984770BDC046391C0100F04B0020F2
:10D62000F1920000281A00207045002045D5000026
:10D63000B63D0200719C000049C500004D8001000C
:10D6400070B503780400642B03D0672B15D02C2011
:10D6500012E043780020012B0ED1A378062B0BD1CA
:10D66000657923792D025D193A4B9847854265D03B
:10D67000394B9D4262D02E2070BD83780020062B4E
:10D68000FAD1637924791B02E418324B984784421B
:10D6900002D0314B9C42EED14C24304B304AFA211F
:10D6A0009A5889005443F0221C192E4B1201E3189A
:10D6B000A2181B7810781B02C0182B4B98473F22EA
:10D6C0002A4B104099690500914308001F262849FC
:10D6D0002843986161180878264D996910408001A7
:10D6E00029400143996124499D69611809782348BB
:10D6F0003140090305400D4321499D6161180878B7
:10D70000204D9969304040042940014399611E49E8
:10D71000986961180D780F210D401C49AD0508402E
:10D720001B4928439861641821785A2011409A694E
:10D730008906920192090A439A619DE7637A18006B
:10D74000142B99D003D31800242B00D894E72F2052
:10D7500092E7C046F1920000FFFF0000281A002067
:10D7600098230000FF0E0000F19D010000240040FE
:10D77000010F00003FF0FFFF020F0000FF0FFEFF50
:10D78000030F0000FFFFC1FF040F0000FFFF3FFC7D
:10D79000050F0000F0B5CA4D87B06B7807000A2B63
:10D7A00003DD09236B70C74B9847C74CA047C74E92
:10D7B000736BC31A0393C64B9847039B834202D3F0
:10D7C0000020C44B98473300002F09D161331F70EC
:10D7D00009236B70A047C04B7066984707B0F0BD37
:10D7E00068331A78002A66D12A78002A63D0012289
:10D7F0001A70A0477063A047B064B84BB84AD758B6
:10D80000002F35D1B74CAE4A2369E518287F002890
:10D8100000D1D4E15278042A00D0CEE1B249F21806
:10D820009B00CB18196D127CB04B9847316CE368A4
:10D8300028773C368B4200D2BDE15B1A3370A24B95
:10D840009847A24B5864A74A1369D118097F002949
:10D850000ED1A74901330B4004D51021013B4942A9
:10D860000B43013313619369002B01D0013B93619A
:10D87000954B9847954B5B6EC01A3C2805D9994B40
:10D880002C331B78092B00D10FE28D4B5B78012BD9
:10D89000A4D1934D974C2B5D002B9FD0964E974A69
:10D8A00080213000964FB847964B002130009847B2
:10D8B00000232B5592E7944B9847002800D0E5E1D0
:10D8C000924B9847002800D0E0E1864D2B002C3386
:10D8D0005B78002B05D0A0472B6BC01A1E2800D9FF
:10D8E000DDE14C227E498A488A4C0B5807005A4396
:10D8F0008A1814192568032D00D852E1864B7E4CF6
:10D90000D3181B6880210593844B2000D21813780C
:10D91000834A03932B007A4DA8477A4B01212000BC
:10D9200098474C23002504936D4C049BE2595343C4
:10D93000784AE3189A18126895420FD2EF225B19C1
:10D9400012019B181B78774A80216B486C4CA047CA
:10D95000002169486B4B98470135E5E70021724883
:10D96000724DA847EF23E159049A1B014A43A218BC
:10D97000D2181378682B00D00AE1039B042B19D12D
:10D9800005986B4B98474C2355496248CA595343F5
:10D99000CB181B181B68002B00D02EE70132033375
:10D9A0001A40CA51634A8B58002B00D125E7013B2E
:10D9B0008B5022E7039B042B00DCE9E001215E4849
:10D9C000A847E259049B5343EF22E31812019A1827
:10D9D0001278682A53D14F49039A5B181B680232A8
:10D9E0009A424CD8384B9847384D374BA8649847E3
:10D9F000334A28655378012B02D193700333537057
:10DA00004C23E1594D484B43E4184D4BE31819782A
:10DA10004C4B0902E3181B785B184B495B086118F3
:10DA20000978241820780902401894784008F36691
:10DA3000B0632C49002C00D192E001334B600023ED
:10DA4000C860937008604C25254C039BE059191F52
:10DA500068433E4BC9B2C01800193D4B9847C0B24D
:10DA600000280CD0E35905995D433A4B6419E4183A
:10DA700022780123384CA0470422114B5A704C21C4
:10DA8000174D244AEB59039C59436B189B180234D9
:10DA90001A68E4B2A24200D880E0EF231B01C91843
:10DAA00048196118121B49192C4B98474C23EA5905
:10DAB0005343ED18174BED182B681C1B2C6062E7C5
:10DAC000000000209DD50000391C0100F04B002013
:10DAD000358F000009CA000049C500001C10000075
