:108000006873002059A9000055A9000055A9000077
:108010000000000000000000000000000000000060
:1080200000000000000000000000000055A9000052
:10803000000000000000000055A90000B5970100F5
:10804000FD82000055A900002187010055A900000C
:1080500055A9000055A9000055A900009DB10000D8
:1080600055A90000659301008DA60100898C0100CF
:10807000A18E010055A9000055A9000055A90000D6
:1080800055A9000055A9000055A9000055A90000F8
:108090001D9A0100199C010055A9000055A9000076
:1080A00055A900001D830100BD82010055A90000F3
:1080B000E583010055A9000055A9000010B5064C44
:1080C0002378002B07D1054B002B02D0044800E099
:1080D00000BF0123237010BD900C002000000000A1
:1080E000104A0300084B10B5002B03D0074908487D
:1080F00000E000BF07480368002B00D110BD064B0D
:10810000002BFBD09847F9E700000000940C0020FA
:10811000104A0300104A03000000000010B5044C90
:10812000002323722360034B9847606010BDC04654
:10813000AC0C002005990100024A137A0133137236
:108140007047C046AC0C002070B596B03A4B9847CB
:108150003A4B5B68C01A022801D816B070BD364B86
:108160009847364B58601B7A3F2BF6DC344B1B6824
:10817000002BF2D106A8334B98470028EDD0324BA4
:1081800098470100314C2000314EB0472000314B60
:10819000984700190B223049304B984706AD287894
:1081A0002F4B984701000EA8B0470EA920002D4B79
:1081B00098476B78002B34D0244C2000254B9847EF
:1081C000001907222849254B9847284B984706ACA9
:1081D000E3781B026579227A0492E2790392A2790C
:1081E0000292A078C018FA218900214B9847FF23FA
:1081F00018400190237900932B001E4A40210EA8BD
:108200001D4CA047114C0EA92000164B984720008A
:10821000104B9847231F186001212000174B9847E7
:108220009BE70A4C20000B4B984700190822144981
:108230000A4B9847C9E7C04605990100AC0C0020DD
:10824000481C0020A9DB0000D19200004C1C00203B
:10825000F17102000172020054D80200616E020046
:10826000E58800004170020060D8020089DB000050
:108270006143020070D80200796F0200D9A30000A8
:1082800068D8020030B5194B1A6902218A431A6175
:108290001A69174802401A611A694230FF300243D6
:1082A0001A615A680A435A601A691824A243083CA2
:1082B00022431A611A690A431A610E4A5369034339
:1082C00053610D4B703401391951BFF34F8FBFF318
:1082D0006F8FC02252009950C02080001A58FF258D
:1082E000AA4322431A50196030BDC046001800400E
:1082F000FFFEFFFF0008004000E100E010B5064B64
:108300009B689B0700D410BD034A936802210B436E
:108310009360024B9847F6E700180040CDAF00008D
:10832000F0B587B08C461600019303AC064D2200D1
:108330008ACD8AC2800000596044019A3100034B03
:10834000984707B0F0BDC04684D8020061A1000084
:1083500070B582B07823CA4AD35C022B03DC792340
:10836000D35C022B0BDDC74B9847830700D15BE240
:108370007023C34AD25C383B1340082B01D002B0B3
:1083800070BD9A33BE4AD35C002BF8D1BE4B9847E0
:10839000002802D10022BD4B1A847023B84AD35A58
:1083A0005B051B0FDAB2062AE9D89300B84AD35806
:1083B0009F46B84B9847B84B1B68C01A0328DED9B4
:1083C000B64B5B88192B0CDD0022B44B5A80AC48AD
:1083D0007021435AB24A1A40A0239B0013434352D0
:1083E000CDE70020AF4B9847A54A70240F230340E8
:1083F000D901135BAA4803400B43135370321B0A85
:1084000078218B435370BAE70020A64B98479C49CC
:1084100070220F231840C0018B5AA14C2340034304
:108420008B52F022D2001340802B03D000229A4BB3
:108430001A71A4E7984A13790133DBB21371022B46
:108440009DDD8F4B0321772299546D315A5A944800
:1084500002405A5293E77123894AD35C5B061B0F93
:10846000DAB2062A00D98AE793008F4AD3589F468A
:1084700000208E4B9847824A7032537878218B4384
:1084800010210B435370854C6388894D894A8021A4
:108490002800894EB04700212800884B9847638800
:1084A000013363800120864B98478648864B984766
:1084B00065E70020854B9847714970310F230340D1
:1084C000DA004B787820834313434B700020804BB5
:1084D0009847022803DD714B00221A805A807123CD
:1084E000674AD35C5B061B0FDAB20B2A00D946E75A
:1084F0009300784AD3589F46002211001000764B13
:1085000098473CE70022614B9A8738E70022634B8B
:10851000DA805B4B70335A7878218A431100082245
:108520000A435A702BE75D4AD38801339BB2D3804C
:108530005F4C6A4A802120005F4DA847002120003F
:108540005E4B98474E4B70335A7878218A4311001E
:1085500018220A435A7012E70220594B9847484B99
:1085600070335A7878218A43110018220A435A70CE
:1085700005E70020524B98470F231840404A7032BD
:10858000C10053787824A3430B435370082800D9C3
:10859000F5E68000524B1B589F46394970228B5C90
:1085A000382083438B5400204E4B9847E7E6002247
:1085B00001211000484B9847E1E6364B9847364B6F
:1085C0009860DCE62E4B702019184A787824A24374
:1085D0004A701A5A32491140C02252000A431A52B4
:1085E000CDE6274B70201A5A2D491140A022920047
:1085F0000A431A521B189978802252420A439A70F1
:10860000BDE6394B98471E4970310F230340DA000D
:108610004B787820834313434B7078221340282BE8
:1086200000D0ACE61B4B98471B4B9860A7E6144B59
:108630007020190070314A787824A2434A701A5A7F
:1086400017491140A02292000A431A5297E6114B93
:108650009847114B9B68C01A042800D88FE6084B36
:1086600070335A7878218A435A7088E6044870211A
:10867000435A0B4A1A40C0235B00134343527EE621
:10868000543B0020299500006DC40100303C0020BF
:1086900090D8020005990100B80C0020901D002020
:1086A0007FF8FFFF0DD00100ACD802009138020026
:1086B000201A00201CD90200796F0200D9A3000003
:1086C000BD3D0200FFFF0000E9900000B13802004C
:1086D0001D400200C8D8020091DF000030D902001E
:1086E000F8D802001D950000E13F02000020574B22
:1086F0009847574970220F231840C0018B5A554C98
:10870000234003438B52F022D2001340802B0DD024
:1087100080225200934200D131E64F4A5388013300
:1087200053804E4B98474E4B186028E60B00703331
:108730005A7878218A435A7021E60020494B98479D
:108740000F23184042497022C4018B5A414D2B40DF
:1087500023438B52032800DC11E63F4A9388013300
:108760009BB29380032B0CDD00223B4B9A800800C8
:108770007021435A2A001A40A0239B0013434352FE
:10878000FDE5334C7025635D38229343635500202B
:10879000354B984722007032537878218B435370C1
:1087A000635B2C4A13406353304C00230093304AE0
:1087B000083120002F4DA847002120002E4B98475C
:1087C000264B9847264B1860D9E5234B5B88012B35
:1087D0000CDD0022204B5A801D487021435A1D4A4F
:1087E0001A40A0239B0013434352C8E51849702246
:1087F0008B5A184803408B52C1E5154A0321772351
:10880000D1546D31535A134803405352472003400B
:1088100053540022194B1A84194B98470020124BCD
:108820009847184B9847AAE5154B984700200E4BE0
:108830009847074B70211800703042787824A24383
:1088400042705A5A034802405A5298E561D50100D5
:10885000543B00207FF8FFFF901D00200599010088
:10886000B80C0020C1D701001D950000201A00207F
:108870004CD90200796F0200D9A30000303C0020DF
:1088800065A6010075020200F0B5C64600B5944623
:108890009846114B99421ADC002915DD0024FF2768
:1088A000FF260E4A0E4B05787540565D7E405F5D93
:1088B0000134A4B20130A142F5DC63461E70434688
:1088C0001F7004BC9046F0BDFF27FF26F5E700238C
:1088D000137042461370F4E7FF07000068D90200E6
:1088E00068DA02000001034B9C466044024B1818F2
:1088F0007047C046A2040000C40C00202230800053
:10890000014B181801637047441300202230800087
:10891000014B1818006B7047441300208300024875
:10892000C018C06C7047C046C413002005490B0036
:108930004E33623102781A70013001338B42F9D123
:108940007047C0464413002010B50100024876303D
:10895000024B984710BDC04644130020F17102003D
:10896000014876307047C046441300200148623009
:108970007047C0464413002010B501000248623021
:10898000024B984710BDC04644130020F17102000D
:10899000F8B500211548164B9847164D2B00543357
:1089A0002A005532144E154C31002000144FB847A0
:1089B0005523EA5C1202013BEB5C9B181B04A3519C
:1089C00004363200210000200E4DA847320021005D
:1089D00084200001A8470022012144200A4B984727
:1089E00000214420094B9847F8BDC04668DB0200CF
:1089F0003DA40000C4130020AC060000C40C0020FD
:108A00008988000061A1000091DF0000B5EC000042
:108A1000F0B5DE4657464E464546E0B593B00AAC43
:108A2000202200212000F64DA847012323806380E7
:108A3000A380E380238163812022002102A8A8472C
:108A40003F2302AA13800133538002339380013302
:108A5000D380203B1381123353810121E948EA4B33
:108A60009847EA4800230380A833C25C01210A43E7
:108A7000C254A7225200835C0B4383543C2343809F
:108A8000E34B8380C380E34BA43A83520232835288
:108A900003004833783000221A701900A6310A709A
:108AA00001338342F8D1D94801001F31FF319030A2
:108AB00000221A701A760A700A7601330131834255
:108AC000F7D1D24C22004832D34B03CB03C21B78E0
:108AD00013702000EE301A22D049D14FB84722003F
:108AE0007832D04B03CB03C21B88138000258F2321
:108AF0005B00E55422009032CB4B03CB03C21B88B2
:108B000013809B235B00E55422000832C74B9C4630
:108B1000190049C949C210000A780270220028329F
:108B2000634643CB43C21B7813702000AE30C04E67
:108B30000C223100B8472000CE300C223100B8475B
:108B40003222F4235B00E2520233E552B94BBD32CC
:108B5000FF32A3520232A3520232A3520232A35274
:108B6000A8214900635C01221343DBB202200343C6
:108B7000DBB23C26B3430420804682465046034382
:108B800063540231635C0320814683431343DBB2A9
:108B900040468343143084468343635496208001C7
:108BA000AA235B00E0500433EE39E15004339B46C6
:108BB000E35C1343DBB262398B43B34351460B434F
:108BC00059466354AF235B009B46E35C49468B43A5
:108BD0001343DBB241468B4361468B435946635492
:108BE000B0235B00E0500433FA39E15004339B4674
:108BF000E35C1343DBB262398B43B34351460B430F
:108C000059466354B5235B009B46E15C4B46994350
:108C10000A43D2B243469A4363469A435B46E254C0
:108C20000233E05004336422E2502300A133FF33C7
:108C3000814A1168196012791A7123007533FF3364
:108C40007E4A904603CA03C391461A004B461B88CE
:108C500013804B469B78937020008330FF300B22AB
:108C60004146B84723009133FF33424603CA03C34A
:108C70001A004B461B8813804B469B789370072243
:108C8000CF235B00E2526E4A1A33E2529B3BFF3B1A
:108C9000DD225200A352962189000432A152023AE9
:108CA000A6520432A352B333FF33E5520023574890
:108CB0000A211A00D332FF3281520233102BF8D12D
:108CC000524A0E3BF12149005352023153520023C4
:108CD0001639535218315352B623DB00D318D12121
:108CE000C9008C4662440027FA263601554DE1241E
:108CF000A400FA20400002211F805E80DD809C805D
:108D0000188159810C339342F6D1404A1300FB334A
:108D1000FF334D498C4662444C4DFA24E400FA205E
:108D2000400001215D801C809880D9800C339342E3
:108D3000F8D1364C464BE01809224649384DA84731
:108D4000454BE01809224549A847454BE0180B223E
:108D50004449A847444BE0180D224449A847444BD6
:108D6000E01809224349A84796225200424BE2529A
:108D70002D32FF320233E2527823404AA352404A56
:108D8000A352404AA352404BE01806223F49A8474D
:108D90003F4BE0180A223F49A8473F4BE0180A2200
:108DA0003E49A8473E4BE0180C223E49A8473E4B9F
:108DB000E0180F223D49A8473D4BE0180A223D49E3
:108DC000A8473D4BE0180A223C49A8473C4BE01815
:108DD0000A223C49A8473C4BE0180C223B49A847D3
:108DE0003B4BE0180C223B49A8473B4BE0180C22B8
:108DF0003A49A8473A4BE0180C223A49A84773E091
:108E0000E56E020074DB02003DA40000C40C0020EB
:108E1000E32E0000FF0F000084DB020090DB020065
:108E2000616E0200ACDB0200B8DB0200C4DB0200B2
:108E3000D4DB0200B80B0000E0DB0200E8DB02003C
:108E4000031000003C0F00002A0200004C1D00002F
:108E500046040000F4DB02005604000000DC0200BF
:108E6000660400000CDC02007604000018DC02003E
:108E70008604000028DC0200960400009A0400002A
:108E80009C0400009E040000A204000034DC0200E8
:108E9000B20400003CDC0200C204000048DC020016
:108EA000D204000054DC0200E204000060DC020096
:108EB000F204000070DC0200020500007CDC02000D
:108EC0001205000088DC02002205000094DC02008C
:108ED00032050000A0DC020042050000ACDC02000C
:108EE00052050000B8DC0200284BE0180C2228498B
:108EF000A847284BE0180C222749A847274BE01821
:108F00000C222749A847274BE0180C222649A847DE
:108F100000260025254C0AAB01930127244B9C46D3
:108F20002B004A331B01019AB15A39401A5DBA43EA
:108F30000A431A5502AA915D49001A5B6046024035
:108F40000A431A5301350236102DE9D1174B8021FF
:108F50000901184A99520022B420C0001A5216483A
:108F6000195216495A52FA22920004315A5214499F
:108F70005A5214495A5214495A52144B984713B032
:108F80003CBC90469946A246AB46F0BD6205000047
:108F9000C4DC020072050000D0DC02008205000083
:108FA000DCDC020092050000E8DC0200C40C0020BA
:108FB00001FEFFFFA2050000A6050000A4050000B9
:108FC000AA050000AC050000AE0500009189000074
:108FD000002805D1A823064AD05CC007C00F7047FF
:108FE000A7235B00024AD05CC007C00FF7E7C0466A
:108FF000C40C002000280FD0002906D0A7235B0056
:109000000C4AD05C0007C00F0DE0A7235B00094AA3
:10901000D05C4007C00F06E0002905D1A823054A0F
:10902000D05C4007C00F7047A823024AD05C0007FD
:10903000C00FF8E7C40C00200023012801DD180050
:1090400070477033074AD35CDB0704D44000064BFB
:1090500018188388F3E754304000034B18184388EE
:10906000EDE7C046543B0020C40C0020012814DC6E
:1090700070230B4AD35CDB0707D40A4B002127225D
:1090800099544001083018187047064B0021ED2212
:1090900099544001AE301818F6E70020F4E7C046B6
:1090A000543B0020C40C0020DD235B00014AD05A51
:1090B0007047C046C40C0020DE235B00014AD05A32
:1090C0007047C046C40C0020DF235B00014AD05A21
:1090D0007047C046C40C0020E0235B00014AD05A10
:1090E0007047C046C40C0020C823014AD0527047C4
:1090F00044130020014B18887047C046C40C002060
:10910000C823014AD05A704744130020DC235B0077
:10911000024AD05A0005000D7047C046C40C00201A
:10912000014B58887047C046C40C00200048704767
:10913000C40C0020D620C0007047000000487047D3
:109140004604000043001B189B000448C01851301F
:10915000FF300078C007C00F7047C046C40C002025
:1091600043001B189B000448C0185130FF300078A2
:109170008006000F7047C046C40C002043001B1837
:109180009B000448C0185130FF3000788007C00FA2
:109190007047C046C40C002043001B189B000448C5
:1091A000C0185130FF3080784007C00F7047C0466C
:1091B000C40C002043001B189B000448C018513009
:1091C000FF308078C006800F7047C046C40C002076
:1091D00043001B189B000348C0185530FF3000683F
:1091E0007047C046C40C00200023012801DD180090
:1091F0007047D133FF33044AD25AD03BFF3B834000
:1092000013400341F3E7C046C40C0020052070471B
:10921000022807DCC300181A40007530FF30024BEB
:10922000181870470020FCE7C40C00200200002042
:10923000022A08D8CF235B000349C85A9E3BFF3B54
:109240009340184010417047C40C002070B51500C1
:10925000032814DCC30FC21801241440E41A501070
:10926000C0B200280CD10D4E6001083030180C4BF4
:10927000984728000B4B984764003419A08070BDB4
:10928000064E6001AE303018054B98472800054B5C
:1092900098475434640036197080F0E7C40C0020FD
:1092A000F1710200B96D02009C2070470148303016
:1092B0007047C0464413002043001B189B0003481E
:1092C000C0185930FF3000687047C046C40C0020F9
:1092D0000148A130FF307047C40C00204C23014AE4
:1092E000D05A704744130020E8304000034B181850
:1092F0004388FA20800058437047C046C40C0020C1
:109300000023012801D918007047E333FF33044AD2
:10931000D25AE23BFF3B834013400341F3E7C04690
:10932000C40C00200023012801D918007047E53340
:10933000FF33044AD25AE43BFF3B834013400341CE
:10934000F3E7C046C40C00200023012801D918000F
:109350007047E733FF33044AD25AE63BFF3B834072
:1093600013400341F3E7C046C40C00200023064825
:10937000064930311A0064328A5CC2540133052B2D
:10938000F8D101487047C046201A0020441300203D
:1093900000230648064930311A005A328A5CC2540A
:1093A0000133082BF8D101487047C046201A00202D
:1093B00044130020F0B5C64600B582B00500002475
:1093C000174E184B30229446634498461F0007E01E
:1093D00023006433434400221A7001340A2C0AD05B
:1093E000285D6B46D91DB0470028F1D02A5D2300C7
:1093F0006433FA54F1E70B4B1A009D3200211170CF
:109400009433094C094A40312000094DA8470121F5
:109410002000084B984702B004BC9046F0BDC046FF
:109420006340020044130020201A0020F4DC0200F4
:10943000796F0200D9A30000F0B5C64600B582B02E
:1094400005000024174E184B30229446634498467A
:109450001F0007E023005A33434400221A700134EE
:109460000A2C0AD0285D6B46D91DB0470028F1D0E0
:109470002A5D23005A33FA54F1E70B4B1A0093325A
:10948000002111708A33094C094A40312000094DEE
:10949000A84701212000084B984702B004BC904621
:1094A000F0BDC0466340020044130020201A002093
:1094B000F4DC0200796F0200D9A300009E23014A68
:1094C000D05A7047441300209E23014AD05270475F
:1094D000441300204A23014AD05A70474413002005
:1094E0004823014AD05A704744130020002805D170
:1094F000A823064AD05C8007C00F7047A7235B00F3
:10950000024AD05C8007C00FF7E7C046C40C0020B9
:10951000A023014AD05C704744130020A023014AD5
:10952000D052704744130020074BA7225200985C8A
:10953000C007C00F4000A63A9B5CDB07DB0FC018DA
:10954000002800D103307047C40C002000230128FC
:1095500001D918007047CF33FF33044AD25ACE3BAB
:10956000FF3B834013400341F3E7C046C40C002097
:109570000023012801D9180070470830CF33FF338A
:10958000034AD25ACE3BFF3B834013400341F2E7EC
:10959000C40C002010B50901044B9C466144044BE7
:1095A00059182022034B984710BDC04646040000BE
:1095B000C40C0020F972020092239B009C46604478
:1095C0004000024B1818C0887047C046C40C0020E9
:1095D000002802D10248483070470148EE30FBE7CE
:1095E000C40C0020002802D103487830704702489C
:1095F0001F30FF30FAE7C046C40C0020002802D11B
:1096000003489030704702483730FF30FAE7C046D1
:10961000C40C00200023112809DC43001B189B0008
:109620000448C01880239B009C46604403881800AF
:109630007047C046C40C00200023112808DC4300FA
:109640001B189B000348C018FB30FF300022835ECC
:1096500018007047C40C00200023112808DC4300C8
:109660001B189B000348C018FD30FF300022835EAA
:1096700018007047C40C00200023112807DC4300A9
:109680001B189B000348C018FF30FF3003881800E8
:109690007047C046C40C0020034B1888002802D134
:1096A000C823024AD05A7047C40C0020441300203B
:1096B000002330280BDC43001B185B000548C01852
:1096C000C8239B009C466044C3799B06DB0F18B2FD
:1096D0007047C046C40C002003003F280FDC010087
:1096E00088318900164A5218D188164A914222D0F0
:1096F00088339B001248C318D8798009704700202E
:109700006F2BFBDC403B5A00D21851000C4A521818
:109710000D498C46624411880A4A91420DD0580086
:10972000C0184000064B1B18C822920094466344A0
:10973000D8798009E2E70020E0E70020DEE7C046B4
:10974000C40C0020FFFF00002603000003003F2898
:109750000DDD00206F2B0FDC403B5800C01840008F
:10976000064B1B18064A94466344187804E0883375
:109770009B000248C31898797047C046C40C00206B
:10978000260300000200403A00232F2A0BD8530082
:109790009B185B000548C018C8239B009C4660448A
:1097A000C3791B071B0F18007047C046C40C00206C
:1097B00003003F280EDD00206F2B10DC403B5800DB
:1097C000C0184000064B1B18CA22920094466344FE
:1097D000188804E088339B000148C3181889704733
:1097E000C40C002042001218920006488018513024
:1097F000FF300F230B409B0001783C22914319431B
:1098000001707047C40C0020014B024AD05A7047C7
:10981000A2050000C40C0020014B024AD05A704738
:10982000A6050000C40C0020B423DB00014AD05A76
:109830007047C046C40C0020014B024AD05A704702
:10984000A4050000C40C0020014B18807047C046DE
:10985000C40C002070B5164C164BE01809221649AE
:10986000164DA847164BE01809221649A847164B73
:10987000E0180A221549A847154BE0180D22154992
:10988000A847154BE01809221449A8479622520010
:10989000134BE2522D32FF320233E2527823114A47
:1098A000A352114AA352114AA352114B984770BDBB
:1098B000C40C002046040000F4DB0200616E0200CC
:1098C0005604000000DC02006604000004DD020013
:1098D0007604000018DC02008604000028DC020088
:1098E000960400009A0400009C0400009E040000FE
:1098F0009189000043001B189B000448C018044BCA
:109900009C4660440023C05E7047C046C40C0020E3
:10991000B605000043001B189B000448C018044B08
:109920009C4660440023C05E7047C046C40C0020C3
:10993000B405000043001B189B000448C018B7235F
:10994000DB009C46604400887047C046C40C002081
:10995000002311280ADC43001B189B000448C01890
:10996000B623DB009C4660440022835E18007047EB
:10997000C40C00200023112809DC43001B189B00A5
:109980000448C018044B9C4660440022835E1800C3
:109990007047C046C40C0020B2050000D1239B00D4
:1099A0009C4660444000014BC05A7047C40C0020E4
:1099B00043001B189B000348C018034B9C4660449F
:1099C00000887047C40C0020BA05000070B5002361
:1099D0000F4804000F49012502E00133102B15D078
:1099E0001A004A321201125CD207F6D51A004A3226
:1099F0001201125BD205120E4D2AEEDC9600B2184F
:109A000052008A1856782E435670E6E770BDC0465D
:109A1000C40C0020981D0020F0B5DE4657464E4687
:109A20004546E0B58BB003247D4B9B467D4B9A4663
:109A30001F0054239C46D44463460993D847D6223A
:109A4000D20079490020794B984752465532784DDB
:109A5000784B29007448784EB04755235246D25C63
:109A60001202013B5146CB5C9B181B046E4A5259B3
:109A700093422BD000217148714B98476A4DD622F2
:109A8000D200290084200001684B98473A005532E3
:109A9000674B9846099B41462800674EB0475523BF
:109AA000FA5C1202013BFB5C9B181B044246AA585D
:109AB000934200D1ACE000216248614B9847013CE1
:109AC000E4B2002CBAD1604B984705E000215F4812
:109AD0005B4B9847002CF6D05D4C1F224A23E25284
:109AE0002F32023BE2523E3A0433E252113A7C33C7
:109AF000E2520D3257495848584B984721003431AB
:109B00000023554E524D30350020F25C0A70EA18A1
:109B100014003234207046321070887601330131DF
:109B2000142BF2D14A490B008A33943100221A7067
:109B30009A7201338B42FAD1454AB823D358464C26
:109B4000C42151580291C02151580191BC21525851
:109B50000092434A3C392000424DA8470121200091
:109B6000414B9847304F5537FF3700262E4D7B68C5
:109B7000049373009B199B00EB185133FF339A78C1
:109B80005207D20F03929A78D206920F02923A6845
:109B900001921B78DB07DB0F00933300334A8021EF
:109BA0002D48304CA04700212B482F4B98470136B9
:109BB0000C37032EDBD11C4AB423DB00D35A264CCE
:109BC0002B49515A06912B49515A05912A49515A0C
:109BD0000491B521C900515A03912849515A029163
:109BE0002749515A01912749525A0092264A802109
:109BF00020001C4DA847002120001B4B9847234BF9
:109C000098470BB03CBC90469946A246AB46F0BD87
:109C100000211F480A4B98471E4B98475AE7C046F9
:109C20001DA20000C4130020C40C0020B99F000036
:109C3000AC060000181400208988000028DD02000E
:109C40003DA4000064DD0200118A000010DD020066
:109C50004413002088DD0200201A0020616E0200FB
:109C600094DD0200796F0200D9A30000B8DD020084
:109C7000AE050000AC050000AA050000A605000026
:109C8000A4050000A2050000E0DD0200CD9900005F
:109C900048DD02009189000010B500230C490C003A
:109CA00002E00133102B0FD01A004A321201525C2D
:109CB000D207F6D51A004A321201125BD205120EF3
:109CC0008242EED118B201E00120404210BDC046F0
:109CD000C40C0020064A137EDB07FCD5044B9862B7
:109CE0001A00137E9B07FCD5014B986AC0B27047DF
:109CF0000004004270B5040000290AD001398DB279
:109D000001354519034E0020B04720700134AC42A4
:109D1000F9D170BDD59C000070B50400002909D0B0
:109D200001398DB201354519034E2078B047013411
:109D3000AC42FAD170BDC046D59C000010B5064BB0
:109D40001870080C5870080A9870D970111D180006
:109D5000024B984710BDC0461C140020199D0000FE
:109D600010B58223DB058022D2009A609A6180229E
:109D700092009A609A61013AFF3A9A609A61802152
:109D8000090159604B201A5C0224A2431A545961FC
:109D900010BD000010B5054B98478223DB058022DB
:109DA000D2005A6198215A5010BDC046619D0000F2
:109DB0008223DB058022D2005A61802292005A6100
:109DC000013AFF3A5A61704710B58022D2008223CF
:109DD000DB059A61014B984710BDC046B19D00005C
:109DE00010B5064B9847D720054CA0470020A04748
:109DF0000400044B9847200010BDC046959D00000C
:109E0000D59C0000C99D0000F8B500250C4E0D4FF3
:109E10003C0005E00023BB63A36B012BFCD91500BC
:109E2000B047030604D46A1C92B2272DF2DD150058
:109E3000E80F00222723AB425041C0B2F8BDC04614
:109E4000E19D0000303C0020F0B589B00224FF25E0
:109E5000374E50E0083399420BD01A788242F9D13C
:109E60005A8894469F889E7901220792069205920D
:109E7000F0E7059B002B26D1069B002B01D02D4B34
:109E80009F81079B002B01D02A4B1E72294A5389C0
:109E9000294E03943F2129400291117A0191928920
:109EA0000092264A80213000254CA0470021300036
:109EB000244B9847013DEBB20020FD229A424041DD
:109EC000C0B209B0F0BD1B4B62465A81D4E70121F4
:109ED0001D481E4B984700221D4B9A6319001D4ACE
:109EE0008B6B9342FCD91C4B98476B1EDBB2FD2B4E
:109EF000E2D9013CE0D3B0470028E8D0174B98479F
:109F00000500431EDBB2FD2B0ED80A4B5A8994463E
:109F10009F891E7A124B1900603100220792069227
:109F200005923D20284098E70138C3B2E1E7C046DA
:109F3000099E00001C140020201A002078DE020078
:109F4000796F0200D9A300009CDE02003DA400004E
:109F5000303C0020E703000025430200E19D0000A3
:109F600018DE0200F8B505000C0016001F000C4BAF
:109F70009847002800D1F8BD0A4B98470A4B1B7A36
:109F80002900994021430422D220084B98473900E8
:109F90003000074B9847074B98470120EBE7C04636
:109FA000099E0000959D00001C1400203D9D0000AE
:109FB000F59C0000C99D0000F0B5DE4657464E46B0
:109FC0004546E0B583B006008A4615001F4B5C8904
:109FD00021001F4B984787B2210030001D4B984746
:109FE0008CB2002D28D0194B9B469946A8462500D7
:109FF0001BE0B3B20193524629003800164CA0472B
:10A000000090019B5C19A0B24B465989114B9847AF
:10A010008DB20137BFB23604360CB24443469B1BA7
:10A0200098460BD0009B002B08D05B465E89761BC0
:10A030004645DED94646DCE701230093009803B08D
:10A040003CBC90469946A246AB46F0BD1C1400208D
:10A05000614302006D440200659F000070B5060078
:10A060000C001500094B9847002800D170BD084B23
:10A070009847002231008420064B98472900200091
:10A08000054B9847054B98470120EFE7099E0000D4
:10A09000959D00003D9D0000199D0000C99D000098
:10A0A00010B50400094B9847002800D110BD084B9B
:10A0B0009847084B1B7A2100994000228320064BC9
:10A0C0009847064B98470120F0E7C046099E0000DC
:10A0D000959D00001C1400203D9D0000C99D0000BE
:10A0E00010B50400094B9847002800D110BD084B5B
:10A0F0009847084B1B7A2100994000228120064B8B
:10A100009847064B98470120F0E7C046099E00009B
:10A11000959D00001C1400203D9D0000C99D00007D
:10A1200010B50400094B9847002800D110BD084B1A
:10A130009847084B1B7A2100994000225320064B78
:10A140009847064B98470120F0E7C046099E00005B
:10A15000959D00001C1400203D9D0000C99D00003D
:10A16000F0B5DE4657464E464546E0B583B005009D
:10A170008B461700234B5C892100234B984782466E
:10A1800021002800214B9847002F31D0204B9846C2
:10A19000204B99460E0024E053466A4613801388EC
:10A1A00001931800C0470090041E22D0AAB2B0B29A
:10A1B0005946C847009B1840C4B2002C19D00198DA
:10A1C000154B98470440A8190E4B59890F4B9847D7
:10A1D0000E0001239C46E244AB447F1B09D0002CB7
:10A1E00007D0084B5D89AD1BBD42D5D93D00D3E7F3
:10A1F0000124200003B03CBC90469946A246AB46E1
:10A20000F0BDC0461C140020614302006D440200F2
:10A2100021A100005DA00000A1A0000010B5034B2B
:10A220009847034B9847034B984710BD619D00002A
:10A230004D870100499E000010B5044B1B78012B8F
:10A2400001D0034B9847012010BDC0462C1C0020B4
:10A25000518F010010B57A23104AD35C032B05DD22
:10A26000042B11D10E4B1B78012B0DD00D4B8122ED
:10A27000D2009A588021C9005B58934204D00A4BFF
:10A280000849CB58002B00D010BD0B000120064917
:10A290005850985C054B9847F6E7C046543B002061
:10A2A0002C1C0020443700200404000039A20000C8
:10A2B00070B50D00094C0A0001002000084B9847BA
:10A2C0008023DB00E55000220833E2500132054BC9
:10A2D000E2502078044B9847012070BD443700209D
:10A2E000616E020004040000518F0100F8B5CE46F3
:10A2F000474680B505000C007A231D4AD05C002833
:10A300001DD0032807DD042801D0002017E0194BD9
:10A310001B78012B29D08023DB00174AD058021963
:10A320009A4210DC144E801922002900134B9847E2
:10A330008023DB00F25894466444F45001200CBCA6
:10A3400090469946F8BD98461E1A0B4FC019320028
:10A3500029000A4B99469847A41BA91922003800E6
:10A36000C8474346FC500120E9E70020E7E7C04624
:10A37000543B00202C1C002044370020616E02005A
:10A3800010B58CB00E498B69DB03DB0E8A691205B0
:10A39000920E89698906890E0A4880890290019186
:10A3A0000092094A202104A8084CA04704A8084BA1
:10A3B0009847010004A8074B98470CB010BDC04651
:10A3C00000240040303C0020B4DE0200796F02001F
:10A3D00001720200EDA2000010B5040000291CD19A
:10A3E00020000F4B9847010020000E4B9847002893
:10A3F00012D00D4B0D4AD358002B0DD17A330C4A95
:10A40000D35C002B08D0094B0121074A9950043234
:10A410009A58985C074B984710BD074B9847DFE761
:10A4200001720200EDA20000040400004437002085
:10A43000543B002039A2000081A3000010B50400A5
:10A4400000291DD12000104B9847FF21014020001A
:10A450000E4B9847002812D00D4B0E4AD358002BB4
:10A460000DD17A330C4AD35C002B08D0094B012163
:10A47000074A995004329A58985C084B984710BD87
:10A48000074B9847DEE7C04601720200EDA20000CC
:10A490000404000044370020543B002039A200008F
:10A4A00081A3000000B583B001AB20229A70002286
:10A4B000DA700F230340092B0DD90F2B02D8373345
:10A4C00001AA53700009092809D90F280AD8373082
:10A4D00001AB187006E0303301AA5370F2E7303058
:10A4E00001AB1870002101A8014B984703B000BDD3
:10A4F000D9A30000F0B583B001900D0016007A23B7
:10A50000244AD35C002B3ED0052B24D0224B984705
:10A510000400214FB847001B6328FBD91F4B0022C2
:10A520008121C9005A5008395A501D495A50F30721
:10A530002BD4002D08DD019B1F005C19194D3878C4
:10A54000A8470137A742FAD1B3071CD50021164806
:10A55000164B984717E01149114A8B58002BFCD134
:10A560000E4E00228123DB00F2502A0001993000B8
:10A570000F4B98478023DB00F5500122084BF25027
:10A5800030780C4B984703B0F0BD00210A48074BC8
:10A590009847CEE7543B0020F5980100443700204F
:10A5A00004040000A5A40000D4DE02003DA40000C5
:10A5B000616E020039A20000CCDE020010B50E4B25
:10A5C00098470E4B00228121C9005A5008395A5031
:10A5D0000B495A500B4C02327A23E2540A4B9847EB
:10A5E000E0670A4C0C220A4920000A4B98470021D8
:10A5F0002000094B984710BD318D010044370020E1
:10A6000004040000543B002005990100201A00209A
:10A61000E0DE0200616E0200D9A30000F0B5D6466C
:10A620004F464646C0B590B081239B00A94AD358F7
:10A63000002B14D17A23A84AD35C0024002B00D02D
:10A6400019E1A64B9847A44BDB6FC01AA04200D972
:10A6500022E110B01CBC90469946A246F0BDA04B2A
:10A66000984786239B009B4AD358C01A3228E1D9C9
:10A670001300812292009A58002199540124002746
:10A68000002538E008AB994631001800954B9847F3
:10A690004B461B78002B27D0042E60D008A98D488C
:10A6A000914B984700281FD08B4B98467A269C5593
:10A6B0008A4B98474346D8670022012143208B4BA1
:10A6C00098476B1C8A4A80218A488B4DA8470121F4
:10A6D00088488A4B9847002181239B007D4AD150AE
:10A6E00043469B5D032B2CDC2500052C00DD82E01E
:10A6F00001370134E4B2FEB2042DC3DD8049754850
:10A70000794B98470028EFD0734D04227A23EA54FE
:10A71000724B9847E867002201214320734B98470A
:10A72000744D0423774A80212800734EB0470121DD
:10A730002800724B9847002181239B00654AD15025
:10A74000D2E7714B9847714B00228121C9005A50C2
:10A7500008395A506E495A506E4B9847C4E76D46B7
:10A760006D4B6A4603CB03C21B88138008A9684659
:10A770006A4B984768466A4B9847281803226949EC
:10A78000694B984769465348574B9847002830D043
:10A79000514D05227A23EA54504B9847E86700222E
:10A7A00001214320514B9847574B9847574B002264
:10A7B00090468122D20041469950083A9950544A15
:10A7C0009950544B9847434D584B2A0043CB43C2B2
:10A7D0001B8813802800524B9847010082239B005E
:10A7E000E85003222800524B984781239B004246A1
:10A7F000EA5025007CE781239B00364AD158002986
:10A800000DD08B3BFF3B344AD05C431E032B12D947
:10A81000052813D0002181239B002E4AD1507A2392
:10A820002D4AD35C002B26D1002181239B00294A8D
:10A83000D150002405E73F4B9847F0E73E4B3F4A95
:10A840009C1889B2220020003D4DA84782239B001E
:10A85000E158002905D1002181239B001D4AD150D8
:10A86000DDE71C4C03222000314B98470022822355
:10A870009B00E250EFE7013BD8B2324B984704000F
:10A880007A23154AD35C042B00D0DAE62E4B1B78D2
:10A89000012B00D0D5E6DCE601212C482C4B984753
:10A8A00000217A230C4AD154002243200F4B9847B1
:10A8B0000B4B984705000A4CA047401B6328FBD967
:10A8C000124B00228121C9005A5008395A501049B0
:10A8D0005A50BEE628350020543B0020059901005F
:10A8E000F5980100959500003576020091DF000093
:10A8F000ECDE0200201A0020796F0200D9A30000CC
:10A900000B3C00203CDF0200898E01004437002010
:10A9100004040000318D01001CDF020041700200C0
:10A920000172020028DF0200616E02002CDF0200CB
:10A93000F5A40000D511020030370020F8FDFFFF1C
:10A9400069550100B99500002C1C002074DF02003D
:10A950003DA40000FEE7000010B5174A174B9A42CD
:10A9600011D01A00164B9A420DD2164A03339B1A85
:10A970009B0801339B00002210480F498C588450DB
:10A9800004329A42FAD1104A104B9A420AD2D34367
:10A990000E495B1803218B4304339B18002102C22C
:10A9A0009342FCD10A4AFF210A4B8B4393600A4B26
:10A9B00098470A4B9847FEE7104A03000000002022
:10A9C000880C002004000020900C0020645300201C
:10A9D00000ED00E000800000E16D0200916C0100DC
:10A9E000F0B5174A93690120034393618223DB0585
:10A9F000D3215A5C82435A54D2229C5C84439C5497
:10AA00005C5C84435C549C5C84439C54833080260F
:10AA100036031E508025ED021D505C5C02273C432E
:10AA20005C54985C38439854585C04242043585430
:10AA3000995C214399543A3A9E509D50F0BDC046CE
:10AA4000000800400023012801DD18007047084A73
:10AA5000135CDB018221C9058C466344196A8000BE
:10AA6000101843680B4058424341DBB2EDE7C04643
:10AA700004000020F0B5D6464F464646C0B5002437
:10AA8000164B9946164B9846164F11E0164B1A5D19
:10AA900093009B185B00DA5D01218A431543DD5565
:10AAA000A300124A9B1800221A610134022C10D014
:10AAB000E6B23000C847824605006B1E9D41EDB2EC
:10AAC0003000C0470028E1D055466B425D41EDB2F1
:10AAD000DCE71CBC90469946A246F0BD45AA0000A2
:10AAE000E9910000981D002020E50200543B002061
:10AAF000F0B5DE4657464E464546E0B589B0844B34
:10AB00009847844BDB6AC01A182806D809B03CBCA9
:10AB100090469946A246AB46F0BD7F4DAC69A4066F
:10AB2000A40EFA27BF007C43794EB04739007B4B17
:10AB300098470C1906AB5C70240A9C70AA69120530
:10AB4000920EDA70AA69D203D20E1A71AA69920221
:10AB5000D20E5A71AA699201120F9A71AA69920EC5
:10AB6000DA710C221A70B0476A4BD8626C4B984667
:10AB70006C4B994600256C4B9A466C4B9B4647465E
:10AB80001CE001334A461370614B984738644AE031
:10AB9000674B984705903E6903E0654B98470590E1
:10ABA0003E695B4B9847801B059B834262D9013508
:10ABB000043701239C46E144022DA7D0EEB23000B9
:10ABC0005C4B984780460400631E9C41E4B2300011
:10ABD000D047002803D0444663425C41E4B2049568
:10ABE0002800D8470028E2D1534B5A5D93009B18A8
:10ABF0005B00524A9B5CDB07DB0F9C4261D0002C60
:10AC000013D004984E4B98470028C6D004984D4B5B
:10AC100098470028BCD030004B4B984705904B46D6
:10AC20001B78002BADD03E6CBBE70498444B984793
:10AC3000002804D03E4B984705903E69B1E7049840
:10AC4000404B9847002810D030003F4B9847059064
:10AC50004B461B78002B01D03E6CA2E701334A46DD
:10AC600013702B4B98473864F6E7314B98470590A3
:10AC70003E6996E7304B049A9B5C9846E1B206AA7F
:10AC80001800324B984743469B0043445B002B4AD5
:10AC90009C5CE407E40F1E4B98469847049A531CAB
:10ACA000059A0292861B01960094294A8021294820
:10ACB000294CA047C047386101212648274B9847B7
:10ACC00075E704981E4B9847002811D0002C06D039
:10ACD00000234A4613700E4B9847386167E7049883
:10ACE0001F4B98470028F6D000234A461370F2E71E
:10ACF000002C03D100234A461370ECE70498184B4C
:10AD000098470028E7D000234A461370E3E7C0467F
:10AD1000F5980100303C0020002400406D44020002
:10AD2000543B00202C140020E99100004D950000B8
:10AD30000D92000045AA000020E50200981D0020A9
:10AD40004993000001930000E992000091DF0000A8
:10AD500090DF0200201A0020796F0200D9A30000C2
:10AD600025930000054B0022F321C9005A501031F1
:10AD70005A50D32109015A547047C046981D0020EB
:10AD800010B5664B9847664B9B68C01A092800D8D7
:10AD900010BD624B9847624B98608C23614AD35830
:10ADA0001B073CD48C235F4AD358DB0644D48C2346
:10ADB0005C4AD3585B0760D48C235A4AD3585B054E
:10ADC00068D48C23574AD3581B056ED48C23554A1C
:10ADD000D3585B047AD48C23524AD3581B0400D531
:10ADE00081E08C234F4AD3581B0600D588E08C2382
:10ADF0004C4AD3589B04CBD501214B484B4B984729
:10AE000048498C224A4B885803408B50494B9847FD
:10AE10008022920048490020484B9847B8E700211B
:10AE20004748424B98473F498C220823885898430B
:10AE30008850444B9847B5E7002143483B4B98471F
:10AE4000384B8C21102258589043585070229A5AEF
:10AE5000F023DB001A42AAD0324A7020135A3B4931
:10AE60001940C0235B000B43135270321B0A782138
:10AE70008B435370364B984799E7002135482B4B4D
:10AE8000984728498C220423885898438850324B8D
:10AE9000984791E701213148244B984721498C225A
:10AEA0002F4B885803408B508BE701212D481F4BB7
:10AEB00098471C498C222C4B885803408B502B4BB5
:10AEC00098472B4B98472B4B98477FE701212A48FF
:10AED000164B984713498C22284B885803408B50B7
:10AEE000274B984777E701212648104B98470D4993
:10AEF0008C22254B885803408B50244B984770E791
:10AF000001212348094B984706498C228023885801
:10AF10009843885000201F4B984768E7F598010038
:10AF20002C140020543B002038E002003DA4000017
:10AF3000FFDFFFFFB919020088160020DD190200AB
:10AF4000ACDF0200118A0000C4DF02007FF8FFFFBF
:10AF500075020200D8DF0200D5410200E0DF0200E6
:10AF6000FFFBFFFFF4DF0200FFF7FFFF75D00000DB
:10AF700079CA000035D6000004E00200FFBFFFFFE1
:10AF800065AD000014E00200FF7FFFFF5598000050
:10AF900028E0020061E3000010B50400094B984767
:10AFA000002300280BD0084A24011419F323DB00E6
:10AFB0009C46644423680020D321090150541800A2
:10AFC00010BDC0464D950000981D0020F0B583B01F
:10AFD000234C8422920000212000224B9847224FCC
:10AFE000F323DB00F9582000204CA047204BF958F0
:10AFF000A047F523DB00F958A0471E4BF958A0479E
:10B00000F0239B00FC18F623DB009C466744174D99
:10B0100066682168A8473100A8473834A742F7D1AD
:10B0200000236A4613705370134B9A691205920EEF
:10B0300069468A709A69D203D20ECA709A699202DE
:10B04000D20E0A719A699201120F4A719B699B0E86
:10B050006A468B71A0210248084B984703B0F0BDA7
:10B0600088160020E56E0200981D0020C7400200EF
:10B0700094070000A407000000240040911402007F
:10B0800070B58422920019490120194B9847002875
:10B090001BD0164C2000174EB047174DF323DB0092
:10B0A000E850201DB047154BE85020000830B0474D
:10B0B000F523DB00E85020000C30B047104BE8507F
:10B0C00001211048104B984770BD01210F480E4BCD
:10B0D0009847094B0022F321C9005A5007495A509A
:10B0E00014315A5006495A50EEE7C04688160020DF
:10B0F000DD190200B3400200981D002094070000F3
:10B10000A40700007CE002003DA400005CE0020017
:10B1100010B51D4A13698020034313611B4B1A8825
:10B1200002218A431A801A8801210A431A80184A88
:10B130005A63184A9A631988802252000A431A8077
:10B140001988802292000A431A8019888022D2002E
:10B150000A431A801988802212010A431A801A8829
:10B1600004218A431A801A8802210A431A800A4A53
:10B17000C124A40013591B021B0A802109060B439A
:10B180001351106010BDC04600080040006000412F
:10B1900060190020A018002000E100E01F4B5B6A4E
:10B1A0009B0710D51D4A3F21535C0F20834301208C
:10B1B000034353540F31535C022003435354002183
:10B1C000174B184AD150154B5B6A5B070FD5134AD2
:10B1D0003F21535C0F2083430220034353540F311C
:10B1E000535C0343535400210F4B0E4AD1500B4B79
:10B1F0005B6A1B0711D5094A3F21535C0F2083432B
:10B200000320034353540F31535C02200343535430
:10B210000021AE235B01034AD1507047006000411A
:10B2200070110000981D00209813000010B5042331
:10B23000196800231868014B984710BD1599010043
:10B24000F0B5C64600B5C2B084235B006A46002153
:10B250005748584CA0476E46F21DFF326C460025F9
:10B260002378ED1801349442FAD1534B1B78002B0C
:10B2700003D042B004BC9046F0BD0733FF336A46AA
:10B28000D35C98460823FF33D75C00214B484C4BD6
:10B29000984743461B02FF18BD4204D0002149488D
:10B2A000474B9847E5E700214748454B98476B4691
:10B2B0001B781B026A465578ED18444B9847854227
:10B2C00021D0002142483E4B98476B461B7A013300
:10B2D000DBB26A461372022B66DC002332789B18BD
:10B2E0000136A642FAD1190A8322520068468154D7
:10B2F0000822FF326946835401323648364B98475C
:10B30000364B9847B5E7002135482D4B98476B469B
:10B310009B781B026A46D578ED18324B98478542D8
:10B3200021D06B461B7A0133DBB26A461372022BC3
:10B3300032DC002332789B180136A642FAD1190A72
:10B3400083225200684681540822FF3269468354A2
:10B3500001322048204B984700211D48184B984740
:10B360001E4B984785E700211F48154B984710480A
:10B370001E4B9847C024E4001C4F1D4E80252D0114
:10B380002000B847B0470134A4B2AC42F8D1002144
:10B3900018480B4B98476CE700211748084B984713
:10B3A0000348124B984764E70148104B984760E701
:10B3B000FF050000659F00002C1C0020CCE002006F
:10B3C0003DA4000074E10200F0E00200D59400000A
:10B3D0003CE10200F05D0C0061A100002DB2000014
:10B3E00004E10200DD92000014E10200E1A000008F
:10B3F0002543020024E102004CE1020010B50400E4
:10B4000002230370002343704E228270C3702F3AD0
:10B4100002714371103383710D4B98470023C15C57
:10B42000E218D17101330F2BF9D12300200016301F
:10B4300000221978521801338342FAD1130AA375F6
:10B44000E27501210348044B9847182010BDC046FF
:10B450006D89000094E102003DA40000F8B5DE46CD
:10B46000474680B58046040001000B3103000026EA
:10B470001A78B61801338B42FAD14346DB7A1B02A5
:10B480004246127B93469B4447460D37424D2278F5
:10B4900042494348A84700214148424B984701345C
:10B4A000BC42F4D100214048404B98475E4508D04B
:10B4B00001213F483D4B984700200CBC90469B46DD
:10B4C000F8BD43465B781B02424692789B18394A86
:10B4D00013604E2B05D001213748344B984700208C
:10B4E000EBE74346DB781B02414609795B18936022
:10B4F00043465B791B02414689795B18536043469A
:10B50000DB791B024146097A5B18D36043465B7ABC
:10B510001B024146897A5B18136101212748234B9E
:10B520009847274B9B78002B05D10022244B9A800B
:10B53000204BD868C1E7012122481C4B9847204B7B
:10B54000DB891C4A92689A4203D000221C4B9A70F5
:10B55000EBE701211C48154B9847194B1B89154AED
:10B5600052689A42F1D101211848104B9847144B68
:10B570001B8A104AD2689A42E7D1114C6389A38092
:10B5800001211348094B984702236370114B9847D8
:10B590006061084BD86890E7FD6F0200A8E10200E7
:10B5A000201A0020D9A300003C2E03003DA4000077
:10B5B00028E20200381400200CE20200B0E1020090
:10B5C0002C1C0020C0E10200D0E10200E4E10200F6
:10B5D000F4E102000599010070B50A00012303702F
:10B5E000002343704E338370134B99680C0AC47068
:10B5F00001715B68190A41718371130AC371027288
:10B600000E4BDB88191241728372030006000B3661
:10B6100000241D7864190133B342FAD1230AC3729E
:10B620000473074C07492000074B9847012120006D
:10B63000064B984770BDC046381400202C1C0020D3
:10B64000201A002040E20200FD6F0200D9A3000092
:10B6500070B5CCB01D4A557A01AB1D70107A587088
:10B6600054799C701179D970D268013A160A1E710A
:10B670005A7103229A71023ADA7100221A725D72CB
:10B680009872DC7219730D2301A90732FF325B54E3
:10B6900001339342FBD101AB852040006844002276
:10B6A0001978521801338342FAD101AB100A832171
:10B6B000490058540821FF315A548422520019007D
:10B6C0000348044B98474CB070BDC0463814002066
:10B6D000F05D0C0061A10000F0B5D646474680B58C
:10B6E000CFB005000F00544C0A0054492000544BC1
:10B6F000984700212000534B9847B91E002926D0B7
:10B700002B00681800241A78A41801338342FAD158
:10B710006B5C1B02EA19013A127890469844A045E6
:10B7200017D001214848494B9847434D009743465D
:10B73000220047492800424CA04700212800414BE5
:10B74000984700204FB00CBC90469A46F0BD0C00C4
:10B75000DEE70B2F51D0EE7936022B7A9E19EB7A69
:10B760001B022A7B92469A4452463A493248344B4D
:10B77000984701213048334B98475346002B45D01A
:10B7800080235B009A45CCD803AB5246120A1A714B
:10B7900052465A7129000D315246122068442E4BF0
:10B7A00098475346FF2B3CD92C4A916803AB080AB3
:10B7B000187059705268110A9970DA708920400027
:10B7C000684400221978521801338342FAD103AB3E
:10B7D000100A8321490058540821FF315A5470013E
:10B7E00080190001C6231B039C466044842252003A
:10B7F00003A91B4B98470120A4E72B78042BAAD15F
:10B8000001211848114B984703209BE70121164856
:10B810000E4B98470136114BDE60144B98470220BF
:10B8200090E780225200D21A4EA850442738FF38A1
:10B8300000210F4B9847B7E7201A002054E202007E
:10B84000FD6F0200D9A30000A8E202003DA40000A1
:10B85000C4E2020078E20200616E020038140020A7
:10B8600061A1000064E2020094E2020051B600000F
:10B87000E56E020010B503230370002343704E33BE
:10B8800083700F4B9A68110AC17002715A68110ACD
:10B8900041718271DB681A0AC271037203000400ED
:10B8A00009340022197852180133A342FAD1130A3D
:10B8B0004372827200210348034B984710BDC04673
:10B8C00038140020E4E202003DA4000010B50C4B47
:10B8D0009B88002B00D110BD01210A480A4B9847D4
:10B8E000074B01229A70094A9188198199885981D8
:10B8F0001189D981118A9981D2681A82EBE7C046F1
:10B900002C1C0020FCE202003DA4000038140020A2
:10B91000F8B50C0016001D00002807D1C64B5A7858
:10B920000C2A0ED89300C54AD3589F46C24B00221A
:10B930005A701A7000231800F8BD01290CD0022992
:10B9400021D0BD4B1A780223002AF4D10121BC4832
:10B95000BC4B98470023EEE7BB4B9847B64B9B691F
:10B96000C01AFA22520002239042E4D90698B74B3B
:10B970009847079B1860B04C01236370B44B9847FD
:10B9800060610323D7E7B04B9847AB4B9B69C01A64
:10B99000FA22920002239042CDD90698AB4B9847E9
:10B9A000079B1860A44C01236370A94B9847606102
:10B9B0000323C0E7012926D0022902D00223002850
:10B9C000B9D00D2D2BD00B2D4DD0022C53D00F22E2
:10B9D000A04B9A619E4B9847974B5B69C01A9D4B51
:10B9E0009A6902239042A6D9934C00252570012123
:10B9F0009948944EB04701219848B047984B9847D2
:10BA00006570002397E786239B00964AD7588E4B94
:10BA10009847C71BFA20B84280414042CEE7300029
:10BA2000914B984783B2844AD380002B04D10022E3
:10BA3000814B1A7000237EE7864C0004020C8B4D6C
:10BA400023698B4928008B4EB047012128008A4B7F
:10BA500098470222784B5A70002323758748884BF9
:10BA60009847032367E73378042BAED10422724B47
:10BA70005A7002235FE77822764B9A61AAE7754AEB
:10BA8000137D0133DBB21375052B0FDC6A4CE288A2
:10BA9000A18806987B4B9847032363706C4B9847AB
:10BAA00060610D23079A13600A3B44E76C4B98478B
:10BAB00001217548634EB0475F4C00252570012178
:10BAC0007248B0476570002335E7012202291ED174
:10BAD0000223002A00D12EE7002D4CD002332A0089
:10BAE0009A430B2A1FD01023FF339D421BD05F4C7B
:10BAF0002B00674A80212000664DA84701212000C5
:10BB00005D4B984702224C4B5A70022313E7862361
:10BB10009B00544AD7584C4B9847C01BFA2282428C
:10BB200092415242D4E7290030005B4B98470128EC
:10BB30000CD0002805D0022813D0032816D00223E9
:10BB4000F9E602223C4B5A700323F4E63A4B0222F8
:10BB50005A709A8801329A8000223E4B1A7503234C
:10BB6000E9E60422344B5A700323E4E60B22324BFD
:10BB70005A700323DFE6012C11D0022C13D0344B72
:10BB800098472D4B5B69C01A324B9A690223904249
:10BB900000D8D0E60222284B5A700223CBE60122BD
:10BBA0002C4B9A61EBE70F222A4B9A61E7E7069844
:10BBB0003A4B98470B23079A13601F4C013B637065
:10BBC000234B984760610223B5E6214B98471A4BF7
:10BBD0005B69C01A0223032800D8ACE6164B00228A
:10BBE0005A709A701A7001212D48164B98470123FC
:10BBF000A1E60698294B98470B23079A13600E4C31
:10BC000001336370124B98476061022393E6104B37
:10BC10009847094B5B69C01A0223032800D88AE6BB
:10BC2000094B9847044B986100221A7001211C4867
:10BC3000044B984700237EE62C1C002098E002006D
:10BC4000E4E302003DA40000F5980100FDB300000C
:10BC500005990100381400202CE3020040E30200A3
:10BC6000CDB80000283500205DB40000201A002067
:10BC700010E30200FD6F0200D9A30000FF050000E1
:10BC8000E1A00000D9B5000068E302008CE30200E7
:10BC9000A0E30200796F0200D9B6000075B8000079
:10BCA000CCE30200024B00221A705A707047C04663
:10BCB0002C1C002070B584B0484B1B780120002B51
:10BCC00004D0012B04D0022B2CD0012004B070BD75
:10BCD00000230393424A81239B00D35803A9019177
:10BCE0000092012100203F4CA04704000399002945
:10BCF0000BD1012C0FD0002C0BD0032CE5D100214F
:10BD000081239B00364AD150DFE73548364B9847B0
:10BD1000EFE70020DAE70423196800231868334BA3
:10BD20009847D2E77123324AD25C07331340082B7D
:10BD30000CD0304B9847294B5B69C01A3C28C4D9BA
:10BD40002D4B98470022254B1A70BEE70023039322
:10BD500083239B00224AD258002A24D184239B00AB
:10BD60001F4AD358002BE4D114008325AD0053594A
:10BD700003AA01920094220002210020194EB0472C
:10BD80000600039A84239B00E25000236351002A9B
:10BD900013D1012E1BD0032ECBD1002181239B0078
:10BDA0000F4AD150C5E7154C15492000154B98474F
:10BDB00001212000144B9847D0E7104C1349200074
:10BDC000104B9847012120000F4B9847E1E70423CF
:10BDD000196800231868054B9847AAE72C1C002017
:10BDE0002835002011B90000B1A20000159901000A
:10BDF000543B002005990100CDB80000201A002016
:10BE0000F8E30200FD6F0200D9A300001CE4020069
:10BE1000F8B50D00C8235B000024984202DD91387C
:10BE2000FF380400C823DB009C4200DD1C00280012
:10BE3000084B984706002800074FB847301A604360
:10BE4000C821C900054B984704002800B8470019CD
:10BE5000F8BDC04675990000519900007544020074
:10BE6000F0B5C64600B582B01A4B984700241A4B6D
:10BE700098461A4F1A4EE5B206212800C047C0B2B4
:10BE8000B84706212800B04708200843C0B201A9DE
:10BE9000144B9847E3001B1BDB00134AD318F42212
:10BEA00092009446634419787F220A401A705A78A7
:10BEB00001211143FD220A4004218A435A701A7855
:10BEC0003C318A431A700134122CD4D102B004BC24
:10BED0009046F0BDE17A010061430200D57A01008D
:10BEE0006D4402000D7B0100981D0020F8B506008E
:10BEF000104B9847104CF500AB1BDB00E318F02209
:10BF000092009F18083A9A181268821A0B498C46B8
:10BF100063440020185E5043E1210901084B984713
:10BF2000020000233868796812184B413A607B6040
:10BF3000F8BDC046F5980100981D0020A20300003E
:10BF400061430200F0B583B004000D00C7292DD86D
:10BF5000C61DB3009B195B002D4A9B5C0020DB07CC
:10BF60001CD473232B4AD35CDB0619D50121300086
:10BF7000294B9847294FB3009E197600244BF35C58
:10BF8000DB07DB0F00932B00220025493800254CEE
:10BF9000A04701213800244B9847002003B0F0BD92
:10BFA000002201213000214B9847E3E796235B00F4
:10BFB0009942F3D9C61DB3009B195B00144A9B5CE0
:10BFC0000120DB07EAD57323124AD35CDB0618D5C0
:10BFD00000213000104B9847104FB3009E19760097
:10BFE0000B4BF35CDB07DB0F00932B0022001049A7
:10BFF00038000C4CA047012138000B4B984701201A
:10C00000CCE7002200213000084B9847E4E7C04607
:10C01000981D0020543B0020B5EC0000201A0020A1
:10C0200030E40200FD6F0200D9A3000091DF0000A0
:10C030004CE4020070B582B00400C200121AD200B3
:10C040004A4B9B184A4A9446634400269E5F494BDC
:10C05000984705002000484B98472D18AE4237D32B
:10C0600025001935AB005B195B00404A9B5C002042
:10C07000DB0701D402B070BD7323404AD35CDB06FA
:10C0800020D5002128003E4B98473849E3001B1B70
:10C09000DB00CB18364A9446634400229B5E394E3F
:10C0A000AA0055196D006A5CD207D20F00922200D7
:10C0B00035493000354CA04701213000344B9847BA
:10C0C0000020D7E7002200212800324B9847DCE708
:10C0D000E200121BD200254B9B18254A944663446C
:10C0E00000255D5F2000234B9847854235DA250007
:10C0F0001935AB005B195B001C4A9B5C0120DB0718
:10C10000B8D473231D4AD35CDB0620D50121280057
:10C110001B4B98471549E3001B1BDB00CB18144A47
:10C120009446634400229B5E164EAA0055196D008A
:10C130006A5CD207D20F0092220017493000134CDC
:10C14000A04701213000124B9847012092E70022BE
:10C15000012128000F4B9847DCE71934A3001C1974
:10C160006400024BE05CC007C00F83E7981D00200D
:10C17000A20300001599000035990000543B0020EF
:10C18000B5EC0000201A00206CE40200FD6F0200F4
:10C19000D9A3000091DF000088E40200F0B5CE468C
:10C1A00000B52B2400270025384EB14620E0BE23E1
:10C1B0009B004A46D35C0125DB071FD47323344A16
:10C1C000D35CDB0604D501214C20324B984715E0A7
:10C1D000002201214C20304B984701250EE000221F
:10C1E00001214B202C4B9847012701343D2C1DD0B9
:10C1F000A3001B195B009B5DDB07D8D42200123A19
:10C2000093009B185B00214A9B5CDB07EDD5234B19
:10C21000D35C0127DB07E8D473231D4AD35CDB061C
:10C22000DDD501214B201B4B9847DEE7002D0ED1B9
:10C23000BE239B00154AD35CDB0708D57323144A41
:10C24000D35CDB0617D500214C20124B9847002FFA
:10C250000ED1124B0D4AD35CDB0709D573230C4A70
:10C26000D35CDB060DD4002200214B200A4B9847FB
:10C2700004BC9146F0BD002200214C20064B98479B
:10C28000E5E700214B20034B9847F1E7981D00207C
:10C29000543B0020B5EC000091DF0000EE020000EE
:10C2A00070B582B00400C200121AD2004C4B9B1829
:10C2B0004C4A9446634400269E5F4B4B98470500CA
:10C2C00020004A4B98472D1AAE423AD826002B360A
:10C2D000B3009B195B00424A9B5C0025DB0704D43A
:10C2E000434B9847280002B070BD7323414AD35C8A
:10C2F000DB0620D5002130003F4B98473849E3004A
:10C300001B1BDB00CB18374A9446634400229B5E1C
:10C310003A4DB20096197600725CD207D20F0092A5
:10C32000220037492800374CA04701212800364B0E
:10C3300098470025D4E7002200213000334B98476E
:10C34000DCE7E200121BD200254B9B18254A9446DD
:10C35000634400255D5F2000234B9847854235DD0F
:10C3600026002B36B3009B195B001D4A9B5C012500
:10C37000DB07B5D473231F4AD35CDB0620D501212C
:10C3800030001D4B98471649E3001B1BDB00CB1800
:10C39000144A9446634400229B5E184DB2009619DD
:10C3A0007600725CD207D20F009222001849280052
:10C3B000144CA04701212800134B984701258FE713
:10C3C000002201213000114B9847DCE72B34A300F9
:10C3D0001C196400024BE55CED07ED0F80E7C046D9
:10C3E000981D0020A2030000F59800003599000078
:10C3F0009DC10000543B0020B5EC0000201A002035
:10C40000A0E40200FD6F0200D9A3000091DF00004C
:10C41000BCE4020010B5C4B22000054B98470028C8
:10C4200001D0012010BD2000024B9847F9E7C0461B
:10C43000A1C2000035C00000F0B5DE4657464E46AA
:10C440004546E0B58BB07A4B98477A4B1B6BC31AC5
:10C450000120192B06D80BB03CBC90469946A24649
:10C46000AB46F0BD724B9847724B1863724D002477
:10C47000724B9846724EB0E006214846714B984781
:10C48000C7B23800704B9847062148466F4B984713
:10C490000831C8B209A96E4B9847002825D06D4ACB
:10C4A000B9008B5801338B501E2B00D890E0380018
:10C4B000473083001B185B00674A9B5CDB0706D58F
:10C4C00000230993BF003222624BFA5080E0002221
:10C4D0000121624B98473A0061496248624B984794
:10C4E00001216048614B9847EAE7BB000021594AA7
:10C4F00099503800473083001B185B00564A9B5CFC
:10C50000DB077ED4099F4846594B98477843FA2762
:10C51000BF003900574B9847AA462880564B5843CE
:10C52000030B180006930623EA5ED31701975F21D9
:10C530000091070051498847E88049463800504B30
:10C5400098470700099003B26B8008216A5E904209
:10C5500000D92B8152460A21525E974201D252469F
:10C5600053815346DB6804935246128A45488346FA
:10C5700005921000D8470499434B98470790059AB5
:10C58000531C9BB252460493138238003F4B98478A
:10C5900007993F4B9847071C0498D847011C381C43
:10C5A0003C4B98475346D86006229A5E5346042176
:10C5B0005B5E9B1AD9175B184B40642B2EDC0398EB
:10C5C000354B984706994846344B984700282BD15D
:10C5D00001343835122C00D13DE7E3B2994603947B
:10C5E000A0B2C047022800D146E7E01D0021B047B5
:10C5F000002120002B30B047002120001930B04727
:10C60000E6E70022154B98473A0025491548164B96
:10C61000984701211348154B984773E753469A8072
:10C620000120204B9847CAE720001F4B9847CFE7CF
:10C63000F5980100303C002038210020B19900001D
:10C64000B5EC000061430200D57A01006D440200A0
:10C650000D7B010054140020981D002091DF000084
:10C66000D4E40200201A0020FD6F0200D9A30000CC
:10C670009D990000FD830100C40900008942020069
:10C6800011BE00008D540200D54E02002D5502004F
:10C6900021490200454C0200EDBE000045BF0000EC
:10C6A000F8E402009DE2000015C40000F0B5DE468B
:10C6B00057464E464546E0B55F4CA54404008946C2
:10C6C0001700814209D90B1A0593059B002B00DC4A
:10C6D000AFE00023984607976BE00B1A8022D20048
:10C6E0009446634405938142EFD100239846404627
:10C6F0008D239B009D443CBC90469946A246AB4688
:10C70000F0BD1D1B43465B19DBB298464B4E4B46B2
:10C7100002930194059B00932B00494A802130002D
:10C72000484FB84701213000474B984753465E01B8
:10C73000564436013300454A9446634406938422A6
:10C74000920008A91800424B9847002D1DD00F23D6
:10C750009B460C3B9A4608A8079F5B4623405146E0
:10C76000194049009B08023352468A409446C25CF5
:10C770006646B2433E008E403243C254013D01340E
:10C78000A405A40D002DE8D10797172304AA944609
:10C79000634416226244062108A82E4DA8470822A9
:10C7A00008A906982C4B9847A145A0D0059B984511
:10C7B0009DDA23099A4601331B01A145A1D91D1B0E
:10C7C000994501D24B461D1B43465B19DBB2984687
:10C7D0001A4E4B4602930194059B00932B00184A76
:10C7E00080213000174FB84701213000164B984781
:10C7F00053465E01564436013300144A944663445E
:10C8000006938422920008A91800114B9847002D26
:10C810009DD1172304AA944663441622624406213C
:10C8200008A80C4DA847082208A906980A4B984763
:10C83000BCE7002398465AE7CCFDFFFF201A0020F2
:10C8400080E60200796F0200D9A3000040CE00000C
:10C85000B99F00008988000061A1000030B5174C25
:10C86000A54404000F250D400909480140180001A6
:10C87000134B9C466044842292006946114B9847B2
:10C88000AB086B449B7803210A002A4052001341F5
:10C890000B400020022B03D085239B009D4430BD1C
:10C8A000290184AB9C466144074B9C46614410229D
:10C8B0002000064B98470120EEE7C046ECFDFFFF45
:10C8C00040CE0000B99F0000F8FDFFFF616E02003E
:10C8D000034AD36801339B059B0DD3607047C04664
:10C8E000AC3C0020F0B5DE4657464E464546E0B526
:10C8F000514CA54400220025504B9A469B46504B74
:10C90000984605E00135EDB22A004D2D00DD8AE0A4
:10C9100093009B185B0051465B5C9B07F2D590002F
:10C9200083185B005946595C0224A1435C461955A3
:10C930004346C358002B76D084AB1D703F4C01009A
:10C9400080184000005DC007C00F58708A18520060
:10C95000023212193B486844117899700132013350
:10C960008342F9D1384B6B44384A6A440E2184A87B
:10C97000374CA146A047374E34680F27274023097C
:10C980005C01E4182401344B9C46644484229200E8
:10C9900069462000314B9847380188AB9C4660447B
:10C9A0002F4B9C466044102284A92E4B9847BA080E
:10C9B000023203231F407F000321B9406B469B5C7A
:10C9C0008B430221B9400B4369468B546B460733B6
:10C9D0006A46063206216846C847842292006946A4
:10C9E0002000214B9847336801339B059B0D336032
:10C9F000B3680133B36000211C481D4B9847802366
:10CA0000DB00B2689A4200D07CE700211948184B3D
:10CA10009847104A536801339B059B0D53609368F8
:10CA2000013B93606EE789239B009D443CBC90468C
:10CA30009946A246AB46F0BDDCFDFFFF981D0020E5
:10CA400024E50200170200001F0200001E02000081
:10CA500089880000AC3C002040CE0000B99F000057
:10CA6000E8FDFFFF616E020061A10000A8E6020080
:10CA70003DA40000BCE60200F0B5184CA544184ED9
:10CA8000002500246B461C705D709C70DC701C716E
:10CA90005C7180225200FF2102A8124B98476B461E
:10CAA00007336A460632062168460F4FB84784228C
:10CAB0009200694630000D4B9847013584239B0056
:10CAC0009C466644402DDDD1094B00225A601A6015
:10CAD0009A6085239B009D44F0BDC046ECFDFFFF9E
:10CAE00040CE0000E56E02008988000061A10000D0
:10CAF000AC3C0020F0B5DE4657464E464546E0B514
:10CB0000CDB00021A448A54B98470CAB9946A44F43
:10CB10000023984600240AADA24B9A4622E0042244
:10CB2000122161444846A04B984711E0042200219D
:10CB300048469E4B984723009D4A802149009D48C6
:10CB40009D4EB04700219B489C4B98470123984637
:10CB5000013484239B009C46674404239C46E144A3
:10CB6000402C30D0082229003800D0470E2306AAD6
:10CB7000944663440F22624406212800904EB04739
:10CB8000AA7906ABDB7B9A42D0D1EA790E2306A9BB
:10CB90008C4663441B789A42C8D16B78A342BED0BE
:10CBA000042200214846814B98472300854A802172
:10CBB00049008048804EB04700217E487F4B98470F
:10CBC00001239846C4E74346002B17D17E4B002231
:10CBD0005A601A609A600CAB1878020043460393BF
:10CBE00004930026002106918B460025002403278C
:10CBF0000793059684462800D94626E0734B98474C
:10CC000000217348654B9847AAE04946002938D06F
:10CC1000039901290CD106900491079903910121F0
:10CC2000059105E0012E34D04946012920D04E4619
:10CC300001333B4001309208002B04D1013406AA95
:10CC400018215218125DFF2C26D8390011400229F4
:10CC5000E8D00329D9D00029EAD1002E0AD0039DBB
:10CC6000012DE5D106900495039101310591DFE78F
:10CC70000391DDE7069003910121059101260491BE
:10CC8000D6E7069007990391012105918946049101
:10CC9000CEE701210391CBE7059E6046002E0FD120
:10CCA000049B002B10D04746434600220592069273
:10CCB0000021032507970CAE14004246270017E019
:10CCC000414B069A1A60EBE7404B984700214148D8
:10CCD000324B984744E0002A00D0039201332B40A6
:10CCE00001378008002B01D10131705CFF291AD86F
:10CCF0002C000440022C04D0032CECD0002CEDD1ED
:10CD0000E9E7002A09D0039C012CE7D1069722000D
:10CD1000079C039401240594E0E706970392049A84
:10CD200001240594DAE71700059B002B1FD1002A88
:10CD30002ED1254A136853601A00D11A2248816007
:10CD40002149CB601B4C896801910092224A8021C5
:10CD500049002000184DA84700212000174B984794
:10CD60004DB03CBC90469946A246AB46F0BD164B32
:10CD7000069A5A60002FDCD0134A53681268934217
:10CD8000DBD98021C9005118C91A0F488160D7E743
:10CD90000D4A53681268D0E7D8E602003DA40000AF
:10CDA00040CE0000B99F0000616E0200E56E0200F7
:10CDB00008E70200201A0020796F0200D9A30000C2
:10CDC00089880000E8E60200AC3C002079CA000037
:10CDD00020E702003CE702004CE70200094B9B6899
:10CDE000834205D8074BDA685A6000229A60704780
:10CDF000044A1B1A936053689C4660448005800D6A
:10CE00005060F4E7AC3C0020F0B5DE4657464E4695
:10CE10004546E0B57E4CA5447E4DAC69A406A40E03
:10CE2000FA2189004C437C4B98897C4B984789B206
:10CE3000091906AB1970090A5970AA691205920EF0
:10CE40009A70AA69D203D20EDA70AA699202D20E3F
:10CE50001A71AA699201120F5A71AA69920E9A71F7
:10CE60006F4B9A468423DB00994600246D4F55464C
:10CE70001CE02200313212016B4B9B181B7A5B07BE
:10CE8000DB0FA20069498A5892462A7B04925246D7
:10CE9000002A03D02A68002B00D0AEE00134103500
:10CEA00005239C46E1441B2C00D1A8E0082CE0DDC2
:10CEB000E3001B1BDB00B533FF335B4AD0584B4606
:10CEC000002BEBD05A495B4B98475B4B984703903C
:10CED000CA468CAB52461A705246120A5A705246D3
:10CEE000120C9A700399D9700A0A1A716A46127C58
:10CEF0005A71002306A88CAAD218195C91710133CB
:10CF0000072BF8D14D4B04AA944663444C4A624423
:10CF10000E218CA84B4EB0473B689B460F235A46C8
:10CF20001A4090465B461B095E01F6183601464BD7
:10CF30009C46330063448422920008A9059318009C
:10CF4000424B98474346180190AB9C466044404B87
:10CF50009C46604410228CA93E4B984743469A0851
:10CF6000023203205B4603405B00984004A9102670
:10CF70008919895C81430220984003000B4304A96E
:10CF8000102009188B54172304AA944663441622D0
:10CF90006244062108A82B4EB0478422920008A9BB
:10CFA00005982D4B98473B680193039B009353468C
:10CFB0002A4A802149002A482A4EB04700212848A1
:10CFC000294B98473B6801331B051B0D3B60BB6831
:10CFD0000133BB6080225201934200D05EE7002102
:10CFE0002248234B98470F4A536801331B051B0DFA
:10CFF00053609368013B936050E7039269E7912384
:10D000009B009D443CBC90469946A246AB46F0BD71
:10D01000BCFDFFFF00240040303C00206D440200B6
:10D02000A42000207C3C0020981D00205CE602002B
:10D030000000C842454C02004D5402002F0200007F
:10D040002E02000089880000809C0100B99F00002A
:10D05000E8FDFFFF616E020061A1000068E70200C9
:10D06000201A0020796F0200D9A30000BCE602005C
:10D070003DA40000F0B5CE46474680B51A4CA54405
:10D080001A4E002500246B461C705D709C70DC708D
:10D090001C715C7180235B0099461A00FF2102A875
:10D0A000134B98476B4607336A460632062168469B
:10D0B000104FB84784229200694630000E4B9847C3
:10D0C000013584239B009C4666444D45DBD10B4BC8
:10D0D00000225A601A609A6085239B009D440CBC14
:10D0E00090469946F0BDC046ECFDFFFF809C0100D4
:10D0F000E56E02008988000061A100007C3C0020F0
:10D10000F0B5DE4657464E464546E0B59D4CA54433
:10D1100000219D489D4B98470CAF9D4C002398469D
:10D1200000260AAD9B4B9A46BB4618E0042212210A
:10D1300061445846984B984706E00422002158461F
:10D14000964B984701239846013684239B009C46C2
:10D15000644404239C46E344FC339E4225D00822C9
:10D1600029002000D0470E2306AA944663440F22CC
:10D170006244062128008A4FB847AA7906ABDB7BB8
:10D180009A42DAD1EA790E2306A98C4663441B78C9
:10D190009A42D2D16B78B342C8D0042200215846BB
:10D1A0007E4B984701239846CEE74346002B18D183
:10D1B0007C4B00225A601A609A600CAB187802000F
:10D1C0004346039304930021059100248B460026D7
:10D1D00000250327079374498C46069481465846D8
:10D1E00026E0724B984700217148684B9847ABE0A6
:10D1F0005946002937D0039901290CD1069604918C
:10D20000079903910121059105E0012833D0594682
:10D2100001291FD0584601333B4001369208002BAC
:10D2200004D1013506AA18241219525D654525D886
:10D230003C001440022CE8D0032CD9D0002CEAD1B9
:10D24000002809D003990129E5D106960491039499
:10D250000591E0E70391DEE706960394012105912D
:10D2600001200491D7E706960799039101210591C2
:10D270008B460491CFE701210391CCE7069C4846F9
:10D28000059B002B0FD1049B002B0FD04746434634
:10D29000002205920692002603210797424D340092
:10D2A0004646270019E03F4B1C60ECE73F4B984790
:10D2B00000214048354B984746E0002E00D00396A9
:10D2C00001330B4001378008002B04D1013206A83E
:10D2D00018240019805CAA421AD80C000440022CC1
:10D2E00004D0032CE9D0002CEAD1E6E7002E09D0C7
:10D2F000039C012CE4D106972600079C039401248B
:10D300000594DDE706970396049E01240594D7E76C
:10D31000059B002B20D1002E2FD1224A1368536089
:10D320001A00D11A1F4881601E49CB60224C8968BF
:10D3300001910092214A802149002000204DA847F8
:10D34000002120001F4B98471F4B9D443CBC90463A
:10D350009946A246AB46F0BD124B069A5A60002E83
:10D36000DBD0104A536812689342DAD98021490110
:10D370005118C91A0B488160D6E70A4A53681268E7
:10D38000CFE7C046CCFBFFFF98E702003DA40000BA
:10D39000809C0100B99F0000616E0200E56E0200F2
:10D3A000898800007C3C0020FF03000075D000004D
:10D3B000ACE70200CCE70200201A0020DCE7020004
:10D3C000796F0200D9A3000034040000094B9B6868
:10D3D000834205D8074BDA685A6000229A6070478A
:10D3E000044A1B1A936053689C4660440005000D74
:10D3F0005060F4E77C3C0020034AD36801331B05EE
:10D400001B0DD3607047C0467C3C002070B5174CA4
:10D41000A5440500164B5C680F26264023095801D9
:10D42000C0180001134B9C46604484229200694658
:10D43000114B9847B3086B449A7803231C4064004F
:10D44000E24013400020022B03D084239B009D4424
:10D4500070BD310184AB9C466144084B9C466144DD
:10D4600010222800064B98470120EEE7F0FDFFFF51
:10D470007C3C0020809C0100B99F0000F8FDFFFF6C
:10D48000616E0200F0B5DE4657464E464546E0B5B1
:10D490005F4CA544040089461700814209D90B1A44
:10D4A0000593059B002B00DCAFE00023984607970F
:10D4B0006BE00B1A8022520194466344059381422B
:10D4C000EFD10023984640468D239B009D443CBCF1
:10D4D00090469946A246AB46F0BD1D1B43465B19DC
:10D4E000DBB298464B4E4B4602930194059B00934A
:10D4F0002B00494A80213000484FB84701213000B5
:10D50000474B984753465E01564436013300454A1F
:10D510009446634406938422920008A91800424B63
:10D520009847002D1DD00F239B460C3B9A4608A818
:10D53000079F5B4623405146194049009B08023330
:10D5400052468A409446C25C6646B2433E008E40D4
:10D550003243C254013D01342405240D002DE8D18D
:10D560000797172304AA94466344162262440621AF
:10D5700008A82E4DA847082208A906982C4B9847C2
:10D58000A145A0D0059B98459DDA23099A46013311
:10D590001B01A145A1D91D1B994501D24B461D1B5D
:10D5A00043465B19DBB298461A4E4B4602930194F0
:10D5B000059B00932B00184A80213000174FB84775
:10D5C00001213000164B984753465E015644360100
:10D5D0003300144A9446634406938422920008A9B7
:10D5E0001800114B9847002D9DD1172304AA94468B
:10D5F000634416226244062108A80C4DA84708225D
:10D6000008A906980A4B9847BCE7002398465AE7B2
:10D61000CCFDFFFF201A002080E60200796F020097
:10D62000D9A30000809C0100B99F000089880000F8
:10D6300061A10000F0B5184CA544184E0025002447
:10D640006B461C705D709C70DC701C715C7180227C
:10D650005200FF2102A8124B98476B4607336A46D7
:10D660000632062168460F4FB84784229200694669
:10D6700030000D4B9847013584239B009C4666443F
:10D68000102DDDD1094B00225A601A609A60852363
:10D690009B009D44F0BDC046ECFDFFFF4007040029
:10D6A000E56E02008988000061A10000943C002022
:10D6B000F0B5DE4657464E464546E0B5A64CA54475
:10D6C0000021A648A64B98470CAB9946A54F0023CE
:10D6D000984600240AADA44B9A4622E00422122167
:10D6E00061444846A14B984711E004220021484676
:10D6F0009F4B984723009F4A802149009E489F4E98
:10D70000B04700219C489E4B98470123984601341E
:10D7100084239B009C46674404239C46E144102CD0
:10D7200030D0082229003800D0470E2306AA94469C
:10D7300063440F22624406212800924EB047AA7922
:10D7400006ABDB7B9A42D0D1EA790E2306A98C4640
:10D7500063441B789A42C8D16B78A342BED004229E
:10D7600000214846824B98472300874A8021490080
:10D770008148824EB04700217F48814B9847012362
:10D780009846C4E74346002B17D1804B00225A60CD
:10D790001A609A600CAB1878020043460393049316
:10D7A0000026002106918B460025002403270793BD
:10D7B000059684462800D94626E0754B98470021F7
:10D7C0007448674B9847A9E04946002938D0039927
:10D7D00001290CD10690049107990391012105912B
:10D7E00005E0012E34D04946012920D04E460133B0
:10D7F0003B4001309208002B04D1013406AA1821C5
:10D800005218125D3F2C26D8390011400229E8D069
:10D810000329D9D00029EAD1002E0AD0039D012D79
:10D82000E5D106900495039101310591DFE703915D
:10D83000DDE7069003910121059101260491D6E7C9
:10D840000690079903910121059189460491CEE73D
:10D8500001210391CBE7059E6046002E0FD1049B6A
:10D86000002B10D047464346002205920692002125
:10D87000032507970CAE14004246270017E0434BE0
:10D88000069A1A60EBE7424B984700214248344B16
:10D89000984743E0002A00D0039201332B40013720
:10D8A0008008002B01D10131705C3F291AD82C006F
:10D8B0000440022C04D0032CECD0002CEDD1E9E77D
:10D8C000002A09D0039C012CE7D106972200079C6F
:10D8D000039401240594E0E706970392049A012437
:10D8E0000594DAE71700059B002B20D1002A2ED1E2
:10D8F000264A136853601A00D11A244881601E4CCE
:10D900002249896801910092244A8021490020001F
:10D910001A4DA84700212000194B984791239B00DE
:10D920009D443CBC90469946A246AB46F0BD174B81
:10D93000069A5A60002FDBD0144A5368126893424B
:10D94000DAD9511CFF31C91A10488160D7E70F4A54
:10D9500053681268D0E7C046BCFDFFFF34E8020000
:10D960003DA4000040070400B99F0000616E020062
:10D97000E56E020008E70200201A0020796F02001D
:10D98000D9A3000089880000E8E60200943C00204A
:10D9900035D600004CE80200CCE7020068E802003F
:10D9A000F0B5DE4657464E464546E0B5654CA544C3
:10D9B000654F0024654B9A46654B984604E0013458
:10D9C0000A374E2C00D1B3E0E0B2A3001B195B0074
:10D9D00052469B5C1B07F2D5A3001B195B005B4AF8
:10D9E0009A5C08218A4359495A54C047431CE6D0DF
:10D9F00084AB1870A20015196D00544AAA5CD207B6
:10DA0000D20F5A70534868443A0011789970013225
:10DA100001338342F9D1504B6B44504A6A440E2182
:10DA200084A84F4DAB46A8474E4E35680F232B4078
:10DA300099462B095D01ED182D014B4B9C46654421
:10DA40008422920069462800484B98474B461801AB
:10DA500088AB9C466044464B9C466044102284A997
:10DA6000444B98474B469908023103234A461340DA
:10DA70005B00032098406A46525C82430220984033
:10DA8000030013436A4653546B460733063206219C
:10DA90006846D8478422920069462800364B98474A
:10DAA00033685A1CFF2313403360B3680133B360FB
:10DAB00000213248324B984780235B00B2689A427B
:10DAC00000D07CE700212F482D4B9847254B5A6802
:10DAD000511CFF220A405A609A68013A9A601D68F8
