:020000023000CC
:0EE000000D94E2F10D9400F00D9400F00D94DB
:10E00E0000F00D9400F00D9400F00D9400F00D94BE
:10E01E0000F00D9400F00D9400F00D9400F00D94AE
:10E02E0000F00D9400F00D9400F00D9400F00D949E
:10E03E0000F00D9400F00D9400F00D9400F00D948E
:10E04E0000F00D9400F00D9400F00D9400F00D947E
:10E05E0000F00D9400F00D9400F00D9400F00D946E
:10E06E0000F00D9400F00D9400F00D9400F00D945E
:10E07E0000F00D9400F00D9400F00D9400F00D944E
:10E08E0000F00D9400F00D9400F00D9400F00D943E
:10E09E0000F00D9400F00D9400F00D9400F00D942E
:10E0AE0000F00D9400F00D9400F00D9400F00D941E
:10E0BE0000F00D9400F00D9400F00D9400F00D940E
:10E0CE0023F20D9400F00D9400F00D9400F00D94D9
:10E0DE0000F00D9400F00C08010002090D00010083
:10E0EE0002081C08010008091D0001000808240888
:10E0FE00010010092500010010082C100200100A62
:10E10E002D000200100934100200200A3500020012
:10E11E0020093C200400200B3D000400200AFF00D3
:10E12E004150500A004C65630A00253032582000D9
:10E13E000A25303458202D202530345820004E6FBB
:10E14E0020444154410A00502046210A0050204FDD
:10E15E006B210A0046204F6B0A004620460A0043F8
:10E16E00484B090050726F6A2025643A2025642CB2
:10E17E002025640A00500900420900496E697400A6
:10E18E00446F776E6C6F616420496E69740A005338
:10E19E00746F70000A444C20496E69740A00466C14
:10E1AE006173682044657465637465640A00646114
:10E1BE007461666C6173685F696E697428290A0000
:10E1CE00000000004964207265706F727420656EE5
:10E1DE00766961646F0A00496E666F2072656369C5
:10E1EE00626964610A004E65656420526573756DDF
:10E1FE00653F0A00436F696E636964652050726FF4
:10E20E00796563746F0A00436F696E636964652094
:10E21E004275696C640A00526573756D696E65644A
:10E22E006F2064657363617267610A004E6F2063CD
:10E23E006F696E636964652076657273696F6E20AF
:10E24E006465204844570A0043486B20696E636F2B
:10E25E0072726563746F20656E20696E666F0A0058
:10E26E0044657363617267612063616E63656C619F
:10E27E0064610A006C656E203020756C74696D6F78
:10E28E00206368756E6B0A006C656E20696E636F35
:10E29E0072726563746F20656E206368756E6B2095
:10E2AE000063686B73756D20696E636F7272656360
:10E2BE00746F20656E206368756E6B2000456E640A
:10E2CE00204669726D7761726520646F776E6C6F30
:10E2DE0061640A004163746976616E646F207265D1
:10E2EE0073756D650A007469656D706F206578636E
:10E2FE00656469646F2C2044657363617267612085
:10E30E0046696E616C697A6164610A00446F776E6A
:10E31E004C6F6164204641494C2D310A00436875AB
:10E32E006E6B206572726F6E656F2C204465736321
:10E33E00617267612046696E616C697A6164610A17
:10E34E0000446F776E4C6F6164204641494C2D320C
:10E35E000A004368756E6B206572726F6E656F2C66
:10E36E00207265696E74656E74616E646F0A004426
:10E37E00657363617267612046696E616C697A616B
:10E38E0064612D310A0044657363617267612046D2
:10E39E00696E616C697A6164612D320A00446F772F
:10E3AE006E4C6F6164204641494C2D330A000100CA
:10E3BE000D002CE10000F894EE27EFBBF1E0F5BF65
:10E3CE00F2E0F5BFE0937400E0937500F8E1A895D4
:10E3DE00A4B7A77FA4BFF0936000E09360008DE028
:10E3EE00A2E0BB27ED938A95E9F780E090E2A0E0EA
:10E3FE00B2E0ED930197E9F7E3E0EBBFECEBF3EE60
:10E40E0087919791009761F0A791B7910790179018
:10E41E00BF01F00107900D920197E1F7FB01F0CFDC
:10E42E0081E08CBFE0E0EEBBEFEFEDBFE1E2EEBFCF
:10E43E00C0E0D2E10D9491F2AA93BA93EA93FA93C3
:10E44E00EFB7EA931A931091D600A0910012B091F3
:10E45E000112AC32E1E0BE0758F40F94FBF81083C2
:10E46E00A0E0B2E10F9402F90F94FBF8A0E0A083B4
:10E47E00E0E0E0932E13E0932F131991E991EFBF93
:10E48E00F991E991B991A9911895AEE2B1EE0F9477
:10E49E00F2F4E0E0ECBDE093D100F894E1E0E5BFEA
:10E4AE00E0E0E5BFA895E0E0F0E080E08CBF1994D5
:10E4BE000895BA93AA930F94BBFA00E010E020E0FF
:10E4CE0030E02630E1E03E0764F4F901AC81BD8115
:10E4DE00AE0FBF1FEC91F0E00E0F1F1F2F5F3F4FCF
:10E4EE00F0CFF8010F94C2FA0D94D5F6A895559A6F
:10E4FE00EBB1A0E2EA27EBB90895E4B7EF77E4BFFA
:10E50E00A895E0916000E861E0936000EFE0E09391
:10E51E006000089512E0F894E1E0E5BFE2E0E5BFA7
:10E52E00ECDFE0E8E0936100E0E0E0936100ECBD39
:10E53E00E1B9E2B9E4B9E5B9E7B9E8B9EAB9EBB9D5
:10E54E00EDB9EEB9E0BBE1BBE3BBE4BBE0E8E0BF95
:10E55E00E0E0E0937B0005B7E5B7E160E5BFE5B726
:10E56E00E260E5BF0091D600A8950F94D4F4A8956B
:10E57E007894E0910A01E66CE0930A01E0910B01B8
:10E58E00E66CE0930B01999AA198389A409A6B9A8F
:10E59E00739A0F94A4F6AADFA0EFBFE0EEE4F2E0C8
:10E5AE000F9497FA2C97A895A3E3B1EE0F9408F960
:10E5BE00E091CB14F0E0EA87FB87FA85E0E0EA878A
:10E5CE00FB87E091CC14AA85BB85F0E0EA0FFB1F18
:10E5DE00EA87FB870F941AF9EA85FB85A885B9852A
:10E5EE00EA17FB0719F4109709F054C0E0E0E8832E
:10E5FE00E983A881B981A830E1E0BE07E0F40F9469
:10E60E0021F9E8E3F1EEFA93EA93EC81FD81EB5305
:10E61E00FC4EE081FF27662777270F948DFA84E062
:10E62E000F94C7F828960F9426F9E881F981319650
:10E63E00E883F983DECF0F9421F9EEE3F1EEFA933E
:10E64E00EA93EC85FD850F942AF9EA89FB890F94EC
:10E65E002AF988E00F94C7F82C960F9426F9AFE0AC
:10E66E00B0E0EFEF0F949FFAE0E0E883E983A88132
:10E67E00B981A036EAEEBE0738F4A895E881F98193
:10E68E003196E883F983F3CFACE4B1EE0F94F2F454
:10E69E00FCDE3AC06090CB1377240F942FF9E091F3
:10E6AE00C5130F9436F9E091C6130F943EF98C8082
:10E6BE009D80E091C7130F9436F9E091C8130F9423
:10E6CE003EF9AC80BD80E091C9130F9436F9E0910C
:10E6DE00CA130F943EF9EC81FD8131976627772797
:10E6EE00E093C515F093C6156093C7157093C815C2
:10E6FE000F9446F96090CB137724A091CC13A130E0
:10E70E0019F4E0E0E093CC130F9446F9A895EEDEF1
:10E71E00E1E0F0E0EE83FF830F9450F920F4EE81F8
:10E72E00FF81309709F418C068D0F0E0EE83FF83C4
:10E73E00309729F4A5E5B1EE0F94F2F406C0ABE5DF
:10E74E00B1EE0F94F2F40F942FF90F9463F9A5E044
:10E75E00B0E00F94FAF9E0CFC9DEEE81FF81309779
:10E76E0039F00F9446F9A2E6B1EE0F94F2F41BC005
:10E77E00A8E6B1EE0F9408F9E091CB13E03029F042
:10E78E00E091CB13E150E093CB130F941AF90F9451
:10E79E006EF9EFEFF5E0FA93EA93A5ECB3E10F947F
:10E7AE00D7F60F944CF20F9446F9A0DE0F9450F961
:10E7BE0078F40F9475F90F949EF41FD00F94A5F46E
:10E7CE000F9475F90F9497F40F9463F9A895EECF03
:10E7DE00EFEFF5E00F947EF9062C072819F0F30100
:10E7EE0031973F016092CB130F941AF90F946EF983
:10E7FE000F944CF22C96D6CEFFCF2E970F94B9FADB
:10E80E00E091C915F091CA15E050FA4F0F947EF9B8
:10E81E002091CB143327322F2227E091CC14F0E035
:10E82E002E0F3F1FA5ECB3E144DEAF0124173507D1
:10E83E0031F0ADE6B1EE0F94F2F4E0E059C0E091A4
:10E84E00C513F0E0E88BF98BF889E0E0E88BF98BE3
:10E85E00E091C613A889B989F0E0EA0FFB1FE88B97
:10E86E00F98BE091C713F0E0EE87FF87FE85E0E0BD
:10E87E00EE87FF87E091C813AE85BF85F0E0EA0F03
:10E88E00FB1FEE87FF870F9421F9E2E7F1EEFA9373
:10E89E00EA93E091C915F091CA156091CB1570916C
:10E8AE00CC150F948DFAE88DF98D0F942AF9EA8D17
:10E8BE00FB8D0F942AF98CE00F94C7F860960F9495
:10E8CE0026F9A889B9898A169B0631F0A3E8B1EE1C
:10E8DE000F94F2F4E0E00CC0AE85BF85AA16BB061D
:10E8EE0031F0A6E8B1EE0F94F2F4E0E001C0E1E001
:10E8FE000F94C0FA64960895AA939BB76881098015
:10E90E001A80EB81FC818D818BBF77B770FDFDCFB7
:10E91E0067BFE89577B770FDFDCF9BBF279608952B
:10E92E000F948CF9A5E00F949AF90D94E8F60F94D4
:10E93E008CF9A3E00F949AF90D94E8F60F94BBFAB4
:10E94E0000E010E00038E0E01E0718F5A2E0A09FFE
:10E95E00F001A19FF00DE453FC4E20813327322F9E
:10E96E002227A2E0A09FF001A19FF00DE553FC4EDF
:10E97E00E081F0E02E0F3F1FF801EE0FFF1F0F9406
:10E98E002AF93A932A93A1E00F9483F40F5F1F4F55
:10E99E00D9CF0F94C2FA0D94E8F641D0E09101015F
:10E9AE00EC60E0930101E0910201E37FE09302014C
:10E9BE00A2EAB1EE10D008950F94A7F9AAA1BBA1B7
:10E9CE00EC91E03039F0ED91AAA3BBA3AE2F21D08C
:10E9DE00E030A1F71AC00F94A7F9E0913113E0309F
:10E9EE00A1F4EAA1FBA1E691E03079F0EAA1FBA146
:10E9FE003196EAA3FBA33197A6910BD0E03021F418
:10EA0E00A19AA5E450D001C0ECCF19810881A4963B
:10EA1E000895AA93A895A88146D00D94F1F6E0ED3D
:10EA2E00F0E0E093CD15F093CE15E1EDF0E0E0933C
:10EA3E00CF15F093D015E2EDF0E0E093D115F09301
:10EA4E00D215E4EDF0E0E093D315F093D415E5ED97
:10EA5E00F0E0E093D515F093D615E6EDF0E0E093F7
:10EA6E00D715F093D815E0E0E093D500E3E2E093FC
:10EA7E00D400E091D100E860E093D100E091D100A4
:10EA8E00E061E093D100E091D100E068E093D10025
:10EA9E00E091D200E260E093D200E091D200E26019
:10EAAE00E093D2000895AA931A930A9300E21EE40B
:10EABE00A091CD15B091CE15EC91E07219F4002E07
:10EACE00012A09F403C001501040F2CF002E012A92
:10EADE0039F0E091D715F091D815AA81A08302C024
:10EAEE00E0E016C000E21EE4A091CD15B091CE1567
:10EAFE00EC91E07419F4002E012A09F403C00150C0
:10EB0E001040F2CF002E012A11F0E1E001C0E0E04A
:10EB1E001981088123960895BA93AA93E881F98101
:10EB2E00309789F0A0E00F94EAF6AA81BB81EC93AE
:10EB3E00E881F9813197E883F983EA81FB81319687
:10EB4E00EA83FB83EBCF3DC1BA93AA93E881F981A7
:10EB5E00309781F0AA81BB81AC910F94EAF6EA81DD
:10EB6E00FB813196EA83FB83E881F9813197E88353
:10EB7E00F983ECCF26C1E0E0ECBDAAEFB0E00F9434
:10EB8E00FAF9E1E5ECBDE0E0EDBD0895AA93ED8163
:10EB9E00E093DD15E981FA816B817C810F942DFA6A
:10EBAE00E093DE15A981BA818B819C81E8E00F94F8
:10EBBE0021FAE093DF15E981E093E015EDEDF5E143
:10EBCE00FA93EA93EA81EC5FF0E0DF01BDDFE6C085
:10EBDE00BA93AA932497EE81FF81662777270F9425
:10EBEE00B0F9EC2D0F9483FA0F9415FA0F94B0F937
:10EBFE00EC81FD810F9483FA662777270F9408FA2C
:10EC0E000F94B0F90F947EFA87C01A932898A7ED47
:10EC1E000F94EAF6A0E00F94EAF61E2F289A1991A7
:10EC2E0008950F94BBFA3AE00FEF0F3F11F000304A
:10EC3E0011F4303009F433C031503DD0E03071F171
:10EC4E00E4DF0E2F0F3F11F0003009F427C010E063
:10EC5E001C3020F5E02FED732E2F0F94B3F9E691B3
:10EC6E00E217D1F40F94B3F931960F947AFAE09338
:10EC7E00D915F093DA150F94B3F933960F947AFAF7
:10EC8E00E093DB15F093DC150F94B3F93596C6902F
:10EC9E00ACEAB1EE0F94F2F41F5FDACFC6CF0F3F9E
:10ECAE0011F0003021F4E0E00F94C2FA8AC0E1E0E6
:10ECBE000F94C2FA86C01A930A9300E010E0A5DF03
:10ECCE00E07829F4D8010F5F1F4F989708F005C020
:10ECDE00A1E0B0E00F94FAF9F2CFD801E8E2F0E04B
:10ECEE000F9437FA0991199108950F94B9F999F083
:10ECFE002898E2EDEA93EF81F885FA93EA93AF81D3
:10ED0E00B88566DF0F948DFAA4E00F94BFF904DF87
:10ED1E00289AE1E001C0E0E028960895289A209A0A
:10ED2E00299A219A2A9A229A2B9823982C9A249AD5
:10ED3E002F9A279A9B9AA39A0895ACEBB1EE0F9453
:10ED4E00F2F4ECDF18DF6DDF08950F94B9F989F056
:10ED5E002898E3E8EA93E981FA81FA93EA93A0E02E
:10ED6E00B0E036DF0F948DFAA0E010DF289AE1E0D4
:10ED7E0001C0E0E0229608950F94B9F971F0289839
:10ED8E00E4E8EA93ED81FE810F942AF9A0E00F9456
:10ED9E00BFF9DADE289AE1E001C0E0E02696089598
:10EDAE00BA93AA93E0E0F0E0FA93EA93EA81FB814A
:10EDBE00FA93EA93A8E0B1E0DFDFAA81BB81C5DF59
:10EDCE00E1E024960895AA93E881EEBDEDB5E7FF44
:10EDDE00FDCFEEB521960895BA93AA93A991B99154
:10EDEE00EE27FF276D91662311F03196FBCF089524
:10EDFE00BA93AA93AA27BB27E991F991079000200D
:10EE0E0011F01196FBCFFD010895BA93AA931A93B0
:10EE1E000A93AA81BB8112960F9466FA309729F154
:10EE2E00AA81BB8114960F9466FA8F01309761F018
:10EE3E000230E0E01E0780F0F80131978F01AA81C1
:10EE4E00BB811496ED93FC93AA81BB8112960F940D
:10EE5E0002F93197AC81A083AA81BB810F9466FA27
:10EE6E00FF2312F00F9402F906C0AA81BB81EFEFC7
:10EE7E00FFEFED93FC931981088125960895BA93BF
:10EE8E00AA932B970F94B9FA10E0A989BA89E0E0FA
:10EE9E00F0E0ED93FC93EF89F88D3196EF8BF88FC0
:10EEAE003197E6912E2FE03009F462C1E12FE03068
:10EEBE0039F4253211F411E002C00F94C8F957C18C
:10EECE00E130A9F4253219F40F94C8F94FC112E0BC
:10EEDE0040E000E02D3211F401E049C12B3211F473
:10EEEE004BE245C1203211F440E241C102C0E23092
:10EEFE0039F450E013E0203311F4006838C102C039
:10EF0E00E33091F4203310F02A3308F007C0AAE062
:10EF1E005A9F502DE22FE0535E0F29C12C3619F463
:10EF2E00026015E024C103C0E53009F020C1E22FD4
:10EF3E00E33649F40F94CFF9ED89FE89A481AA93A3
:10EF4E000F94D5F913C1E33741F40F94CFF90F9411
:10EF5E00DBF90F94F3F61E2F0AC0E03769F40F9415
:10EF6E00CFF90F94DBF90F94FFF61E2F08600F7781
:10EF7E00E0E0E88B30E06EC0E43611F0E93611F4D3
:10EF8E00046002C0E537A1F4EAE0E88B01FF08C097
:10EF9E00E0E0FAEC6AE97BE30F94E5F91AE022C0AF
:10EFAE00E0E1F7E260E070E00F94E5F915E01AC0D9
:10EFBE00E83511F4086003C0E83709F0D7C0E0E186
:10EFCE00E88B01FF08C0E0E0F0E060E070E10F9434
:10EFDE00E5F918E007C0E0E0F0E160E070E00F94C2
:10EFEE00E5F914E001FF08C00F94CFF9AD89BE8991
:10EFFE0014960F946AFA15C002FF0AC00F94CFF947
:10F00E00AD89BE8914960F9466FA0F9432FA09C030
:10F01E000F94CFF9AD89BE8914960F9466FA6627C0
:10F02E007727EC87FD876E877F8702FF13C0AF853A
:10F03E00AA235AF4EC85FD856E857F850F940DFA13
:10F04E00EC87FD876E877F874DE2403011F01F5FA2
:10F05E0001C00B7F00FD11C0151778F407FF08C023
:10F06E0002FF04C00B7F242F115001C020E301C00A
:10F07E0020E20F94C8F95150EFCF312FE889E030DC
:10F08E00B9F43030A1F003FF06C0EE81FF81279165
:10F09E00EE83FF8305C0AE81BF812D91AE83BF830A
:10F0AE000F94C8F9503009F051503150EACF54C086
:10F0BE000F94EAF90F943DFA2E2F2A3030F003FF09
:10F0CE0002C0295C01C0295A01C0205D04FD22C086
:10F0DE00213360F4A885B9858A859B85A130E0E04F
:10F0EE00BE07E0E08E07E0E09E0709F409C0531763
:10F0FE0010F000FF01C013C020E207FF0BC020E399
:10F10E00006102FF07C00B7F4A930F94D5F9503070
:10F11E0009F051500F94C8F9503009F05150315048
:10F12E000F94EAF90F9462FAEC87FD876E877F875A
:10F13E00E889A885B9858A859B85FF276627772765
:10F14E000F943DFA0F94E5F9E885F9856A857B857C
:10F15E000F94B0FA09F0ACCF00FF08C0503031F078
:10F16E005150E0E2EA930F94D5F9F8CF10E093CE28
:10F17E00A989BA890F9466FA0F94C0FA6996089510
:10F18E00FF92F82E26970F94BBFA0F94F3F930974F
:10F19E0019F4EFEFFFEF23C0DE0116960F9404FA79
:10F1AE008D010F94F3F9EE83FF83E0E0E887E987A2
:10F1BE00DE011A960F9404FA0F9466FAFA93EA9304
:10F1CE001A930A93ECE0F7EFFA93EA93DE011A969C
:10F1DE0056DE9F01AE81BF81E0E0EC93F9010F9402
:10F1EE00C2FA2A96FF900895E0910012F091011252
:10F1FE00EE5FFD4E0895ED91FD913196FE93EE93E7
:10F20E0008950F94F2F4EFEFF5E0FA93EA93E0E04D
:10F21E00F0E0FA93EA93E5ECF3E1FA93EA93A8E0CF
:10F22E00B1E00D947CF6A5ECB3E10F9460F2E887A3
:10F23E00F9870895E5E4F3E1FA93EA930895A5E4D6
:10F24E00B3E10D94E3F4662777270F948DFA0895B2
:10F25E00E0910B01A6ECEA27E0930B010895F0E094
:10F26E00EC83FD83FC81E0E0EC83FD830895AC81AB
:10F27E00BD81F0E0EA0FFB1FEC83FD830895E0E013
:10F28E00E093C915E093CA15E093CB15E093CC1526
:10F29E000895E091C515F091C6156091C71570914E
:10F2AE00C815A091C915B091CA158091CB15909132
:10F2BE00CC150F94B4FA0895A9ECB5E10F9470FA39
:10F2CE00EF5FFF4F6F4F7F4F0F9475FA0895E985EB
:10F2DE00E093CB14E885E093CC140895A091C91562
:10F2EE00B091CA158091CB159091CC150895FA93D3
:10F2FE00EA93E0E0F0E0FA93EA93E5ECF3E1FA93B7
:10F30E00EA93A8E0B1E00D947CF60F9492FA0F9474
:10F31E0083FAE8E00F9415FA0F948DFAE0E0F0E02E
:10F32E00FA93EA9308950F9483F4E0E0F0E060E03E
:10F33E0070E00F948DFAFA93EA93A1E10D9483F4A1
:10F34E00BA93AA93A0971A930A93FE0132968F014D
:10F35E0008950F9488FA0895A6E01A9FF001EC51D3
:10F36E00FF410895BA93AA930F9462F6E030089580
:10F37E000F94CDF5EA81FB81FA93EA93AA81BB81C2
:10F38E0008952A93AA89BB89EC89FD891995089558
:10F39E00ED89FE893497ED8BFE8B0895AA89BB8982
:10F3AE00EC89FD8919950895AD89BE8914960F943F
:10F3BE0066FAEE83FF83AE81BF810895E887F987F1
:10F3CE006A877B870895E885F9856A857B85AC8594
:10F3DE00BD858E859F850895DE011C960F9404FAD7
:10F3EE000F9466FA0895109639F08DEC9AE0019715
:10F3FE00F1F7A8951197C9F708950024AF0DB01D28
:10F40E000895EA2BFB2B682B792B0895F0956095C8
:10F41E007095E195FF4F6F4F7F4F0895EE230E2E9F
:10F42E00FD01BC0131F0EE0FFF1F661F771F0A941E
:10F43E00D1F70895EE230E2EFD01BC0131F0769525
:10F44E006795F795E7950A94D1F70895E62FF72F6C
:10F45E0060E070E008956F2F660F660B762F0895AB
:10F46E00AE17BF07E1E008F0EE2708953F934F93E4
:10F47E005F93002411244427552730E2AA0FBB1FA7
:10F48E00881F991F001C111C441F551F0E1A1F0A9E
:10F49E00460B570B28F40E0E1F1E461F571F01C09A
:10F4AE00A1603A9559F7FD01BC01D001CA015F91E7
:10F4BE004F913F910895DADFFD01BC010895ED9162
:10F4CE00FC9111970895ED91FD916D917C9113979B
:10F4DE000895ED91FD916D917D9108957E936E93BA
:10F4EE00FE93EE9308950790F691E02D0895E8812E
:10F4FE00F9816A817B810895A881B9818A819B8176
:10F50E000895E883F9836A837B8308957A936A93D7
:10F51E00FA93EA9308959A938A93BA93AA930895C5
:10F52E0007D01196EF93EF2F03D0EF911197089517
:10F53E00F99B02C0A895FCCF9FB7F894A1BDB2BDB0
:10F54E00F89A80B5E81719F0E0BDFA9AF99A9FBFBC
:10F55E0008953097604070400895AE17BF07860734
:10F56E00970708955A934A933A932A931A930A93B4
:10F57E0008955D814C813B812A811981088108950E
:00000001FF
