:020000020000FC
:040000000C949912B1
:100004000C9400000C9400000C9400000C9400006C
:100014000C9400000C9400000C9400000C9400005C
:100024000C9400000C9400000C9400000C9400004C
:100034000C9400000C9400000C9400000C9400003C
:100044000C9493170C9400000C9400000C94000082
:100054000C9400000C9400000C9400000C9400001C
:100064000C945B5C0C9400000C9400000C94000055
:100074000C944B2A0C9400000C9400000C94EB1785
:100084000C9400000C9400000C9400000C940000EC
:100094000C9400000C9400000C9400000C940000DC
:1000A4000C9400000C941D180C9400000C94000097
:1000B4000C9400000C9400000C9400000C940000BC
:1000C4000C9400000C9400000C94AA1A0C940000E8
:1000D4000C94B61A0C9472360C9400000C94000024
:1000E40004024080102712271327142715271A27E4
:1000F4003427352736271D271E271F272227232786
:1001040024272C272D272E272F273227252726275C
:10011400272728273027382739273A273B273C2702
:10012400000000000C08010002090D000100020893
:100134001C08010008091D0001000808240801002A
:1001440010092500010010082C100200100A2D00CF
:100154000200100934100200200A350002002009B0
:100164003C200400200B3D000400200A00C1814013
:1001740001C0804101C0804100C1814001C0804173
:1001840000C1814000C1814001C0804101C0804163
:1001940000C1814000C1814001C0804100C1814053
:1001A40001C0804101C0804100C1814001C0804143
:1001B40000C1814000C1814001C0804100C1814033
:1001C40001C0804101C0804100C1814000C1814023
:1001D40001C0804101C0804100C1814001C0804113
:1001E40000C1814000C1814001C0804101C0804103
:1001F40000C1814000C1814001C0804100C18140F3
:1002040001C0804101C0804100C1814000C18140E2
:1002140001C0804101C0804100C1814001C08041D2
:1002240000C1814000C1814001C0804100C18140C2
:1002340001C0804101C0804100C1814001C08041B2
:1002440000C1814000C1814001C0804101C08041A2
:1002540000C1814000C1814001C0804100C1814092
:1002640001C0804101C0804100C1814000C0C10182
:10027400C30302C2C60607C705C5C404CC0C0DCD12
:100284000FCFCE0E0ACACB0BC90908C8D81819D982
:100294001BDBDA1A1EDEDF1FDD1D1CDC14D4D515B2
:1002A400D71716D6D21213D311D1D010F03031F1A2
:1002B40033F3F23236F6F737F53534F43CFCFD3DD2
:1002C400FF3F3EFEFA3A3BFB39F9F83828E8E929C2
:1002D400EB2B2AEAEE2E2FEF2DEDEC2CE42425E572
:1002E40027E7E62622E2E323E12120E0A06061A1E2
:1002F40063A3A26266A6A767A56564A46CACAD6D92
:10030400AF6F6EAEAA6A6BAB69A9A86878B8B97901
:10031400BB7B7ABABE7E7FBF7DBDBC7CB47475B531
:1003240077B7B67672B2B373B17170B05090915121
:100334009353529296565797559594549C5C5D9D51
:100344005F9F9E5E5A9A9B5B995958988848498941
:100354004B8B8A4A4E8E8F4F8D4D4C8C44848545F1
:1003640087474686824243834181804015001600B8
:100374001700000000000000000000000000AA00B8
:10038400AB00AC00AD0034763576367637760000B7
:100394000000000000000000000000000000000059
:1003A4000000000000000000C800CA0000000300B4
:1003B40000FF426F6F74206E6F20656E636F6E7402
:1003C400726164610A002A2A2A2A2A2A2A2A2A2AE3
:1003D4002A2A2A2A2A2A2A20426F6F7420427569FF
:1003E4006C643A202564202A2A2A2A2A2A2A2A2ABC
:1003F4002A2A2A2A2A2A2A2A0A003E49454320313F
:100404003034202D20486973746F72697A616E6488
:100414006F20637572766120646520636172676121
:100424000A004279746573206120456E76696172B1
:100434002025640A00496E6963696F20646520633E
:100444006F6E7461646F7265730A00436F6E7461DA
:10045400646F72657320696E69636961646F732088
:100464006F6B0A004572726F7220656E20696E6947
:1004740063696F20646520636F6E7461646F726575
:10048400732C207675656C7461206120300A00003D
:100494000100001F1C1F1E1F1E1F1F1E1F1E1F00EA
:1004A4004469666572656E636961205254433A20FB
:1004B400256C752C20256C752C2025752C20253059
:1004C40032580A00446562756720496E69740A00EF
:1004D400446562756720656E64002D25643A256461
:1004E4003A25642E253033642D00446174612D2D2A
:1004F4003E002530325820003C2D2D446174610AA1
:1005040000205365727665723A202564202D0049D7
:10051400642025752C2575202D202564487A202DEE
:10052400200A0953797374656D3A2025756D562C2C
:100534002025756D562C2025756D562C202575BAF1
:10054400432C202575B0432C202575B043205B5BDC
:1005540025642C2025645D5D2C205B5B25642C20A8
:1005640025645D5D5D0A00095374617475733A20F6
:100574004D6F64656D3A2025642C20466C61736868
:100584003A2025642C205274633A2025642C20528E
:10059400616D3A2025642C204261743A2025642C34
:1005A40020436861726765723A2025640A00094D28
:1005B4006F64656D3A203C3C25642D25642D2564CB
:1005C4002D25642D2564002D256C752D256C752D28
:1005D400256C752D256C75005F25645F25645F258A
:1005E400645F25643E3E0A000A094144433A2025DB
:1005F400752C2025756D730A00095B2575562C2012
:10060400256C75562C202564562C202564562C20E8
:100614002575412C20256C75772C20256C64777208
:100624002C20256C7556412C20253033755D0A002D
:10063400095B2575415D0A002D256C75202C20452C
:100644006E657267793A20256C752E2530386C7585
:100654006B57680A000A090025753A25752C200095
:100664000A0925642D25752D2D25642D25752D2D1F
:1006740025642D25752D2D25642D25750A0073708F
:10068400693A2025642C202564200A0064733133E0
:1006940030373A2025643A25643A25642C202530E5
:1006A40032642F253032642F253032640A004572BB
:1006B400726F72206465205254430A00446174616D
:1006C400466C6173683A2025692C2025692C202505
:1006D400692C20253032782C2025690A0044617465
:1006E40061466C617368206E6F7420726561647911
:1006F4000A00434647205550444154450A0044618A
:100704007461205072696D657220536563746F72F1
:10071400204F4B210A0044617461205072696D6559
:100724007220536563746F7220496E636F727265D1
:1007340063746F210A004461746120536567756EA8
:10074400646F20536563746F72204F4B210A004419
:1007540061746120536567756E646F2053656374BB
:100764006F7220496E636F72726563746F210A0041
:1007740025733A25750A006162722E2031382032C1
:100784003032330044454D4F004461746120646548
:100794006661756C740A003139302E322E31322E76
:1007A4003134380031313335373130373437005450
:1007B4004553414D0031302E302E33342E313535F2
:1007C400000025303258200006002D46616C6C6113
:1007D40020646520456E65726769613A2025646D01
:1007E40056002D456E657267696120726573746188
:1007F40075726164613A2025646D560041706167C9
:10080400616E646F204361726761646F720A0042B3
:10081400617465726961204E4F2050726573656E14
:1008240074652F436F72746F0A0042617465726954
:100834006120424154544552595F53555045524CDE
:100844004F570A002D42616A612074656E73696FA7
:100854006E20646520426174657269613A20256482
:100864006D56002D42617465726961206F6B3A2088
:1008740025646D5600002D2D2025752C2025752C02
:1008840009496E707574202564202D2D3E20256441
:100894000A00436F6E66696775726163696F6E20E3
:1008A40064656661756C740A00466F727A617220C1
:1008B400646573636F6E6578696F6E0A0052657361
:1008C40065740A00457261736520686973746F7298
:1008D40069630A00506F776572204D4F44454D207F
:1008E4004F4E0A00506F776572204D4F44454D209E
:1008F4004F46460A00506F776572204843204F4E9A
:100904000A00506F776572204843204F46460A001C
:10091400506F776572204F4C4544204F4E0A00506B
:100924006F776572204F4C4544204F46460A0000BD
:10093400531058105D10520962106910701077102E
:100944002B51495552433A20227265637622004D59
:100954006F64656D2053656E64203A20004D6F64AA
:10096400656D205265636569766564203A20256467
:100974002C2564200041542B514953454E443D00DD
:100984002C000D0A003E004D6F64656D2073696E86
:100994002050726F6D70740A004F4B0053454E44E3
:1009A400204641494C0041542B5149474554455236
:1009B400524F520D0A003536392C6D656D6F7279C0
:1009C400206E6F7420656E6F756768004552524FD4
:1009D40052004D6F64656D2073696E2052657370AB
:1009E40075657374610A00504F5745524B45590A57
:1009F400005155454354454C20454378782048419F
:100A040052442052455345540A0050756572746F20
:100A14003A203078253032580A00677072732E708D
:100A24006572736F6E616C2E636F6D0041504E2062
:100A34007479706520253032580A006564657375D1
:100A44007274656C65636F6E74726F6C2E74656D11
:100A54007072657361730077617000696E7465729A
:100A64006E65742E677072732E756E69666F6E2E66
:100A7400636F6D2E6172006564657375722E6D32DD
:100A84006D2E636C61726F2E636F6D2E61720069DF
:100A9400677072732E636C61726F2E636F6D2E615B
:100AA400720074696D2E62720074696D00677072F1
:100AB400732E6F692E636F6D2E6272006775657396
:100AC40074007A61702E7669766F2E636F6D2E6274
:100AD40072007669766F00636C61726F2E636F6D5E
:100AE4002E627200636C61726F006D6F766973744D
:100AF40061722E7065006D6F766973746172406403
:100B040061746F73004D6F76697374617200696EFE
:100B14007465726E657400706572736F6E616C00DB
:100B2400436C61726F2E706500436C61726F00627A
:100B34006974656C2E706500656E74656C2E7065E5
:100B4400006D326D70792E7469676F2E636F6D005E
:100B5400696D6F76696C2E656E74656C7063732E47
:100B6400636C00656E74656C706373007765622EE8
:100B7400746D6F76696C2E636C00776562006261D8
:100B84006D2E636C61726F6368696C652E636C00B3
:100B9400636C61726F6368696C65006D6F7669730D
:100BA4007461722E6573004D4F564953544152007F
:100BB40041542B4353510D0A002B435351004E49CA
:100BC40056454C204445205345D1414C3A202D25CF
:100BD400642064426D0A0053494E205345D1414C70
:100BE4000A0041542B435245473F0D0A00435245E6
:100BF400473A004E4F205245474953545241444FBF
:100C04002047534D2F55544D5321210A4D452069FA
:100C140073204E4F542063757272656E746C792024
:100C2400736561726368696E672061206E65772001
:100C34006F70657261746F7220746F20726567697A
:100C44007374657220746F0A0072656769737465E2
:100C54007265642047534D2C20686F6D65206E6566
:100C640074776F726B0A0072656769737465726575
:100C7400642043444D41206E6574776F726B0A00A3
:100C84007265676973746572656420555452414E88
:100C94000A00726567697374657265642047534D11
:100CA40020572F45475052530A0072656769737481
:100CB4006572656420555452414E20572F48534461
:100CC40050410A00726567697374657265642055E2
:100CD4005452414E20572F48535550410A007265D3
:100CE400676973746572656420555452414E205788
:100CF4002F485344504120616E642048535550415D
:100D04000A007265676973746572656420452D55C0
:100D14005452414E0A0063617261637465723A20F1
:100D240025630A004E4F20524547495354524144CB
:100D34004F2047534D2F55544D5321210A4D4520E3
:100D440069732063757272656E746C792073656162
:100D5400726368696E672061206E6577206F7065C5
:100D64007261746F7220746F207265676973746541
:100D74007220746F0A004E4F205245474953545213
:100D840041444F2047534D2F55544D5321210A724E
:100D94006567697374726174696F6E2064656E69E6
:100DA40065640A004E4F205245474953545241440A
:100DB4004F2021210A756E6B6E6F770A007265678A
:100DC400697374657265642047534D2F55544D53B0
:100DD4002C20726F616D696E670A00756E6B6E6FA1
:100DE400776E3A2025730A0053696E20726573701A
:100DF400756573746120435245470A0041542B437F
:100E0400475245473F0D0A0043475245473A004E73
:100E14004F205245474953545241444F2044617432
:100E24006F7321210A4D45206973204E4F5420636E
:100E3400757272656E746C7920736561726368692A
:100E44006E672061206E6577206F70657261746FC4
:100E54007220746F20726567697374657220746F91
:100E64000A00726567697374657265642047534D3F
:100E74000A004E4F205245474953545241444F2093
:100E84004461746F7321210A4D4520697320637591
:100E94007272656E746C7920736561726368696ED1
:100EA400672061206E6577206F70657261746F7260
:100EB40020746F20726567697374657220746F0A99
:100EC400004E4F205245474953545241444F204409
:100ED40061746F7321210A72656769737472617436
:100EE400696F6E2064656E6965640A004E4F205216
:100EF40045474953545241444F204461746F732110
:100F0400210A756E6B6E6F770A0072656769737478
:100F140065726564204461746F732C20726F616D17
:100F2400696E670A00756E6B6E6F776E3A200A0001
:100F340053696E20726573707565737461204347DD
:100F44005245470A0041540D0A004F4B210A004202
:100F54004153555241202D2D3E004D6F64656D2047
:100F64006E6F20726573706F6E64652021210A00B4
:100F74002B2B2B00415448300D0A005175656374C6
:100F8400656C204F4B210A00506F636F73206279A8
:100F940074657320726563696269646F730A002DF6
:100FA4002D2D3E4461746F733A2025642C202564F2
:100FB4002C2025642C2025642C2025640A0045520D
:100FC400524F522064652074616D61F16F20646535
:100FD40020706171756574650A00253032582000EF
:100FE4004D6F64656D2050617175657465206D7514
:100FF4006C7469706C650A00504450204445414348
:101004005400434C4F5345440051756974616E64F8
:101014006F2064656C206275666665723A2025648B
:101024002064652025640A00436C6561724275661C
:101034006665722050617175657465206D756C7498
:1010440069706C652C206C656E3A2025640A004535
:101054004332300045433235005543323000512D80
:101064004543323000512D4543323500512D55430F
:10107400323000512D585858580044656D6F7261D4
:10108400203520736567756E646F732070617261BB
:10109400206170616761646F0A0043616D62696F0A
:1010A4002064652053494D434152440A0053696DFD
:1010B4002053656C6563743A2025640A00456E63A9
:1010C400656E6469656E646F204D6F64656D0A00BA
:1010D40044656D6F726120537465702031352073DF
:1010E4006567756E646F730A00415445300D0A00DC
:1010F40041542B4950523D3131353230300D0A00C4
:1011040041542644300D0A0041542B4946433D3096
:101114002C300D0A0041542B4347534E0D0A004D09
:101124006F64656D20494D4549203A2025730A00B6
:101134004552524F5220444520494D45490041549F
:101144002B43494D490D0A004D6F64656D20494D8F
:101154005349203A2025730A004552524F522044E5
:101164004520494D53490041542B5149435347505D
:101174003D312C312C2200222C2200222C330D0A4A
:10118400004D4F44454D203A2041504E2073657424
:101194006561646F210A0041542B43475245473D22
:1011A400320D0A0041542B435245473D320D0A008B
:1011B4004154490D0A00512D344700512D33470045
:1011C400512D32470041542B434745514D494E0D53
:1011D4000A00434745514D494E0041542B4347456E
:1011E400515245510D0A0043474551524551004162
:1011F400542657300D0A0041542B5149535441543D
:10120400453D312C300D0A00436F6E6578696F6E71
:10121400202564207365727665722025640A002B8C
:10122400514953544154453A203000536F636B6520
:10123400742079612061637469766F0A00536F6367
:101244006B6574206C6973746F2C20636F6E6563B7
:1012540074616E646F210A00536F636B657420615F
:10126400637469766F2C2063657272616E646F219A
:101274000A0041542B51494F50454E3D312C002218
:10128400544350222C2200222C002C302C310D0AE5
:10129400002B51494F50454E00636F6E6578696F5E
:1012A4006E2061207365727669646F722065786957
:1012B400746F7361210D0A0066616C6C6120636F49
:1012C4006E6578696F6E2061207365727669646FEC
:1012D40072210D0A00414C524541445920434F4E5E
:1012E4004E45435400434F4E4E45435420464149D6
:1012F4004C002046616C6C6F20636F6E6578696F7B
:101304006E2061207365727665722074696D656FF5
:101314007574210D0A0041542B51494143543F0D2A
:101324000A002B51494143543A2031005044502083
:1013340041637469766F210D0A00636F6E65786985
:101344006F6E20657869746F73612049503A202567
:10135400730D0A00636F6E6578696F6E2066616C49
:101364006C6964612049503A2025730D0A00504489
:10137400502044657361637469766F210D0A0053CC
:10138400696E205265737075657374612C20646591
:1013940073636F6E656374616E646F0A004368659E
:1013A400717565616E646F20636F6E6578696F6EC9
:1013B4002025640A00536F636B6574206365727241
:1013C40061646F0A0041542B5149434C4F5345000B
:1013D4004465736F6E6578696F6E20657869746FA4
:1013E4007361210D0A0043657272616E646F20732C
:1013F4006F6C6F20736F636B65740A0046616C6C6D
:101404006F20656E20646573636F6E6563746172CB
:10141400210D0A00446573636F6E6578696F6E20F1
:10142400646520696E7465726E657420657869748C
:101434006F73610A0051494143540053696E20524D
:1014440065737075657374612C2051494143542050
:1014540043455252415220434F4E4558494F4E0A3C
:101464000041542B51494143543D310D0A00636FEF
:101474006E6578696F6E206120696E7465726E6541
:101484007420657869746F73610A00636F6E6578A0
:10149400696F6E206120696E7465726E6574206573
:1014A4007869746F73612049503A2025730D0A00DE
:1014B400636F6E6578696F6E206120696E74657202
:1014C4006E65742066616C6C6964612049503A20D1
:1014D40025730D0A0041542B514944454143543D61
:1014E400310D0A00646573636F6E6578696F6E20F1
:1014F400646520696E7465726E65742065786974BC
:101504006F73610A00736F6674207265736574206B
:1015140064656C206D6F64656D0A004D4F44454DE4
:10152400202D2046696E616C20646520496E6963D4
:1015340069616C697A6163696F6E0A004D6F6465F5
:101544006D20436F6C6761646F2C207265696E69EE
:10155400636961646F0A0000000202000000000079
:101564000000000000000000000000000000000077
:101574000000000000000000000000000000000067
:101584000000000000000000000000000000000057
:101594000000000000000000000000000000000047
:1015A4000000000000000000000000000000000037
:1015B4000000000000000000000000000000000027
:1015C4000000000000000000000000000000000017
:1015D4000000000000000000000000000000000007
:1015E40000000000000000000000000000000000F7
:1015F40000000000000000000000000000000000E7
:1016040000000000000000000000000000000000D6
:1016140000000000000000000000000000000000C6
:1016240000000000000000000000000000000000B6
:1016340000000000000000000000000000000000A6
:101644000000000000000000000000000000000096
:101654000000000000000000000000000000000086
:10166400000000004572726F72206465206C6F6E1A
:1016740067697475640A004572726F72206465202C
:1016840049443A2025640A004572726F72206465E9
:101694002076657273696F6E0A004572726F7220EC
:1016A40064652074616D61F16F0A00506171756544
:1016B400746520696E636F6D706C65746F0A0042A7
:1016C400726964676520696E636F6D70656C746FB1
:1016D4000A004572726F72206465206665636861F2
:1016E4000A00496420726563696269646120257532
:1016F4000A004572726F722064652049440A0043EF
:10170400616D62696F20646520494420656E2065BF
:101714006C207365727669646F72210A0045727277
:101724006F72206E6F207365207075646F20656E14
:10173400766961722025640A0054534420627974E6
:10174400657320656E766961646F732025640A0091
:10175400456E7669616E646F2053796E6354696D6A
:10176400650A007B2242223A22456D707479222C4C
:10177400007B2242223A2200225267223A2200228D
:10178400494D4549223A220022494D5349223A22E1
:1017940000224C4F43223A22002243454C223A2253
:1017A4000022426C64223A2200227D0053796E6347
:1017B40020446174613A20004572726F722064653E
:1017C4002074616D61F16F206465206461746F73CE
:1017D400203633360A006461746F7320726563695E
:1017E4006269646F732025642D256421210A0054E5
:1017F400534400426561636F6E2052656369626998
:10180400646F0A004C6F6E67697475642064656C5C
:101814002070617175657465202564210A00426534
:1018240061636F6E20526563696269646F20256429
:101834000A00476574427566666572204552524FC8
:10184400520A004552524F520052454356204552C7
:10185400524F520A00436F6D6D616E6400436F6DA9
:101864006D616E64204552524F520A00434C4F53EF
:10187400454400434C4F534544204552524F522057
:101884002D20436C6F7365640A002B5149555243F4
:101894003A2022636C6F7365642200434C4F5345B6
:1018A40044204552524F52202D2051495552430A4B
:1018B4000044454143540044454143542045525259
:1018C4004F520A0041637475616C697A616E646F8A
:1018D400205254430A00545344203A204461746F04
:1018E4007320726563696269646F7320656E206535
:1018F4006C2070756572746F2072656D6F746F20E3
:1019040025640A00545344203A204461746F7320C0
:10191400656E20656C2070756572746F2072656DDC
:101924006F746F20320A00545344203A20456E7677
:101934006961646F73202564206279746573204241
:10194400726964676520526573706F6E7365206495
:10195400657364652025640A0054696D65204F75BC
:101964007420646520496E61637469766964616496
:101974002025642C202825752C25752C2575290AED
:1019840000536F636B6574204661696C0A0042659D
:1019940061636F6E2073656E742025640A0045725E
:1019A400726F7220656E76696F206465204265618E
:1019B400636F6E0A0053796E712054696D652065FA
:1019C4006E766961646F0A005345545F54494D450E
:1019D40020726563696269646F0A00545344203A53
:1019E4002054494D45204F55542053594E432054BB
:1019F400494D4520212121210A004E6F2070756434
:101A04006F2070726F63657361720A00457370654D
:101A140072616E646F2061636B202E202E202E0A6B
:101A24000041434B20726563696269646F210A0057
:101A34005469656D4F75742041434B21210A00445C
:101A440061746F73207061726120656E7669617272
:101A54000A0053616C69656E646F206163612031B3
:101A64000A005365727665723A2025640A0053654C
:101A740072766572206E6F207365746561646F2081
:101A84002D2D3E204E554C4C0A004D6F64627573EB
:101A9400203A204368656B53756D20496E636F72FD
:101AA400726563746F210A004D6F64627573203A26
:101AB400204143434553533A2025640A004D6F6443
:101AC400627573203A2041636365736F206F746F8E
:101AD400726761646F206E6976656C203228525794
:101AE400290A004D6F64627573203A20416363656F
:101AF400736F206F746F726761646F206E697665AF
:101B04006C20312852290A004D6F64627573203AA3
:101B14002041636365736F2064656E656761646FFC
:101B2400210A00446F776E6C6F616420496E69749A
:101B340000446F776E6C6F616420496E69740A00AB
:101B44004D61696E3A527820256420627974657318
:101B5400204C6F63616C0A004D61696E3A547820C1
:101B64002564206279746573204C6F63616C0A008C
:101B7400526573706F6E73653A20446F776E6C6F45
:101B8400616420456E76696164610A004D61696E25
:101B94003A52782025642062797465732072656DE9
:101BA4006F746F0A004D61696E3A54782025642081
:101BB40062797465732072656D6F746F0A004D6F7E
:101BC400646275732052656D6F746F2073657465FC
:101BD40061646F0A00003E53657269652065736332
:101BE40072696269656E646F202564206279746528
:101BF4007320656E2070756572746F2073657269E9
:101C0400650A003E53657269652025642062797413
:101C14006573206C6569646F7320656E20707565EB
:101C240072746F207365726965202575200A00003F
:101C340000000000506167696E612025642C2065F6
:101C440072726F722064652063686B202D20256496
:101C54000A00506167696E612025642C20657272E8
:101C64006F722064652070726F6A656374202564E6
:101C74002C2025640A00506167696E612025642C5C
:101C8400206572726F72206465206275696C20250C
:101C9400642C2025640A00506167696E6120256404
:101CA4002C20636F727265637461202D202564207B
:101CB40025642025640A002530325820000A436830
:101CC4006B53756D20636F72726563746F2025307A
:101CD40034580A00496E666F206C656964613A2065
:101CE40025642C2025642C2025640A004669726D25
:101CF4007761726520636F72727570746F0A005039
:101D0400726F6A6563746F20496775616C0A00427B
:101D140075696C6420496775616C0A00426F727260
:101D2400616E646F206C61206D656D6F7269610A0C
:101D340000426F7272616E646F0A0059656E646F5F
:101D4400206120426F6F740A0044656D617369619C
:101D5400646F7320696E74656E746F730A004368F0
:101D64006B53756D20496E636F72726563746F0A8D
:101D7400004964207265706F727420656E766961C3
:101D8400646F0A004275696C64206D656E6F722021
:101D940064656C2061637475616C0A00496E666FDA
:101DA4002072656369626964610A004E6565642036
:101DB400526573756D653F0A00436F696E636964AC
:101DC400652050726F796563746F0A00436F696EA2
:101DD40063696465204275696C640A0052657375B1
:101DE4006D696E65646F2064657363617267610A0F
:101DF400004E6F20636F696E636964652076657257
:101E040073696F6E206465204844570A0043486B29
:101E140020696E636F72726563746F20656E2069EA
:101E24006E666F0A004368756E6B206C656E203DAC
:101E34002025750A004465736361726761206361DC
:101E44006E63656C6164610A006C656E2072656323
:101E5400696269646F206465206368756E6B202510
:101E6400640A006C656E203020756C74696D6F2097
:101E74006368756E6B0A0063686B73756D20696EB9
:101E8400636F72726563746F20656E206368756E2C
:101E94006B200063686B3A253034582053756D3AD3
:101EA40025303458206C656E3A25303458202D2D59
:101EB4000A00456E64204669726D7761726520641C
:101EC4006F776E6C6F61640A004163746976616E4A
:101ED400646F20726573756D650A004669726D776B
:101EE40061726520726563696269646F2025640AA2
:101EF40000446F776E4C6F6164204641494C2D312C
:101F04000A007469656D706F20657863656469643F
:101F14006F2C2044657363617267612046696E614A
:101F24006C697A6164610A00446F776E4C6F616416
:101F3400204641494C2D320A004368756E6B20657A
:101F440072726F6E656F2C20446573636172676192
:101F54002046696E616C697A6164610A0043687540
:101F64006E6B206572726F6E656F2C207265696E80
:101F740074656E74616E646F0A00446F776E4C6FA3
:101F84006164204641494C2D330A000001000100E0
:101F94003E49454320313034202D53504920256497
:101FA400202C76616C75652025640A003E49454302
:101FB40020313034202D53746174757320302064C3
:101FC40065736361727461646F0A003E494543201E
:101FD400313034202D205365742053656E642053B2
:101FE4007461747573203A2025642C2025642C2098
:101FF40025642C2025640A003E49454320313034B1
:10200400202D5350492025642C2076616C75652061
:1020140025642C206368616E67652025640A003E90
:1020240049454320313034202D5265706F727465F8
:1020340020706572696F6469636F0A00494E495480
:1020440020494543203130340A003E49454320317C
:102054003034202D2052583A202564202D2000258C
:1020640030325820003E49454320313034202D5031
:102074006171756574652053757065727669736FE7
:1020840072792041434B204672616D653A20256484
:10209400202564200A003E49454320313034202D58
:1020A4005061717565746520550009544553544653
:1020B400525F4143540A00095445535446525F4306
:1020C4004F4E460A000953544F5044545F41435401
:1020D4000A000953544F5044545F434F4E0A0009B9
:1020E400535441525444545F4143540A00095354D5
:1020F40041525444545F434F4E460A003E494543BF
:1021040020313034202D50617175657465206D75F2
:102114006C7469706C650A003E4945432031303463
:10212400202D5061717565746520490A003E49454A
:102134004320313034202D4572726F722046726113
:102144006D6520726563657063696F6E0A003E4950
:10215400454320313034202D5061717565746520FC
:1021640049202D2041434B204672616D653A20255C
:1021740064202564200A003E494543203130342040
:102184002D4572726F72204672616D6520747261A2
:102194006E736D6973696F6E0A003E494543203161
:1021A4003034202D204E4F2054455346525F434F28
:1021B4004E0A003E49454320313034202D53657387
:1021C400696F6E20646573626C6F717565616461BB
:1021D40020706F7220696E616374697669646164EA
:1021E4002025640A00446573636F6E656374616ED1
:1021F400646F206E6F2068617920736573696F6EF8
:102204002049454320616269657274610A003E4950
:10221400454320313034202D53454E44202D2D3E4E
:10222400205445535446525F434F4E460A003E499C
:10223400454320313034202D53454E44202D2D3E2E
:10224400205445535446525F4143540A003E494585
:102254004320313034202D53454E44202D2D3E2033
:10226400535441525444545F434F4E460A003E492E
:10227400454320313034202D53454E44202D2D3EEE
:1022840020535441525444545F4143540A003E493C
:10229400454320313034202D2047492053544152A6
:1022A400540A003E49454320313034202D2047490B
:1022B400205350490A003E49454320313034202DF3
:1022C400204749204D4520494E5445524E414C0A21
:1022D400003E49454320313034202D204749204DCC
:1022E400452056490A003E49454320313034202DCB
:1022F40020474920434F554E544552530A003E4906
:10230400454320313034202D204749204D4520506D
:102314004F540A003E49454320313034202D204794
:102324004920454E442025640A004D453A20696EF3
:102334006963696F202564202C2063616E7469646D
:102344006164202564202C2066696E6973682025E9
:10235400640A004D4520506F743A20696E696369C0
:102364006F202564202C2063616E7469646164208D
:102374002564202C2066696E6973682025640A0030
:102384003E49454320313034202D20436F6E746123
:10239400646F7265733A2063616E7469646164206A
:1023A4002564200A003E494543203130342D436FD3
:1023B4006E7461646F72657320496E7465726E6FBA
:1023C400733A2063616E74696461642025640A0051
:1023D400496E696369616E646F204D452068697355
:1023E400740A00496E696369616E646F2068697379
:1023F400740A00466F726D6174656E61646F204586
:1024040072726F72204C6563747572610A00466F54
:10241400726D6174656E61646F0A003E49454320C4
:10242400313034202D43617267616E646F207661B0
:102434006C6F722025642C2025752C2025750A00CC
:10244400466F726D6174656E61646F204572726F60
:1024540072204C656374757261204D450A00777271
:1024640069746520303A2025640A007772697465BE
:1024740020333A2025640A004D61696E203A2046D3
:10248400616C6C61732025640A0074736420737931
:102494006E632074696D6520696E74656E746F7304
:1024A4002025640A005245534554204E4554205378
:1024B4004552564943452025642C2025640A0000D2
:1024C4002D4E414E000001002D4E414E00494E4616
:1024D400000004000300B20301005F1694040C0022
:1024E400D608F6060D00E2087B070500EF0888070A
:1024F4000800C41E34090500F408BA110500F908DF
:10250400BF110500FE08C41126000309C11A2500E5
:102514002909E71A1B004E090C1B0100CB20901F50
:102524000100CC20921F01000321CA240000F8946A
:10253400EE27EFBBF1E0F5BFE5BFE0937400E09355
:102544007500F8E1A895A4B7A77FA4BFF093600035
:10255400E09360008DE0A2E0BB27ED938A95E9F754
:1025640080E090E2A0E0B2E0ED930197E9F7E6EDB8
:10257400F4E285919591009761F0A591B59105904C
:102584001590BF01F00105900D920197E1F7FB0151
:10259400F0CF8BBF8CBFE0E0EEBBEFEFEDBFE1E22D
:1025A400EEBFC6EDD8E00C94D712249720E0E0E803
:1025B400E0936100E0E0E0936100F894E0E0ECBDBA
:1025C400E2B9E1B9E5B9E4B9E8B9E7B9EBB9EAB90F
:1025D400EEB9EDB9E1BBE0BBE4BBE3BBE0930201C0
:1025E400E0930101E0930501E0930401E093080105
:1025F400E0930701E0930B01E0930A010E94CF836B
:10260400E0E00E94D883E0938900E0E0E093880052
:10261400E0938B00E0938A000E94E483E0E00E9450
:10262400F883E0E0E09399000E940484E0E00E94D3
:1026340012840E942A84E0936900E0E0E0936A0037
:10264400EDBBE0936B00E0936C00E0936D00E093CE
:102654006800E0936E00E0936F00E0937000E093F5
:102664007100E0937200E0937300E093C100E09383
:10267400C900E093D100E0933101E0E8E0BFE0E07D
:10268400E0937B00E0937F00E0937A00ECBDE0935D
:10269400BC00E0915B0EE160E0935B0EE0915B0EA9
:1026A400E064E0935B0EE4E0E0936A0EE0E0E09324
:1026B400B9120E948A340E941F190E946B187894E0
:1026C400A0E00E944E36A1E00E946036AFEF0E9467
:1026D4007034A0E00E9463340E94272A0E94A51847
:1026E4000E94EF1A0E944484EF3FAFEFFA0711F003
:1026F400309729F4E6EBF3E00E9449840FC00E946E
:102704004E84EAECF3E0FA93EA930E9444840E9434
:1027140053840E945984A1E00E94451B0E941F1902
:102724000E947F20A1E40E94A129E7D10E943B24BA
:102734000E94B9240E94BD340E94AD36A1E00E94DB
:10274400B8410E94334C0E943B5C0E94255C0E946D
:102754007D650E94AA750E94127A0E94A9200E9497
:102764005D843091630FE2E0E093680EE1E0E09372
:10277400B912E9E00E946284E0E00E946684E9E024
:102784000E9466843091630FE1E0E093C70E0E94DB
:102794001D2BA1E00E94282C0E944A5E0E945D84A9
:1027A400E0E0E093690E96D22297E0919111E03037
:1027B40081F00E94902FE883F983E091B512A881FB
:1027C400B981F0E0EA17FB0718F4E881E093B51249
:1027D40003C0E1E0E093B9120E94E21B0E945C187E
:1027E4000E946A840E94F29F09F4B0C0ACE7B9E089
:1027F4000E947184A0917C09B0917D0980917E0929
:1028040090917F09A131EEE0BE07E0E08E07E0E0A1
:102814009E07B8F00E947A84E0937C09F0937D09C6
:1028240060937E0970937F0900E010E00230E0E0DD
:102834001E073CF40E947F840E9489840F5F1F4F0F
:10284400F5CFA091630FEFE00E94279FE03051F491
:10285400A091640FA03031F4A091F20CB091F30C6C
:10286400109709F015C000E010E00230E0E01E0708
:102874003CF40E947F840E9490840F5F1F4FF5CF29
:10288400A1E0B0E00E943078EEEFF3E00E944984CA
:102894002F5FADEDBEE00E9498840E945C180E94F8
:1028A4009E8483D02BD10E94365C0E94345C0E94AB
:1028B400FB35C9D2E1E0E0935016A091530EA1304C
:1028C40099F4AEEEBCE00E947184A5EDBEE00E94D6
:1028D4009884A9EDBEE00E949884E0E0F0E0E093E3
:1028E400DB0EF093DC0E1CC0AAEEBCE00E947184E7
:1028F400E0E0F0E0E093D90EF093DA0EABEDBEE049
:102904000E949884A7EDBEE00E949884A091D70EFF
:10291400B091D80EA132ECE1BE0710F00E945C1A0F
:102924002F3090F0E0916C0EE03011F40E941934D5
:1029340020E0E0EDF7E0FA93EA93ADE0B0E03DD0BB
:10294400E0E0E093C70E51E00E94A12BE091630FF9
:10295400E31739F03091630F0E94A920A1E00E948F
:10296400282C0E94BB7B0E94A384159720F4A0917D
:102974005C0EA23011F40E94404B0E94BA182AD176
:102984000E947E5B0E947F5C31D1A091530EE1E0F6
:102994000E94889EAE2F0E94BC66A0E00E94282C54
:1029A4000E94E634229600CFFFCF0E941D2B0E9486
:1029B400E42BA0E00E94282C0895BA93AA932797A9
:1029C400D1501A930A93E1E0DE01AF5FBE4FEC935E
:1029D400E3E0DE01AE5FBE4FEC930E94A884DE010B
:1029E400AD5FBE4FEC93FE01EF5FFE4F3396DE0109
:1029F400A55FBE4FAC91A083FE01E65FFE4FE08170
:102A0400DE01AB5FBE4FEC93FE01EF5FFE4F3596E8
:102A1400DE01A75FBE4FAC91A083FE01EF5FFE4FC6
:102A24000E94AD84FE01EB5FFE4F3696FA93EA9363
:102A3400DE01A25FBE4F0E94772900E0043098F4C3
:102A4400A1E9BEE00E94B484E03029F00E94B98478
:102A5400E0E0FFEF04C00E94B984E0E0F0E0ED9311
:102A6400FC930F5FEBCF0E94C2840E94CB84E0935F
:102A7400EB12F093EC120E94D2840E94CB84E09378
:102A8400ED12F093EE120E94DB840E94CB84E0935B
:102A9400EF12F093F012A1EFB2E1E091530EF0E0E7
:102AA400ED93FC93A3EFB2E1E091540EF0E0ED93CB
:102AB400FC93FE01EF5FFE4FFA93EA93E8E0EA939A
:102AC400FE013596FA93EA93EDB7FEB7FA93EA93CB
:102AD4001F93A2E00E94D1571F91FE013296FA93F0
:102AE400EA93E12FF0E0FA93EA93A3E00E94AE1B8D
:102AF400198108812D96DF5F08950895A5EBBEE046
:102B04000E947184ABE6B9E00E949884A0916B099D
:102B1400B0916C09A136EAEEBE0720F0E0E6FAEEC9
:102B24000E94E484A9E6B9E00E9498840E94A384E8
:102B3400A136EAEEBE0730F0E0E6FAEEE09369096A
:102B4400F0936A09AAE7B9E00E949884A0917A09EF
:102B5400B0917B09A136EAEEBE0730F0E0E6FAEE6A
:102B6400E0937A09F0937B09A091530EA130A9F464
:102B7400A0917609B0917709A036EAEEBE0720F459
:102B8400A6E7B9E00E9498840E94E984E1E0E0931A
:102B9400C40EE0E0E093C50E1CC0A0917209B09190
:102BA4007309A036EAEEBE0720F4A2E7B9E00E945A
:102BB4009884E0E0F0E0E0937609F0937709A0913F
:102BC4007209B0917309A131EEE0BE0710F00E94C2
:102BD4005C1A0895A0917511A13009F40895E0914B
:102BE400C20EE03011F40E94005B08951A930A9318
:102BF400E0917511E03009F46AC02497E0917511F1
:102C0400E13059F5E0E0EA83EB83E883E983EA9372
:102C1400E1E00E94F0840E94F6840E94FB843097D5
:102C2400D9F00E940A8500E010E0EA81FB810E17CA
:102C34001F0750F4E4E1FDE0E00FF11FA0810E94C2
:102C4400881B0F5F1F4FF1CF0E94DE1AE881F981C4
:102C5400309711F00E94158539C0E230B9F5E09142
:102C6400530EE03039F1E0E0EA83EB830E941C85E7
:102C7400309701F5E0E0EA93E2E00E94F0840E94DC
:102C840021850E94FB840E942685EA81FB8130977E
:102C940089F00E944E840E943085E6E2F4E0FA93C3
:102CA400EA930E941C850E9453840E943585A1E00A
:102CB4000E94451B0E9439850E943E850E944985D9
:102CC40028F00E948563E0E0E09375112496099151
:102CD40019910895A6970E94FE9FE9E3F4E00E94EB
:102CE4004984E0E0EA93FE013996FA93EA93A2E27A
:102CF4000E946C210E945185EDB7FEB7FA93EA93C6
:102D04001F93ADB7BEB70F930E9477290F911F9100
:102D14000E944D180E945A85A8A51A1719F4A9A54E
:102D24000A1709F029C0EFE4F4E00E94498430E076
:102D3400343060F40E9463850E94D1850E94DB8553
:102D44000E94E5850E94EF853F5FF2CF30E034308A
:102D540090F40E94F6850E9421860E9426860E9495
:102D640031860E943A860E943C860E94DB850E943E
:102D740045863F5FECCF63C030E0323280F4E32F0E
:102D8400F0E0DE011896EA0FFB1F0F01E32FA2E12A
:102D9400B0E00E944B860E9451863F5FEECF0E94B6
:102DA4005185EDB7FEB7FA93EA931F93ADB7BEB75B
:102DB4000F930E9477290F911F91A8A51A1719F450
:102DC400A9A50A1709F027C0EFE4F4E00E9449849A
:102DD40030E0343060F40E9463850E94D1850E9403
:102DE400DB850E94E5850E94EF853F5FF2CF30E0EE
:102DF400343080F40E94F6850E943A860E9431861F
:102E04000E943A860E943C860E94DB850E94458689
:102E14003F5FEECF14C0E8E6F4E00E94498430E05E
:102E2400343068F40E94DB850E9456860E945B86DB
:102E34000E94DB850E94EF8506D03F5FF1CF0E94A0
:102E440005A0AA960895A6970E945F860430E0E044
:102E54001E07A0F40E9464860E9456860E946D8616
:102E64000E94768631960E94768632960E947686F5
:102E740033960E948A860F5F1F4FE8CF00E010E070
:102E84000430E0E01E07B0F40E946486DB01AE0F5C
:102E9400BF1F0E946D8670960E94768671960E946E
:102EA400768672960E94768673960E948A860F5F53
:102EB4001F4FE6CF0E949186A091680EA13051F475
:102EC400E0E0EA93FE013796FA93EA93A2E20E94C5
:102ED400552123C0E091BE0EE030F9F4E1E0E09327
:102EE400BE0E0E94918600E010E00232E0E01E0770
:102EF400A0F4F801A2E1B0E00E94A1860F01DE0176
:102F04001696A00FB11FEC91D001FF2766277727F3
:102F14000E94C39F0F5F1F4FE8CF19810881A896B5
:102F240008950E94A686A9E5B6E10E947184ADE5E4
:102F3400B6E10E949884A3EDBEE00E9498844420E8
:102F440009F044C0A0915D16B0915E16A83EE3E07E
:102F5400BE07C8F00E94D319E0915D16F0915E1689
:102F6400E85EF340E0935D16F0935E16A5E5B6E1E6
:102F74000E947184E091B012F091B112E0932B138E
:102F8400F0932C1323C0E0915916F0915A166091D6
:102F94005B1670915C16A0915116B09152168091F7
:102FA4005316909154160E94FF9DE0935116F0938E
:102FB40052166093531670935416E0E0E09359163A
:102FC400E0935A16E0935B16E0935C160E94B48675
:102FD40018950A92AA93BA93EA93FA93EFB7EA93ED
:102FE4001A93E0915F16EE0FE0935F16E03019F448
:102FF400E1E0E0935F1610E01430A0F4A9EBBEE02A
:103004000E94C286A0915F16EA2321F00E94C7861F
:10301400EA2B04C00E94C786E095EA23A02DEC9316
:103024001F5FEACF1991E991EFBFF991E991B99145
:10303400A99109901895AA93EA93EFB7EA93E1B39B
:10304400A0E2EA27E1BBE091B912E03021F0A091BF
:103054007511A03009F015C00E94D1860E94D68651
:10306400EFEDE0937C00E1E0E093B612E0E0E09362
:10307400B712E093B812E0917A00E064E0937A002A
:1030840005C0E0E0E093BA12E093B412E991EFBF17
:10309400E991A99118952497E1E04E2EE0915116FB
:1030A400F091521660915316709154160E94DC866A
:1030B4000C945A1A2497E1E04E2EE0915516F091A3
:1030C400561660915716709158160E94DC860C941F
:1030D4005A1AE0B3E06FE0BB0E94CF83E9E00E949C
:1030E400D883E0938B00E0E0E0938A00EBE2E09386
:1030F4008900E3E3E09388000E94E483ECE00E940B
:10310400F883EAE2E0939900E0E30E940484E9E0B2
:103114000E941284EBE2E093A900E3E3E093A800A9
:103124000E942A84E0936E00E2E0E0936F00E0E006
:10313400E0937000E2E0E0937100E0937200E0E05D
:10314400E09373000895E0910A01E66C0E94E08622
:10315400E66CE0930B01E1E1E093B90EE2E2E09367
:10316400BA0EE4E4E093BB0EE8E8E093BC0E0895E5
:10317400E0917511E03059F0E3E0E093B90EECE032
:10318400E093BA0EE0E3E093BB0EE0EC53C0E091B1
:103194005B0EE17009F050C0E091BD0EE27011F0D9
:1031A400ECE001C0EFE0E093B90E0E94C03FE130D3
:1031B40051F40E949428E03011F0EFEF01C0EFE0E9
:1031C400E093BA0E03C0E0E0E093BA0E0E94C03F61
:1031D400E030D1F00E94BD3FE03091F0A091540E58
:1031E400A13051F4A091530EA13011F4EFEF01C0BE
:1031F400E1E0E093BB0E03C0ECE0E093BB0E03C040
:10320400EFE0E093BB0E03C0E0E0E093BB0EE0917F
:10321400520EE03011F4EFEF0DC0E091BF0EE0303C
:1032240011F4EFE007C0E091C10EE03011F4E1E0E9
:1032340001C0E0E0E093BC0E0895E1E0E0935F0F8D
:10324400E093610FE093600FE0E0E093650FE1E04D
:10325400E093640FE093630F08952C97A091630F9C
:103264000E94E586A091640FBB27882799270E94B6
:10327400FF9D7F936F93FF93EF93A091620F0E9442
:10328400EF86AF91BF918F919F910E94FF9D0E9405
:10329400F986A8890E94E586A989BB2788279927EA
:1032A4000E94FF9D7F936F93FF93EF93AF850E94DE
:1032B400EF86AF91BF918F919F910E94FE86AC8162
:1032C400BD81E885F985EA1BFB0BDF010E94F580CF
:1032D4000E9405870E940A870E940D870CF43EC055
:1032E4000E944E840E943085E4EAF4E0FA93EA9363
:1032F4000E9415870E9415870E941587E0915B0E36
:10330400E0740E941C870E942287E0915B0EEF7B91
:10331400E0935B0E0E944E84A0E00E94451BE5E012
:103324000E946284E989E093640FE889E093630F63
:10333400EF85E093620FED85E093600FEE85E093F7
:10334400610FEC85E0935F0FE37011F4E1E001C0DD
:10335400E0E0E093650FE5E00E9427876596089515
:10336400BA93AA93E091640F0E942B87E091630FB4
:103374000E943087E091620FA881B9811396EC9383
:10338400E091600FA881B9811196EC93E091610FEF
:103394000E943587E0915F0FA881B981EC93229652
:1033A40008952D978DE0A0E0B0E0E6E9F4E00E94F6
:1033B4000AA0E091640FEF5FE093640FE150A091E5
:1033C400640FAC3308F459C0E091630FEF5FE093EE
:1033D400630FE150A091640FECE30E94279FE093F8
:1033E400640FA091630FAC3308F447C0E091620FFF
:1033F400EF5FE093620FE150E0E0E093630FA09190
:10340400620FA831D0F1A091620FE8E10E94279FDA
:10341400E093620FE091600FEF5FE093600FE15083
:10342400E091650FE03011F0EDE1E9830090600F69
:10343400E091610FF0E0DE01AE0FBF1FEC91E015EB
:10344400E0F4E1E0E093600FE091610FEF5FE0935F
:10345400610FE150A091610FAD3078F0E1E0E093AD
:10346400610FE0915F0FEF5FE0935F0FE37011F482
:10347400E1E001C0E0E0E093650F2D960895AA9382
:10348400A881A03310F0AA3308F002C0E1E05EC0C6
:103494005CC00E943A87AA81BB810D91AA83BB8339
:1034A4001127102F00270E943F87F80119810881F6
:1034B40024960895F894FFCF2897E8850E944487BE
:1034C400A0E2B5E088E090E00E949B9E0E944A87BB
:1034D400EA850E944487A0ECB8EA80E090E00E946C
:1034E4004F87E9850E944487A0EAB5E080E090E038
:1034F4000E944F87EB850E944487ACE3B0E080E0F4
:1035040090E00E944F87EC850E9421860E94D1851D
:103514000E94538761960895AA93A881A03310F05E
:10352400AA3308F002C0E1E011C0A881A13610F06E
:10353400A73608F002C0E1E009C0A881A13410F068
:10354400A73408F002C0E1E001C0E0E0219608954C
:103554000E94A6861A931091D600A12F0E94045CA3
:1035640019910E94B4861895AA93BA93EA93FA9390
:10357400EFB7EA93A0916A11B0916B11E0916811D1
:10358400F0916911AE17BF0770F4E0916A11F091E0
:103594006B11E859F04FE081E093D600AAE6B1E15F
:1035A4000E94988402C00E940A85E991EFBFF991B4
:1035B400E991B991A9911895E0916A11F0916B1173
:1035C400309751F4E091680FE093D600E1E0F0E029
:1035D400E0936A11F0936B110895E1E03E2EA2E0AE
:1035E4000E945887E0E0FBE460E070E00E945C87A2
:1035F400A1E00E94811FE8ECF4E00E946687E0915C
:103604000101EC60E0930101E0910201E37FE093AA
:1036140002010895E4EDF4E00E946687A2E00E94AE
:10362400588733240895A0971A930A93FE0132967B
:103634008F01FE013296FA93EA93EEEDF4E0FA93E9
:10364400EA93E091620F0E941C87E091630F0E944D
:103654001C87E091640F0E941C870E946B870E9464
:10366400949F80E10E948A806496D801EC91E030B6
:1036740031F00F5F1F4FAC9149D0E030B1F71981A1
:103684000881A2960895AA93A0917511A13021F002
:10369400E091C20EE03029F0A881AF3FA9F5E0E047
:1036A400E883E881E03009F0BEDFA981BA81EC91BA
:1036B400E03039F0ED91A983BA83AE2F27D0E03002
:1036C400A1F721C0AA93A0917511A13021F0E09136
:1036D400C20EE03029F0A881AF3FB1F4E0E0E88306
:1036E400E881E03009F09FDFE981FA81E491E0307C
:1036F40051F0E981FA813196E983FA833197A491F3
:1037040005D0E03089F758DF23960895AA93A09155
:103714006811B0916911A030E2E0BE0778F4E0913D
:103724006811F0916911E859F04FA881A083A8E6C7
:10373400B1E10E949884E1E00C94ED1FEAE0E0938B
:103744006611E0E0E09367110C94ED1FE1E0E315EE
:1037540011F03E2E42DF0895AA931A930A93E1E0F2
:10376400E31551F5EA81E17021F0EEEEF4E00E94F8
:10377400668700E010E0EB81FC810E171F07A8F4B8
:103784000E944E840E943085E6EFF4E0FA93EA93B7
:10379400F801AB85BC850E94768784E00E9435855C
:1037A400A0E071DF0F5F1F4FE6CFEA81E27021F0E6
:1037B400ECEFF4E00E94668719810881279608954A
:1037C4001A930A93E0916216E03009F060C0009108
:1037D400C60E11270E944E840E943085E5E0F5E074
:1037E4000E947A870E943585A1E04DDF02E310E054
:1037F4000E944E840E943085E3E1F5E0FA93EA9357
:103804000E947F270E947E870E9468290E947E87EB
:10381400F8010E947E87E091620EF091630E0E948F
:103824007E87E091660EF091670E0E947E87E0919C
:10383400640EF091650E0E947E870E9483870E9429
:103844007E870E9488870E947E87E091D00EF09147
:10385400D10E0E947E870E948D870E947E870E94DF
:1038640092870E947E870E9497870E947E870E948B
:103874009C870E947E8784E30E94A980EA960E9426
:103884004E84A0E000DFE1E00E94A187C7C2E130DE
:1038940041F50E944E840E943085EBE6F5E0FA93F0
:1038A400EA93E091520E0E941C87E091BF0E0E94A1
:1038B4001C87E091C10E0E941C87E091C00E0E94FB
:1038C4001C87E0916A0E0E941C87E091690E0E9499
:1038D4001C870E94AE87A0E0D6DEE2E00E94A187AA
:1038E4009DC2E23009F053C00E94B38708F44EC071
:1038F4000E944E840E943085E2EBF5E0FA93EA934D
:103904000E94C03F0E941C870E9494280E941C872A
:10391400E0915C0E0E941C87E091540E0E941C876B
:10392400E091530E0E941C870E94C9870E94CE8793
:103934000E943085EBECF5E00E94D287E091760995
:10394400F09177090E947E87E0917209F0917309E2
:103954000E947E870E9422870E944E840E94CE8706
:103964000E943085ECEDF5E00E94D2870E94DB874F
:10397400A0E00E94796A0E941C870E9422870E940C
:103984004E84A0E080DEE3E00E94A18747C2E330DA
:1039940039F40E94B38718F0E4E00E94A1873EC284
:1039A400E43009F06AC00E94DF8708F465C00E9411
:1039B4004E840E943085ECEEF5E0FA93EA93E091B0
:1039C4002B13F0912C130E947E87E091B5120E9474
:1039D4001C870E94F5870E94FA87E093B5120E9423
:1039E4004E840E9430850E94FF87E091A513F091D8
:1039F400A6130E947E870E94C2840E940488E091DC
:103A0400B313F091B4130E947E87E091C113F09137
:103A1400C2130E947E87E0919D13F0919E130E9431
:103A24007E87E091F113F091F2136091F31370919A
:103A3400F4130E94949FE0910114F0910214609198
:103A44000314709104140E94949FE0911114F09156
:103A5400121460911314709114140E94949FE091B5
:103A64001D14F0911E140E947E870E940D88A0E010
:103A74000ADEE5E00E94A187D1C1E53009F052C019
:103A84000E94DF8708F44DC00E944E840E94308556
:103A94000E94FF87E091A713F091A8130E947E87EC
:103AA4000E94D2840E940488E091B513F091B61369
:103AB4000E947E87E091C313F091C4130E947E8715
:103AC400E0919F13F091A0130E947E87E091F5137B
:103AD400F091F6136091F7137091F8130E94949F7C
:103AE400E0910514F0910614609107147091081484
:103AF4000E94949FE0911514F0911614609117148C
:103B0400709118140E94949FE0911F14F091201456
:103B14000E947E870E940D88A0E0B5DDE6E00E9449
:103B2400A1877CC1E63009F062C00E94DF8708F4F7
:103B34005DC00E944E840E9430850E94FF87E09100
:103B4400A913F091AA130E947E870E94DB840E942D
:103B54000488E091B713F091B8130E947E87E09136
:103B6400C513F091C6130E947E87E091A113F091D2
:103B7400A2130E947E87E091F913F091FA136091E9
:103B8400FB137091FC130E94949FE0910914F0912F
:103B94000A1460910B1470910C140E94949FE0918C
:103BA4001914F0911A1460911B1470911C140E9442
:103BB400949FE0912114F09122140E947E870E9428
:103BC4000D880E94CE870E943085E4E3F6E0FA93E4
:103BD400EA93E091A313F091A4130E9453840E94EA
:103BE4003585A0E050DDE7E00E94128817C1E73078
:103BF40029F50E94B38708F10E944E840E94308503
:103C0400ECE3F6E0FA93EA930E9424880E94949FDE
:103C1400E0914E14F0914F1460915014709151142E
:103C24000E94949F0E942D880E94949F0E9436882F
:103C3400A1E029DDE8E20E941288F0C0E83241F4F4
:103C44000E945C180E943B88E2E3E0936216E6C09F
:103C5400E23399F40E945C18DF01CB01E091641611
:103C6400F091651660916616709167160E944488FB
:103C740018F0E0E0E0936216D1C0EC3309F040C0E4
:103C84000E94DF87E0F10E944E88309721F4E9E535
:103C9400F6E00E9466870E944E840E943085ECE51F
:103CA400F6E0FA93EA930E944E88A8EEB0E00E94F0
:103CB4005388A1E9B4E10E944E880E945A880E9468
:103CC400F587A0E0E0DCA0E6B6E10E9498840E94BB
:103CD4004D180E943B88A0916016B09161165497CC
:103CE40018F0E6E4E0936216A0916016B0916116B4
:103CF4000E94618821F4E9E5F6E00E9466878EC09F
:103D0400E63409F04FC00E944E840E943085E4E6F8
:103D1400F6E0FA93EA93E091910E0E941C87E091F9
:103D2400950EF091960E6091970E7091980E0E94E8
:103D3400949FE091920E0E941C87E091990EF0915D
:103D44009A0E60919B0E70919C0E0E94949FE0913C
:103D5400930E0E941C87E0919D0EF0919E0E60913F
:103D64009F0E7091A00E0E94949FE091940E0E9469
:103D74001C87E091A10EF091A20E6091A30E7091A8
:103D8400A40E0E94949F80E20E94A980A6960E949D
:103D94004E84A0E078DCE8E2E0936216E0E0E09391
:103DA40063163CC0E03521F50E944E840E943085A4
:103DB400E2E8F6E0FA93EA93E09163160E946788DA
:103DC400A1E9B4E1E0916316F0E00E945A880E94F0
:103DD400F587A0E058DCE0916316EF5FE09363168B
:103DE400A0916316A03218F0E8E2E093621616C0C0
:103DF400EA35A1F4E8E2E0936216E2EDF4E00E9411
:103E04006687E0E0E0934A16E0934B16ECE4F6E1B3
:103E14000E946B88EEE4F6E10E946B880C943123D7
:103E2400AA93E881E61509F4D6C06880E881E030F9
:103E3400B9F4E0ECF0E00E947088E1ECF0E00E945C
:103E44007588E2ECF0E00E947A88E4ECF0E00E94ED
:103E54007F88E5ECF0E00E948488E6ECF0E04AC05C
:103E6400E130B9F4E8ECF0E00E947088E9ECF0E0AD
:103E74000E947588EAECF0E00E947A88ECECF0E0AD
:103E84000E947F88EDECF0E00E948488EEECF0E084
:103E940031C0E230B9F4E0EDF0E00E947088E1ED69
:103EA400F0E00E947588E2EDF0E00E947A88E4ED8B
:103EB400F0E00E947F88E5EDF0E00E948488E6ED62
:103EC400F0E018C0E330D1F4E0E3F1E00E94708840
:103ED400E1E3F1E00E947588E2E3F1E00E947A8870
:103EE400E4E3F1E00E947F88E5E3F1E00E94848846
:103EF400E6E3F1E0E0937216F09373166CC0AA93B4
:103F04000E948988E0E00E948E88E0E00E94948804
:103F14007DD00E949A88E2600E948E88EC91E460D1
:103F2400EC93AC81A13041F40E949A88E0620E9433
:103F34008E88EC91E06106C0AC81A23021F40E942D
:103F44009A88E062EC93ED81E03021F00E949A8837
:103F5400E860EC93E981E03029F00E948988EC91D3
:103F6400E068EC93E881E03029F00E948988EC91C4
:103F7400E064EC93EA81E03029F00E948988EC91B6
:103F8400E061EC93EB81E03029F00E948988EC91A8
:103F9400E860EC932A9608950E948988EC91EF7E5C
:103FA400EC930E948988EC91E77FEC930E948988C6
:103FB400EC91EF77EC930895AA930E94A088E072A5
:103FC400E1F3E0917216F0917316A881A0830E9428
:103FD400A088E074E1F3219608950E943A870CEDDD
:103FE40015E00E94A68871F0AC81BD81ED91AC838F
:103FF400BD83AE2FE1DF002E012A19F001501040DD
:10400400FACFEFCF198108810C945E230E94999F07
:1040140060970E94AD880E94B288E150F0406040F1
:1040240070400E94BF88EF5FFF4F6F4F7F4F0E9429
:10403400B2880E944A870E94AD880E94C488E150D9
:10404400F040604070400E94F9860E94D188EF5F82
:10405400FF4F6F4F7F4F0E94C4880E94D6880E94F2
:10406400D9880E9453870E94049E0F01CB01DF016F
:10407400CB01BC017F936F93FF93EF930E94DE8883
:10408400DF01CB010E94DE88AF91BF918F919F9198
:104094000E94F79FC0F4E0917016F0917116FF939F
:1040A400EF930E94D988E8E00E94509EAF91BF919F
:1040B400EC93A0916E16B0916F16EC85EC930E9470
:1040C400A088ED7F17C0E0917016F0917116FF93F0
:1040D400EF930E94E788E8E00E94509EAF91BF9161
:1040E400EC93A0916E16B0916F16E885EC930E9444
:1040F400A088E260EC930C94DD231A930A930CD10C
:104104000E94EC88A1E071D10E2F0E9404890E94C4
:104114000C89A0E022D11E0FE02FEF77AE2F1DD126
:104124001E0FA0D10C943123AA931A930A93EA8107
:10413400EF701E2FEA81E295EF700E2FAAE00A9F1E
:10414400F0011E0FE12F19810881239608952B9702
:104154000E94FC9F0E94EC88A0E047D13E2FA0E083
:1041640044D12E2FA0E041D15E2FA0E03ED10E2FEE
:10417400A0E03BD14E2FA0E038D1E88BA1E035D1AF
:10418400EF8770D1032FA02FCFDFEB87022FA02F53
:10419400CBDFEA87052FA02FC7DFE987042FA02FE5
:1041A400C3DFEF830889A02FBFDFE8870F85A02F27
:1041B400BBDFEE83AB85AC3330F4AA85AC3318F4A3
:1041C400A985A83108F025C00E944E840E9430853C
:1041D400E0E9F6E0FA93EA93EF850E941C87EC8904
:1041E4000E941C87E98D0E941C87E98D0E941C8710
:1041F400EE8D0E941C87E8A10E941C870E94AE8756
:10420400A1E00E94451BFE0136960E941189E1E05F
:1042140005C0E2EBF6E00E944984E0E0E093C10EC1
:104224000E9403A0619608950E943A8784D000E01A
:10423400A0ED93D00E0FA0E00E941689A5810E94E4
:104244001C89A5810E942589A4810E941C89A481BE
:104254000E942589A3810E941C89A3810E942C8924
:1042640010E0A12F0E941689A1810E941C89A181BE
:104274000E942589A2810E941C89A2810E942C8906
:10428400AA81BB81AC91EAE00E94C69EA0E1EA9FAC
:10429400102CAA81BB81AC910E942C89E3D0198196
:1042A40008810C941A230E943689AC81A85F55D0EA
:1042B4001E0FE981E150E983EF5F49F0AA81BB81D8
:1042C400ED91AA83BB83AE2F48D01E0FF2CFCAD084
:1042D4001881C6C00E943689AC81A85F3ED01E0FEB
:1042E4000E940489A1ED39D01E0FE981E150E983D0
:1042F400EF5F79F00E943C893197FF93EF93A98196
:10430400E0E00E94889EAE2F70D0AF91BF91EC93F5
:10431400ECCFA8D01881A4C0E0910A01E8600E9403
:10432400E086E860E0930B01E0910A01E0620E94FC
:10433400E086E0620FC00E9442890E944889E062E0
:10434400E0930B010E944889EF7DE0930B010E94EA
:104354004889E77FE0930B010895AA930E944E8950
:104364000830E0E01E07E0F485E28A95F1F7EC817D
:10437400E07821F0E0910B01E06203C0E0910B01D1
:10438400EF7DE0930B01EC81EE0FEC8385E28A95DF
:10439400F1F70E9442890E9453890F5F1F4FE0CFBB
:1043A400E0910A01EF7D0E94E086E062E0930B0158
:1043B4008AE48A95F1F70E9442890E945C892E2F33
:1043C40033270E94638985E28A95F1F7E0910A0117
:1043D400E0620E94E086EF7DE0930B01022E032A47
:1043E40011F0E1E03BC0E0E039C0AA930E946C897F
:1043F400E0910A01EF7D0E94E086E062E0930B0108
:1044040010E0183078F48AE48A95F1F7220F331F0C
:104414000E9442890E945C8909F021600E9463899C
:104424001F5FEFCFE0910A01E062E0930A01EC81A3
:10443400E03021F0E0910B01E06203C0E0910B0158
:10444400EF7DE0930B018AE48A95F1F70E9442899B
:104454000E94538985E28A95F1F7F9010E9405A02B
:1044640025960895E0910B01EF7DE0930B010E94E6
:1044740042890E944889E062E0930B0188EB8A95A7
:10448400F1F70895BA93AA93E881F981309771F00E
:10449400A0E00E94B283AA81BB81EC93E881F981F8
:1044A4003197E883F9830E943C89EECFC1C0BA9367
:1044B400AA93E881F981309769F0AA81BB81AC9114
:1044C4000E94B2830E943C89E881F9813197E88394
:1044D400F983EFCFADC0E0E0ECBD0E9471892F9A63
:1044E400279A9B9AA39A0895AA93ED81E093741650
:1044F4000E947A89E09375160E948189E09376166A
:10450400E981E0937716E4E7F6E1FA93EA93EA8126
:10451400EC5FF0E0DF01CBDFCFC0BA93AA9324971E
:10452400EE81FF810E940587E52D0E940A870E9483
:10453400389E0E94D688EC81FD810E9489890E9460
:104544000E9E0E94D6880E948D89A2C01A93289834
:10455400A7ED0E94B283A0E00E94B2831E2F289A86
:10456400CEC10E94FE9F3AE00FEF0F3F11F00030E2
:1045740011F4303009F453C0A8EEB3E00E94489C13
:10458400315058D0E03009F445C0E0DF0E2F0F3F22
:1045940011F0003009F43DC010E01C30E0F4E02FCD
:1045A400ED732E2F0E949089E491E21791F40E94FA
:1045B400908931960E94779F7E2E8F2E0E9490893B
:1045C40033960E94779F9E2EAF2E0E949089359637
:1045D40054901F5FE2CF0E944E840E943085E0EC2D
:1045E400F6E0FA93EA93E72DF82D0E947E87E92DF1
:1045F400FA2D0E947E87E52D0E941C87E02F0E94E1
:104604001C87E32F0E941C870E94C987A1E00E9497
:10461400451B04C0E1EEF6E00E944984A6CF0F3F9B
:1046240011F0003011F4E0E001C0E1E00E9405A0C7
:10463400249608950E945F8689DFE07829F4D801E2
:104644000F5F1F4F989708F005C0A1E0B0E00E94EB
:10465400489CF2CFD801E8E2F0E00E948D9E0991D7
:10466400199108950E94968991F02898E2EDEA93B1
:10467400EF81F885FA93EA93AF81B8850E949C890B
:10468400A4E00E94A189FEDE289AE1E001C0E0E0F6
:10469400289608950E94968971F02898E4E8EA9390
:1046A400ED81FE810E947E87A0E00E94A189FFDE49
:1046B400289AE1E001C0E0E0269608950E949689D8
:1046C40039F02898E3E80E94AA890E94B28917C0A9
:1046D40015C00E94968939F02898E1E80E94AA89B9
:1046E4000E94B2890CC00AC00E94968939F02898A9
:1046F400E3E50E94AA890E94B28901C0E0E0229603
:1047040008950E94999F24970E94FC9F11E00E94A3
:10471400B8890E94F19E9F010E94B8890E942D9F32
:10472400AF010E94C1890E94E49F11F0103009F486
:104734003FC0E72DF82DE41BF50B0E94C6890E94AB
:10474400CB8918F46627772702C00E94C1890E948A
:10475400D089D901C9DF1E2F103051F15A934A93E1
:10476400E889F989FA93EA93AA85BB8593DF1E2326
:104774001030F1F0D901A2DF1E23EE81FF814E0F2C
:104784005F1FE72DF82DDA010E942A9FAF012F5FEA
:104794003F4FEE81FF81AE85BF85EA0FFB1FEE8799
:1047A400FF870E94D5890E94C1890E94DA89B9CF06
:1047B400E12F0E9403A0649608950E94999F229776
:1047C4000E94FC9F11E00E94E1890E94F19EAF01CA
:1047D4000E94E1890E942D9FEE83FF830E94D1886D
:1047E4000E94E49F11F0103009F43BC0AE81BF81F8
:1047F400E72DF82DEA1BFB0B0E94E7880E94CB896A
:1048040010F0E885F9859F015A934A930E94EA893A
:10481400E889F989FA93EA93D90124DF1E2FF90173
:10482400AE81BF810E94EF89E72DF82DAE81BF8153
:104834000E942A9FEE83FF834F5F5F4FF901AC858F
:10484400BD85EA0FFB1FEC87FD87F9010E94E7880D
:10485400662777270E94099EA887B9878A879B873E
:10486400BDCFE12F0E9403A0629608950E94F489AF
:104874000895FCDF30DE75DE08950E94FF8914314F
:1048840048F4A8EBB0E00E94048AD0010E94D39FB0
:104894001F5FF5CF39C40E94FF89143178F40E9458
:1048A4000C8A31F0A0EEB0E00E94048AD00102C06C
:1048B4000E94168A0E94D39F1F5FEFCFA3EFB0E040
:1048C400E0E00E94D39F20C41A9310E0143140F416
:1048D4000E941C8A0E94168A0E9451861F5FF6CF8E
:1048E4000CC01A9310E0143140F40E941C8A0E94F8
:1048F400228A0E9451861F5FF6CFEFEDFEE01991E8
:1049040008950E94FF89143178F40E940C8A31F0D2
:10491400ACECB0E00E94048AD00102C00E94228A5A
:104924000E94D39F1F5FEFCFAFEDB0E0E0E00E94A5
:10493400D39FEAC3E6EDF8E0FA93EA93A1E00E947C
:10494400451B0E94288A0E942D8AE0EDF8E1FA9323
:10495400EA93A1EDB8E1C9D40E94DB870E94288ABA
:104964000E94328A0E94388A0E94328A08950E94E4
:10497400FE9F23E07EDFE093BF0E203009F450C099
:104984000E94DB870E94288A0E943F8A0E942D8A07
:10499400EDB7FEB7FA93EA933F93ADB7BEB70F9363
:1049A400A4D40F913F91A091D0183A1721F4A0916B
:1049B400D1180A1709F005C0E2E0F7E00E94668703
:1049C4002FC0EAE1F7E00E9466870E94388A0E94BD
:1049D4003F8A0E942D8AEDB7FEB7FA93EA933F937C
:1049E400ADB7BEB70F9381D40F913F91A091D0186A
:1049F4003A1721F4A091D1180A1709F006C0EAE386
:104A0400F7E00E94668796DF0BC0E3E5F7E00E94BB
:104A140066872150A8EEB3E00E94489C2ADFADCF00
:104A2400203009F470D010E0133008F50E944E8451
:104A34000E943085E4E7F7E0FA93EA93A8E8B6E148
:104A4400E12FF0E00E945C9EEA0FFB1F0E947E872C
:104A5400A2E8B6E10E94468A0E945E9F0E947E8779
:104A64000E94F587A0E00E94451B1F5FDDCFA4EBE9
:104A7400B0E0EEE1F0E00E94CB9FA2EBB0E0E9E110
:104A8400F0E00E94CB9FA6EBB0E0E5E8F5E00E94E1
:104A9400CB9FAEE3B1E0E0E0F0E00E94CB9FA4EF57
:104AA400B0E00E94D39FA5EFB0E00E94D39FADEF8A
:104AB400B0E00E94D39F0E944E84A2EEB8E00E9410
:104AC400C38210E01431E8F4AEE9B0E0EE27A10FA0
:104AD400BE1FE12FF0E0E152F14FE0810E94D39F2D
:104AE4000E94228A0E94D39F0E94168A0E94D39F0A
:104AF400A8EBB0E0EE27A10FBE1F0E94D39F1F5F5B
:104B0400E1CF7AD3DFC31A93A0E1B0E00E94B39F50
:104B1400E0937C16F0937D16E3E0F0E0E0937E16DC
:104B2400F0937F16E4E2F7E1FA93EA93AFEEB8E08C
:104B34000E94C382EDE8F7E00E944984E0E0F0E1DE
:104B4400E0938216F0938316E4E8F6E1A0E0B0E186
:104B5400A083B183E6E8F6E1A083B183E8E8F6E157
:104B64000E944D8AE8E9F6E10E944D8AE8EAF6E1FE
:104B74000E944D8A10E01330A8F4A4EFB6E1E12FAF
:104B84000E94538AE60FF71FFA93EA93A8EAB7E064
:104B94000E94D082AEE1B7E10E94468A0E945A8AFE
:104BA4001F5FE9CFE3E0F0E0E0935618F093571865
:104BB400E0E0F0E0E093BA16F093BB16EEE1F0E02B
:104BC400E0935818F0935918E8E5F2E0E0935C1884
:104BD400F0935D18ECE3F0E0E0935A18F0935B185F
:104BE400EEE1F0E0E0935E18F0935F18E1E0F0E0AE
:104BF400E093B816F093B916ECE2F1E0E093801676
:104C0400F0938116E5E0F0E0E093BC16F093BD1656
:104C1400E1E0F0E0E093BE16F093BF16E0EDF7E0BC
:104C2400E093C016F093C11610E0143020F5A0E80C
:104C3400B8E10E94468A0E945A8AA8E8B8E10E9414
:104C4400468AEAE0F0E0ED93FC93A0E9B8E10E9423
:104C54005F8AA8E9B8E10E945F8AA0EAB8E10E94ED
:104C6400468A0E945A8AA8EAB8E10E94468A0E94AB
:104C74005A8A1F5FDACFE6E6F8E1FA93EA93A3EBE8
:104C8400B7E00E94D08210E0143050F5A0EBB8E1F8
:104C94000E94468AE0E9F1E00E94648AE4E6F0E0DA
:104CA400ED93FC93A0E4B7E10E94468AE0EDF7E0BF
:104CB400ED93FC93E0E3F5E7E0935017F09351177D
:104CC400A8E4B7E10E94468AE8EBFBE0ED93FC938D
:104CD400E8E8F3E1E0935217F09353171F5FD4CF42
:104CE400E8ECF0E0E0935417F0935517ECE2F1E0B0
:104CF400E0935617F093571714E0173070F4A0EBB5
:104D0400B8E10E94468AE6E0FFE00E94648AE4E695
:104D1400F0E0ED93FC931F5FF0CF10E0133090F4BC
:104D2400A8E3B7E10E94468AE8EDF9E5ED93FC9328
:104D3400A0E3B7E10E94468AE8E9FAE3ED93FC9325
:104D44001F5FECCFE0EDF7E00E94698AE0EDF7E049
:104D5400E0933617F0933717E1E0F0E0E093CA16DA
:104D6400F093CB16E8E0F0E0E093CC16F093CD1688
:104D7400E1E0F0E0E093CE16F093CF16E0E0F0E04F
:104D8400E093D016F093D116E0E0FBE460E070E02D
:104D9400E093D216F093D3166093D4167093D5167D
:104DA400EEEEF2E0E093D616F093D716E8EDF6E1D6
:104DB4000E946E8AEAEDF6E1A8E0B0E0A083B18338
:104DC400ECEDF6E10E946E8AEEEDF6E1A2E0B0E0D1
:104DD400A083B183E0EEF6E10E94738AE4EEF6E18B
:104DE400AEEEB2E0A083B183E6EEF6E10E946E8AF5
:104DF400E8EEF6E1A8E0B0E0A083B183EAEEF6E1E4
:104E04000E946E8AECEEF6E10E946B88EEEEF6E10B
:104E14000E94738AE2EFF6E1AEEEB2E0A083B183C2
:104E2400E1E0F0E0E0932E17F0932F17E8E8F3E1C8
:104E3400E0936017F0936117E2E6F7E10E947A8A43
:104E4400E2E7F7E10E947A8AE2E8F7E10E947A8ACF
:104E5400E5EEFEE2E0939217F0939317E4E9F7E1AD
:104E6400A5EEBEE2A083B183E6E9F7E1A083B183B6
:104E7400E1E0F0E0E0939817F0939917E0EEF0E0AA
:104E8400E093C216F093C31655DD0C94492AAA93F5
:104E9400A2E8B6E10E94808A60C2AA93A881A330E6
:104EA40048F4A8E8B6E1E881F0E00E945C9EEA0FCD
:104EB400FB1F53C2E0E0F0E050C2E0915818F091BB
:104EC40059180895E0915A18F0915B180895E091EB
:104ED4005E18F0915F180895E091BA16F091BB1630
:104EE4000895E091B816F091B91608950E94898A40
:104EF400E0937C16F0937D16F6C1E0917C16F09158
:104F04007D160895E0915618F09157180895E09190
:104F14008016F09181160895ECE7F6E10895E6E530
:104F2400F2E008950E948E8A0E94938A16C20E941B
:104F34008E8A0E945686EC9110C20E948E8A0E942C
:104F4400988AEC910AC20E948E8ADB01AE0FBF1FC1
:104F540018960E945E9F01C2AA93A0E8B8E10E943D
:104F6400808AFBC1E8EA08950E94FE9F2AE930E0A6
:104F740010E0103848F40E941C8AD9012F5F3F4F7B
:104F84000E9451861F5FF5CFEFEDFEE09BC10E94AA
:104F94008E8ADB01AE0FBF1F1C960E945E9FDDC18F
:104FA400A6EBB0E095C1BA93AA93A8E8B8E10E9431
:104FB4009D8A99C1BA93AA93A0E9B8E10E949D8AF7
:104FC40092C1BA93AA93A8E9B8E10E949D8A8BC1C1
:104FD400BA93AA93A8EAB8E10E949D8A84C11A935D
:104FE40010E0153058F40E941C8AADEFB0E0EE27B3
:104FF400A10FBE1F0E9451861F5FF3CFEFEDFEE0AD
:105004000C94492A1A9310E0183058F40E941C8A10
:10501400A5EFB0E0EE27A10FBE1F0E9451861F5FCF
:10502400F3CFEFEDFEE00C94492A0E94FF8915307E
:1050340090F40E94A68A31F0ADEFB0E00E94048A99
:10504400D00105C0ADEFB0E0EE27A10FBE1F0E9456
:10505400D39F1F5FECCFA1E0B1E0E0E00E94D39FBB
:1050640053C00E94FF89183090F40E94A68A31F040
:10507400A5EFB0E00E94048AD00105C0A5EFB0E01E
:10508400EE27A10FBE1F0E94D39F1F5FECCFACEF92
:10509400B0E0E0E00E94D39F37C0AA93A4EFB0E051
:1050A400E8810E94D39F59C1BA93AA931A9310E03E
:1050B400A981BA81AC91A03061F0A981BA81AC9187
:1050C400AA3039F0A981BA81AC91AD3011F0133115
:1050D40008F00FC0A6E1B1E0E12F0E94B08AA981D7
:1050E400BA81ED91A983BA83D0010E94D39F1F5F37
:1050F400DFCF153148F4A6E1B1E0EE27A10FBE1FC2
:105104000E94D39F1F5FF5CF188123960895A4EBC7
:10511400B0E0DEC0A2EBB0E0DBC00E94B58AE0786C
:10512400F0700895AEE3B1E00E94B79F0895AA938A
:10513400AEE3B1E0E881F0E00E94CB9F0EC1AA93F8
:10514400A0EBB8E10E94808A08C1AA93A0ECB8E160
:105154000E94808A02C1AA93A0E3B7E10E94808AD8
:10516400FCC0AA93A8E3B7E10E94808AF6C0E0914C
:105174003617F09137170895E0913E17F0913F17D5
:105184000895AA93E881E03029F0A8E4B7E10E94E9
:10519400BA8AA9C0A0E4B7E10E94BA8AA4C0E09187
:1051A4005017F09151170895E0915217F091531749
:1051B4000895E0915417F09155170895E09156170A
:1051C400F091571708950E94B58AE07439F00E944F
:1051D400B58AE063E093C216F093C3160E94B58AC1
:1051E400E073F0700E94659E08950E94B58AE47091
:1051F400F0700E94699E08950E946C8900E010E09E
:105204000330E0E01E075CF50E94C38AA0913E17BC
:10521400B0913F17EA17FB0740F40E94C38A0E942B
:10522400CD8A0E94698A21E030E00E94D38A0E94DC
:10523400DF8AA0913617B0913717EA17FB0760F49D
:105244000E94D38AAE1BBF0BE5E0F0E00E94D99E1A
:105254000E94698A21E030E00F5F1F4FD1CF00E048
:1052640010E00430E0E01E074CF50E94E48AA091AF
:105274005417B0915517EA17FB0750F40E94E48ABB
:105284000E94CD8AE0935417F093551721E030E043
:105294000E94EE8AA0915617B0915717EA17FB07A0
:1052A40050F40E94EE8A0E94CD8AE0935617F09340
:1052B400571721E030E00F5F1F4FD3CF022E032A90
:1052C40009F038DB0E9405A024960895A0E4B1E01B
:1052D4000E94B39F0895BA93AA93A0E4B1E0E88131
:1052E400F9810E94CB9F229608950E94F88A1FEFAD
:1052F4000FEFA885B9851197A887B98711960E94E1
:10530400E89F98F4AA85BB85ED91AA87BB87E1271E
:105314003E2FF0E0E059FE4FE491E0271E2FE32FEB
:10532400F0E0E059FD4F0491E4CFAE81BF811C93BE
:10533400AC81BD810C930E9405A02C960895AA937C
:10534400ECB5E03021F40E94F4890E9471892F9A0F
:10535400279A9B9AA39AA88102D021960895AA938A
:105364000E94FE9F0AE01FEF2F98A1E00E94B283E3
:10537400AC810E94B283A2E0B0E00E94489C2F9AC4
:10538400EC81E31711F0003009F416C0AAE0B0E094
:105394000E94489C01502F98A5E00E94B283AFEF71
:1053A4000E94B2833E2FA2E0B0E00E94489C2F9A54
:1053B400E1E0E093C00EE4CF3F3F21F4E0E0E0936E
:1053C400C00E01C0E1E00E9405A025960895AA93AD
:1053D4002497AF81B885ED81FE81EA1BFB0BDF01C9
:1053E4000E94F580E93CA0E0FA0718F0EF81F88507
:1053F4002AC0ED81FE810E940587EF81F8850E9415
:1054040089890E94099E0E948A9FEC810E940A87D2
:10541400FF27662777270E94C19E0E94D6880E9494
:105424000A87E4E6F0E060E070E00E94169F0E94C4
:10543400D688EF81F8850E9489890E94FF9D0E9489
:10544400D688E881F981299608951A93E0E0E093DB
:105454007A00E0937B00E0937C00A4E6B0E00E9435
:10546400489CE0ECE0937C00E0E0E0937B00EBE818
:10547400E0937A00E0917A00E064E0937A00E0E05F
:10548400E093B812E0939111E0B3E06FE0BB19919F
:1054940008950A921A926A937A939A93AA93BA9362
:1054A400EA93FA93EFB7EA932797E2E0E883E1E01F
:1054B400E983E4E0EA83E3E0EB83E5E0EC83E6E020
:1054C400ED83E7E0EE830E94FE9F30E0E0917A00F6
:1054D400E061E0937A00E0910101E063E09301016F
:1054E400E1B3A0E4EA27E1BBE091B812E03009F1AE
:1054F400E091B612E03099F4E0E0E093B812E09164
:10550400D218A9E8B1E10E94FD8AE091D218EF5FB8
:10551400E093D218E370E093D21830E009C0E0E0E1
:10552400E093B612E091D218E06CE0937C0031E095
:1055340068C0E091B612E03009F04EC0A2E9B1E1D2
:10554400E091B712F0E00E94098BAE0FBF1FE0910B
:10555400B4120E94FD8AE091B712EF5FE093B71294
:10556400E150A091B712E7E00E94279FE093B712A1
:10557400EFEDE0937C000E94D686E1E0E093B61262
:10558400E091B712E03011F031E025C0ACEAB2E1AD
:105594000E947184E091B412EF5FE093B412E15081
:1055A400A091B412A43198F0E0E0E093B412A0EB1F
:1055B400B2E10E947184E1E0E0939111E093B812AA
:1055C4000E94D68631E0E0E0E093B91204C0E0E046
:1055D400E093B81230E015C0009178001091790082
:1055E400E091B7120E94108BEC91E06CE0937C0088
:1055F400E0917B00E860E0937B0031E0E0E0E09341
:10560400B612303021F0E0917A00E06403C0E091FA
:105614007A00EF7BE0937A000E9405A02B96E99133
:10562400EFBFF991E991B991A99199917991699112
:1056340019900990189524971A930A930091891147
:1056440010918A11E091C70EE03061F4A091D31853
:10565400B091D418A01BB10B0E94F580E93BABE0DC
:10566400FA0728F00093D3181093D4180EC01A9395
:105674000A93E091D318F091D418FA93EA93ABE427
:10568400A6DEE093D318F093D418A091D318B09168
:10569400D4180E94168B0E942F8BE093620EF09315
:1056A400630EEA81FB81E093E312F093E4120E941B
:1056B400448BAC34EDE1BE07E0E08E07E0E09E07EA
:1056C400D4F4E091680EE030A9F0E0E0E093680ED5
:1056D4000E944E840E943085EEECF7E00E94498BD4
:1056E4000E94508B21F0E6E00E94668403C0E6E04D
:1056F4000E94278723C00E94448BA134EFE1BE0798
:10570400E0E08E07E0E09E07CCF0A091680EA130A7
:10571400A9F0E1E0E093680E0E944E840E94308577
:10572400E6EEF7E00E94498B0E94508B21F0E6E000
:105734000E94578B03C0E6E00E94628483C01A93E0
:105744000A9300918B1110918C11E091C70EE030F7
:1057540029F00093D5181093D6180EC01A930A9303
:10576400E091D518F091D618FA93EA93AAE52FDEC2
:10577400E093D518F093D618A091D518B091D61807
:10578400E9E10E94BB9E0E94CD8AE093600EF093F3
:10579400610EA091600EB091610EA935E2E0BE07E2
:1057A40040F00E948387E855F240E093600EF09346
:1057B400610E0E948387E093E912F093EA12099143
:1057C4001991089524971A930A9300918D111091B9
:1057D4008E11E091C70EE03029F00093D718109392
:1057E400D8180EC01A930A93E091D718F091D818DC
:1057F400FA93EA93AAE5EBDDE093D718F093D8186F
:10580400A091D718B091D8180E94168BACE2B0E0E2
:1058140080E090E00E94C19E0E949E840E94448B7E
:10582400E6E1F0E060E070E00E94169F0E949E8432
:10583400EA81FB81E093640EF093650EE093E51238
:10584400F093E6121981088126960895AA93249765
:105854001A930A9300918F11109190111A930A933D
:10586400E091D918F091DA18FA93EA93AFE5AFDD35
:10587400E093D918F093DA18A091D918B091DA18F6
:105884000E94168B0E942F8BE093660EF093670E96
:10589400EA81FB81E093E712F093E812EE81E030B5
:1058A40019F0E1E0E093E018E091DF18E03009F04E
:1058B40083C0E091E018E03081F0E091680EE030C0
:1058C40061F0A0916C0EA03041F4A0916A0EA0305A
:1058D40021F0A0916A0EA43009F419C0E1E0E0932C
:1058E400DF18E0E0E093E0180E945C18E093DB1816
:1058F400F093DC186093DD187093DE18E1E0E09318
:105904006C0E95D7E0E0F8E00E94498403C0E2E021
:10591400E093DF18E091680EE03009F44CC00E9477
:105924005B8BA439E1E1BE0720F4E091690EE0301D
:1059340009F414C00E943985E091CA0EF091CB0E8F
:105944006091CC0E7091CD0E0E94608B30F0E0E03F
:10595400E093690EE7E00E9462842DC0E091690E35
:10596400E03051F00E945C18E093CA0EF093CB0E25
:105974006093CC0E7093CD0E0E94448BA338E4E167
:10598400BE07E0E08E07E0E09E0724F0A091690ED8
:10599400A03009F010C0E1E0E093690EE7E00E9456
:1059A40027870E945C18E0936D0EF0936E0E60934F
:1059B4006F0E7093700EC3C0E13049F40E94638B84
:1059C4000E94448818F0E2E0E093DF18B8C0E230A7
:1059D40009F07DC0E0E0E093DF180E94448BA03D15
:1059E400E7E0BE07E0E08E07E0E09E0794F4E09174
:1059F4006A0EE03069F0E0E0E0936A0EE3E1F8E07B
:105A04000E944984EAE00E942787E8E00E946284B9
:105A140059C00E94448BA63AEEE0BE07E0E08E0730
:105A2400E0E09E0794F4A0916A0EA33069F0E3E0ED
:105A3400E0936A0EEEE2F8E00E944984EAE00E94F4
:105A44002787E8E00E9462843DC00E94448BA83806
:105A5400E3E1BE07E0E08E07E0E09E07ACF4A0912E
:105A64006A0EA23081F0E2E0E0936A0E0E944E8456
:105A74000E943085E8E4F8E00E94498B0E94708B14
:105A8400E8E00E9462841EC00E94448BAD37E5E1C9
:105A9400BE07E0E08E07E0E09E07A4F0A0916A0E46
:105AA400A13081F0E1E0E0936A0E0E944E840E94EE
:105AB4003085E7E6F8E00E94498B0E94708BE8E0AD
:105AC4000E942787E0E0E0936C0EB1D635C0EA303F
